:4000000000800020110000000D0B00000D0B000008B5044B1A6803F53F5302331A6000F095FD00BFFA46004010B5054C237833B9044B13B10448AFF300800123237010BDB5
:400040004881FF1F00000000B0270000084B10B51BB108490848AFF300800848036803B910BD074B002BFBD0BDE81040184700BF000000004C81FF1FB0270000C880FF1F54
:40008000000000002DE9F04786B062B601F018F900F08EFF01F04CFC00F0E4FA0A2001F093F8BB4801F044F9BA4B186804909B88ADF81430062204A9012000F009FB00F049
:4000C00035FB062202A9012000F0F0FABDF90820BDF90A30BDF90C10AF4C0091AF49204601F042FF204601F023F9AD4801F020F90F2000F0DBF90246AA49204601F034FF1C
:40010000204601F015F92721202000F0E5F9202000F0CCF90246A449204601F025FF204601F006F90021232000F0D6F9232000F0BDF902469D49204601F016FF204601F00C
:40014000F7F84021242000F0C7F9242000F0AEF902469749204601F007FF204601F0E8F800212E2000F0B8F92E2000F09FF9914D02462946204601F0F7FE204601F0D8F8B6
:4001800047212E2000F0A8F92E2000F08FF902462946204601F0E8FE204601F0C9F84421222000F099F9222000F080F902468249204601F0D9FE204601F0BAF82A2130206D
:4001C00000F08AF9302000F071F902467B49204601F0CAFE204601F0ABF85C21322000F07BF9322000F062F902467549204601F0BBFE204601F09CF80321332000F06CF920
:40020000332000F053F902466E49204601F0ACFE204601F08DF800F02BFD01F0EDF901F05DF80025684B1D70684800F0A1FF684801F06AFC674801F029FD674801F034FEDA
:4002400001F004FE2F462E465F4B1B78DBB2012BFAD1312000F02AF910F0400F09D04E4C02465E49204601F07FFE204601F060F883E0494C5A4B07CB20606160A2601B7804
:400280002373204601F054F84FF000081CE0554C06222146282000F033F92378627843EA022305EBA3152DB2A378E27843EA022306EBA31636B22379627943EA022307EBCC
:4002C000A3131FB208F10108B8F1060FDFDD464B83FB05122A44ED17C5EBA2052DB283FB06123244F617C6EBA20636B283FB0723DA19FB17C3EBA2031FB2E90009B2F2006C
:4003000012B2FB001BB2C1EB0121384880FB01E4C917C1EB2424002CB8BF6442E4B2C2EB022280FB0218D217C2EB2828B8F1000FB8BFC8F100085FFA88F8C3EB032380FB6C
:400340000329DB17C3EB2929B9F1000FB8BFC9F100095FFA89F9DFF840A0CDF80090434622462349504601F0FFFD504600F0E0FF4A464146204600F081F90021124B197052
:400380002E2000F0A9F847212E2000F0A5F85BE7BC270000B42700008481FF1FE4270000042800002C28000054280000782800009C280000C0280000E82800000C29000060
:4003C000342900005C290000E881FF1F2105000035050000090600001D06000084290000942900007C81FF1F93244992D34D6210A42900002DE9F04383B006460C46174615
:400400009846002000F082FE64B2002511E02146082CA8BF0821C9B206EBC50000F050FD00F040FC10F0010FFAD0083C64B201356DB2002CEBDC00F053FD00F0F7FC002698
:40044000009601964FFA88F820E0C146B8F1080FA8BF4FF008095FFA89F1684600F030FD00F020FC10F0010FFAD0002406E004EBC60500F0A9FC78550134E4B24C45F6DB31
:40048000A8F108084FFA88F8013676B2B8F1000FDBDC012000F03AFE00F022FD00F0C6FC00F0E4FC03B0BDE8F08300BF00B583B000F03F0060F07F008DF8040002AA00235A
:4004C00002F8053D0123194601A8FFF793FF9DF8030003B05DF804FB00B583B000F03F008DF804008DF80510002302AA02F8053D022101A8FFF77EFF03B05DF804FB00BF23
:4005000000B583B040F0C00302A800F8043D13460A460121FFF76EFF03B05DF804FB00BF08B50122024B1A7000F0FCFD08BD00BFE881FF1F08B501F01DFB01F011FCFF207B
:4005400001F0D2FB01F0BEFA0028FBD001F016FC2B4B1870A52817D82A4B1B781BB90122284B1A7008BD012B48D1264B00221A705B781BB9104601F0D5FA08BD012B3DD185
:40058000012001F0CFFA08BDA52837D91D4B1B78A3BB1C4B9B78012B07D013B1022B28D02AE00122174B9A7026E0164B5B786BB90120144B587001F0B5FA00F081FE00F0C1
:4005C000F7FC01F0B5F900F04DF80EE0012B0CD100200C4B587001F0A5FA00F049FB01F00BF800F07BFE00F043F80022054B9A7002E00122034B9A7001F01AFB08BD00BF4F
:40060000E981FF1F6481FF1F08B50222024B9A7001F0CAFA08BD00BF6481FF1F08B501F0D1FB064B1B78012B06D101F087FAB0FA80F0400901F076FA08BD00BF6481FF1F9D
:4006400008B5C043C0B200F0BDFE08BD08B5C043C0B200F0BDFE08BD08B5C043C0B200F02FFF08BD08B500F001FF00F075FF08BD08B500F093FE00F00FFF08BD38B50D460A
:400680001446FFF7DDFF2846FFF7E0FF2046FFF7E3FF38BD08B5052000F066F808BD00BF08B5062000F04AF808BD00BF10B582B003248DF80440030A8DF805308DF8060012
:4006C00013460A46214601A800F068F802B010BD2DE9F04182B000AF054688461446FFF7DFFF012000F086FDE61C04F10A0323F00703ADEB030D02238DF800302B0A8DF812
:4007000001308DF80250224641460DF1030001F017FC002307F1080202F8013DF1B2684600F03CF80837BD46BDE8F08108B5FFF7B1FF10F0010FFAD108BD00BF10B50446C2
:40074000002000F017FF204600F096FF00F06CFF10F0080FFAD000F0F9FF0446012000F009FF204610BD00BF10B50446002000F001FF204600F080FF002000F07DFF00F07F
:4007800053FF10F0010FFAD000F0E0FF00F0DEFF0446012000F0EEFE204610BD2DE9F04383B006460C4617469846002000F0E2FE64B2002511E02146082CA8BF0821C9B2E0
:4007C00006EBC50001F03EF800F02EFF10F0010FFAD0083C64B201356DB2002CEBDC01F041F800F0E5FF0026009601964FFA88F820E0C146B8F1080FA8BF4FF008095FFA92
:4008000089F1684601F01EF800F00EFF10F0010FFAD0002406E004EBC60500F097FF78550134E4B24C45F6DBA8F108084FFA88F8013676B2B8F1000FDBDC012000F09AFE85
:4008400001F010F800F0B4FF00F0D2FF03B0BDE8F08300BFFEE700BFF0B40022174611E050F82760F3B226F0FF0608E001EB420511F812406D78A5550132013BDBB2002BCE
:40088000F4D10137262FEBD9F0BC7047064B1B78DBB203F00701054A11701B09013213704422034B1A707047CF0100496E5800407658004008B50A46002101F04CFB08BD5C
:4008C00038B50B22364B1A80182336490B7002310A80354A13703321023211800232137040F2AF41023211800232137043F697222E4B1A80192502331D7047F22F532C4A2B
:40090000138002321570023213802A4B1D704EF65F2202331A8002331D70022203F262231A7008224FF040231A70032103F500731970214B1B78DBB220490B70204B1A8041
:4009400041F25122023B1A8000240CE01D4B1B7803F0010343EA440404F003044FF4F07001F0B2FA013D0DB1032CEFD115B90320FFF770FF144B4FF480721A8007221A7026
:40098000002212490A704820023108701A700222033B1A7003F2A1331A78FF221A7038BD80400040824000408640004090400040944000409A40004008010049A1460040FD
:4009C0002242004025420040044000400640004008B501F0B5FA08BD38B572B6384A137843F00403137000240CE0364D630019194A0011462A44084691882858FFF75AFF34
:400A00000134E4B2092CF0D900240CE02D48A20011194B000344B3F84420196CD86BFFF7D7FF0134E4B2022CF0D927494FF09040FFF712FF254A137843F002031370103228
:400A4000137843F002031370214C237843F040032370A2F58632513A137843F01003137008221C491C48FFF7B3FF0A221B491C48FFF7AEFF0A221B491B48FFF7A9FF0A2202
:400A80001A491B48FFF7A4FF08221A491A48FFF79FFF1A4A137843F008031370184D61232B70FFF70DFF81232B700122154B1A70FFF7ECFE0E2221461348FFF789FF38BD8D
:400AC000E8460040D82900009C00004803500140A04300405C0A004802510040640A0048C0510040700A0048105100407C0A004820510040880A0048325100402243004080
:400B00000048004004000840B043004008B501F0EBF903680C2B00D1FEE7FEE708B5094B1A681044084BC31A802B02DC054B186005E001F0D9F90C2303604FF0FF32104677
:400B400008BD00BFCC80FF1F2882FF1F08B5104E104D16E029686B68AC68002204E051F8040B43F8040B0432A242F8D1E868002203E0002143F8041B04328242F9D1103575
:400B8000013E002EE6D101F0B5F9FFF77BFAFEE7010000008C2A000008B5104A104B1A60104A136843F40073136000230AE0032B03D80D4A52F8231000E00C490C4A42F8DE
:400BC000231001332F2BF2D90A4B1A780A4B1A70074A0A4B1A60FFF7FFFE08BD0004FA050CED00E014ED00E0000000000D0B00000080FF1FBC760040C080FF1F08ED00E0B3
:400C00000222014B1A60704700E100E00122014B1A60704700E100E008B501F05DF90D4A137843F020031370A2F58272137843F01003137002F20512137843F010031370F4
:400C400001F04EF900F0A2FAFFF7DAFFFFF7DEFF08BD00BF976500400222014B1A60704780E100E00122014B1A60704780E100E008B501F031F90A4A137803F0EF0313706C
:400C800002F20512137803F0EF03137001F028F900F08AFAFFF7E0FFFFF7E4FF08BD00BF9364004010B5FFF7D7FF064B1C78064A137803F009031C4300231370FFF7A0FF5D
:400CC000204610BD63640040EC81FF1F10B5FFF7C9FF064B1B78064A147804F040041C4300231370FFF792FF204610BD68650040FD81FF1F10B504462B4B1A7802F0FF0341
:400D000012B1013BDBB200E00723284A1278D2B29342F1D0FFF7A0FF254B1978254A137803F009030B4313701F4B1A78D2B21F4B1B78DBB29A4207D11E4B1B7813F0040FD7
:400D400002D01D4B1C702CE0184A13780133DBB213701378DBB2072B02D90022134B1A70124B1A78D2B2104B1B78DBB29A420ED10D4A13780133DBB213701378DBB2072B28
:400D800002D90022084B1A7001220C4B1A70074B1B78DBB20A4AD4540A4A137843F004031370FFF72DFF10BDFE81FF1FFC81FF1F63640040EC81FF1F48650040F881FF1F8E
:400DC000F081FF1F8364004010B5FFF74BFF134B1A78D2B2124B1B78DBB29A4214D0114B1B7813F0FF0F0CD10C4A13780133DBB213701378DBB2072B06D90022074B1A705E
:400E000002E00022074B1A70044B1B78DBB2064AD45CE4B2FFF7FAFE204610BDFB81FF1FF981FF1FFA81FF1F0082FF1F08B501E0094B1B78094B1B7813F0200FF8D1FFF764
:400E400011FF0023064A1370064A1370064A1370FFF7DCFE08BD00BF5865004068650040FA81FF1FFB81FF1FF981FF1F08B501F033F80E4B1A7842F001021A701A7802F096
:400E8000FE021A7001F02CF8FFF7E6FE0023084A1370084A1370084A1370084A137803F0FB031370FFF7ACFE08BD00BF98650040F881FF1FFE81FF1FFC81FF1F836400406F
:400EC00070B506460C46002506E0705DFFF712FF0135EDB2013CE4B2002CF6D170BD00BF08B501E00A4B1B780A4B1B7813F0200FF8D100F0F1FF084B1A7842F001021A70DC
:400F00001A7802F0FE021A7000F0EAFF08BD00BF58650040686500409865004010B50F22184B1A70184C022323600721012000F07FF91649012000F067F9012323600721C0
:400F4000002000F075F91249002000F05DF9FFF7C7FF00240F4B1C700F4B1C700F4B1C700F4B1C700F4B1C700F4B1C70FFF79AFEFFF7ACFE0D4B1C70202203F205131A7003
:400F800010BD00BF8765004080E100E0CD0F00006D100000FA81FF1FFB81FF1FF981FF1FF881FF1FFE81FF1FFC81FF1F8364004008B5054B1B7823B9FFF7B0FF0122024B8D
:400FC0001A70FFF729FE08BD6781FF1F28E01F4B19781F4A137803F009030B431370137813F0040F24D01B4B1B7813F0FF0F0CD1194A13780133DBB213701378DBB2072BC0
:4010000006D90022144B1A7002E00022114B1A70114B1B78DBB2114AD35CDBB2104A13700D4B1A78D2B20F4B1B78DBB29A42CED1094B1A78D2B20B4B1B78DBB29A4204D178
:40104000094A137803F0FB031370704763640040EC81FF1FF881FF1FFE81FF1FF081FF1F48650040FC81FF1F83640040204B1A7820490B7803F0400313430B7032E01E4BF8
:401080001A78D2B21D490B780133DBB20B700B78DBB2072B02D90021184B1970174B1978C9B2174B1B78DBB299420ED114490B780133DBB20B700B78DBB2072B02D90021C7
:4010C0000F4B197001210F4B19700C4B1B78DBB20D49CA54064B1A7806490B7803F0400313430B70034B1B7813F0200FC7D1704768650040FD81FF1F58650040F981FF1FC1
:40110000FB81FF1FFA81FF1F0082FF1F044A137803F07F03C001C0B218431070704700BF10510040024B1878C0F30010704700BF8C450040014B1B68D866704708ED00E0A9
:401140004001C0B2014B1870704700BF0BE400E04FF40062014B1A60704700BF00E100E04FF40062014B1A60704700BF80E100E010B50446FFF7F4FF2046FFF7DBFF07208A
:40118000FFF7DEFFFFF7E4FF10BD00BF054A137843F0010313701032137843F001031370704700BFA2430040054A137803F0FE0313701032137803F0FE031370704700BF36
:4011C000A243004001BE704710B5044605E0084B186800F079FEA4F50044B4F5004FF6D8034B586800FB04F000F06EFE10BD00BFD080FF1F08B5034B1B7A00FB03F000F0B2
:4012000063FE08BDD080FF1F70B504460E46074B1D681F2802D90020FFF7D4FF04F01F04103455F8240045F8246070BD08ED00E038B504460D46072902D90020FFF7C2FF7A
:401240001F2C02D90020FFF7BDFF04F01F0000F1604000F564406D01EDB2057038BD00BF7222084B1A702022A3F580731A700622603B1A70472210331A70002251331A7088
:40128000704700BF8465004010B500F025FE04460A4A137843F020031370A2F58072137843F0100313700132137843F01003137000F050F8204600F013FE10BD94650040AC
:4012C00008B5054B1B7823B9FFF7CAFF0122024B1A70FFF7D9FF08BD6881FF1F10B500F0FBFD04460A4A137803F0DF03137000F03FF8084A137803F0EF03137001321378C7
:4013000003F0EF031370204600F0EAFD10BD00BF9465004094640040034B1B7813F0040FFAD1024B18707047656400404564004038B5074B1B782BB938BDFFF7EDFF013409
:40134000A4B201E005460024285D0028F5D138BD6881FF1F054A137843F0040313701032137843F004031370704700BFA2430040054A137803F0FB0313701032137803F08E
:40138000FB031370704700BFA2430040024A137843F080031370704776650040024A137803F07F031370704776650040014B1870704700BF06640040014B1870704700BF50
:4013C00046640040014B1870704700BF26640040014B1870704700BF36640040014B1870704700BF86640040014B1878704700BF66640040014B1878704700BF56640040AF
:4014000008B501E0FFF7F6FFFFF7EEFF10F0100FF8D108BD10B5134A137803F0C00343F009031370104C237843F001032370FF20FFF7BCFFFF20FFF7BFFFFF20FFF7C2FF34
:40144000FF20FFF7C5FF0020FFF7C8FF00F044FD237843F01003237000F042FDFFF7D0FF10BD00BF766500409664004008B5054B1B7823B9FFF7CEFF0122024B1A70FFF70D
:4014800085FF08BD6A81FF1F024A137843F080031370704776640040024A137803F07F031370704776640040014B1870704700BF05650040014B1870704700BF4565004031
:4014C000014B1870704700BF25650040014B1870704700BF87640040014B1878704700BF67640040014B1878704700BF5565004008B501E0FFF7F6FFFFF7EEFF10F0100F2F
:40150000F8D108BD08B5124A137803F0C00343F00903137002F21F12137843F001031370FF20FFF7C1FFFF20FFF7C4FF0020FFF7C7FF0020FFF7CAFF00F0CEFC054A13789B
:4015400043F01003137000F0CBFCFFF7D1FF08BD766400409764004008B5054B1B7823B9FFF7D0FF0122024B1A70FFF78DFF08BD6B81FF1F044A137803F0EF03000100F0D0
:401580001000184310707047205100400822014B1A60704700E100E00422014B1A60704700E100E008B500F097FC0C4A137843F0200313700132137843F010031370013258
:4015C000137843F01003137000F08AFC00F05EFAFFF7DCFFFFF7E0FF08BD00BF906400400822014B1A60704780E100E00422014B1A60704780E100E008B500F06DFC094A46
:40160000137803F0EF0313700132137803F0EF03137000F065FC00F047FAFFF7E1FFFFF7E5FF08BD9164004010B5FFF7D9FF064B1C78064A137803F009031C43002313700E
:40164000FFF7A4FF204610BD616400401782FF1F10B5FFF7CBFF064B1B78064A147804F040041C4300231370FFF796FF204610BD626400401082FF1F10B504462B4B1A78D5
:4016800002F0FF0312B1013BDBB200E00723284A1278D2B29342F1D0FFF7A2FF254B1978254A137803F009030B4313701F4B1A78D2B21F4B1B78DBB29A4207D11E4B1B786E
:4016C00013F0040F02D01D4B1C702CE0184A13780133DBB213701378DBB2072B02D90022134B1A70124B1A78D2B2104B1B78DBB29A420ED10D4A13780133DBB21370137848
:40170000DBB2072B02D90022084B1A7001220C4B1A70074B1B78DBB20A4AD4540A4A137843F004031370FFF731FF10BD1482FF1F1582FF1F616400401782FF1F4264004084
:401740001382FF1F1882FF1F8164004010B5FFF74DFF134B1A78D2B2124B1B78DBB29A4214D0114B1B7813F0FF0F0CD10C4A13780133DBB213701378DBB2072B06D90022D4
:40178000074B1A7002E00022074B1A70044B1B78DBB2064AD45CE4B2FFF7FEFE204610BD1682FF1F1182FF1F1282FF1F0882FF1F08B501E0094B1B78094B1B7813F0200F64
:4017C000F8D1FFF713FF0023064A1370064A1370064A1370FFF7E0FE08BD00BF52640040626400401282FF1F1682FF1F1182FF1F08B500F071FB0E4B1A7842F001021A704C
:401800001A7802F0FE021A7000F06AFBFFF7E8FE0023084A1370084A1370084A1370084A137803F0FB031370FFF7B0FE08BD00BF926400401382FF1F1482FF1F1582FF1FFC
:401840008164004070B506460C46002506E0705DFFF712FF0135EDB2013CE4B2002CF6D170BD00BF08B501E00A4B1B780A4B1B7813F0200FF8D100F02FFB084B1A7842F080
:4018800001021A701A7802F0FE021A7000F028FB08BD00BF52640040626400409264004010B50F22174B1A70174C0823236007210320FFF7BDFC15490320FFF7A5FC042398
:4018C000236007210220FFF7B3FC11490220FFF79BFCFFF7C7FF00240E4B1C700E4B1C700E4B1C700E4B1C700E4B1C700E4B1C70FFF79AFEFFF7ACFE0C4B1C7020220133A8
:401900001A7010BD8064004080E100E04D190000ED1900001282FF1F1682FF1F1182FF1F1382FF1F1482FF1F1582FF1F8164004008B5054B1B7823B9FFF7B2FF0122024B92
:401940001A70FFF72FFE08BD6C81FF1F28E01F4B19781F4A137803F009030B431370137813F0040F24D01B4B1B7813F0FF0F0CD1194A13780133DBB213701378DBB2072B2B
:4019800006D90022144B1A7002E00022114B1A70114B1B78DBB2114AD35CDBB2104A13700D4B1A78D2B20F4B1B78DBB29A42CED1094B1A78D2B20B4B1B78DBB29A4204D1EF
:4019C000094A137803F0FB0313707047616400401782FF1F1382FF1F1482FF1F1882FF1F426400401582FF1F81640040204B1A7820490B7803F0400313430B7032E01E4BD8
:401A00001A78D2B21D490B780133DBB20B700B78DBB2072B02D90021184B1970174B1978C9B2174B1B78DBB299420ED114490B780133DBB20B700B78DBB2072B02D900213D
:401A40000F4B197001210F4B19700C4B1B78DBB20D49CA54064B1A7806490B7803F0400313430B70034B1B7813F0200FC7D17047626400401082FF1F526400401182FF1F18
:401A80001682FF1F1282FF1F0882FF1F054A137843F0020313701032137843F002031370704700BFA2430040054A137803F0FD0313701032137803F0FD031370704700BF55
:401AC000A2430040024B1878C0F38000704700BF21510040014B1B681865704708ED00E04001C0B2014B1870704700BF04E400E01022014B1A60704700E100E01022014BFE
:401B00001A60704780E100E010B50446FFF7F6FF2046FFF7DFFF0720FFF7E2FFFFF7E8FF10BD00BF044A137803F0FD03400000F0020018431070704720510040024B18787A
:401B4000C0F34000704700BF21510040084A137843F0010313701032137843F00103137002F64D32137843F001031370704700BFA3430040084A137803F0FE031370A2F6E8
:401B80005D32137803F0FE0313701032137803F0FE031370704700BF004F0040014B1870704700BF034F0040014B1878704700BF034F0040014B1880704700BF044F00409E
:401BC000014B1880704700BF064F004008B5154A137803F0010313700232137803F0FC031370114B1A7802F0CF021A701A7842F030021A701A7802F0F0021A701A7842F022
:401C00000F021A70094A137843F0010313706320FFF7D0FF6320FFF7D3FF0820FFF7BEFF08BD00BF004F00400B4F0040014F004008B5054B1B7823B9FFF7C8FF0122024B1D
:401C40001A70FFF783FF08BD6D81FF1F024B1B68C3F88400704700BF08ED00E04001C0B2014B1870704700BF11E400E04FF40032014B1A60704700BF00E100E04FF400327E
:401C8000014B1A60704700BF80E100E010B50446FFF7F4FF2046FFF7D9FF0720FFF7DEFFFFF7E4FF10BD00BF084A137843F0040313701032137843F00403137002F6653269
:401CC000137843F001031370704700BFA3430040014B1870704700BF1B4F0040014B1880704700BF1C4F0040014B1880704700BF1E4F004008B5174B1A7802F001021A70D3
:401D000015490A7802F0FC020A701A7842F004021A700B331A7802F0CF021A701A7842F030021A701A7802F0F0021A701A7842F00F021A70094A137843F001031370FF2052
:401D4000FFF7CCFFFF20FFF7CFFF0020FFF7C0FF08BD00BF184F00401A4F0040194F004008B5054B1B7823B9FFF7C4FF0122024B1A70FFF799FF08BD6E81FF1F024B1B88EF
:401D8000024B1888C0B270471E4F0040204F0040084A137843F0020313701032137843F00203137002F65932137843F001031370704700BFA3430040014B1870704700BFE3
:401DC0000F4F0040014B1878704700BF0F4F0040014B1880704700BF104F0040014B1880704700BF124F004008B5154A137803F0010313700232137803F0FC031370114BB0
:401E00001A7802F0CF021A701A7842F030021A701A7802F0F0021A701A7842F00F021A70094A137843F0010313703120FFF7D0FF3120FFF7D3FF0820FFF7BEFF08BD00BFBE
:401E40000C4F0040174F00400D4F004008B5054B1B7823B9FFF7C8FF0122024B1A70FFF797FF08BD6F81FF1F024B1B68C3F88800704700BF08ED00E04001C0B2014B18700E
:401E8000704700BF12E400E04FF48022014B1A60704700BF00E100E04FF48022014B1A60704700BF80E100E010B50446FFF7F4FF2046FFF7D9FF0720FFF7DEFFFFF7E4FF93
:401EC00010BD00BF000000000230800803D000BF01380046FCD17047EFF3108072B6704780F31088704700BF014B1868704700BF4081FF1F0E4B70B51E460E4C0025E41AB5
:401F0000A410A54204D056F8253098470135F8E700F0AAFD084B094C1E46E41AA4100025A54204D056F8253098470135F8E770BD742A0000742A0000742A00007C2A000022
:401F400010B5431E0A44914204D011F8014B03F8014FF8E710BD03460244934202D003F8011BFAE7704700000EB400B54FF402719CB0ADF814106FF00041049107914FF6C1
:401F8000FF711DAB02900690084853F8042BADF81610006802A9019300F064F8029B00221A701CB05DF804EB03B070474081FF1F2DE9F0478E6882469E420C4691469846A5
:401FC0003ED88A8912F4906F3AD02568096902236F1A656905EB450595FBF3F57B1C43449D4238BF1D4653050FD5294600F040FB064698B13A462169FFF7A2FFA38923F4D6
:40200000906343F08003A38113E02A4600F08EFB064670B92169504600F0DEFA0C23CAF80030A3894FF0FF3043F04003A381BDE8F08726613E44266046466561ED1BA5603B
:40204000464528BF464649463246206800F0A8FAA36800209B1BA36023681E442660BDE8F08700002DE9F04F9DB003938B8980461C060D4616460DD50B695BB9402100F030
:40208000F7FA2860286118B90C23C8F80030CDE040236B610023099320238DF82930DFF89CB130238DF82A3037463C4614F8013B1BB9B7EB060910D003E0252BF9D0274607
:4020C000F3E74B46324629464046FFF771FF013000F0A780099B4B4409933B78002B00F0A08000234FF0FF3204930793059206938DF853301A930126052221784E4800F087
:4021000041FA671C049B38B14B4A3C46801A06FA00F018430490EFE7D90644BF20228DF853201A0744BF2B228DF8532022782A2A03D0079A00210A200BE0039A111D126891
:402140000391002A10DA524243F00200079204900BE027463B780134303B092B03D800FB02320121F5E701B107923B782E2B1ED17B782A2B0AD1039B02371A1D1B6803924B
:40218000002BB8BF4FF0FF33059310E0002319460593781C0A2407463A780130303A092A03D804FB01210123F5E703B1059103223978224800F0E6F940B14023CBEB00007C
:4021C00003FA00F0049B013718430490397806221B487E1C8DF8281000F0D4F988B1194B33B9039B073323F007030833039314E003AB00932A46144B04A94046AFF3008034
:4022000007E003AB00932A460F4B04A9404600F093F8B0F1FF3F824603D0099B5344099342E7AB895B0601D4099801E04FF0FF301DB0BDE8F08F00BF342A00003A2A0000B8
:402240003E2A000000000000B11F00002DE9F04791461F460A698B6806469342B8BF1346C9F8003091F843200C46DDF8208012B10133C9F800302368990642BFD9F800308E
:402280000233C9F80030256815F0060510D104F1190A07E00123524639463046C04701301AD00135E368D9F800209B1A9D42F1DB94F843302268003318BF012392060FD5A3
:4022C000E118302081F843005A1C94F845102244023382F8431003E04FF0FF30BDE8F08704F1430239463046C0470130F4D02268D9F80050E36802F00602042A08BF5D1B25
:402300002269A3680CBF25EAE57500259342C4BF9B1AED184FF000091A344D4509D00123224639463046C0470130D5D009F10109F3E70020BDE8F0872DE9F04317460A7EF5
:4023400085B06E2A984606460C460C9B01F1430E00F0AE8011D8632A22D009D8002A00F0BB80582A40F0CA8081F84520834955E0642A1ED0692A1CD0C0E0732A00F0B0803B
:4023800009D86F2A2ED0702A40F0B8800A6842F020020A603EE0752A24D0782A3AD0ADE01A6801F14205111D1960136884F84230A8E021681A6811F0800F02D0111D196022
:4023C00008E011F0400F02F10401196002D0B2F9003000E01368002B3CDA2D225B4284F8432037E021681A6811F0800F02D0111D196007E011F0400F02F10401196001D07C
:40240000138800E01368227E5C496F2A14BF0A2208221BE078225A4984F845202268186812F0800F00F104051D6003D1550601D5038800E00368D00744BF42F020022260E9
:402440001BB9226822F0200222601022002084F8430001E049490A226568002DA56008DB206820F0040020602BB9002D7DD175460CE0002B79D07546B3FBF2F002FB103395
:40248000CB5C05F8013D03460028F5D1082A0BD12368DA0708D5236962689A42DEBF302305F8013C05F1FF35C5EB0E0323612EE008681A6810F0800F496903D0101D1860A8
:4024C000136808E010F0400F02F104001860136801D0198000E0196000232361754616E01A68111D1960156800216268284600F049F808B1401B6060636804E004F1420536
:4025000084F8422001232361002384F84330CDF800803B4603AA21463046FFF797FE013002D14FF0FF3026E023692A4639463046C0470130F5D023689B0710D5002504F196
:40254000190907E001234A4639463046C0470130E7D00135E368039A9B1A9D42F2DBE068039B9842B8BF184605E00B7804F1420584F842308AE705B0BDE8F083452A000067
:40258000562A000010B5C9B202449042034605D01C7801308C42F8D1184610BD002010BD884210B501EB020301D8421E0BE09842FBD28118D21AD34204D013F8014D01F8A6
:4025C000014DF8E710BD994204D011F8014B02F8014FF8E710BD000038B50546002944D051F8043C0C1F002BB8BFE41800F0D4F81E4A1368114613B96360146030E0A34232
:402600000DD92268A018834201BF18685B681218226063600C6023E0A24203D813465A68002AF9D118681918A1420BD12168014458188242196013D110685268014419603F
:402640005A600DE002D90C232B6009E021686018824201BF106852680918216062605C602846BDE8384000F098B838BD7481FF1F70B5CD1C25F0030508350C2D38BF0C25C2
:40268000002D064601DBA94202D90C23336046E000F082F8234B1C681A462146A1B10B685B1B0ED40B2B03D90B60CC18CD501EE08C420BBF63684B681360636018BF0C46E6
:4026C00015E00C464968E9E7174C23681BB9304600F052F820602946304600F04DF8431C18D0C41C24F00304A0420DD12560304600F053F804F10B00231D20F00700C31A9A
:402700000ED05A42E25070BD211A304600F034F80130EBD10C233360304600F03EF8002070BD00BF7481FF1F7081FF1FF8B5074615460E4621B91146BDE8F840FFF798BF76
:402740001AB9FFF749FF2846F8BD00F027F885420ED929463846FFF78BFF044650B131462A46FFF7EDFB31463846FFF735FF01E03046F8BD2046F8BD38B5064C00230546F8
:4027800008462360FEF7CAF9431C02D1236803B12B6038BD2082FF1F7047704751F8040C0028BEBF091851F8043CC01804387047000000000F00E0FF020100002A2A2A2A65
:4027C0002A2A2A2A2A20202020454550524F4D2054455354202020202A2A2A2A2A2A2A2A2A0D0A002A2A20454550524F4D2052656164203D202564202564202564200D0AE7
:40280000000000002A2A2A2A2A2A2A2A2A2A2A2A2A2A2A2A2A2A2A2A2A2A2A2A2A2A2A2A2A2A2A2A2A2A2A2A2A0D0A002A2A204C49533344482057484F204920414D2052BD
:4028400045474953544552203D203078253032580D0A00002A2A204C4953334448204354524C20524547495354455220313D203078253032580D0A002A2A204C4953334416
:4028800048204354524C20524547495354455220343D203078253032580D0A002A2A204C4953334448204354524C20524547495354455220353D203078253032580D0A0062
:4028C0002A2A204C4953334448204649464F204354524C205245474953544552203D203078253032580D0A002A2A204C4953334448204354524C205245474953544552206F
:40290000333D203078253032580D0A002A2A204C495333444820494E542031204346472052454749535445523D203078253032580D0A00002A2A204C495333444820494EB0
:402940005431205448532052454749535445523D203078253032580D0A0000002A2A204C4953334448204455524154494F4E2052454749535445523D203078253032580D2C
:402980000A000000544852455348203078253032580D0A0077617465726D61726B200D0A000000005245442076616C75653A2025642C20475245454E2076616C75653A202D
:4029C00025642C20424C55452076616C75653A202564200D0A000000004F00402400405100403000F0510040100000000140000280020140800D0014014000048018014079
:402A0000800300400140000A004C0140000200500140200060520040540900480600000201405C090048800000180140DC09004880004300232D302B2000686C4C0065663C
:402A400067454647003031323334353637383941424344454600303132333435363738396162636465660000F8B500BFF8BC08BC9E4670474D000000990B0000F8B500BF3D
:402A8000F8BC08BC9E46704729000000A02A0000C880FF1F80000000E000000000000000000000002882FF1F0000E02EC05D00001800000000366E0100000000000000009A
:402AC000000000000000000000000000000000000000000000000000322A00000000000000000000000000000000000000000000000000000000000000000000000000007A
:402B0000000000000000000000000000000000000000000000000000E080FF1F00000000000000000000000000000000000000000000000000000000000000000000000017
:402B40000000000000000000000000000000000000000000000000000000000000000000000000000000000000000000000000000000000000000000000000000000000055
:402B80000000000000000000000000000000000000000000000000000000000000000000000000000000000000000000000000000000000000000000000000000000000015
:402BC00000000000000000000000000000000000000000000000000000000000000000000000000000000000000000000000000000000000000000000000000000000000D5
:402C00000000000000000000000000000000000000000000000000000000000000000000000000000000000000000000000000000000000000000000000000000000000094
:020000040003F7
:0200000480007A
:4000000001450040064F00400352004005640040026500404C000140320101400D020140510301405F040140520501405C0601404507014006090140070B0140080D014075
:40004000030F01405014014051150140511601404C170140131801404A190140041A0140171B014009400140094101400C42014004430140044401400445014001460140EC
:4000800001470140054801400D490140034C0140064D01400650014002510140640101400A360D60163619702236004018A01920800F8438850F860F870D8472870F0001FD
:4000C000010302020304040D08020A0D0C10110E140D15041709180219051A041B0A1C0D24022608280D2C0D310F320F361039023A083E4056025720580459045B045C11AE
:400100005D105F01801382648498851D8602870288028A988C9A9038911292C09305940299189B019C219ED8A09AA8FCA908AA03AC98AE02B0E0B101B30EB40FB510B613E9
:40014000BA22BB08BF11D409D604D804D904DB04DC11DD10DF01005103100481071409200A010B200C800E50100A11081582172018121C851D201E4221022514260827A000
:400180002E102F08312232083603372038013C045D065E105F8062806741680A69826B147040720187408C018F20C0FFC2B7C4D7CA20CCA7CE41D6F0D898860296019A01C9
:4001C0009C01AA02B001B602BE41D409D604D804DB04DF0100080480084009080A040D010F201204142015901642171419401A401D041E011F20262027402D102E822F104F
:40020000301032203420360A374038803A803C843D023E20448045244C804D244E0A550156205708580959105A40610163026414658067807D087F208480874088848D016D
:40024000908491829440950497209B149D02A040A120A20BA680A708A910AB01B484B601C084C237C4F2CAF0CCF0CEF0D0E0D230D60FD8F9E642020809730B0C0F081001F2
:40028000120E152A1744181C19801A031B151E1C217323042603280129032A162B04301A31C0330F340F353039223A223B083F104002460449FF4A074BFF4C404D204EF074
:4002C0004F0550085418580459045A045B045C225D225F01604061A862406320872089148A038D098F10912C931195309601970C9A039C029F03A110A51CA722AB20B11F2C
:40030000B203B720BF40C063C104C50EC6B0C70CC819C9FFCAFFCBFFCEF0CF44D00CD401D804D904DA04DB04DC21DD22DF01E6C0EA40EB0201400381052009400A480D20AF
:400340000E221020120819011A481B201E2021102208235024402741288029012B082D102FA8303032043501360837403B503D803E203F444110449048204B044D044F1025
:400380005380562057085A025C025D505E0860046140840188408A1092019440960499649C419D109E44A120A201A404A508A680A711A902AB60AC08B181B220B310C048A2
:4003C000C2EBC406CAE5CCD6CE7CD0C4D220D6F1D80CE282E628EE08020409010F031603180E1A012002220C240D2602310132073502360838804010410345D046104752FD
:40040000483A49FF4AFF4BFF4DA04F04501852805407580459045A045B045C305D335F01604062C06440654066C068C06AC06CC06EC0802081A182D0835A8520875089E3E2
:400440008B0C8CD98D7090D892019411955096229720982E99029A819B1D9C249D709E49A0D9A183A374A408A604A8D1A920AA08ACD9AD70B180B360B40FB51FB6F0BAB01C
:40048000BB20BF01D405D804D904DB04DD30DF010040038004C00501084009080A840E1410A912101440150819201A041B801E101F40212C22022310251027402841299080
:4004C0002A1030883120388039023A083B103DA045844F015505571059025B445E605F0976407A027B018E109104920194049606978099049C409D109E44A444A508A684DC
:40050000A711AF40B002B104C019C26FC43FCA0DCC0ECE3FD050D6FBE610921098809E029F20A104A4018602872092109880A104A401AC0192109880A104B480B504E60284
:40054000E810EC408E10E040E4100304043305E7060C0718080309180C3F0DFF10011144141C153C162317C219081A231C1F1D101E2020082180240427E3280C29C02C0284
:400580002D1C2FE131C03210331F340F3538362C3AA23B083E0456025712580459045B045C225D205F01820183039302AA01B001B302B701C020C103C5D0C601C702C816A8
:4005C000C9FFCAFFCBFFCDA0CF04D018D804D904DA04DC33DD03DF01E040E2C0E440E540E6C0E8C0EAC0ECC0EEC000440120068008A109080A0110A01201131014041844AB
:4006000019441A051E8020082108220126082701282029602A0130A13108360138443B113D02440445044D02554456805708590469446B0870A07310814083288640880119
:4006400089048A08930194409606982499209A019B209C819D029F01A101A201A404A548A708A810A920AA01AB01AD04B0C0B420B680C017C20FC44FCA0FCC8FCE8FD06028
:40068000D602E004E404E688EA0DEE0107010B020C0212021303160417041C0424012B042E0830043104320233023401350136083E103F115280580459045B045C335D30F7
:4006C0005F018401850487088A028B028C01960197049A029B109E01AB01AF02B104B201B308B402B510B703B808BE10BF40C023C104C206C401C50EC70CC811C9FFCAFFB8
:40070000CBFFCC62CDA0CEF0CF41D00CD602D724D804D904DA04DB04DC52DD02DF01E640E702E910EA30EB10ED10EE10EF12005003100701088009090B480E010F6015046C
:40074000178018141D801E6A20812204230426022728280129202F08322434043504360138203B043D083F20406141044204431048044B085204612068986AA070407780A4
:40078000810182028304881089808C408E5891049201948496C299049C409D839E0C9F0CA125A220A310A4ECA5C0A694AA20B125C087C2B7C4A0CA2CCCC6CE66D00FD20434
:4007C000D804E204EE0185288712880189028B0C8C01951497239C01A13EA93EB001B101B30EB530D804D904DC22DF01004001200586070408400D800E400F1815101708DF
:400800001B021D081E401F0420142202240225202720284029212C802D882E103008348035023620370438143D083F10412042084508468047284C804D104E094F055401B0
:4008400056245704660A670582208B108D068E208F04921298809E029F20A184A208A401B180B209C0F3C2F1C460CAF5CCF2CE66D0E0D230D8F0E050E490E820EC80EE017F
:40088000B820BE10D804DF011F208040810187208808892094409D21A408A814AA02AF02B180B280B304B401B508B604E020E620EAC0EC80EE1031403302358037023A10E0
:4008C0008702CCF0CE10E6405F02630287028D809DC09E10A702D6C0E2105080568085408A108B019D409E10A701AB02D460E610EE808E809E80AC80EA1070018C01DC01E1
:40090000E002000803088404C00AA308A308640869106D10D880DAC05A015C0164108001841885108A0195109C08D6C0D880E280E6500940AB08C20210208820B140C40839
:40094000E604EE04000F080B0A0F102F1A2D1C0700FF0103080C00004000000000600000000A001000000080010400000107003800560209008000040001000000040480B3
:40098000018400000184000000840100007F04000180020000020000000010102605300004FED0BC3BFFFFFF2200F008040000004000040004040404131100010000C00008
:4009C00040011011C0010011400140010000000000000000000000000000000010000200021410281203000012000000C00300001203000002000003030C38300000000165
:400A0000A108543463248C1800030000E0001F020001003C0A000080000000143506200004DFB0EC3BFFFFFF2200F00C040000004000040004040404100000010000C00022
:400A400040011011C0010011400140010000000000000000000000000000000000606000600000008400508C8C008C00000000008000408B8B000000000000001400011627
:400A8000120000000000000000E0E000E000000000000000000000000000000000000000000000000000000000000000000000000000000000000000000000000000000084
:400AC00000000000000000000000000000000000000000000000000000000000000000000000000000000000000000000000000000000000000000000000000000000000F6
:400B000000000000000000000000000000000000000000000000000000000000000000000000000000000000000000000000000000000000000000000000000000000000B5
:400B40000000000000000000000000000000000000000000000000000000000000000000000000000000000000000000000000000000000000000000000000000000000075
:400B80000000000000000000000000000000000000000000000000000000000000000000000000000000000000000000000000000000000000000000000000000000000035
:0200000490006A
:0400000000004005B7
:0200000490105A
:04000000BC90ACAF55
:0200000490303A
:020000000BE50E
:0200000490402A
:4000000000000000000000000000000000000000000000000000000000000000000000000000000000000000000000000000000000000000000000000000000000000000C0
:400040000000000000000000000000000000000000000000000000000000000000000000000000000000000000000000000000000000000000000000000000000000000080
:400080000000000000000000000000000000000000000000000000000000000000000000000000000000000000000000000000000000000000000000000000000000000040
:4000C0000000000000000000000000000000000000000000000000000000000000000000000000000000000000000000000000000000000000000000000000000000000000
:0200000490501A
:0C00000000012E16106900012E291C4E74
:00000001FF