:4000000000800020110000005D0D00005D0D000008B5044B1A6803F53F5302331A6000F0BDFE00BFFA46004010B5054C237833B9044B13B10448AFF300800123237010BDE8
:400040004881FF1F00000000B0300000084B10B51BB108490848AFF300800848036803B910BD074B002BFBD0BDE81040184700BF000000004C81FF1FB0300000C880FF1F42
:40008000000000002DE9F0478CB062B601F03AFA01F0B0F801F05AFD00F0B6FB02F0A4F90A2001F0B3F9A14C4322A149204602F0C7FB204601F05EFA4D229E49204602F0EF
:4000C000BFFB204601F056FA9B4B18680A909B88ADF82C3006220AA9202000F0E1FB00F00DFC062208A9202000F0C8FBBDF92020BDF92230BDF9241000919049204602F025
:40010000B3FB204601F036FA0F2000F02DFA02468B49204602F0A8FB204601F02BFA3721202000F037FA202000F01EFA02468549204602F099FB204601F01CFA00212320DD
:4001400000F028FA232000F00FFA02467E49204602F08AFB204601F00DFA4021242000F019FA242000F000FA02467849204602F07BFB204601F0FEF900212E2000F00AFA89
:400180002E2000F0F1F902467149204602F06CFB204601F0EFF947212E2000F0FBF92E2000F0E2F902466B49204602F05DFB204601F0E0F94421222000F0ECF9222000F0DA
:4001C000D3F902466449204602F04EFB204601F0D1F92A21302000F0DDF9302000F0C4F902465E49204602F03FFB204601F0C2F95221322000F0CEF9322000F0B5F90246D7
:400200005749204602F030FB204601F0B3F90421332000F0BFF9332000F0A6F902465149204602F021FB204601F0A4F94E4801F0A1F90A2001F0EAF8A0238DF80830C023CB
:400240008DF80F300022494B1A70494801F0B2F8484801F051FD484801F010FE474801F0BBFE474801F0E0FE464802F09FFA02F073FA454B18701B7813F0FF0F02D1002230
:40028000424B1A7002F0C4F800F018FE01F048F9364B1B78DBB2012BFAD1312000F064F910F0400F76D0214C02463949204602F0DBFA204601F05EF9062204A9282000F057
:4002C0007DF9062206A9802000F0EAFA00F016FB00212E2000F05EF947212E2000F05AF9D6E0062206A9282000F068F99DF818309DF8192043EA022343F389131D442DB258
:400300009DF81A309DF81B2043EA022343F389133B441FB29DF81C309DF81D2043EA022343F3891323441CB2013637E08881FF1FBC30000000310000B43000005031000097
:400340008C310000B8310000E0310000083200003032000068320000A0320000C8320000F43200001C33000044330000EC81FF1FDD050000F10500004507000059070000C9
:4003800009060000DD070000EE81FF1FED81FF1F683300000026344637463546062EA0DD00212E2000F0F6F847212E2000F0F2F8394A82FB05362E44ED17C5EBA60636B27B
:4003C00082FB07353D44FB17C3EBA5052DB282FB04322244E317C3EBA20424B2B600B6B237B2AD00ADB20FFA85F8A400A4B20FFA84F9DFF8B8A0CDF8009043463A46274927
:40040000504602F031FA504601F0B4F8244B1B7813F0FF0F16D08DF80960C7F307238DF80A308DF80B50C8F307238DF80C308DF80D40C9F307238DF80E3008210DEB010029
:4004400001F0AAF8C7EB0727164A82FB0730FF17C7EBE0100028B8BF4042C8EB082882FB08314FEAE878C8EBE1110029B8BF4942C9EB092982FB09324FEAE979C9EBE21239
:40048000002AB8BF5242D2B2C9B2C0B200F0C2F90022054B1A70FBE69324499278330000ED81FF1FD34D6210EC81FF1F8881FF1F2DE9F04383B006460C461746984600208C
:4004C00000F046FF64B2002511E02146082CA8BF0821C9B206EBC50000F016FE00F006FD10F0010FFAD0083C64B201356DB2002CEBDC00F019FE00F0BDFD002600960196C8
:400500004FFA88F820E0C146B8F1080FA8BF4FF008095FFA89F1684600F0F6FD00F0E6FC10F0010FFAD0002406E004EBC60500F06FFD78550134E4B24C45F6DBA8F10808A1
:400540004FFA88F8013676B2B8F1000FDBDC012000F0FEFE00F0E8FD00F08CFD00F0AAFD03B0BDE8F08300BF00B583B000F03F0060F07F008DF8040002AA002302F8053DEE
:400580000123194601A8FFF793FF9DF8030003B05DF804FB00B583B000F03F008DF804008DF80510002302AA02F8053D022101A8FFF77EFF03B05DF804FB00BF00B583B0B6
:4005C00040F0C00302A800F8043D13460A460121FFF76EFF03B05DF804FB00BF08B50122024B1A7000F0C0FE08BD00BFEC81FF1F08B501F0B7FB01F0C1FC0022014B1A70B7
:4006000008BD00BF6481FF1F38B54B4B1B78052B37D9494B5B7873B90122474B5A7000221146104600F0F6F800F048FC00F078FF01F0A4FC21E0012B1FD13F4C002060705A
:40064000A1783E4B1B7843EAC111C9B23C4B197000F0F8F8A3781BB9002001F05BFB0CE0012B0AD1012001F055FB00F04BFF00F0C1FD00F0C9F801F023FC00222E4BDA70A2
:4006800038BD052B56D82C4B5B78002B52D12A4BDB78012B09D013B1022B46D038BD0122254BDA7001F0BCFB38BD234B9B78D3B9214C0120A07001F02DFB00F023FF00F046
:4006C00099FD00F0A1F801F0FBFBA1781B4B1B7843EAC111C9B21A4B1970002000F0B2F800F00CF91DE0012B1BD1134D0024AC70204601F00FFBA978104B1B7843EAC111A7
:40070000C9B20F4B1970204600F09CF800F0F6F822462146204600F07DF800F0CFFB00F0FFFE0022044BDA7038BD0122024BDA7001F076FB38BD00BF6481FF1FED81FF1F43
:40074000F481FF1F08B50222024BDA7001F024FB08BD00BF6481FF1F08B501F0CBFB1B4B1A7801321A705B78012B2DD101F0DEFAB0FA80F0400901F0CDFA01F0A7FE144BD8
:400780001860002801DA00221A60114B1B68B3F5803F03DB4FF6FF720D4B1A600D4B1B7813F0FF0F10D00A4B1A6847F6FE739A4205DC0020084B187001F0C2FF08BD0120C5
:4007C000054B187001F0BCFF08BD00BF6481FF1FF081FF1FEE81FF1FED81FF1F08B501F0C3FF01F0B9FF014B187008BDEE81FF1F08B500F015FF08BD08B500F017FF08BDF9
:4008000008B500F083FF08BD08B500F05DFF00F0C9FF08BD38B50D461446FFF7E9FF2846FFF7EAFF2046FFF7EBFF38BD08B5052000F082F808BD00BF08B5062000F066F83D
:4008400008BD00BF30B583B004460D46FFF7F4FF02238DF80430230A8DF805308DF806408DF80750002302AA02F8053D04210DEB010000F07BF803B030BD00BF10B582B008
:4008800003248DF80440030A8DF805308DF8060013460A46214601A800F068F802B010BD2DE9F04182B000AF054688461446FFF7C3FF012000F0C0FDE61C04F10A0323F036
:4008C0000703ADEB030D02238DF800302B0A8DF801308DF80250224641460DF1030001F0AFFF002307F1080202F8013DF1B2684600F03CF80837BD46BDE8F08108B5FFF73E
:4009000095FF10F0010FFAD108BD00BF10B50446002000F055FF204600F0BCFF00F092FF10F0080FFAD001F01FF80446012000F047FF204610BD00BF10B50446002000F024
:400940003FFF204600F0A6FF002000F0A3FF00F079FF10F0010FFAD001F006F801F004F80446012000F02CFF204610BD2DE9F04383B006460C4617469846002000F020FF31
:4009800064B2002511E02146082CA8BF0821C9B206EBC50001F064F800F054FF10F0010FFAD0083C64B201356DB2002CEBDC01F067F801F00BF80026009601964FFA88F843
:4009C00020E0C146B8F1080FA8BF4FF008095FFA89F1684601F044F800F034FF10F0010FFAD0002406E004EBC60500F0BDFF78550134E4B24C45F6DBA8F108084FFA88F8F2
:400A0000013676B2B8F1000FDBDC012000F0D8FE01F036F800F0DAFF00F0F8FF03B0BDE8F08300BFFEE700BFF0B40022174611E050F82760F3B226F0FF0608E001EB420546
:400A400011F812406D78A5550132013BDBB2002BF4D10137232FEBD9F0BC70470A4B1B78DBB203F00701094A11701B09013213700822074B1A708023064A137058321370F8
:400A80004422054B1A707047CF0100496E5800403D510040005B00407658004008B50A46002101F0D8FE08BD08B501F0C9FE08BD38B500243E4B1C80502202331A700B2221
:400AC00002331A8018233B490B7002310A803A4A13701925023215800232137040F2AF41023211800232137043F69723023213800232157002321380304B1D7047F22F52D1
:400B000002331A8002331D7004222D492D48FFF7CBFF02222C4B1A7008224FF040231A70032103F500731970284B1B78DBB228490B70284B1A8041F25122023B1A800CE0CB
:400B4000254B1B7803F0010343EA440404F003044FF4F07001F038FE013D0DB1032CEFD115B90320FFF75EFF1C4B4FF480721A8007221A7000221A490A7048200231087017
:400B80001A700222033B1A7004220A331A7003F297331A78FF221A70124A137843F001031370013A137843F08003137038BD00BF80400040864000408A4000409A40004058
:400BC00080090048004100400043004008010049A146004022420040254200400440004006400040A1430040012807D8044B53F820201844017A13780B431370704700BFA3
:400C000094330000012808D8044B53F820201844017A137823EA0103137070479433000038B572B6394A137843F00403137000240BE0374863001A19510001440A46098A19
:400C4000D068FFF72BFF0134E4B2072CF1D900240BE02F49A3001819420088188022016CC06BFFF721FF0134E4B2002CF1D029494FF09040FFF7D8FE0A24274B1C70274A25
:400C8000137843F0020313701032137843F002031370234D2B7843F040032B70A2F58632513A137843F01003137008221D491E48FFF7FAFE22461D491D48FFF7F5FE2246AC
:400CC0001C491D48FFF7F0FE22461C491C48FFF7EBFE08221B491C48FFF7E6FE1B4A137843F0080313701A4C61232370FFF7E0FE812323700122174B1A70FFF7AFFE0E224F
:400D000029461548FFF7D0FE38BD00BFE846004094330000900000488358004003500140A04300404C0900480251004054090048C051004060090048105100406C0900485B
:400D4000205100407809004832510040224300400048004004000840B043004008B501F043FD03680C2B00D1FEE7FEE708B5094B1A681044084BC31A802B02DC054B1860F7
:400D800005E001F031FD0C2303604FF0FF32104608BD00BFCC80FF1F3882FF1F08B5104E104D16E029686B68AC68002204E051F8040B43F8040B0432A242F8D1E86800222E
:400DC00003E0002143F8041B04328242F9D11035013E002EE6D101F00DFDFFF753F9FEE7010000003434000008B5104A104B1A60104A136843F40073136000230AE0032BC4
:400E000003D80D4A52F8231000E00C490C4A42F8231001332F2BF2D90A4B1A780A4B1A70074A0A4B1A60FFF7FBFE08BD0004FA050CED00E014ED00E0000000005D0D0000F1
:400E40000080FF1FBC760040C080FF1F08ED00E00222014B1A60704700E100E00122014B1A60704700E100E008B501F0B5FC0C4A137843F0200313700332137843F010034D
:400E80001370FD32137843F01003137001F0A8FC00F09EFAFFF7DCFFFFF7E0FF08BD00BF946400400222014B1A60704780E100E00122014B1A60704780E100E008B501F03C
:400EC0008BFC094A137803F0EF031370FD32137803F0EF03137001F083FC00F087FAFFF7E1FFFFF7E5FF08BD9764004010B5FFF7D9FF064B1C78064A137803F009031C43C1
:400F000000231370FFF7A4FF204610BD67640040F881FF1F10B5FFF7CBFF064B1B78064A147804F040041C4300231370FFF796FF204610BD646500400982FF1F10B504469C
:400F40002B4B1A7802F0FF0312B1013BDBB200E00723284A1278D2B29342F1D0FFF7A2FF254B1978254A137803F009030B4313701F4B1A78D2B21F4B1B78DBB29A4207D1A9
:400F80001E4B1B7813F0040F02D01D4B1C702CE0184A13780133DBB213701378DBB2072B02D90022134B1A70124B1A78D2B2104B1B78DBB29A420ED10D4A13780133DBB2A1
:400FC00013701378DBB2072B02D90022084B1A7001220C4B1A70074B1B78DBB20A4AD4540A4A137843F004031370FFF731FF10BD0A82FF1F0882FF1F67640040F881FF1FD5
:40100000476500400482FF1FFC81FF1F8764004010B5FFF74DFF134B1A78D2B2124B1B78DBB29A4214D0114B1B7813F0FF0F0CD10C4A13780133DBB213701378DBB2072B56
:4010400006D90022074B1A7002E00022074B1A70044B1B78DBB2064AD45CE4B2FFF7FEFE204610BD0782FF1F0582FF1F0682FF1F0C82FF1F08B501E0094B1B78094B1B78FF
:4010800013F0200FF8D1FFF713FF0023064A1370064A1370064A1370FFF7E0FE08BD00BF57650040646500400682FF1F0782FF1F0582FF1F08B501F08FFB0E4B1A7842F0ED
:4010C00001021A701A7802F0FE021A7001F088FBFFF7E8FE0023084A1370084A1370084A1370084A137803F0FB031370FFF7B0FE08BD00BF976500400482FF1F0A82FF1F60
:401100000882FF1F8764004070B506460C46002506E0705DFFF712FF0135EDB2013CE4B2002CF6D170BD00BF08B501E00A4B1B780A4B1B7813F0200FF8D101F04DFB084BBE
:401140001A7842F001021A701A7802F0FE021A7001F046FB08BD00BF57650040646500409765004010B50F22174B1A70174C022323600721012000F07DF91549012000F00E
:4011800065F9012323600721002000F073F91149002000F05BF9FFF7C7FF00240E4B1C700E4B1C700E4B1C700E4B1C700E4B1C700E4B1C70FFF79AFEFFF7ACFE0C4B1C7079
:4011C0002022FD331A7010BD8464004080E100E011120000B11200000682FF1F0782FF1F0582FF1F0482FF1F0A82FF1F0882FF1F8764004008B5054B1B7823B9FFF7B2FFA1
:401200000122024B1A70FFF72FFE08BD6881FF1F28E01F4B19781F4A137803F009030B431370137813F0040F24D01B4B1B7813F0FF0F0CD1194A13780133DBB213701378C5
:40124000DBB2072B06D90022144B1A7002E00022114B1A70114B1B78DBB2114AD35CDBB2104A13700D4B1A78D2B20F4B1B78DBB29A42CED1094B1A78D2B20B4B1B78DBB228
:401280009A4204D1094A137803F0FB031370704767640040F881FF1F0482FF1F0A82FF1FFC81FF1F476500400882FF1F87640040204B1A7820490B7803F0400313430B703A
:4012C00032E01E4B1A78D2B21D490B780133DBB20B700B78DBB2072B02D90021184B1970174B1978C9B2174B1B78DBB299420ED114490B780133DBB20B700B78DBB2072B06
:4013000002D900210F4B197001210F4B19700C4B1B78DBB20D49CA54064B1A7806490B7803F0400313430B70034B1B7813F0200FC7D17047646500400982FF1F5765004012
:401340000582FF1F0782FF1F0682FF1F0C82FF1F044A137803F07F03C001C0B218431070704700BF10510040024B1878C0F30010704700BF8C450040014B1B68D866704771
:4013800008ED00E04001C0B2014B1870704700BF0BE400E04FF40062014B1A60704700BF00E100E04FF40062014B1A60704700BF80E100E010B50446FFF7F4FF2046FFF774
:4013C000DBFF0720FFF7DEFFFFF7E4FF10BD00BF054A137843F0020313701032137843F002031370704700BFA2430040054A137803F0FD0313701032137803F0FD03137069
:40140000704700BFA243004001BE704710B5044605E0084B186801F0D7F9A4F50044B4F5004FF6D8034B586800FB04F001F0CCF910BD00BFD080FF1F08B5034B1B7A00FB28
:4014400003F001F0C1F908BDD080FF1F70B504460E46074B1D681F2802D90020FFF7D4FF04F01F04103455F8240045F8246070BD08ED00E038B504460D46072902D90020B2
:40148000FFF7C2FF1F2C02D90020FFF7BDFF04F01F0000F1604000F564406D01EDB2057038BD00BF7222084B1A702022FF3B1A700622623B1A70472210331A70002203F2F7
:4014C00053131A70704700BF8565004010B501F083F904460A4A137843F020031370FF3A137843F01003137002F20112137843F01003137000F064F8204601F071F910BD66
:401500009565004008B5054B1B7823B9FFF7CAFF0122024B1A70FFF7D9FF08BD6981FF1F10B501F059F904460A4A137803F0DF03137000F053F8084A137803F0EF03137098
:4015400002F20112137803F0EF031370204601F047F910BD9565004096640040034B1B7813F0040FFAD1024B18707047676500404764004038B5074B1B782BB938BDFFF7B3
:40158000EDFF0134A4B201E005460024285D0028F5D138BD6981FF1F084B1B7833B97047305DFFF7DBFF0134E4B203E070B50D4606460024AC42F3D370BD00BF6981FF1FD0
:4015C000054A137843F0080313701032137843F008031370704700BFA2430040054A137803F0F70313701032137803F0F7031370704700BFA2430040024A137843F0800378
:401600001370704776650040014B1870704700BF05640040014B1870704700BF45640040014B1870704700BF25640040014B1870704700BF35640040014B1870704700BFAF
:4016400082640040014B1878704700BF62640040014B1878704700BF5564004008B501E0FFF7F6FFFFF7EEFF10F0100FF8D108BD08B5134A137803F0C00343F01B03137059
:40168000E13A137843F001031370FF20FFF7BCFFFF20FFF7BFFF0020FFF7C2FF0020FFF7C5FF0020FFF7C8FF01F096F8054A137843F01003137001F093F8FFF7CFFF08BD72
:4016C000766500409264004008B5054B1B7823B9FFF7CEFF0122024B1A70FFF78DFF08BD6B81FF1F024A137843F080031370704772640040014B1870704700BF046500403F
:40170000014B1870704700BF44650040014B1870704700BF24650040014B1870704700BF86650040014B1878704700BF66650040014B1878704700BF5465004008B501E0A8
:40174000FFF7F6FFFFF7EEFF10F0100FF8D108BD08B5124A137803F0C00343F00B03137002F59172137843F001031370FF20FFF7C1FFFF20FFF7C4FF0020FFF7C7FF0020E8
:40178000FFF7CAFF01F028F8054A137843F01003137001F025F8FFF7D1FF08BD726400409665004008B5054B1B7823B9FFF7D0FF0122024B1A70FFF795FF08BD6C81FF1F37
:4017C000044A137803F0EF03000100F01000184310707047205100400822014B1A60704700E100E00422014B1A60704700E100E008B500F0F1FF0C4A137843F020031370C4
:401800000132137843F0100313700232137843F01003137000F0E4FF00F046FAFFF7DCFFFFF7E0FF08BD00BF906400400822014B1A60704780E100E00422014B1A607047AD
:4018400080E100E010B5FFF7F1FF064B1C78064A137803F009031C4300231370FFF7BCFF204610BD616400402382FF1F10B5FFF7E3FF064B1B78064A147804F040041C4318
:4018800000231370FFF7AEFF204610BD636400401C82FF1F10B504462B4B1A7802F0FF0312B1013BDBB200E00723284A1278D2B29342F1D0FFF7BAFF254B1978254A137888
:4018C00003F009030B4313701F4B1A78D2B21F4B1B78DBB29A4207D11E4B1B7813F0040F02D01D4B1C702CE0184A13780133DBB213701378DBB2072B02D90022134B1A7016
:40190000124B1A78D2B2104B1B78DBB29A420ED10D4A13780133DBB213701378DBB2072B02D90022084B1A7001220C4B1A70074B1B78DBB20A4AD4540A4A137843F00403A9
:401940001370FFF749FF10BD2082FF1F2182FF1F616400402382FF1F406400401F82FF1F2482FF1F8164004010B5FFF765FF134B1A78D2B2124B1B78DBB29A4214D0114BD8
:401980001B7813F0FF0F0CD10C4A13780133DBB213701378DBB2072B06D90022074B1A7002E00022074B1A70044B1B78DBB2064AD45CE4B2FFF716FF204610BD2282FF1FF5
:4019C0001D82FF1F1E82FF1F1482FF1F08B501E0094B1B78094B1B7813F0200FF8D1FFF72BFF0023064A1370064A1370064A1370FFF7F8FE08BD00BF50640040636400402A
:401A00001E82FF1F2282FF1F1D82FF1F08B500F0E3FE0E4B1A7842F001021A701A7802F0FE021A7000F0DCFEFFF700FF0023084A1370084A1370084A1370084A137803F0F2
:401A4000FB031370FFF7C8FE08BD00BF906400401F82FF1F2082FF1F2182FF1F8164004070B506460C46002506E0705DFFF712FF0135EDB2013CE4B2002CF6D170BD00BFE3
:401A800008B501E00A4B1B780A4B1B7813F0200FF8D100F0A1FE084B1A7842F001021A701A7802F0FE021A7000F09AFE08BD00BF50640040636400409064004010B50F224B
:401AC000174B1A70174C0823236007210320FFF7D1FC15490320FFF7B9FC0423236007210220FFF7C7FC11490220FFF7AFFCFFF7C7FF00240E4B1C700E4B1C700E4B1C7056
:401B00000E4B1C700E4B1C700E4B1C70FFF79AFEFFF7ACFE0C4B1C70202202331A7010BD8064004080E100E0691B0000091C00001E82FF1F2282FF1F1D82FF1F1F82FF1F0D
:401B40002082FF1F2182FF1F8164004008B5054B1B7823B9FFF7B2FF0122024B1A70FFF747FE08BD6D81FF1F28E01F4B19781F4A137803F009030B431370137813F0040F2E
:401B800024D01B4B1B7813F0FF0F0CD1194A13780133DBB213701378DBB2072B06D90022144B1A7002E00022114B1A70114B1B78DBB2114AD35CDBB2104A13700D4B1A78A0
:401BC000D2B20F4B1B78DBB29A42CED1094B1A78D2B20B4B1B78DBB29A4204D1094A137803F0FB0313707047616400402382FF1F1F82FF1F2082FF1F2482FF1F40640040E3
:401C00002182FF1F81640040204B1A7820490B7803F0400313430B7032E01E4B1A78D2B21D490B780133DBB20B700B78DBB2072B02D90021184B1970174B1978C9B2174B1E
:401C40001B78DBB299420ED114490B780133DBB20B700B78DBB2072B02D900210F4B197001210F4B19700C4B1B78DBB20D49CA54064B1A7806490B7803F0400313430B70A1
:401C8000034B1B7813F0200FC7D17047636400401C82FF1F506400401D82FF1F2282FF1F1E82FF1F1482FF1F054A137843F0040313701032137843F004031370704700BF83
:401CC000A2430040014B1B681865704708ED00E04001C0B2014B1870704700BF04E400E01022014B1A60704700E100E01022014B1A60704780E100E010B50446FFF7F6FFC8
:401D00002046FFF7DFFF0720FFF7E2FFFFF7E8FF10BD00BF044A137803F0FD03400000F0020018431070704720510040024B1878C0F34000704700BF21510040084A1378EC
:401D400043F0010313701032137843F00103137002F64D32137843F001031370704700BFA3430040084A137803F0FE031370A2F65D32137803F0FE0313701032137803F08D
:401D8000FE031370704700BF004F0040014B1870704700BF034F0040014B1878704700BF034F0040014B1880704700BF044F0040014B1880704700BF064F004008B5154AE2
:401DC000137803F0010313700232137803F0FC031370114B1A7802F0CF021A701A7842F030021A701A7802F0F0021A701A7842F00F021A70094A137843F001031370632075
:401E0000FFF7D0FF6320FFF7D3FF0820FFF7BEFF08BD00BF004F00400B4F0040014F004008B5054B1B7823B9FFF7C8FF0122024B1A70FFF783FF08BD6E81FF1F024B1B682D
:401E4000C3F88400704700BF08ED00E04001C0B2014B1870704700BF11E400E04FF40032014B1A60704700BF00E100E04FF40032014B1A60704700BF80E100E010B5044693
:401E8000FFF7F4FF2046FFF7D9FF0720FFF7DEFFFFF7E4FF10BD00BF084A137843F0020313701032137843F00203137002F65932137843F001031370704700BFA343004022
:401EC000084A137803F0FE031370A2F66932137803F0FD0313701032137803F0FD031370704700BF0C4F0040014B1870704700BF0F4F0040014B1878704700BF0F4F00402E
:401F0000014B1880704700BF104F0040014B1880704700BF124F004008B5154A137803F0010313700232137803F0FC031370114B1A7802F0CF021A701A7842F030021A709D
:401F40001A7802F0F0021A701A7842F00F021A70094A137843F0010313703120FFF7D0FF3120FFF7D3FF0820FFF7BEFF08BD00BF0C4F0040174F00400D4F004008B5054BF2
:401F80001B7823B9FFF7C8FF0122024B1A70FFF783FF08BD6F81FF1F024B1B68C3F88800704700BF08ED00E04001C0B2014B1870704700BF12E400E04FF48022014B1A60D4
:401FC000704700BF00E100E04FF48022014B1A60704700BF80E100E010B50446FFF7F4FF2046FFF7D9FF0720FFF7DEFFFFF7E4FF10BD00BF014B1B685865704708ED00E0A5
:402000004001C0B2014B1870704700BF05E400E02022014B1A60704700E100E02022014B1A60704780E100E010B50446FFF7F6FF2046FFF7DFFF0720FFF7E2FFFFF7E8FF4B
:4020400010BD00BF10B59DF80840012C51D1013809282ED8DFE800F0052D2D052D2D0F192D230F2B03D92548007840B222E02448007840B21EE00F2B03D92248007840B2D9
:4020800018E02148007840B214E00F2B03D91F48007840B20EE01E48007840B20AE00F2B03D91C48007840B204E01B48007840B200E0002001EB401101FB02F1C90B8AB201
:4020C0000D2B0BD8C3F10E0289B211418AB2611E124800EB810101338B7005E0631E0F4901EB83030F219970013C0C4B23F8242010BD0020FFF788F910BD00BF1801004915
:402100001C010049190100491D0100491A0100491E0100491B0100491F0100497081FF1FF8B5074600F058FB06460D4D2B7843F003032B700B4C237843F0030323700A4B59
:402140001F700320FFF778F92B7803F0FC032B70237803F0FC032370304600F041FBF8BDF8460040F9460040925800400022324B1A7101285FD170B53822304B1A7004224B
:4021800002331A70062201331A70002401331C7001331C703F2201331A7002331C7001331C7001331C7001250A331D70502203F527631A700A2201331A702C2201331A7012
:4021C00001331C70442203331A70482201331A7001331D7002331D70112201331A70192201331A70972201331A705220FFF798FF5822134B1A7001331C70052605331E70DB
:40220000022201331A7001331C7001331C70204600F082F943F233320A4B1A602946304600F09EF92946252000F01EFA06491D20FFF70CF970BD70477081FF1F004E0040D2
:40224000945800402C82FF1FF5240000F0B583B0284D01272F70284E00247471102000F06DF9102000F0EEF907211D20FFF702F90422224B1A7001331C7007331C70204ACA
:40228000137843F0180313701E4B1C7003F2F5231C7001331C700A22A3F209331A7001331C7002331C705B2205331A705E2201331A7004331C701422A3F68C231A7000978D
:4022C00010234FF4004248F6F0510220FFF7BAFE2B78013B06EB83039A780B4B1A702B78013B36F82320094B1A802878FFF73EFF03B0F0BDE080FF1F7081FF1F9658004063
:40230000075B0040935800400E4E00400C4E004070B500F061FA06462A4B1B782A4B1A7842F001021A701A7842F010021A7010331A7842F001021A701A7842F010021A70BC
:40234000224D2B7843F002032B70214C237843F0020323701F4A137843F0030313700320FFF76AF82B7803F0FD032B70237803F0FD032370184A137843F0060313707A22E0
:40238000164B1A70164A137843F0010313701032137843F0010313700F3A137843F0010313701032137843F0010313704FF000530C4A1360A2F5C0721360304600F010FAEA
:4023C00070BD00BFE080FF1FAA430040F8460040F9460040915800407758004082580040A143004080E200E008B5084B9B794BB9064BDB7913F0FF0F01D1FFF727FF0122A2
:40240000024B9A71FFF784FF08BD00BF7081FF1F024A137843F0010313707047004E0040024A137803F0FE0313707047004E0040094B1B7913F0FF0F03D0074B5B79DBB250
:4024400003E0064B1B7803F00103012B01D00028EED01846704700BF7081FF1F014E0040154B1B7803F00303012B07D8134B1888023B1B889BB243EA004013E0022B0AD1BF
:402480000E4B1888023B1B7843EA00430C4A107843EA002006E00B4B188883B2074A108843EA0040084B1B7913F0FF0F02D00022054B5A71704700BF144E0040124E004092
:4024C000114E0040104E00407081FF1F10B5084A137843F004031370FFF79AFF0020FFF7A7FFFFF7BDFF0446FFF79AFF204610BD014E0040704700BF10B5002404E02046F0
:40250000FEF780FB0134E4B2012CF8D9FF22014B1A7010BDE180FF1F10B50446FFF7ECFF2046FEF761FB014B1C7010BDE180FF1F014B188880B2704780400040034B1A789F
:4025400000F0F80010431870704700BF82400040024B187800F00700704700BF8240004070B505460E46FFF7F3FF0446FFF7E0FFA84256D02B4B1B7803F0010294B900B1FC
:4025800085B938B9284B1D80284A137803F0BF03137070BD254A137843F040031370224B1D8070BD22B3002321490B7001240F310C7004310B700C390B7803F07F030B702A
:4025C0001A4B1B7813F0080F00D08DB9194B18800721013B1970164B1B7813F0010FFAD110490B7803F0FE030B700021104B19700C4B1B7813F0010F0DD00E4B1D800EB119
:40260000032200E001220A4B1A70094B1B7813F0010FFAD170BD044B1D8002490B7813430B7070BDA243004080400040824000400140004002400040014B188880B27047EA
:4026400000410040034B1A7800F0F80010431870704700BF02410040024B187800F00700704700BF0241004070B505460E46FFF7F3FF0446FFF7E0FFA84256D02B4B1B788C
:4026800003F0010294B900B185B938B9284B1D80284A137803F0BF03137070BD254A137843F040031370224B1D8070BD22B3002321490B70012413310C7004390B700839A0
:4026C0000B7803F07F030B701A4B1B7813F0080F00D08DB9194B18800721013B1970164B1B7813F0010FFAD110490B7803F0FE030B700021104B19700C4B1B7813F0010F37
:402700000DD00E4B1D800EB1032200E001220A4B1A70094B1B7813F0010FFAD170BD044B1D8002490B7813430B7070BDA1430040004100400241004001400040024000402B
:40274000044A137803F07F03C001C0B218431070704700BF00510040024B1878C0F38000704700BF31510040024B1878C0F38000704700BF83450040014B1B68D86570475D
:4027800008ED00E04001C0B2014B1870704700BF07E400E08022014B1A60704700E100E08022014B1A60704780E100E010B50446FFF7F6FF2046FFF7DFFF0720FFF7E2FF0A
:4027C000FFF7E8FF10BD00BF0230800803D000BF01380046FCD17047EFF3108072B6704780F31088704700BF014B1868704700BF4481FF1F0E4B70B51E460E4C0025E41ACB
:40280000A410A54204D056F8253098470135F8E700F0FEFD084B094C1E46E41AA4100025A54204D056F8253098470135F8E770BD1C3400001C3400001C34000024340000FD
:4028400010B5431E0A44914204D011F8014B03F8014FF8E710BD03460244934202D003F8011BFAE7704700000EB400B54FF402719CB0ADF814106FF00041049107914FF6B8
:40288000FF711DAB02900690084853F8042BADF81610006802A9019300F064F8029B00221A701CB05DF804EB03B070474481FF1F2DE9F0478E6882469E420C469146984698
:4028C0003ED88A8912F4906F3AD02568096902236F1A656905EB450595FBF3F57B1C43449D4238BF1D4653050FD5294600F040FB064698B13A462169FFF7A2FFA38923F4CD
:40290000906343F08003A38113E02A4600F08EFB064670B92169504600F0DEFA0C23CAF80030A3894FF0FF3043F04003A381BDE8F08726613E44266046466561ED1BA56032
:40294000464528BF464649463246206800F0A8FAA36800209B1BA36023681E442660BDE8F08700002DE9F04F9DB003938B8980461C060D4616460DD50B695BB9402100F027
:40298000F7FA2860286118B90C23C8F80030CDE040236B610023099320238DF82930DFF89CB130238DF82A3037463C4614F8013B1BB9B7EB060910D003E0252BF9D02746FE
:4029C000F3E74B46324629464046FFF771FF013000F0A780099B4B4409933B78002B00F0A08000234FF0FF3204930793059206938DF853301A930126052221784E4800F07E
:402A000041FA671C049B38B14B4A3C46801A06FA00F018430490EFE7D90644BF20228DF853201A0744BF2B228DF8532022782A2A03D0079A00210A200BE0039A111D126888
:402A40000391002A10DA524243F00200079204900BE027463B780134303B092B03D800FB02320121F5E701B107923B782E2B1ED17B782A2B0AD1039B02371A1D1B68039242
:402A8000002BB8BF4FF0FF33059310E0002319460593781C0A2407463A780130303A092A03D804FB01210123F5E703B1059103223978224800F0E6F940B14023CBEB000073
:402AC00003FA00F0049B013718430490397806221B487E1C8DF8281000F0D4F988B1194B33B9039B073323F007030833039314E003AB00932A46144B04A94046AFF300802B
:402B000007E003AB00932A460F4B04A9404600F093F8B0F1FF3F824603D0099B5344099342E7AB895B0601D4099801E04FF0FF301DB0BDE8F08F00BFDC330000E23300004D
:402B4000E633000000000000B12800002DE9F04791461F460A698B6806469342B8BF1346C9F8003091F843200C46DDF8208012B10133C9F800302368990642BFD9F80030CB
:402B80000233C9F80030256815F0060510D104F1190A07E00123524639463046C04701301AD00135E368D9F800209B1A9D42F1DB94F843302268003318BF012392060FD59A
:402BC000E118302081F843005A1C94F845102244023382F8431003E04FF0FF30BDE8F08704F1430239463046C0470130F4D02268D9F80050E36802F00602042A08BF5D1B1C
:402C00002269A3680CBF25EAE57500259342C4BF9B1AED184FF000091A344D4509D00123224639463046C0470130D5D009F10109F3E70020BDE8F0872DE9F04317460A7EEC
:402C400085B06E2A984606460C460C9B01F1430E00F0AE8011D8632A22D009D8002A00F0BB80582A40F0CA8081F84520834955E0642A1ED0692A1CD0C0E0732A00F0B08032
:402C800009D86F2A2ED0702A40F0B8800A6842F020020A603EE0752A24D0782A3AD0ADE01A6801F14205111D1960136884F84230A8E021681A6811F0800F02D0111D196019
:402CC00008E011F0400F02F10401196002D0B2F9003000E01368002B3CDA2D225B4284F8432037E021681A6811F0800F02D0111D196007E011F0400F02F10401196001D073
:402D0000138800E01368227E5C496F2A14BF0A2208221BE078225A4984F845202268186812F0800F00F104051D6003D1550601D5038800E00368D00744BF42F020022260E0
:402D40001BB9226822F0200222601022002084F8430001E049490A226568002DA56008DB206820F0040020602BB9002D7DD175460CE0002B79D07546B3FBF2F002FB10338C
:402D8000CB5C05F8013D03460028F5D1082A0BD12368DA0708D5236962689A42DEBF302305F8013C05F1FF35C5EB0E0323612EE008681A6810F0800F496903D0101D18609F
:402DC000136808E010F0400F02F104001860136801D0198000E0196000232361754616E01A68111D1960156800216268284600F049F808B1401B6060636804E004F142052D
:402E000084F8422001232361002384F84330CDF800803B4603AA21463046FFF797FE013002D14FF0FF3026E023692A4639463046C0470130F5D023689B0710D5002504F18D
:402E4000190907E001234A4639463046C0470130E7D00135E368039A9B1A9D42F2DBE068039B9842B8BF184605E00B7804F1420584F842308AE705B0BDE8F083ED330000AD
:402E8000FE33000010B5C9B202449042034605D01C7801308C42F8D1184610BD002010BD884210B501EB020301D8421E0BE09842FBD28118D21AD34204D013F8014D01F8EC
:402EC000014DF8E710BD994204D011F8014B02F8014FF8E710BD000038B50546002944D051F8043C0C1F002BB8BFE41800F0D4F81E4A1368114613B96360146030E0A34229
:402F00000DD92268A018834201BF18685B681218226063600C6023E0A24203D813465A68002AF9D118681918A1420BD12168014458188242196013D1106852680144196036
:402F40005A600DE002D90C232B6009E021686018824201BF106852680918216062605C602846BDE8384000F098B838BD8081FF1F70B5CD1C25F0030508350C2D38BF0C25AD
:402F8000002D064601DBA94202D90C23336046E000F082F8234B1C681A462146A1B10B685B1B0ED40B2B03D90B60CC18CD501EE08C420BBF63684B681360636018BF0C46DD
:402FC00015E00C464968E9E7174C23681BB9304600F052F820602946304600F04DF8431C18D0C41C24F00304A0420DD12560304600F053F804F10B00231D20F00700C31A91
:403000000ED05A42E25070BD211A304600F034F80130EBD10C233360304600F03EF8002070BD00BF8081FF1F7C81FF1FF8B5074615460E4621B91146BDE8F840FFF798BF55
:403040001AB9FFF749FF2846F8BD00F027F885420ED929463846FFF78BFF044650B131462A46FFF7EDFB31463846FFF735FF01E03046F8BD2046F8BD38B5064C00230546EF
:4030800008462360FDF772FE431C02D1236803B12B6038BD3082FF1F7047704751F8040C0028BEBF091851F8043CC01804387047000000000F00E0FF020100005E5E5E5ED0
:4030C0005E5E5E5E2046696E616C2050726F6A6563743A204E6F656D6920476F7A7A692C204C6F72656E7A6F204672616E63696F6C69205E5E5E5E5E5E5E5E0D0A0A0000B5
:403100002A2A2A2A2A2A2A2A2A2A2A2A2A2A2A2A205445535420454550524F4D20616E64204C495333444820434F4E46494755524154494F4E2A2A2A2A2A2A2A2A2A2A2AC7
:403140002A2A2A2A2A2A2A2A200D0A0A00000000202D2D3E20454550524F4D20546573742052656164203D2025642025642025642C206578706563746564203135202D33C6
:4031800032203235380D0A0A00000000202D2D3E204C49533344482057484F204920414D205245474953544552203D203078253032580D0A00000000202D2D3E204C4953F9
:4031C000334448204354524C20524547495354455220313D203078253032580D0A000000202D2D3E204C4953334448204354524C20524547495354455220343D2030782513
:403200003032580D0A000000202D2D3E204C4953334448204354524C20524547495354455220353D203078253032580D0A000000202D2D3E204C4953334448204649464F51
:40324000204354524C2052454749535445522028425950415353206D6F646529203D203078253032580D0A00202D2D3E204C4953334448204649464F204354524C20524582
:4032800047495354455220284649464F206D6F646529203D203078253032580D0A000000202D2D3E204C4953334448204354524C20524547495354455220333D20307825F5
:4032C0003032580D0A000000202D2D3E204C495333444820494E542031204346472052454749535445523D203078253032580D0A00000000202D2D3E204C49533344482013
:40330000494E5431205448532052454749535445523D203078253032580D0A00202D2D3E204C4953334448204455524154494F4E2052454749535445523D203078253032CC
:40334000580D0A004C41204D454D49204527204C41204D49474C494F52452043484520434920534941000000544852455348203078253032580D0A00583A2025642C205953
:403380003A2025642C205A3A202564205B6D675D0D0A0000035B00402443004040000000004F00401800405100403000F0510040100080000140800F001401400008004033
:4033C0000140000A004C0140000200500140200000000140CC08004880004300232D302B2000686C4C00656667454647003031323334353637383941424344454600303130
:4034000032333435363738396162636465660000F8B500BFF8BC08BC9E4670474D000000E90D0000F8B500BFF8BC08BC9E4670472900000048340000C880FF1F80000000BF
:40344000F000000000000000000000003882FF1F0000E02EC05D00001800000000366E0101FF0000000000000000000000000000000000000000000000000000000000009C
:4034800000000000DA3300000000000000000000000000000000000000000000000000000000000000000000000000000000000000000000000000000000000000000000FF
:4034C00000000000E480FF1F00000000000000000000000000000000000000000000000000000000000000000000000000000000000000000000000000000000000000004A
:40350000000000000000000000000000000000000000000000000000000000000000000000000000000000000000000000000000000000000000000000000000000000008B
:40354000000000000000000000000000000000000000000000000000000000000000000000000000000000000000000000000000000000000000000000000000000000004B
:40358000000000000000000000000000000000000000000000000000000000000000000000000000000000000000000000000000000000000000000000000000000000000B
:4035C00000000000000000000000000000000000000000000000000000000000000000000000000000000000000000000000000000000000000000000000000000000000CB
:020000040003F7
:0200000480007A
:4000000002450040044F0040065200400464004003650040160001403C010140520201403C0301406604014045050140590601404C070140020B0140010D01405D1401401B
:40004000521501406B1601404D1701400418014002190140031B01400A400140114101400942014005430140034401400645014006460140014701400948014013490140CD
:40008000044C0140074D014005500140025101401A03640101500A360D60161B004001401860194060846440800F820F840F86388572860D870F85C3871C8D028F0D919598
:4000C000936A958997769B20B10FB360B510B780BB02BF50D409D604D904DB04DC20DD20DF0100980102080109080A49102812011814192020082114221E244025402728C9
:4001000028012B80321A33403502360A3721388039163A013C484084410444024540480449014A024B04512853805C205D805F06604064026740686869146A406B40704089
:40014000720180108740C00FC20FC407CA09CCEFCE5FD007D20CD6F0D891040E0A200C050E0A150116201704181019041B031E4022402404260928032A042F083010310460
:400180003240330834203502360F370138803E1552805407580459045B045C725D405F0181108360841085CD8640898D8B408C0C8DCD8E7190DC9112922293649410957218
:4001C00096AC970899029A039B0D9C099DCD9ED0A380A414A901AA20AB32AD4DAF80B0E0B170B380B41FB50FBA02BB22BF04D440D604D804D904DB04DC23DD20DF010040F3
:4002000002100515064007010A650D800E040F20120413041404152918401A041E0A1F0521092220250126802728280529012D80322833413728388039165EA85F01612814
:400240006242740181018A028F019080913C9502980199019B419C80A120A208A820ABA0ADA0AF0AC0E5C2EFC476CA1DCC6FCE0FD6F0D80FE62001C0051009100C710D10D9
:400280000E0E102C12431310147115021606171D19A31B541D011E0C1F3A21102608288029632A132B8C300F31E0331F343036C038A039023A023B083E104002464049FF43
:4002C0004A074BFF4C404D204EF04F05500856025728580459045A045B045C135D135F01604061A8624063208007830884078A0494019B049D01A107A208A907B001B102C3
:40030000B202B304B408B501B604B708C020C106C5D0C621C745C83FC9FFCAFFCBFFCDA0CF04D018D804D904DA04DC44DD04DF01E040E2C0E440E540E6C0E8C0EAC0ECC087
:40034000EEC000C00518064008010A610E101214168018041A411D301E92210925402618278028082B802E022F08310832A0330135103780388039163C02400443C0452008
:400380004D084F2151045214564257186108682869146B41704082098740904093089501966197059D109E14A001A580A650A710A904AA01AE80B080B180C071C22DC4164B
:4003C000CAA5CC3FCE8FD024D220D802040305010B0214021601170218021A01240329012D01300231013302360138803B203E013F045418580459045B045C335D305F01ED
:40040000807281E283188481859D8674891D8B808C228D9D8E50918D931094639580968C9740982299029B0D9C239D9D9ED8A472A542A794A850A911AA22AB22AC72B08041
:40044000B260B41FB50FB601B7F0B820BBE0BE41C063C104C5EBC6C0C80BC9FFCAFFCBFFCEF0CF44D00CD409D604D804D904DA04DB04DC11DD13DF01E6C0EA40EB0200045F
:4004800002200341071008180A180B010E24102811401708180519101A901B201D801E40200221202280230125012604270828082B202F0A31283204334137043880395492
:4004C0003B013D083F204040410449014B245210581059045A825E0260016340670A7E107F1090C0911C9201930895019620974498019A049B419C089E80A068A140A58074
:40050000A6A0C02DC267C427CA36CC4FCE6FD003D204D68FD839EA20EE80E040040E051207050808091F140E1D041E031F1821092306291F2A013001320433033402360886
:40054000371C3E014040410645D14702481B49FF4AFF4BFF4DA04F04501854405604580459045A045B045C345D145F01604062C06440654066C068C06AC06CC06EC08004B7
:40058000812182208447850486188808890C8C108D7F905F9108941C95429642981C991C9A419B639D639E04A173A243A30CA50FA770A818AF73B160B21FB30FB458B51C97
:4005C000B620BA28BB08D602D710D804D904DB04DC33DD30DF0100100108050206040711088009400B200E250F801008144016801720185019801B101E252144228826014F
:40060000271429022B082C802E84328036983701382039083E283F824080480849084B01500853105E406021612062016C106D086F0A762C7721831089028B018CC08E04B4
:400640008F109001924095889604970198609D829E019F14A160A340A504A615A70AAB48AF04C0F6C2F5C452CAD5CCF8CEF6D001D204D610D80FEC10EE01022008020A0CD6
:400680000C0E0E011203140D1602220426202E1030073208363038083E40402441034205440145E046C0480A49FF4AFF4BFF4C624DA04EF04F41500C5280540558045A044E
:4006C0005B045C015D435F016640670269106A306B106D106E106F128301850589058C138D058E04900A921493059413960C9D059E08A102A403A614AA15B010B104B20F64
:40070000B302B501BA08BE01BF15C065C103C240C402C5DEC6FBC70CC81FC9FFCAFFCBFFCC22CEF0CF0CD004D401D804D904DA04DB04DC03DD31DF01E2C0E440E501E610BA
:40074000E711E8C0E901EB11EC40ED01EE40EF010080055208010A210D020E1010101214158816401AA01D821F04204022252901334134203620388139143B0240484210C2
:40078000444045814718480149544B024D014E02512852405710581059015A885D805E085F0176808008820283048D0290809114925195019626980199119A149B499D048E
:4007C0009E819F14A041A141A50CA611A71AAA04AB01B601C0D1C23DC4B6CA01CC09CE0FD0F7D21CD6DFE614EE40B808BE04D804DF011810E604A810E280EC113008312021
:4008000036403702381082088702CCF0CE10E6C033806001660880108808900194109A08A408A520A640A801CC10D640D880E680EA80820183028640A520A640AF80E22031
:40084000E6C0EE1065049A019B02A520D8807C407D02DE0500288C409440A501C00AE0024508A501B014D001EA04EE01A509251065048D089A019B029D04B520C820D880AA
:400880005B025C02660171087502800299029A019B02A108A904AD02B510D6C0D880DC80DE20E680EE900B028301A509C20210408840A901B508C408E201EC08009E089C74
:4008C0000A1A101A1A1A00FF010F00000A1810000718380201020018841A000004C18038609C000356330944841A000000820000840000008000040004180002000F7FE01D
:40090000801300000800000A000010005306200004DEFC0B1FFFFFFF2200F008040000000000022C04040404222200010000C00040011011C001001140014001000000006D
:4009400000000000000000000000000000E0E000600000008400508C8C008C00000000008000408B8B0000000000000014000116120000000000000000E4E400E00008001C
:4009800025001801000000000000000000000000000000000000000000000000000000000000000000000000000000000000000000000000000000000000000000000000F9
:4009C00000000000000000000000000000000000000000000000000000000000000000000000000000000000000000000000000000000000000000000000000000000000F7
:400A000000000000000000000000000000000000000000000000000000000000000000000000000000000000000000000000000000000000000000000000000000000000B6
:400A40000000000000000000000000000000000000000000000000000000000000000000000000000000000000000000000000000000000000000000000000000000000076
:400A80000000000000000000000000000000000000000000000000000000000000000000000000000000000000000000000000000000000000000000000000000000000036
:0200000490006A
:0400000000004005B7
:0200000490105A
:04000000BC90ACAF55
:0200000490303A
:020000002412C8
:0200000490402A
:4000000000000000000000000000000000000000000000000000000000000000000000000000000000000000000000000000000000000000000000000000000000000000C0
:400040000000000000000000000000000000000000000000000000000000000000000000000000000000000000000000000000000000000000000000000000000000000080
:400080000000000000000000000000000000000000000000000000000000000000000000000000000000000000000000000000000000000000000000000000000000000040
:4000C0000000000000000000000000000000000000000000000000000000000000000000000000000000000000000000000000000000000000000000000000000000000000
:0200000490501A
:0C00000000012E16106900012E2C347B2C
:00000001FF