:400000000080002011000000E5040000E504000008B5044B1A6803F53F5302331A6000F081FA00BFFA46004010B5054C237833B9044B13B10448AFF300800123237010BD2A
:400040004881FF1F0000000050150000084B10B51BB108490848AFF300800848036803B910BD074B002BFBD0BDE81040184700BF000000004C81FF1F50150000C880FF1F38
:400080000000000010B584B062B600F09FFD00F061FC0A2000F028FD0F2000F0CBF8334C02463349204600F02FFE204600F0A8FD2721202000F0D4F8202000F0BBF8024605
:4000C0002C49204600F020FE204600F099FD1021232000F0C5F8232000F0ACF802462649204600F011FE204600F08AFDA0238DF80030C0238DF80730272000F09BF810F059
:40010000080FF9D0062202A9282000F0BDF89DF908309DF9091043EA01218911C90089B29DF90A309DF90B2043EA02229211D20092B29DF90C309DF90D0043EA00239B11A9
:40014000DB009BB28DF80110090A8DF802108DF80320120A8DF804208DF805301B0A8DF806300821684600F05DFDC5E77081FF1F541500007C150000A01500002DE9F0433C
:4001800083B006460C4617469846002000F090FC64B2002511E02146082CA8BF0821C9B206EBC50000F05EFB00F04EFA10F0010FFAD0083C64B201356DB2002CEBDC00F022
:4001C00061FB00F005FB0026009601964FFA88F820E0C146B8F1080FA8BF4FF008095FFA89F1684600F03EFB00F02EFA10F0010FFAD0002406E004EBC60500F0B7FA78554B
:400200000134E4B24C45F6DBA8F108084FFA88F8013676B2B8F1000FDBDC012000F048FC00F030FB00F0D4FA00F0F2FA03B0BDE8F08300BF00B583B000F03F0060F07F00D7
:400240008DF8040002AA002302F8053D0123194601A8FFF793FF9DF8030003B05DF804FB00B583B000F03F008DF804008DF80510002302AA02F8053D022101A8FFF77EFF13
:4002800003B05DF804FB00BF00B583B040F0C00302A800F8043D13460A460121FFF76EFF03B05DF804FB00BFFEE700BFF0B40022174611E050F82760F3B226F0FF0608E097
:4002C00001EB420511F812406D78A5550132013BDBB2002BF4D10137192FEBD9F0BC7047064B1B78DBB203F00701054A11701B09013213704422034B1A707047CF010049DA
:400300006E5800407658004008B50A46002100F0F2FC08BD38B50B22264B1A801823264A1370332102321180023213700222234B1A7008224FF040231A70032103F50073B4
:4003400019701F4B1B78DBB21E490B701E4B1A8041F25122023B1A80002419250CE01B4B1B7803F0010343EA440404F003044FF4F07000F079FC013D0DB1032CEFD115B999
:400380000320FFF791FF124B4FF480721A8007221A7000220F490A704820023108701A700222033B1A700C4A137843F00303137038BD00BF80400040824000400043004062
:4003C00008010049A146004022420040254200400440004006400040A243004008B500F07FFC08BD38B572B6314A137843F00403137000240CE02F4D630019194A00114683
:400400002A44084691882858FFF77EFF0134E4B2082CF0D900240CE02648A20011194B000344B3F84020D96B986BFFF7D7FF0134E4B2012CF0D920494FF09040FFF736FFCE
:400440001E4A137843F0020313701032137843F0020313701A4C237843F040032370A2F58632513A137843F0100313700A2215491548FFF7B3FF082214491548FFF7AEFFF8
:40048000144A137843F008031370134D61232B70FFF740FF81232B700122104B1A70FFF71FFF0E2221460E48FFF798FF38BD00BFE8460040C41500006800004803500140CA
:4004C000A043004068050048C05100407405004812510040224300400048004004000840B043004008B500F0CFFB03680C2B00D1FEE7FEE708B5094B1A681044084BC31AF8
:40050000802B02DC054B186005E000F0BDFB0C2303604FF0FF32104608BD00BFCC80FF1FF881FF1F08B5104E104D16E029686B68AC68002204E051F8040B43F8040B04323C
:40054000A242F8D1E868002203E0002143F8041B04328242F9D11035013E002EE6D100F099FBFFF78FFDFEE7010000006C16000008B5104A104B1A60104A136843F40073F8
:40058000136000230AE0032B03D80D4A52F8231000E00C490C4A42F8231001332F2BF2D90A4B1A780A4B1A70074A0A4B1A60FFF719FF08BD0004FA050CED00E014ED00E017
:4005C00000000000E50400000080FF1FBC760040C080FF1F08ED00E00222014B1A60704700E100E00122014B1A60704700E100E008B500F041FB0D4A137843F02003137068
:40060000A2F58172137843F01003137002F20112137843F01003137000F032FB00F054FAFFF7DAFFFFF7DEFF08BD00BF976500400222014B1A60704780E100E00122014B73
:400640001A60704780E100E010B5FFF7F1FF064B1C78064A137803F009031C4300231370FFF7BAFF204610BD65640040D481FF1F10B5FFF7E3FF064B1B78064A147804F0EA
:4006800040041C4300231370FFF7ACFF204610BD66650040E581FF1F10B504462B4B1A7802F0FF0312B1013BDBB200E00723284A1278D2B29342F1D0FFF7BAFF254B197827
:4006C000254A137803F009030B4313701F4B1A78D2B21F4B1B78DBB29A4207D11E4B1B7813F0040F02D01D4B1C702CE0184A13780133DBB213701378DBB2072B02D9002216
:40070000134B1A70124B1A78D2B2104B1B78DBB29A420ED10D4A13780133DBB213701378DBB2072B02D90022084B1A7001220C4B1A70074B1B78DBB20A4AD4540A4A13780D
:4007400043F004031370FFF747FF10BDE681FF1FE481FF1F65640040D481FF1F45640040E081FF1FD881FF1F8564004010B5FFF765FF134B1A78D2B2124B1B78DBB29A423B
:4007800014D0114B1B7813F0FF0F0CD10C4A13780133DBB213701378DBB2072B06D90022074B1A7002E00022074B1A70044B1B78DBB2064AD45CE4B2FFF714FF204610BD8B
:4007C000E381FF1FE181FF1FE281FF1FE881FF1F08B501E0094B1B78094B1B7813F0200FF8D1FFF72BFF0023064A1370064A1370064A1370FFF7F6FE08BD00BF5564004065
:4008000066650040E281FF1FE381FF1FE181FF1F08B500F031FA0E4B1A7842F001021A701A7802F0FE021A7000F02AFAFFF700FF0023084A1370084A1370084A1370084A9D
:40084000137803F0FB031370FFF7C6FE08BD00BF95640040E081FF1FE681FF1FE481FF1F8564004070B506460C46002506E0705DFFF712FF0135EDB2013CE4B2002CF6D115
:4008800070BD00BF08B501E00A4B1B780A4B1B7813F0200FF8D100F0EFF9084B1A7842F001021A701A7802F0FE021A7000F0E8F908BD00BF556400406665004095640040C7
:4008C00010B50F22184B1A70184C022323600721012000F033F91649012000F01BF9012323600721002000F029F91249002000F011F9FFF7C7FF00240F4B1C700F4B1C70FE
:400900000F4B1C700F4B1C700F4B1C700F4B1C70FFF79AFEFFF7ACFE0D4B1C70202203F201131A7010BD00BF8765004080E100E071090000110A0000E281FF1FE381FF1FA7
:40094000E181FF1FE081FF1FE681FF1FE481FF1F8564004008B5054B1B7823B9FFF7B0FF0122024B1A70FFF743FE08BD6481FF1F28E01F4B19781F4A137803F009030B43E9
:400980001370137813F0040F24D01B4B1B7813F0FF0F0CD1194A13780133DBB213701378DBB2072B06D90022144B1A7002E00022114B1A70114B1B78DBB2114AD35CDBB255
:4009C000104A13700D4B1A78D2B20F4B1B78DBB29A42CED1094B1A78D2B20B4B1B78DBB29A4204D1094A137803F0FB031370704765640040D481FF1FE081FF1FE681FF1F9D
:400A0000D881FF1F45640040E481FF1F85640040204B1A7820490B7803F0400313430B7032E01E4B1A78D2B21D490B780133DBB20B700B78DBB2072B02D90021184B1970DA
:400A4000174B1978C9B2174B1B78DBB299420ED114490B780133DBB20B700B78DBB2072B02D900210F4B197001210F4B19700C4B1B78DBB20D49CA54064B1A7806490B78EA
:400A800003F0400313430B70034B1B7813F0200FC7D1704766650040E581FF1F55640040E181FF1FE381FF1FE281FF1FE881FF1F044A137803F0F703C00000F00800184362
:400AC00010707047C0510040054A137843F0010313701032137843F001031370704700BFA243004001BE704710B5044605E0084B186800F0B9F8A4F50044B4F5004FF6D837
:400B0000034B586800FB04F000F0AEF810BD00BFD080FF1F70B504460E46074B1D681F2802D90020FFF7DEFF04F01F04103455F8240045F8246070BD08ED00E038B50446B3
:400B40000D46072902D90020FFF7CCFF1F2C02D90020FFF7C7FF04F01F0000F1604000F564406D01EDB2057038BD00BF7222084B1A702022013B1A700622A3F5B0731A70DB
:400B8000472210331A70002253331A70704700BF8565004010B500F06FF804460A4A137843F020031370013A137843F010031370FD3A137843F01003137000F047F8204660
:400BC00000F05EF810BD00BF9565004008B5054B1B7823B9FFF7CAFF0122024B1A70FFF7D9FF08BD6581FF1F034B1B7813F0040FFAD1024B187070476764004047640040D9
:400C000038B5074B1B782BB938BDFFF7EDFF0134A4B201E005460024285D0028F5D138BD6581FF1F084B1B7833B97047305DFFF7DBFF0134E4B203E070B50D460646002464
:400C4000AC42F3D370BD00BF6581FF1F054A137843F0020313701032137843F002031370704700BFA24300400230800803D000BF01380046FCD17047EFF3108072B6704778
:400C800080F31088704700BF014B1868704700BF4081FF1F0E4B70B51E460E4C0025E41AA410A54204D056F8253098470135F8E700F0CAFC084B094C1E46E41AA410002594
:400CC000A54204D056F8253098470135F8E770BD5416000054160000541600005C16000010B5431E0A44914204D011F8014B03F8014FF8E710BD03460244934202D003F82D
:400D0000011BFAE7704700000EB400B54FF402719CB0ADF814106FF00041049107914FF6FF711DAB02900690084853F8042BADF81610006802A9019300F064F8029B002204
:400D40001A701CB05DF804EB03B070474081FF1F2DE9F0478E6882469E420C46914698463ED88A8912F4906F3AD02568096902236F1A656905EB450595FBF3F57B1C43441B
:400D80009D4238BF1D4653050FD5294600F040FB064698B13A462169FFF7A2FFA38923F4906343F08003A38113E02A4600F08EFB064670B92169504600F0DEFA0C23CAF8B4
:400DC0000030A3894FF0FF3043F04003A381BDE8F08726613E44266046466561ED1BA560464528BF464649463246206800F0A8FAA36800209B1BA36023681E442660BDE86A
:400E0000F08700002DE9F04F9DB003938B8980461C060D4616460DD50B695BB9402100F0F7FA2860286118B90C23C8F80030CDE040236B610023099320238DF82930DFF818
:400E40009CB130238DF82A3037463C4614F8013B1BB9B7EB060910D003E0252BF9D02746F3E74B46324629464046FFF771FF013000F0A780099B4B4409933B78002B00F0BB
:400E8000A08000234FF0FF3204930793059206938DF853301A930126052221784E4800F041FA671C049B38B14B4A3C46801A06FA00F018430490EFE7D90644BF20228DF8A7
:400EC00053201A0744BF2B228DF8532022782A2A03D0079A00210A200BE0039A111D12680391002A10DA524243F00200079204900BE027463B780134303B092B03D800FBE6
:400F000002320121F5E701B107923B782E2B1ED17B782A2B0AD1039B02371A1D1B680392002BB8BF4FF0FF33059310E0002319460593781C0A2407463A780130303A092AAC
:400F400003D804FB01210123F5E703B1059103223978224800F0E6F940B14023CBEB000003FA00F0049B013718430490397806221B487E1C8DF8281000F0D4F988B1194B72
:400F800033B9039B073323F007030833039314E003AB00932A46144B04A94046AFF3008007E003AB00932A460F4B04A9404600F093F8B0F1FF3F824603D0099B5344099335
:400FC00042E7AB895B0601D4099801E04FF0FF301DB0BDE8F08F00BF12160000181600001C16000000000000510D00002DE9F04791461F460A698B6806469342B8BF1346F8
:40100000C9F8003091F843200C46DDF8208012B10133C9F800302368990642BFD9F800300233C9F80030256815F0060510D104F1190A07E00123524639463046C04701306C
:401040001AD00135E368D9F800209B1A9D42F1DB94F843302268003318BF012392060FD5E118302081F843005A1C94F845102244023382F8431003E04FF0FF30BDE8F08750
:4010800004F1430239463046C0470130F4D02268D9F80050E36802F00602042A08BF5D1B2269A3680CBF25EAE57500259342C4BF9B1AED184FF000091A344D4509D0012382
:4010C000224639463046C0470130D5D009F10109F3E70020BDE8F0872DE9F04317460A7E85B06E2A984606460C460C9B01F1430E00F0AE8011D8632A22D009D8002A00F0BA
:40110000BB80582A40F0CA8081F84520834955E0642A1ED0692A1CD0C0E0732A00F0B08009D86F2A2ED0702A40F0B8800A6842F020020A603EE0752A24D0782A3AD0ADE0AD
:401140001A6801F14205111D1960136884F84230A8E021681A6811F0800F02D0111D196008E011F0400F02F10401196002D0B2F9003000E01368002B3CDA2D225B4284F8AE
:40118000432037E021681A6811F0800F02D0111D196007E011F0400F02F10401196001D0138800E01368227E5C496F2A14BF0A2208221BE078225A4984F845202268186808
:4011C00012F0800F00F104051D6003D1550601D5038800E00368D00744BF42F0200222601BB9226822F0200222601022002084F8430001E049490A226568002DA56008DBB6
:40120000206820F0040020602BB9002D7DD175460CE0002B79D07546B3FBF2F002FB1033CB5C05F8013D03460028F5D1082A0BD12368DA0708D5236962689A42DEBF30237B
:4012400005F8013C05F1FF35C5EB0E0323612EE008681A6810F0800F496903D0101D1860136808E010F0400F02F104001860136801D0198000E0196000232361754616E055
:401280001A68111D1960156800216268284600F049F808B1401B6060636804E004F1420584F8422001232361002384F84330CDF800803B4603AA21463046FFF797FE01309B
:4012C00002D14FF0FF3026E023692A4639463046C0470130F5D023689B0710D5002504F1190907E001234A4639463046C0470130E7D00135E368039A9B1A9D42F2DBE06825
:40130000039B9842B8BF184605E00B7804F1420584F842308AE705B0BDE8F083231600003416000010B5C9B202449042034605D01C7801308C42F8D1184610BD002010BD23
:40134000884210B501EB020301D8421E0BE09842FBD28118D21AD34204D013F8014D01F8014DF8E710BD994204D011F8014B02F8014FF8E710BD000038B50546002944D0F9
:4013800051F8043C0C1F002BB8BFE41800F0D4F81E4A1368114613B96360146030E0A3420DD92268A018834201BF18685B681218226063600C6023E0A24203D813465A6845
:4013C000002AF9D118681918A1420BD12168014458188242196013D110685268014419605A600DE002D90C232B6009E021686018824201BF106852680918216062605C603E
:401400002846BDE8384000F098B838BD6C81FF1F70B5CD1C25F0030508350C2D38BF0C25002D064601DBA94202D90C23336046E000F082F8234B1C681A462146A1B10B682D
:401440005B1B0ED40B2B03D90B60CC18CD501EE08C420BBF63684B681360636018BF0C4615E00C464968E9E7174C23681BB9304600F052F820602946304600F04DF8431CF0
:4014800018D0C41C24F00304A0420DD12560304600F053F804F10B00231D20F00700C31A0ED05A42E25070BD211A304600F034F80130EBD10C233360304600F03EF800200E
:4014C00070BD00BF6C81FF1F6881FF1FF8B5074615460E4621B91146BDE8F840FFF798BF1AB9FFF749FF2846F8BD00F027F885420ED929463846FFF78BFF044650B13146CA
:401500002A46FFF7EDFB31463846FFF735FF01E03046F8BD2046F8BD38B5064C0023054608462360FEF7E6FF431C02D1236803B12B6038BDF081FF1F7047704751F8040C78
:401540000028BEBF091851F8043CC01804387047000000002A2A204C49533344482057484F204920414D205245474953544552203D203078253032580D0A00002A2A204CB1
:401580004953334448204354524C20524547495354455220313D203078253032580D0A002A2A204C4953334448204354524C20524547495354455220343D203078253032D5
:4015C000580D0A00005100401000205100405000F0510040100000000140800400050140000B00140140000800400140000A004C0140000200500140200000006052004019
:40160000E0040048060080040140E804004880004300232D302B2000686C4C006566674546470030313233343536373839414243444546003031323334353637383961625B
:401640006364656600000000F8B500BFF8BC08BC9E4670474D00000071050000F8B500BFF8BC08BC9E4670472900000080160000C880FF1F80000000B000000000000000C2
:4016800000000000F881FF1F0000E02EC05D00001800000000366E010000000000000000000000000000000000000000000000000000000000000000101600000000000085
:4016C0000000000000000000000000000000000000000000000000000000000000000000000000000000000000000000000000000000000000000000E080FF1F000000006C
:4017000000000000000000000000000000000000000000000000000000000000000000000000000000000000000000000000000000000000000000000000000000000000A9
:401740000000000000000000000000000000000000000000000000000000000000000000000000000000000000000000000000000000000000000000000000000000000069
:401780000000000000000000000000000000000000000000000000000000000000000000000000000000000000000000000000000000000000000000000000000000000029
:4017C00000000000000000000000000000000000000000000000000000000000000000000000000000000000000000000000000000000000000000000000000000000000E9
:020000040003F7
:0200000480007A
:400000000164004003650040010301401A040140300501405C06014046070140010D01404114014047150140511601404517014001190140011B014003400140044101409F
:40004000094201400243014002440140014501400448014003490140024C0140074D01400450014001510140870F84388572870FEE0209030B041106170119051B0231076E
:4000800039024003450449FF4A074BFF4C404D204EF04F05500859045A045D015F01604061A862406320068007180C040D280E0215451C401D202102241026A827102C04F3
:4000C0002D062EC0312A3683371838103DC13E0A410444804528460848104D0A4E0950085540562057085C625D08674287408880C070C2E0C4B0CAF0CCF7CED4D0E2D230AE
:40010000D6F0D890E02000D802010411051C0622072308240A490B080D210F16142E15211681170E18201AD01CD920D9231C24D928D129402A082B032C082E043160320FCF
:40014000331A34F0350F39023A2C3B28580459045C105F018203841C854A86028714881089738B048C098E108F0890109173920C930C973599039B14A014A420A80CAA115E
:40018000B01FB10FB360B420B710B908BB02BE10BF44C043C106C50CC6EBC80DC9FFCAFFCBFFCEF0CF44D00CD401D804D904DA04DB04DC11DD11DF01E6C0EA40EB02006463
:4001C000010206880710090E0D280E021080111012101408154519021A081B021D28210622402340245426042C082F403038310233043604385439103B803C243F40410224
:40020000430448204A045080521058115A885C085F089141950C964097029AA89B109E029F08A018A209A308A508A602A820A940B002B221B680C07FC2E8C4FECAA0CC476C
:40024000CE7ED003D204D60FEA40EE02000F013C023003C204330508060C08020BE30C3F0DFF100111C01240140C1518163319E71B181D101E232008211C23E1240427047B
:40028000280C29802C032D44302C3240331F340F3538361037C038803A223B085418580459045B045C115D105F0181018D0194019501A401A501A801B001B301BE01BF0489
:4002C000D602D711D804D904DB04DD10DF0100400122032008810B100D081088120213481608170419061A411B201F012008220823122720280529262F20308832023320AD
:400300003608384039213A043B203E403F025B025F20600461406C206D5074887604770879087B2084808710880189018A08904491209340955896019702980499409A084E
:400340009B049C01A108A301A424AD48C00FC22DC46FCA4FCC4FCE9FD621D80C0521071A09500D501523170C19501D021F1D2150250327342B402F5031203540371F390279
:400380003B803F105440560459045B045F01810183268604899F8C018D80951496029749999F9E02A204AD0AAF51B107B204B318B402B580B601B760BA02BE54BF40C032AB
:4003C000C104C206C401C5C0C6E0C80AC9FFCAFFCBFFCC62CDA0CEF0CF41D00CD602D720D804D904DA04DB04DC11DD01DF01E640E702E910EA30EB10ED10EE10EF120008FD
:4004000003020A010B201080184419081B41200121112204234024802590268028012E4A2F08302432043688371439523C803D083E10404141144510460448845310618073
:40044000640265026624684069046A526B1872027E038002830885028C408F409504964097029A289E029F08A10CA208A30AA602AC01AE10C005C205C408CAF8CC76CE7DDE
:40048000D00FD204D8F8E610E440E62033883640CC70A640A780AF08EE400104570486408904A640A780C010D440E640A780B7041302C408AF0287808F80A780E6107780D0
:4004C0009B80DE208C02E402102074028820A002C408DE04E60400030A0310031A03003F8382000040000000043120000604193820000400001000000031000006213110A6
:40050000033A2804240000062400000824310000001C002204100021010000303E01000E20000000000001102306500004BEFC0D1FFFFFFF2200F00C0400000009000400F6
:4005400004040404000000010000C00040011011C001001140014001000000000000000000000000000000008900548B8B00830000000000000B0B00000000000000000068
:40058000000000000000000000000000000000000000000000000000000000000000000000000000000000000000000000000000000000000000000000000000000000003B
:4005C00000000000000000000000000000000000000000000000000000000000000000000000000000000000000000000000000000000000000000000000000000000000FB
:4006000000000000000000000000000000000000000000000000000000000000000000000000000000000000000000000000000000000000000000000000000000000000BA
:40064000000000000000000000000000000000000000000000000000000000000000000000000000000000000000000000000000000000000000000000000000000000007A
:0200000490006A
:0400000000004005B7
:0200000490105A
:04000000BC90ACAF55
:0200000490303A
:02000000D25FCD
:0200000490402A
:4000000000000000000000000000000000000000000000000000000000000000000000000000000000000000000000000000000000000000000000000000000000000000C0
:400040000000000000000000000000000000000000000000000000000000000000000000000000000000000000000000000000000000000000000000000000000000000080
:400080000000000000000000000000000000000000000000000000000000000000000000000000000000000000000000000000000000000000000000000000000000000040
:4000C0000000000000000000000000000000000000000000000000000000000000000000000000000000000000000000000000000000000000000000000000000000000000
:0200000490501A
:0C00000000012E16106900012E1FE2C83E
:00000001FF