:400000000080002011000000210F0000210F000008B5044B1A6803F53F5302331A6000F09FFF00BFFA46004010B5054C237833B9044B13B10448AFF300800123237010BD79
:400040004881FF1F00000000B43B0000084B10B51BB108490848AFF300800848036803B910BD074B002BFBD0BDE81040184700BF000000004C81FF1FB43B0000C880FF1F24
:4000800000000000000000002DE9F0478EB062B601F018FB01F090F901F038FE00F052FC02F082FA02F0ECFC0A2001F091FACA4C4322CA49204603F045F9204601F03AFB1B
:4000C0004D22C749204603F03DF9204601F032FBC44B18680C909B88ADF8343006220CA9202000F093FC00F0BFFC06220AA9202000F07AFCBDF92820BDF92A30BDF92C104F
:400100000091B949204603F031F9204601F012FB0F2000F0B3FA0246B449204603F026F9204601F007FB3721202000F0BDFA202000F0A4FA0246AE49204603F017F9204648
:4001400001F0F8FA0021232000F0AEFA232000F095FA0246A749204603F008F9204601F0E9FA4021242000F09FFA242000F086FA0246A149204603F0F9F8204601F0DAFA89
:4001800000212E2000F090FA2E2000F077FA02469A49204603F0EAF8204601F0CBFA47212E2000F081FA2E2000F068FA02469449204603F0DBF8204601F0BCFA442122205F
:4001C00000F072FA222000F059FA02468D49204603F0CCF8204601F0ADFA2A21302000F063FA302000F04AFA02468749204603F0BDF8204601F09EFA5221322000F054FA61
:40020000322000F03BFA02468049204603F0AEF8204601F08FFA0421332000F045FA332000F02CFA02467A49204603F09FF8204601F080FA02F070FB764B18701978012023
:4002400000F0B6FB00F010FC012000F099FB02467149204603F08AF8204601F06BFA6F4801F068FA0A2001F0B3F9A0238DF81030C0238DF817300023694A1370694A13700C
:40028000694A1370694A1370694A1370694801F073F9694801F010FE684801F0CFFE684801F07AFF674801F09FFF674802F05EFB664802F013FC02F08BF900F0E1FE01F039
:4002C0000FFA594B1B7813F0FF0F09D0604B1978002000F06DFB00F0C7FB0022524B1A70524B1B7813F0FF0F09D04A4B1978012000F05EFB00F0B8FB00224C4B1A70494B01
:400300001B78DBB2012BDCD1312000F0B7F910F0400F00F0CA80304D02464E49284603F025F8284601F006FA062206A9282000F0CFF9062208A9802000F068FB00F094FBEF
:4003400000212E2000F0B0F947212E2000F0ACF902F054FBC0F56A40603002F02FFD1CA3D3E9002302F090FD02F0A0FF304B1C784FF4966304FB0304230E8DF80830230CC0
:400380008DF80930230A8DF80A308DF80B40042202A9022000F03AFB00F066FB042203A9022000F021FB22462B49284602F0DEFF284601F0BFF99DF80F309DF80C20274925
:4003C000284602F0D3FF284601F0B4F9EAE000BF7B14AE47E17A943F9081FF1FC03B0000043C0000B83B0000543C0000903C0000BC3C0000E43C00000C3D0000343D0000F9
:400400006C3D0000A43D0000CC3D0000F83D0000203E0000F881FF1F483E0000683E0000F581FF1FF481FF1FF781FF1F8D81FF1F8E81FF1FF1060000050700005D08000055
:40044000710800001D070000F508000015090000F681FF1F743E0000843E0000A43E0000062208A9282000F033F99DF820309DF8212043EA022343F389131D442DB29DF8E8
:4004800022309DF8232043EA022343F389133B441FB29DF824309DF8252043EA022343F3891323441CB2013603E00026344637463546062ED4DD00212E2000F0F5F8472137
:4004C0002E2000F0F1F8394A82FB05362E44ED17C5EBA60636B282FB07353D44FB17C3EBA5052DB282FB04322244E317C3EBA20424B2B600B6B237B2AD00ADB20FFA85F887
:40050000A400A4B20FFA84F9DFF8B4A0CDF8009043463A462649504602F028FF504601F009F9244B1B7813F0FF0F15D08DF81160C7F307238DF812308DF81350C8F30723A5
:400540008DF814308DF81540C9F307238DF81630082104A801F000F9C7EB0727164A82FB0730FF17C7EBE0100028B8BF4042C8EB082882FB08314FEAE878C8EBE11100299B
:40058000B8BF4942C9EB092982FB09324FEAE979C9EBE212002AB8BF5242D2B2C9B2C0B200F0D6F90022054B1A708AE693244992DC3E0000F581FF1FD34D6210F481FF1F22
:4005C0009081FF1F2DE9F04383B006460C4617469846002000F09EFF64B2002511E02146082CA8BF0821C9B206EBC50000F06EFE00F05EFD10F0010FFAD0083C64B2013531
:400600006DB2002CEBDC00F071FE00F015FE0026009601964FFA88F820E0C146B8F1080FA8BF4FF008095FFA89F1684600F04EFE00F03EFD10F0010FFAD0002406E004EBF1
:40064000C60500F0C7FD78550134E4B24C45F6DBA8F108084FFA88F8013676B2B8F1000FDBDC012000F056FF00F040FE00F0E4FD00F002FE03B0BDE8F08300BF00B583B0FA
:4006800000F03F0060F07F008DF8040002AA002302F8053D0123194601A8FFF793FF9DF8030003B05DF804FB00B583B000F03F008DF804008DF80510002302AA02F8053D10
:4006C000022101A8FFF77EFF03B05DF804FB00BF00B583B040F0C00302A800F8043D13460A460121FFF76EFF03B05DF804FB00BF08B50122024B1A7000F018FF08BD00BF01
:40070000F481FF1F08B501F00DFC01F017FD0022014B1A6008BD00BF6481FF1F38B54B4B1B68052B3EDD494B1B79A3B90123474A1371474A1178474A1170474A137000228B
:400740001146104600F004F900F09AFC00F0C8FF01F0F4FC22E0012B20D13C4B00221A715B791BB9104601F0B5FB0CE0012B0AD1012001F0AFFB00F089FF00F057FC00F075
:40078000E1F801F07DFC314B5A79314B1B7843EAC213304A137001222F4B1A7000222B4B9A7138BD052B50DC284B1B79002B4CD1264B9B79012B09D013B1022B40D038BDAF
:4007C0000122224B9A7101F00BFC38BD1F4B5B79BBB91E4D01246C71204601F07BFB00F055FF00F023FC00F0ADF801F049FC6A79174B1B7843EAC213164A1370164B1C70BD
:400800001AE0012B18D1114D00246C71204601F061FB6A790E4B1B7843EAC2130D4A137001220D4B1A7022462146204600F090F800F026FC00F054FF0022044B9A7138BD74
:400840000122024B9A7101F0CBFB38BD6481FF1FF581FF1FF681FF1FF781FF1F08B50222024B9A7101F078FB08BD00BF6481FF1F08B501F01FFC1B4B1A6801321A601B7979
:40088000012B2DD101F032FBB0FA80F0400901F021FB01F0FBFE144B1860002801DA00221A60114B1B68B3F5803F03DB4FF6FF720D4B1A600D4B1B7813F0FF0F10D00A4B43
:4008C0001A6847F6FE739A4205DC0020084B187002F016F808BD0120054B187002F010F808BD00BF6481FF1FFC81FF1FF881FF1FF581FF1F08B502F017F802F00DF8034B08
:4009000018700122024B1A7008BD00BFF881FF1F8D81FF1F08B502F051F8034A13780133DBB2137008BD00BF8E81FF1F08B500F057FF08BD08B500F059FF08BD08B500F0EA
:40094000C5FF08BD08B500F09FFF01F00BF808BD38B50D461446FFF7E9FF2846FFF7EAFF2046FFF7EBFF38BD08B5052000F09AF808BD00BF08B5062000F07EF808BD00BF35
:4009800000B583B003218DF80410030A8DF805308DF8060002AA002302F8053D012301A800F09AF89DF8030003B05DF804FB00BF30B583B004460D46FFF7DCFF02238DF858
:4009C0000430230A8DF805308DF806408DF80750002302AA02F8053D04210DEB010000F07BF803B030BD00BF10B582B003248DF80440030A8DF805308DF8060013460A4668
:400A0000214601A800F068F802B010BD2DE9F04182B000AF054688461446FFF7ABFF012000F0ECFDE61C04F10A0323F00703ADEB030D02238DF800302B0A8DF801308DF88F
:400A40000250224641460DF1030002F07BFC002307F1080202F8013DF1B2684600F03CF80837BD46BDE8F08108B5FFF77DFF10F0010FFAD108BD00BF10B50446002000F0F4
:400A80007FFF204600F0E6FF00F0BCFF10F0080FFAD001F049F80446012000F071FF204610BD00BF10B50446002000F069FF204600F0D0FF002000F0CDFF00F0A3FF10F0E8
:400AC000010FFAD001F030F801F02EF80446012000F056FF204610BD2DE9F04383B006460C4617469846002000F04AFF64B2002511E02146082CA8BF0821C9B206EBC500D3
:400B000001F08EF800F07EFF10F0010FFAD0083C64B201356DB2002CEBDC01F091F801F035F80026009601964FFA88F820E0C146B8F1080FA8BF4FF008095FFA89F16846A2
:400B400001F06EF800F05EFF10F0010FFAD0002406E004EBC60500F0E7FF78550134E4B24C45F6DBA8F108084FFA88F8013676B2B8F1000FDBDC012000F002FF01F060F8C8
:400B800001F004F801F022F803B0BDE8F08300BFFEE700BFF0B40022174611E050F82760F3B226F0FF0608E001EB420511F812406D78A5550132013BDBB2002BF4D10137F3
:400BC000242FEBD9F0BC70470A4B1B78DBB203F00701094A11701B09013213700822074B1A708023064A1370583213704422054B1A707047CF0100496E5800403D510040F0
:400C0000005B00407658004008B50A46002102F0A4FB08BD08B502F095FB08BD38B5504C2578EDB200224F4B1A80502202331A700B234D4A138018224C490A7002310B80D8
:400C40004B4B1A70192304310B8002310A7040F2AF400231088002310A7043F69721454A11800232137047F22F5102321180023213704EF65F2102321180023213700422BF
:400C80003D493E48FFF7C6FF02223D4B1A7008224FF040231A70F32203F20A331A70032323708422374B1A700522013B1A70364C04E04FF4F07001F01FFF013C24B1334B10
:400CC0001B7813F0200FF4D0254B1D700322A3F593631A702E4B1B78DBB22E4A137008222D4B1A8041F25122023B1A80002419250CE02A4B1B7803F0010343EA440404F02E
:400D000003044FF4F07001F0F7FE013D0DB1032CEFD115B90320FFF73BFF214B4FF480721A8007221A7000221E490A704820023108701A700222033B1A7004220A331A70B0
:400D400003F297331A78FF221A70174A137843F001031370013A137843F08003137038BD984600408040004084400040864000408A40004094400040AC0900480041004019
:400D80000043004009430040A08601000843004008010049A146004022420040254200400440004006400040A1430040012807D8044B53F820201844017A13780B4313706B
:400DC000704700BFF83E0000012808D8044B53F820201844017A137823EA010313707047F83E000038B572B6394A137843F00403137000240BE0374863001A1951000144E7
:400E00000A46098AD068FFF7FFFE0134E4B2092CF1D900240CE02F48A20011194B000344B3F85020D96C986CFFF7F4FE0134E4B2022CF0D928494FF09040FFF7ABFE0A249A
:400E4000264B1C70264A137843F0020313701032137843F002031370224D2B7843F040032B70A2F58632513A137843F01003137008221D491D48FFF7CDFE22461C491D48FE
:400E8000FFF7C8FE22461C491C48FFF7C3FE22461B491C48FFF7BEFE08221B491B48FFF7B9FE1B4A137843F008031370194C61232370FFF7B3FE812323700122164B1A70F5
:400EC000FFF782FE0E2229461448FFF7A3FE38BDE8460040F83E0000940000488358004003500140A0430040780900480251004080090048C05100408C09004810510040A7
:400F00009809004820510040A409004832510040224300400048004004000840B043004008B502F0E3F903680C2B00D1FEE7FEE708B5094B1A681044084BC31A802B02DC4B
:400F4000054B186005E002F0D1F90C2303604FF0FF32104608BD00BFCC80FF1F4082FF1F08B5104E104D16E029686B68AC68002204E051F8040B43F8040B0432A242F8D171
:400F8000E868002203E0002143F8041B04328242F9D11035013E002EE6D102F0ADF9FFF773F8FEE701000000B83F000008B5104A104B1A60104A136843F40073136000235D
:400FC0000AE0032B03D80D4A52F8231000E00C490C4A42F8231001332F2BF2D90A4B1A780A4B1A70074A0A4B1A60FFF7FBFE08BD0004FA050CED00E014ED00E00000000082
:40100000210F00000080FF1FBC760040C080FF1F08ED00E00222014B1A60704700E100E00122014B1A60704700E100E008B501F06BFD0C4A137843F02003137002F58372BE
:40104000137843F010031370013A137843F01003137001F05DFD00F09DFAFFF7DBFFFFF7DFFF08BD916400400222014B1A60704780E100E00122014B1A60704780E100E05A
:4010800008B501F041FD094A137803F0EF031370013A137803F0EF03137001F039FD00F087FAFFF7E1FFFFF7E5FF08BD9765004010B5FFF7D9FF064B1C78064A137803F041
:4010C00009031C4300231370FFF7A4FF204610BD676500400082FF1F10B5FFF7CBFF064B1B78064A147804F040041C4300231370FFF796FF204610BD666500401182FF1F6B
:4011000010B504462B4B1A7802F0FF0312B1013BDBB200E00723284A1278D2B29342F1D0FFF7A2FF254B1978254A137803F009030B4313701F4B1A78D2B21F4B1B78DBB28C
:401140009A4207D11E4B1B7813F0040F02D01D4B1C702CE0184A13780133DBB213701378DBB2072B02D90022134B1A70124B1A78D2B2104B1B78DBB29A420ED10D4A1378EC
:401180000133DBB213701378DBB2072B02D90022084B1A7001220C4B1A70074B1B78DBB20A4AD4540A4A137843F004031370FFF731FF10BD1282FF1F1082FF1F67650040D8
:4011C0000082FF1F476400400C82FF1F0482FF1F8765004010B5FFF74DFF134B1A78D2B2124B1B78DBB29A4214D0114B1B7813F0FF0F0CD10C4A13780133DBB213701378A3
:40120000DBB2072B06D90022074B1A7002E00022074B1A70044B1B78DBB2064AD45CE4B2FFF7FEFE204610BD0F82FF1F0D82FF1F0E82FF1F1482FF1F08B501E0094B1B7845
:40124000094B1B7813F0200FF8D1FFF713FF0023064A1370064A1370064A1370FFF7E0FE08BD00BF57640040666500400E82FF1F0F82FF1F0D82FF1F08B501F045FC0E4B38
:401280001A7842F001021A701A7802F0FE021A7001F03EFCFFF7E8FE0023084A1370084A1370084A1370084A137803F0FB031370FFF7B0FE08BD00BF976400400C82FF1FC6
:4012C0001282FF1F1082FF1F8765004070B506460C46002506E0705DFFF712FF0135EDB2013CE4B2002CF6D170BD00BF08B501E00A4B1B780A4B1B7813F0200FF8D101F0DD
:4013000003FC084B1A7842F001021A701A7802F0FE021A7001F0FCFB08BD00BF57640040666500409764004010B50F22174B1A70174C022323600721012000F07DF9154955
:40134000012000F065F9012323600721002000F073F91149002000F05BF9FFF7C7FF00240E4B1C700E4B1C700E4B1C700E4B1C700E4B1C700E4B1C70FFF79AFEFFF7ACFE89
:401380000C4B1C702022013B1A7010BD8164004080E100E0D5130000751400000E82FF1F0F82FF1F0D82FF1F0C82FF1F1282FF1F1082FF1F8765004008B5054B1B7823B9DE
:4013C000FFF7B2FF0122024B1A70FFF72FFE08BD6B81FF1F28E01F4B19781F4A137803F009030B431370137813F0040F24D01B4B1B7813F0FF0F0CD1194A13780133DBB268
:4014000013701378DBB2072B06D90022144B1A7002E00022114B1A70114B1B78DBB2114AD35CDBB2104A13700D4B1A78D2B20F4B1B78DBB29A42CED1094B1A78D2B20B4B78
:401440001B78DBB29A4204D1094A137803F0FB0313707047676500400082FF1F0C82FF1F1282FF1F0482FF1F476400401082FF1F87650040204B1A7820490B7803F04003FE
:4014800013430B7032E01E4B1A78D2B21D490B780133DBB20B700B78DBB2072B02D90021184B1970174B1978C9B2174B1B78DBB299420ED114490B780133DBB20B700B7832
:4014C000DBB2072B02D900210F4B197001210F4B19700C4B1B78DBB20D49CA54064B1A7806490B7803F0400313430B70034B1B7813F0200FC7D17047666500401182FF1F84
:40150000576400400D82FF1F0F82FF1F0E82FF1F1482FF1F044A137803F07F03C001C0B218431070704700BF10510040024B1878C0F30010704700BF8C450040014B1B6889
:40154000D866704708ED00E04001C0B2014B1870704700BF0BE400E04FF40062014B1A60704700BF00E100E04FF40062014B1A60704700BF80E100E010B50446FFF7F4FF19
:401580002046FFF7DBFF0720FFF7DEFFFFF7E4FF10BD00BF054A137843F0020313701032137843F002031370704700BFA2430040054A137803F0FD0313701032137803F0CE
:4015C000FD031370704700BFA243004001BE704710B5044605E0084B186801F08DFAA4F50044B4F5004FF6D8034B586800FB04F001F082FA10BD00BFD080FF1F08B5034B06
:401600001B7A00FB03F001F077FA08BDD080FF1F70B504460E46074B1D681F2802D90020FFF7D4FF04F01F04103455F8240045F8246070BD08ED00E038B504460D460729A4
:4016400002D90020FFF7C2FF1F2C02D90020FFF7BDFF04F01F0000F1604000F564406D01EDB2057038BD00BF7222074B1A702022FD331A7006225F3B1A70472210331A705F
:40168000002250331A7070478764004010B501F03BFA04460A4A137843F020031370FD32137843F0100313700132137843F01003137000F065F8204601F02AFA10BD00BFCE
:4016C0009764004008B5054B1B7823B9FFF7CCFF0122024B1A70FFF7D9FF08BD6C81FF1F10B501F011FA04460A4A137803F0DF03137000F053F8084A137803F0EF03137018
:401700000132137803F0EF031370204601F000FA10BD00BF9764004094650040034B1B7813F0040FFAD1024B18707047656500404665004038B5074B1B782BB938BDFFF74E
:40174000EDFF0134A4B201E005460024285D0028F5D138BD6C81FF1F084B1B7833B97047305DFFF7DBFF0134E4B203E070B50D4606460024AC42F3D370BD00BF6C81FF1F08
:40178000054A137843F0080313701032137843F008031370704700BFA2430040054A137803F0F70313701032137803F0F7031370704700BFA2430040024A137843F08003B6
:4017C0001370704776640040014B1870704700BF05640040014B1870704700BF45640040014B1870704700BF25640040014B1870704700BF35640040014B1870704700BFEF
:4018000085640040014B1878704700BF65640040014B1878704700BF5564004008B501E0FFF7F6FFFFF7EEFF10F0100FF8D108BD10B5134A137803F0C00343F01B03137089
:40184000104C237843F001032370FF20FFF7BCFFFF20FFF7BFFF0020FFF7C2FF0020FFF7C5FF0020FFF7C8FF01F04EF9237843F01003237001F04CF9FFF7D0FF10BD00BF43
:40188000766400409564004008B5054B1B7823B9FFF7CEFF0122024B1A70FFF78DFF08BD6E81FF1F024A137843F080031370704775640040014B1870704700BF0264004078
:4018C000014B1870704700BF42640040014B1870704700BF22640040014B1870704700BF86640040014B1878704700BF66640040014B1878704700BF5264004008B501E0F2
:40190000FFF7F6FFFFF7EEFF10F0100FF8D108BD08B5124A137803F0C00343F00B0313701D32137843F001031370FF20FFF7C2FFFF20FFF7C5FF0020FFF7C8FF0020FFF7D8
:40194000CBFF01F0E1F8064A137843F01003137001F0DEF8FFF7D2FF08BD00BF756400409664004008B5054B1B7823B9FFF7D0FF0122024B1A70FFF795FF08BD6F81FF1F32
:40198000044A137803F0EF03000100F01000184310707047205100400822014B1A60704700E100E00422014B1A60704700E100E008B501F0A9F80C4A137843F02003137050
:4019C0000332137843F0100313700132137843F01003137001F09CF800F046FAFFF7DCFFFFF7E0FF08BD00BF906400400822014B1A60704780E100E00422014B1A60704739
:401A000080E100E010B5FFF7F1FF064B1C78064A137803F009031C4300231370FFF7BCFF204610BD636400402B82FF1F10B5FFF7E3FF064B1B78064A147804F040041C434C
:401A400000231370FFF7AEFF204610BD646400402482FF1F10B504462B4B1A7802F0FF0312B1013BDBB200E00723284A1278D2B29342F1D0FFF7BAFF254B1978254A1378BD
:401A800003F009030B4313701F4B1A78D2B21F4B1B78DBB29A4207D11E4B1B7813F0040F02D01D4B1C702CE0184A13780133DBB213701378DBB2072B02D90022134B1A7054
:401AC000124B1A78D2B2104B1B78DBB29A420ED10D4A13780133DBB213701378DBB2072B02D90022084B1A7001220C4B1A70074B1B78DBB20A4AD4540A4A137843F00403E8
:401B00001370FFF749FF10BD2882FF1F2982FF1F636400402B82FF1F436400402782FF1F2C82FF1F8364004010B5FFF765FF134B1A78D2B2124B1B78DBB29A4214D0114BE7
:401B40001B7813F0FF0F0CD10C4A13780133DBB213701378DBB2072B06D90022074B1A7002E00022074B1A70044B1B78DBB2064AD45CE4B2FFF716FF204610BD2A82FF1F2B
:401B80002582FF1F2682FF1F1C82FF1F08B501E0094B1B78094B1B7813F0200FF8D1FFF72BFF0023064A1370064A1370064A1370FFF7F8FE08BD00BF53640040646400404C
:401BC0002682FF1F2A82FF1F2582FF1F08B500F09BFF0E4B1A7842F001021A701A7802F0FE021A7000F094FFFFF700FF0023084A1370084A1370084A1370084A137803F0A7
:401C0000FB031370FFF7C8FE08BD00BF936400402782FF1F2882FF1F2982FF1F8364004070B506460C46002506E0705DFFF712FF0135EDB2013CE4B2002CF6D170BD00BF04
:401C400008B501E00A4B1B780A4B1B7813F0200FF8D100F059FF084B1A7842F001021A701A7802F0FE021A7000F052FF08BD00BF53640040646400409364004010B50F2210
:401C8000174B1A70174C0823236007210320FFF7D3FC15490320FFF7BBFC0423236007210220FFF7C9FC11490220FFF7B1FCFFF7C7FF00240E4B1C700E4B1C700E4B1C708C
:401CC0000E4B1C700E4B1C700E4B1C70FFF79AFEFFF7ACFE0C4B1C70202201331A7010BD8064004080E100E0291D0000C91D00002682FF1F2A82FF1F2582FF1F2782FF1FAA
:401D00002882FF1F2982FF1F8364004008B5054B1B7823B9FFF7B2FF0122024B1A70FFF747FE08BD7081FF1F28E01F4B19781F4A137803F009030B431370137813F0040F57
:401D400024D01B4B1B7813F0FF0F0CD1194A13780133DBB213701378DBB2072B06D90022144B1A7002E00022114B1A70114B1B78DBB2114AD35CDBB2104A13700D4B1A78DE
:401D8000D2B20F4B1B78DBB29A42CED1094B1A78D2B20B4B1B78DBB29A4204D1094A137803F0FB0313707047636400402B82FF1F2782FF1F2882FF1F2C82FF1F43640040FC
:401DC0002982FF1F83640040204B1A7820490B7803F0400313430B7032E01E4B1A78D2B21D490B780133DBB20B700B78DBB2072B02D90021184B1970174B1978C9B2174B53
:401E00001B78DBB299420ED114490B780133DBB20B700B78DBB2072B02D900210F4B197001210F4B19700C4B1B78DBB20D49CA54064B1A7806490B7803F0400313430B70DF
:401E4000034B1B7813F0200FC7D17047646400402482FF1F536400402582FF1F2A82FF1F2682FF1F1C82FF1F054A137843F0040313701032137843F004031370704700BF95
:401E8000A2430040014B1B681865704708ED00E04001C0B2014B1870704700BF04E400E01022014B1A60704700E100E01022014B1A60704780E100E010B50446FFF7F6FF06
:401EC0002046FFF7DFFF0720FFF7E2FFFFF7E8FF10BD00BF044A137803F0FD03400000F0020018431070704720510040024B1878C0F34000704700BF21510040084A13782B
:401F000043F0020313701032137843F00203137002F65932137843F001031370704700BFA3430040084A137803F0FE031370A2F66932137803F0FD0313701032137803F0B2
:401F4000FD031370704700BF0C4F0040014B1870704700BF0F4F0040014B1878704700BF0F4F0040014B1880704700BF104F0040014B1880704700BF124F004008B5154AE5
:401F8000137803F0010313700232137803F0FC031370114B1A7802F0CF021A701A7842F030021A701A7802F0F0021A701A7842F00F021A70094A137843F0010313706320B3
:401FC000FFF7D0FF6320FFF7D3FF0820FFF7BEFF08BD00BF0C4F0040174F00400D4F004008B5054B1B7823B9FFF7C8FF0122024B1A70FFF783FF08BD7181FF1F024B1B6845
:40200000C3F88800704700BF08ED00E04001C0B2014B1870704700BF12E400E04FF48022014B1A60704700BF00E100E04FF48022014B1A60704700BF80E100E010B50446EC
:40204000FFF7F4FF2046FFF7D9FF0720FFF7DEFFFFF7E4FF10BD00BF084A137843F0040313701032137843F00403137002F66532137843F001031370704700BFA343004050
:40208000084A137803F0FE031370A2F67532137803F0FB0313701032137803F0FB031370704700BF184F0040014B1870704700BF1B4F0040014B1878704700BF1B4F004040
:4020C000014B1880704700BF1C4F0040014B1880704700BF1E4F004008B5154A137803F0010313700232137803F0FC031370114B1A7802F0CF021A701A7842F030021A70C4
:402100001A7802F0F0021A701A7842F00F021A70094A137843F0010313703120FFF7D0FF3120FFF7D3FF0820FFF7BEFF08BD00BF184F0040234F0040194F004008B5054B0C
:402140001B7823B9FFF7C8FF0122024B1A70FFF783FF08BD7281FF1F024B1B68C3F88C00704700BF08ED00E04001C0B2014B1870704700BF13E400E04FF40022014B1A608A
:40218000704700BF00E100E04FF40022014B1A60704700BF80E100E010B50446FFF7F4FF2046FFF7D9FF0720FFF7DEFFFFF7E4FF10BD00BF014B1B685865704708ED00E063
:4021C0004001C0B2014B1870704700BF05E400E02022014B1A60704700E100E02022014B1A60704780E100E010B50446FFF7F6FF2046FFF7DFFF0720FFF7E2FFFFF7E8FF8A
:4022000010BD00BF10B59DF80840012C51D1013809282ED8DFE800F0052D2D052D2D0F192D230F2B03D92548007840B222E02448007840B21EE00F2B03D92248007840B217
:4022400018E02148007840B214E00F2B03D91F48007840B20EE01E48007840B20AE00F2B03D91C48007840B204E01B48007840B200E0002001EB401101FB02F1C90B8AB23F
:402280000D2B0BD8C3F10E0289B211418AB2611E124800EB810101338B7005E0631E0F4901EB83030F219970013C0C4B23F8242010BD0020FFF78AF910BD00BF1801004951
:4022C0001C010049190100491D0100491A0100491E0100491B0100491F0100497481FF1FF8B5074600F010FC06460D4D2B7843F003032B700B4C237843F0030323700A4BDB
:402300001F700320FFF77AF92B7803F0FC032B70237803F0FC032370304600F0F9FBF8BDF8460040F9460040925800400022324B1A7101285FD170B53822304B1A700422CF
:4023400002331A70062201331A70002401331C7001331C703F2201331A7002331C7001331C7001331C7001250A331D70502203F527631A700A2201331A702C2201331A7050
:4023800001331C70442203331A70482201331A7001331D7002331D70112201331A70192201331A70972201331A705220FFF798FF5822134B1A7001331C70052605331E7019
:4023C000022201331A7001331C7001331C70204600F082F943F233320A4B1A602946304600F09EF92946252000F01EFA06491D20FFF70EF970BD70477481FF1F004E00400B
:40240000945800403482FF1FB5260000F0B583B0284D01272F70284E00247471102000F06DF9102000F0EEF907211D20FFF704F90422224B1A7001331C7007331C70204A3C
:40244000137843F0180313701E4B1C7003F2F5231C7001331C700A22A3F209331A7001331C7002331C705B2205331A705E2201331A7004331C701422A3F68C231A700097CB
:4024800010234FF4004248F6F0510220FFF7BAFE2B78013B06EB83039A780B4B1A702B78013B36F82320094B1A802878FFF73EFF03B0F0BDE080FF1F7481FF1F965800409D
:4024C000075B0040935800400E4E00400C4E004070B500F019FB06462A4B1B782A4B1A7842F001021A701A7842F010021A7010331A7842F001021A701A7842F010021A7042
:40250000224D2B7843F002032B70214C237843F0020323701F4A137843F0030313700320FFF76CF82B7803F0FD032B70237803F0FD032370184A137843F0060313707A221C
:40254000164B1A70164A137843F0010313701032137843F0010313700F3A137843F0010313701032137843F0010313704FF000530C4A1360A2F5C0721360304600F0C8FA70
:4025800070BD00BFE080FF1FAA430040F8460040F9460040915800407758004082580040A143004080E200E008B5084B9B794BB9064BDB7913F0FF0F01D1FFF727FF0122E0
:4025C000024B9A71FFF784FF08BD00BF7481FF1F024A137843F0010313707047004E0040024A137803F0FE0313707047004E0040094B1B7913F0FF0F03D0074B5B79DBB28B
:4026000003E0064B1B7803F00103012B01D00028EED01846704700BF7481FF1F014E0040154B1B7803F00303012B07D8134B1888023B1B889BB243EA004013E0022B0AD1F9
:402640000E4B1888023B1B7843EA00430C4A107843EA002006E00B4B188883B2074A108843EA0040084B1B7913F0FF0F02D00022054B5A71704700BF144E0040124E0040D0
:40268000114E0040104E00407481FF1F10B5084A137843F004031370FFF79AFF0020FFF7A7FFFFF7BDFF0446FFF79AFF204610BD014E0040704700BF10B5002404E020462A
:4026C000FEF782FB0134E4B2012CF8D9FF22014B1A7010BDE180FF1F10B50446FFF7ECFF2046FEF763FB014B1C7010BDE180FF1F014B188880B2704780400040034B1A78DA
:4027000000F0F80010431870704700BF82400040024B187800F00700704700BF8240004070B505460E46FFF7F3FF0446FFF7E0FFA84256D02B4B1B7803F0010294B900B13A
:4027400085B938B9284B1D80284A137803F0BF03137070BD254A137843F040031370224B1D8070BD22B3002321490B7001240F310C7004310B700C390B7803F07F030B7068
:402780001A4B1B7813F0080F00D08DB9194B18800721013B1970164B1B7813F0010FFAD110490B7803F0FE030B700021104B19700C4B1B7813F0010F0DD00E4B1D800EB157
:4027C000032200E001220A4B1A70094B1B7813F0010FFAD170BD044B1D8002490B7813430B7070BDA243004080400040824000400140004002400040014B188880B2704729
:4028000000410040034B1A7800F0F80010431870704700BF02410040024B187800F00700704700BF0241004070B505460E46FFF7F3FF0446FFF7E0FFA84256D02B4B1B78CA
:4028400003F0010294B900B185B938B9284B1D80284A137803F0BF03137070BD254A137843F040031370224B1D8070BD22B3002321490B70012413310C7004390B700839DE
:402880000B7803F07F030B701A4B1B7813F0080F00D08DB9194B18800721013B1970164B1B7813F0010FFAD110490B7803F0FE030B700021104B19700C4B1B7813F0010F75
:4028C0000DD00E4B1D800EB1032200E001220A4B1A70094B1B7813F0010FFAD170BD044B1D8002490B7813430B7070BDA1430040004100400241004001400040024000406A
:40290000044A137803F07F03C001C0B218431070704700BF00510040024B1878C0F38000704700BF31510040024B1878C0F38000704700BF83450040014B1B68D86570479B
:4029400008ED00E04001C0B2014B1870704700BF07E400E08022014B1A60704700E100E08022014B1A60704780E100E010B50446FFF7F6FF2046FFF7DFFF0720FFF7E2FF48
:40298000FFF7E8FF10BD00BF084A137843F0010313701032137843F00103137002F64D32137843F001031370704700BFA3430040014B1870704700BF034F0040014B187880
:4029C000704700BF034F004010B50446094B1B7813F0010F02D00020FEF7F8FD054B1A7842F001021A70044A14801A7802F0FE021A7010BDA3430040064F0040024B1B88E1
:402A0000024B188880B27047064F0040084F0040014B1880704700BF044F004008B5164A137803F0010313700232137803F0FC031370013A137843F0010313700F4B1A78E5
:402A400002F0CF021A701A7842F030021A701A7802F0F0021A701A7842F00F021A704EF66020FFF7D5FF4EF66020FFF7ADFF0820FFF79EFF08BD00BF004F00400B4F0040CE
:402A800008B5054B1B7823B9FFF7C8FF0122024B1A70FFF779FF08BD8081FF1F024B1B68C3F88400704700BF08ED00E04001C0B2014B1870704700BF11E400E04FF40032F0
:402AC000014B1A60704700BF00E100E04FF40032014B1A60704700BF80E100E010B50446FFF7F4FF2046FFF7D9FF0720FFF7DEFFFFF7E4FF10BD00BF0230800803D000BF10
:402B000001380046FCD17047EFF3108072B6704780F31088704700BF81F0004102E000BF83F0004330B54FEA41044FEA430594EA050F08BF90EA020F1FBF54EA000C55EA88
:402B4000020C7FEA645C7FEA655C00F0E2804FEA5454D4EB5555B8BF6D420CDD2C4480EA020281EA030382EA000083EA010180EA020281EA0303362D88BF30BD11F0004F59
:402B80004FEA01314FF4801C4CEA113102D0404261EB410113F0004F4FEA03334CEA133302D0524263EB430394EA050F00F0A780A4F10104D5F1200E0DDB02FA0EFC22FAF9
:402BC00005F2801841F1000103FA0EF2801843FA05F359410EE0A5F120050EF1200E012A03FA0EFC28BF4CF0020C43FA05F3C01851EBE37101F0004507D54FF0000EDCF1AD
:402C0000000C7EEB00006EEB0101B1F5801F1BD3B1F5001F0CD349085FEA30004FEA3C0C04F101044FEA445212F5800F80F09A80BCF1004F08BF5FEA500C50F1000041EBE4
:402C4000045141EA050130BD5FEA4C0C404141EB010111F4801FA4F10104E9D191F0000F04BF01460020B1FA81F308BF2033A3F10B03B3F120020CDA0C3208DD02F1140C22
:402C8000C2F10C0201FA0CF021FA02F10CE002F11402D8BFC2F1200C01FA02F120FA0CFCDCBF41EA0C019040E41AA2BF01EB0451294330BD6FEA04041F3C1CDA0C340EDC5B
:402CC00004F11404C4F1200220FA04F001FA02F340EA030021FA04F345EA030130BDC4F10C04C4F1200220FA02F001FA04F340EA0300294630BD21FA04F0294630BD94F081
:402D0000000F83F4801306BF81F480110134013D4EE77FEA645C18BF7FEA655C29D094EA050F08BF90EA020F05D054EA000C04BF1946104630BD91EA030F1EBF00210020D1
:402D400030BD5FEA545C05D14000494128BF41F0004130BD14F580043CBF01F5801130BD01F0004545F0FE4141F470014FF0000030BD7FEA645C1ABF194610467FEA655C2E
:402D80001CBF0B46024650EA013406BF52EA033591EA030F41F4002130BD00BF90F0000F04BF0021704730B54FF4806404F132044FF000054FF0000150E700BF90F0000FFE
:402DC00004BF0021704730B54FF4806404F1320410F0004548BF40424FF000013EE700BF42004FEAE2014FEA31014FEA02701FBF12F07F4393F07F4F81F06051704792F04D
:402E0000000F14BF93F07F4F704730B54FF4607401F0004521F0004120E700BF50EA010208BF704730B54FF000050AE050EA010208BF704730B511F0004502D5404261EB05
:402E400041014FF4806404F132045FEA915C3FF4DCAE4FF003025FEADC0C18BF03325FEADC0C18BF033202EBDC02C2F1200300FA03FC20FA02F001FA03FE40EA0E0021FA18
:402E800002F11444C1E600BF70B54FF0FF0C4CF4E06C1CEA11541DBF1CEA135594EA0C0F95EA0C0F00F0DEF82C4481EA030621EA4C5123EA4C5350EA013518BF52EA0335C5
:402EC00041F4801143F4801338D0A0FB02CE4FF00005E1FB02E506F00042E0FB03E54FF00006E1FB03569CF0000F18BF4EF0010EA4F1FF04B6F5007F64F5407404D25FEAA6
:402F00004E0E6D4146EB060642EAC62141EA55514FEAC52040EA5E504FEACE2EB4F1FD0C88BFBCF5E06F1ED8BEF1004F08BF5FEA500E50F1000041EB045170BD06F00046B9
:402F400046EA010140EA020081EA0301B4EB5C04C2BFD4EB0C0541EA045170BD41F480114FF0000E013C00F3AB8014F1360FDEBF002001F0004170BDC4F10004203C35DA8F
:402F80000C341BDC04F11404C4F1200500FA05F320FA04F001FA05F240EA020001F0004221F0004110EBD37021FA04F642EB06015EEA430E08BF20EAD37070BDC4F10C042A
:402FC000C4F1200500FA04F320FA05F001FA04F240EA020001F0004110EBD37041F100015EEA430E08BF20EAD37070BDC4F1200500FA05F24EEA020E20FA04F301FA05F247
:4030000043EA020321FA04F001F0004121FA04F220EA020000EBD3705EEA430E08BF20EAD37070BD94F0000F0FD101F00046400041EB010111F4801F08BF013CF7D041EA46
:40304000060195F0000F18BF704703F00046520043EB030313F4801F08BF013DF7D043EA0603704794EA0C0F0CEA135518BF95EA0C0F0CD050EA410618BF52EA4306D1D146
:4030800081EA030101F000414FF0000070BD50EA410606BF1046194652EA430619D094EA0C0F02D150EA013613D195EA0C0F05D152EA03361CBF104619460AD181EA03011A
:4030C00001F0004141F0FE4141F470014FF0000070BD41F0FE4141F4780170BD70B54FF0FF0C4CF4E06C1CEA11541DBF1CEA135594EA0C0F95EA0C0F00F0A7F8A4EB0504C7
:4031000081EA030E52EA03354FEA013100F088804FEA03334FF0805545EA131343EA12634FEA022245EA111545EA10654FEA00260EF000419D4208BF964244F1FD0404F521
:40314000407402D25B084FEA3202B61A65EB03055B084FEA32024FF480104FF4002CB6EB020E75EB030E22BFB61A754640EA0C005B084FEA3202B6EB020E75EB030E22BF26
:40318000B61A754640EA5C005B084FEA3202B6EB020E75EB030E22BFB61A754640EA9C005B084FEA3202B6EB020E75EB030E22BFB61A754640EADC0055EA060E18D04FEA02
:4031C000051545EA16754FEA06164FEAC30343EA52734FEAC2025FEA1C1CC0D111F4801F0BD141EA00014FF000004FF0004CB6E711F4801F04BF01430020B4F1FD0C88BFD3
:40320000BCF5E06F3FF6AFAEB5EB030C04BFB6EB020C5FEA500C50F1000041EB045170BD0EF0004E4EEA113114EB5C04C2BFD4EB0C0541EA045170BD41F480114FF0000E11
:40324000013C90E645EA060E8DE60CEA135594EA0C0F08BF95EA0C0F3FF43BAF94EA0C0F0AD150EA01347FF434AF95EA0C0F7FF425AF104619462CE795EA0C0F06D152EAE1
:4032800003353FF4FDAE1046194622E750EA410618BF52EA43067FF4C5AE50EA41047FF40DAF52EA43057FF4EBAE12E74A0011D212F5001211D20DD56FF47873B3EB625295
:4032C0000ED44FEAC12343F0004343EA505323FA02F070474FF00000704750EA013002D14FF0FF3070474FF000007047014B1868704700BF4481FF1F0E4B70B51E460E4C13
:403300000025E41AA410A54204D056F8253098470135F8E700F03EFE084B094C1E46E41AA4100025A54204D056F8253098470135F8E770BDA03F0000A03F0000A03F000039
:40334000A83F000010B5431E0A44914204D011F8014B03F8014FF8E710BD03460244934202D003F8011BFAE7704700000EB400B54FF402719CB0ADF814106FF000410491A3
:4033800007914FF6FF711DAB02900690084853F8042BADF81610006802A9019300F064F8029B00221A701CB05DF804EB03B070474481FF1F2DE9F0478E6882469E420C4665
:4033C000914698463ED88A8912F4906F3AD02568096902236F1A656905EB450595FBF3F57B1C43449D4238BF1D4653050FD5294600F040FB064698B13A462169FFF7A2FF50
:40340000A38923F4906343F08003A38113E02A4600F08EFB064670B92169504600F0DEFA0C23CAF80030A3894FF0FF3043F04003A381BDE8F08726613E44266046466561F1
:40344000ED1BA560464528BF464649463246206800F0A8FAA36800209B1BA36023681E442660BDE8F08700002DE9F04F9DB003938B8980461C060D4616460DD50B695BB960
:40348000402100F0F7FA2860286118B90C23C8F80030CDE040236B610023099320238DF82930DFF89CB130238DF82A3037463C4614F8013B1BB9B7EB060910D003E0252BD8
:4034C000F9D02746F3E74B46324629464046FFF771FF013000F0A780099B4B4409933B78002B00F0A08000234FF0FF3204930793059206938DF853301A93012605222178C3
:403500004E4800F041FA671C049B38B14B4A3C46801A06FA00F018430490EFE7D90644BF20228DF853201A0744BF2B228DF8532022782A2A03D0079A00210A200BE0039A9F
:40354000111D12680391002A10DA524243F00200079204900BE027463B780134303B092B03D800FB02320121F5E701B107923B782E2B1ED17B782A2B0AD1039B02371A1DA7
:403580001B680392002BB8BF4FF0FF33059310E0002319460593781C0A2407463A780130303A092A03D804FB01210123F5E703B1059103223978224800F0E6F940B1402306
:4035C000CBEB000003FA00F0049B013718430490397806221B487E1C8DF8281000F0D4F988B1194B33B9039B073323F007030833039314E003AB00932A46144B04A940468C
:40360000AFF3008007E003AB00932A460F4B04A9404600F093F8B0F1FF3F824603D0099B5344099342E7AB895B0601D4099801E04FF0FF301DB0BDE8F08F00BF603F0000A5
:40364000663F00006A3F000000000000B53300002DE9F04791461F460A698B6806469342B8BF1346C9F8003091F843200C46DDF8208012B10133C9F800302368990642BF7D
:40368000D9F800300233C9F80030256815F0060510D104F1190A07E00123524639463046C04701301AD00135E368D9F800209B1A9D42F1DB94F843302268003318BF01230A
:4036C00092060FD5E118302081F843005A1C94F845102244023382F8431003E04FF0FF30BDE8F08704F1430239463046C0470130F4D02268D9F80050E36802F00602042AD4
:4037000008BF5D1B2269A3680CBF25EAE57500259342C4BF9B1AED184FF000091A344D4509D00123224639463046C0470130D5D009F10109F3E70020BDE8F0872DE9F04387
:4037400017460A7E85B06E2A984606460C460C9B01F1430E00F0AE8011D8632A22D009D8002A00F0BB80582A40F0CA8081F84520834955E0642A1ED0692A1CD0C0E0732A62
:4037800000F0B08009D86F2A2ED0702A40F0B8800A6842F020020A603EE0752A24D0782A3AD0ADE01A6801F14205111D1960136884F84230A8E021681A6811F0800F02D095
:4037C000111D196008E011F0400F02F10401196002D0B2F9003000E01368002B3CDA2D225B4284F8432037E021681A6811F0800F02D0111D196007E011F0400F02F104010B
:40380000196001D0138800E01368227E5C496F2A14BF0A2208221BE078225A4984F845202268186812F0800F00F104051D6003D1550601D5038800E00368D00744BF42F02F
:40384000200222601BB9226822F0200222601022002084F8430001E049490A226568002DA56008DB206820F0040020602BB9002D7DD175460CE0002B79D07546B3FBF2F01D
:4038800002FB1033CB5C05F8013D03460028F5D1082A0BD12368DA0708D5236962689A42DEBF302305F8013C05F1FF35C5EB0E0323612EE008681A6810F0800F496903D0F9
:4038C000101D1860136808E010F0400F02F104001860136801D0198000E0196000232361754616E01A68111D1960156800216268284600F049F808B1401B6060636804E0B9
:4039000004F1420584F8422001232361002384F84330CDF800803B4603AA21463046FFF797FE013002D14FF0FF3026E023692A4639463046C0470130F5D023689B0710D560
:40394000002504F1190907E001234A4639463046C0470130E7D00135E368039A9B1A9D42F2DBE068039B9842B8BF184605E00B7804F1420584F842308AE705B0BDE8F083A8
:40398000713F0000823F000010B5C9B202449042034605D01C7801308C42F8D1184610BD002010BD884210B501EB020301D8421E0BE09842FBD28118D21AD34204D013F8E8
:4039C000014D01F8014DF8E710BD994204D011F8014B02F8014FF8E710BD000038B50546002944D051F8043C0C1F002BB8BFE41800F0D4F81E4A1368114613B963601460CC
:403A000030E0A3420DD92268A018834201BF18685B681218226063600C6023E0A24203D813465A68002AF9D118681918A1420BD12168014458188242196013D110685268F4
:403A4000014419605A600DE002D90C232B6009E021686018824201BF106852680918216062605C602846BDE8384000F098B838BD8881FF1F70B5CD1C25F0030508350C2D04
:403A800038BF0C25002D064601DBA94202D90C23336046E000F082F8234B1C681A462146A1B10B685B1B0ED40B2B03D90B60CC18CD501EE08C420BBF63684B6813606360D3
:403AC00018BF0C4615E00C464968E9E7174C23681BB9304600F052F820602946304600F04DF8431C18D0C41C24F00304A0420DD12560304600F053F804F10B00231D20F041
:403B00000700C31A0ED05A42E25070BD211A304600F034F80130EBD10C233360304600F03EF8002070BD00BF8881FF1F8481FF1FF8B5074615460E4621B91146BDE8F840A3
:403B4000FFF798BF1AB9FFF749FF2846F8BD00F027F885420ED929463846FFF78BFF044650B131462A46FFF7EDFB31463846FFF735FF01E03046F8BD2046F8BD38B5064C05
:403B80000023054608462360FDF7D2F9431C02D1236803B12B6038BD3882FF1F7047704751F8040C0028BEBF091851F8043CC01804387047000000000F00E0FF020100006C
:403BC0005E5E5E5E5E5E5E5E2046696E616C2050726F6A6563743A204E6F656D6920476F7A7A692C204C6F72656E7A6F204672616E63696F6C69205E5E5E5E5E5E5E5E0D46
:403C00000A0A00002A2A2A2A2A2A2A2A2A2A2A2A2A2A2A2A205445535420454550524F4D20616E64204C495333444820434F4E46494755524154494F4E2A2A2A2A2A2A2A50
:403C40002A2A2A2A2A2A2A2A2A2A2A2A200D0A0A00000000202D2D3E20454550524F4D20546573742052656164203D2025642025642025642C2065787065637465642031C8
:403C800035202D3332203235380D0A0A00000000202D2D3E204C49533344482057484F204920414D205245474953544552203D203078253032580D0A00000000202D2D3E41
:403CC000204C4953334448204354524C20524547495354455220313D203078253032580D0A000000202D2D3E204C4953334448204354524C20524547495354455220343DED
:403D0000203078253032580D0A000000202D2D3E204C4953334448204354524C20524547495354455220353D203078253032580D0A000000202D2D3E204C4953334448207D
:403D40004649464F204354524C2052454749535445522028425950415353206D6F646529203D203078253032580D0A00202D2D3E204C4953334448204649464F2043545256
:403D80004C20524547495354455220284649464F206D6F646529203D203078253032580D0A000000202D2D3E204C4953334448204354524C20524547495354455220333DD4
:403DC000203078253032580D0A000000202D2D3E204C495333444820494E542031204346472052454749535445523D203078253032580D0A00000000202D2D3E204C4953FA
:403E000033444820494E5431205448532052454749535445523D203078253032580D0A00202D2D3E204C4953334448204455524154494F4E2052454749535445523D2030E1
:403E400078253032580D0A00202D2D3E20466C6167456E61626C6544697361626C653D2025640D0A000000005245414459200D0A0D0A0000544852455348203078253032AA
:403E8000580D0A00202D2D3E20454550524F4D20546573742052656164203D20256C75200D0A0A00202D2D3E20454550524F4D20546573742052656164203D20256420258C
:403EC000642C206578706563746564203135202D3332203235380D0A0A000000583A2025642C20593A2025642C205A3A202564205B6D675D0D0A0000035B00402443004054
:403F000040000000004F00402400405100403000F0510040100000000140800200030140800300070140000900140140000800400140000A004C01400002005001402000F9
:403F4000605200407008004806008002014078080048800080060140F808004880004300232D302B2000686C4C006566674546470030313233343536373839414243444561
:403F80004600303132333435363738396162636465660000F8B500BFF8BC08BC9E4670474D000000AD0F0000F8B500BFF8BC08BC9E46704729000000C83F0000C880FF1FBC
:403FC00080000000F8000000000000004082FF1F0000E02EC05D00001800000000366E0101FF00000000000000000000000000000000000000000000000000000000000081
:40400000000000005E3F00000000000000000000000000000000000000000000000000000000000000000000000000000000000000000000000000000000000000000000E3
:4040400000000000E480FF1F0000000000000000000000000000000000000000000000000000000000000000000000000000000000000000000000000000000000000000BE
:404080000000000000000000000000000000000000000000000000000000000000000000000000000000000000000000000000000000000000000000000000000000000000
:4040C00000000000000000000000000000000000000000000000000000000000000000000000000000000000000000000000000000000000000000000000000000000000C0
:40410000000000000000000000000000000000000000000000000000000000000000000000000000000000000000000000000000000000000000000000000000000000007F
:40414000000000000000000000000000000000000000000000000000000000000000000000000000000000000000000000000000000000000000000000000000000000003F
:020000040003F7
:0200000480007A
:4000000002450040064F004004520040056400400265004055000140340101402A0201404E030140550401404C050140110601404F0701400408014004090140010B0140B0
:40004000010D0140701401404F150140541601404517014001190140031B0140074001400B4101400D4201400E430140034401400745014006460140054701400E480140C8
:400080000D490140064C0140084D014005500140025101401A03640101700A360D501627195022270040016018A01980800F810F850F860D87728438850F0002018D020DB7
:4000C000058D0842098D0A940C9D0D020F0D101112221480164018E219421A181B081C9D1D0D1F8021112322249D2540281D29622A802B142C8D2D8D2E10300F338034F094
:400100003570370F3A323BA03F0456025724580459045B045C215D205F01851089108C238D108E04931095029610971D980E9DC0A110A404A501A639A73AA805A9A3AA3AC6
:40014000AB54AD63AF8CB230B40FB51FB7E0B820B980BB20D602D724D804D904DB04DC12DD10DF0101220201060209080A450E1811681408170819021A041E182160220891
:40018000230826402704280A29402A062D202E4531203240338036403705399A3B013C803D284620470460046620691A6A806B106C106D686E016F49714074407601C08B7E
:4001C000C26FC467CAFFCCDCCE7FD8240402060D1C031E1C2409261628152A0A2F013101340F361037013A203E404010410345D046204701483A49FF4AFF4BFF4DA04F04AE
:400200005018580459045A045C425D045F01604062C06440654066C068C06AC06CC06EC0009003900404080A09900D8011101242130814201520170818101B111C041D40B7
:40024000219022022782282A2E8032023390388039103A0640A84190420246204780484049044A884D01526454045501562058105945604063026410660480408110830111
:4002800089408C4090209150920493019404964098029A019B589C089D209E06A208A388A508B610C02FC28FC46FCA1ECC0DCE0FD05FD204D60FD809E240EE100401050401
:4002C00006F409030C720F0310E31104120C1422150418A31A581D03207221032472285029032A222C222E502F01308031023301341F3504366038223F055440560458044D
:4003000059045B045C315D205F01840B880B8B02900193029A0C9E04A101B002B201B302B404B608B701BE10BF44C020C104C5D5C601C724C83FC9FFCAFFCBFFCDA0CF042C
:40034000D018D280D407D804D904DA04DB04DC04DD44DF01E040E2C0E440E540E6C0E8C0EAC0ECC0EEC0020103200508060409080A440D200E800F021084114012101880AD
:4003800019A01B201C041EA22111220123182540260428042A412B082F80308033453702382039443A103E2045224D084F01546055025604570159805A405C445E205F0139
:4003C00062A2632076808201860290209141920496409A219B429D209E80A004A101A2A0A318A548A810A901AA08B080C065C2DEC40FCA8DCC8BCE2ED0A0D6F0D80F010739
:400400000201050713041D01310133043401370252805405580459045B045C445D405F01018203200680082009080A240B020C100D20180419421D20224423482640279036
:4004400029202A0A30043110324034043640370A380939603BC03C083D0240204181432049844B02510852505A085D015E085F8069146B05708C720A730476808D808F10B4
:400480009123920793109440950499809B029D029E409F05A064A101A204A320A528A780A840AE01AF08B502C01DC203CA07CC9ECECFD00FD208D6D2E201E640EA403902B7
:4004C0003F0159045F01244027808380E210EA20E420000801010206030A04040503061809030A01101011021204130917102201241C2704281C2F1030013103321C3310FA
:400500003402350C3E013F14406141054203440245C0470E481249FF4AFF4BFF4C624DA04EF04F41500C5418580459045A045B045C335D335F016640670269106A306B10EE
:400540006D106E106F128103823883048403862C89808A108B158E019438960799739B0C9F08A573A607A704A803A92AAA1CAB44B001B1C0B21EB30FB434B530B922BA288B
:40058000BB08BE01BF50C003C704C9FFCA07CBFFCC40CD20CEF0CF05D008D401D804D904DA04DB04DC33DD33DF01E040E1A8E240E3200001010803080606075009020E109D
:4005C000108011141628191C1B011E701F142004210222062688275429842E082F14300831023750380139143E023F204004420143084704488049204B80500856245710CF
:40060000580859015A085C205D015E48600863028420860287088C018E80911592019380940199A19A029B089D189E2C9F50A204A308A61AA880B001C0FEC228C46ECA6A3B
:40064000CC33CEA7D04ED20CD6F1D80CE240EC100410060C08100D071203141C16021B041C141D0120202507280C2A112C092E10301F310134203504361F37023E1040634A
:40068000410245E0460B47C0482649FF4AFF4BFF4EF04F44500C54405604580459045A045B045C435D135F0166C06A406B02802184638501870688F38A0C8CFF901C92E39C
:4006C000940F950496F097019E73A008A404A80CAC42AF08B060B104B21CB302B40FB508B680B701B880BA20D409D604D804D904DB04DC63DD10DF01000101680604071038
:4007000008040A810D800EA010881202130415011608174019A11B081E881F8020042141220424402680270828012C2032043410368038043C8046284D014E0855805602B6
:4007400059045A6260806140644066506710814084408901915492E393949441981499449A509D30A0E8A780A804AA40C06FC2BDC4DFCA48CC32CE12D060D220D60FD8F90B
:40078000E220B440E610EC10EE2031403301350837403880CCF0CE103010620466088D0894809A049D489F41B604CC10D8C0514057048302870194809C109D409F41AA0822
:4007C000D460E240E680EE807380770483848F0894809B029C109D409F40A940B704DCC0E280EA807C207D80DE050008020289409C20A540C00AE40445089C20A202B00499
:40080000D001EA048D809C20A202A508E2082510660280408540881094809B0A9C109D409F40C820D880E280E6105B025F08671087108E029B0A9E02AB40B510D6C0D8803D
:40084000E210EE800980A202A588B420C202E80210208C20B202B508C408E608EC08EE04001E08160A1E105A1A5A00FF010F0000880C0000400000000413806484020000A9
:4008800001020098009A8000843800C00A00100084980002079838026000000056FC0903802104D8049A000002E07F00800F001308000022000011002301600004DEFB0C72
:4008C0001FFFFFFF2200F008040000000900040004040404222200010000C00040011011C0010011400140010000000000000000000000000000000000040C000B181000A3
:4009000000000023167F090000000000005C00211A000504005C1022001000000008000000670018000000001C0000400138021F000000A2000050042305400001BEFD0C55
:400940001FFFFFFF2200F00C040000000000021204040404313100010000C00040011011C0010011400140010000000000000000000000000000000000E0E000600000001C
:400980008400508C8C008C00000000008000408B8B0000000000000014000116120000000000000000E4E400E00008002500180100000000000000000000000000000000BE
:4009C00000000000000000000000000000000000000000000000000000000000000000000000000000000000000000000000000000000000000000000000000000000000F7
:400A000000000000000000000000000000000000000000000000000000000000000000000000000000000000000000000000000000000000000000000000000000000000B6
:400A40000000000000000000000000000000000000000000000000000000000000000000000000000000000000000000000000000000000000000000000000000000000076
:400A80000000000000000000000000000000000000000000000000000000000000000000000000000000000000000000000000000000000000000000000000000000000036
:0200000490006A
:0400000000004005B7
:0200000490105A
:04000000BC90ACAF55
:0200000490303A
:020000006B4350
:0200000490402A
:4000000000000000000000000000000000000000000000000000000000000000000000000000000000000000000000000000000000000000000000000000000000000000C0
:400040000000000000000000000000000000000000000000000000000000000000000000000000000000000000000000000000000000000000000000000000000000000080
:400080000000000000000000000000000000000000000000000000000000000000000000000000000000000000000000000000000000000000000000000000000000000040
:4000C0000000000000000000000000000000000000000000000000000000000000000000000000000000000000000000000000000000000000000000000000000000000000
:0200000490501A
:0C00000000012E16106900012E307BACB0
:00000001FF