:400000000080002011000000E9090000E909000008B5044B1A6803F53F5302331A6000F003FD00BFFA46004010B5054C237833B9044B13B10448AFF300800123237010BD93
:400040004881FF1F00000000E0210000084B10B51BB108490848AFF300800848036803B910BD074B002BFBD0BDE81040184700BF000000004C81FF1FE0210000C880FF1F00
:40008000000000002DE9F04786B062B601F05AF800F0DEFE01F038FB00F06AFA0A2000F0D5FFB44801F068F8B34B186804909B88ADF81430062204A9012000F089FA00F06C
:4000C000B5FA062202A9012000F070FABDF90820BDF90A30BDF90C10A84C0091A849204601F05AFC204601F047F8A64801F044F80F2000F0C9F90246A349204601F04CFCDB
:40010000204601F039F82721202000F0D3F9202000F0BAF902469D49204601F03DFC204601F02AF80021232000F0C4F9232000F0ABF902469649204601F02EFC204601F0F2
:400140001BF84021242000F0B5F9242000F09CF902469049204601F01FFC204601F00CF800212E2000F0A6F92E2000F08DF98A4D02462946204601F00FFC204600F0FCFF6F
:4001800047212E2000F096F92E2000F07DF902462946204601F000FC204600F0EDFF4421222000F087F9222000F06EF902467B49204601F0F1FB204600F0DEFF2A2130203D
:4001C00000F078F9302000F05FF902467449204601F0E2FB204600F0CFFF5C21322000F069F9322000F050F902466E49204601F0D3FB204600F0C0FF0321332000F05AF90A
:40020000332000F041F902466749204601F0C4FB204600F0B1FF0025644B1D70644800F0F7FE644801F04EFB2F462E465F4B1B78DBB2012BFAD1312000F026F910F0400FFC
:4002400009D04E4C02465C49204601F0A5FB204600F092FF83E0494C584B07CB20606160A2601B782373204600F086FF4FF000081CE0534C06222146282000F02FF9237820
:40028000627843EA022305EBA3152DB2A378E27843EA022306EBA31636B22379627943EA022307EBA3131FB208F10108B8F1060FDFDD444B83FB05122A44ED17C5EBA20587
:4002C0002DB283FB06123244F617C6EBA20636B283FB0723DA19FB17C3EBA2031FB2E90009B2F20012B2FB001BB2C1EB0121364880FB01E4C917C1EB2424002CB8BF644209
:40030000E4B2C2EB022280FB0218D217C2EB2828B8F1000FB8BFC8F100085FFA88F8C3EB032380FB0329DB17C3EB2929B9F1000FB8BFC9F100095FFA89F9DFF840A0CDF85B
:400340000090434622462149504601F025FB504600F012FF4A464146204600F00FF90021124B19702E2000F0A5F847212E2000F0A1F85BE7EC210000E42100008081FF1F4B
:4003800014220000342200005C22000084220000A8220000CC220000F0220000182300003C230000642300008C230000E481FF1FFD04000011050000B4230000C42300009B
:4003C0007881FF1F93244992D34D6210D42300002DE9F04383B006460C4617469846002000F0E4FD64B2002511E02146082CA8BF0821C9B206EBC50000F0B4FC00F0A4FBCE
:4004000010F0010FFAD0083C64B201356DB2002CEBDC00F0B7FC00F05BFC0026009601964FFA88F820E0C146B8F1080FA8BF4FF008095FFA89F1684600F094FC00F084FB4C
:4004400010F0010FFAD0002406E004EBC60500F00DFC78550134E4B24C45F6DBA8F108084FFA88F8013676B2B8F1000FDBDC012000F09CFD00F086FC00F02AFC00F048FC45
:4004800003B0BDE8F08300BF00B583B000F03F0060F07F008DF8040002AA002302F8053D0123194601A8FFF793FF9DF8030003B05DF804FB00B583B000F03F008DF8040045
:4004C0008DF80510002302AA02F8053D022101A8FFF77EFF03B05DF804FB00BF00B583B040F0C00302A800F8043D13460A460121FFF76EFF03B05DF804FB00BF08B50122C0
:40050000024B1A7000F05EFD08BD00BFE481FF1F08B509E0002001F0E3F90A2000F096FD094A13780133137001F0AAF90028F1D0054B1B78962B02D9012001F0D1F90022C3
:40054000014B1A7008BD00BF6481FF1F08B5C043C0B200F045FE08BD08B5C043C0B200F045FE08BD08B5C043C0B200F0AFFE08BD08B500F089FE00F0F3FE08BD38B50D461C
:400580001446FFF7E3FF2846FFF7E6FF2046FFF7E9FF38BD08B5052000F066F808BD00BF08B5062000F04AF808BD00BF10B582B003248DF80440030A8DF805308DF8060001
:4005C00013460A46214601A800F068F802B010BD2DE9F04182B000AF054688461446FFF7DFFF012000F048FDE61C04F10A0323F00703ADEB030D02238DF800302B0A8DF851
:4006000001308DF80250224641460DF1030001F0AFF9002307F1080202F8013DF1B2684600F03CF80837BD46BDE8F08108B5FFF7B1FF10F0010FFAD108BD00BF10B504462E
:40064000002000F09BFE204600F002FF00F0D8FE10F0080FFAD000F065FF0446012000F08DFE204610BD00BF10B50446002000F085FE204600F0ECFE002000F0E9FE00F0DE
:40068000BFFE10F0010FFAD000F04CFF00F04AFF0446012000F072FE204610BD2DE9F04383B006460C4617469846002000F066FE64B2002511E02146082CA8BF0821C9B296
:4006C00006EBC50000F0AAFF00F09AFE10F0010FFAD0083C64B201356DB2002CEBDC00F0ADFF00F051FF0026009601964FFA88F820E0C146B8F1080FA8BF4FF008095FFAD8
:4007000089F1684600F08AFF00F07AFE10F0010FFAD0002406E004EBC60500F003FF78550134E4B24C45F6DBA8F108084FFA88F8013676B2B8F1000FDBDC012000F01EFEB9
:4007400000F07CFF00F020FF00F03EFF03B0BDE8F08300BFFEE700BFF0B40022174611E050F82760F3B226F0FF0608E001EB420511F812406D78A5550132013BDBB2002B85
:40078000F4D10137202FEBD9F0BC7047064B1B78DBB203F00701054A11701B09013213704422034B1A707047CF0100496E5800407658004008B50A46002101F0E4F808BDCE
:4007C00038B50B222E4B1A8018232E490B7002310A802D4A13703321023211800232137040F2AF41023211800232137047F22F52264B1A80192502331D70022203F26E230B
:400800001A7008224FF040231A70032103F5007319701F4B1B78DBB21E490B701E4B1A8041F25122023B1A8000240CE01B4B1B7803F0010343EA440404F003044FF4F070C1
:4008400001F05AF8013D0DB1032CEFD115B90320FFF780FF124B4FF480721A8007221A70002210490A704820023108701A700222033B1A700C4A137843F01F03137038BDD9
:400880008040004082400040864000409040004008010049A146004022420040254200400440004006400040A243004008B501F05FF808BD38B572B6384A137843F0040307
:4008C000137000240CE0364D630019194A0011462A44084691882858FFF76CFF0134E4B2082CF0D900240CE02D48A20011194B000344B3F84020D96B986BFFF7D7FF0134F8
:40090000E4B2032CF0D927494FF09040FFF724FF254A137843F0020313701032137843F002031370214C237843F040032370A2F58632513A137843F01003137008221C4986
:400940001C48FFF7B3FF0A221B491C48FFF7AEFF0A221B491B48FFF7A9FF0A221A491B48FFF7A4FF08221A491A48FFF79FFF1A4A137843F008031370184D61232B70FFF70B
:400980001FFF81232B700122154B1A70FFF7FEFE0E2221461348FFF789FF38BDE8460040082400008400004803500140A0430040800800480251004088080048C0510040CD
:4009C0009408004810510040A008004820510040AC08004832510040224300400048004004000840B043004008B500F095FF03680C2B00D1FEE7FEE708B5094B1A68104401
:400A0000084BC31A802B02DC054B186005E000F083FF0C2303604FF0FF32104608BD00BFCC80FF1F2082FF1F08B5104E104D16E029686B68AC68002204E051F8040B43F859
:400A4000040B0432A242F8D1E868002203E0002143F8041B04328242F9D11035013E002EE6D100F05FFFFFF70DFBFEE701000000C424000008B5104A104B1A60104A1368AC
:400A800043F40073136000230AE0032B03D80D4A52F8231000E00C490C4A42F8231001332F2BF2D90A4B1A780A4B1A70074A0A4B1A60FFF7FFFE08BD0004FA050CED00E064
:400AC00014ED00E000000000E90900000080FF1FBC760040C080FF1F08ED00E00222014B1A60704700E100E00122014B1A60704700E100E008B500F007FF0C4A137843F056
:400B000020031370013A137843F0100313700232137843F01003137000F0FAFE00F086FAFFF7DCFFFFF7E0FF08BD00BF946400400222014B1A60704780E100E00122014BED
:400B40001A60704780E100E010B5FFF7F1FF064B1C78064A137803F009031C4300231370FFF7BCFF204610BD63640040E881FF1F10B5FFF7E3FF064B1B78064A147804F0D1
:400B800040041C4300231370FFF7AEFF204610BD65640040F981FF1F10B504462B4B1A7802F0FF0312B1013BDBB200E00723284A1278D2B29342F1D0FFF7BAFF254B19780E
:400BC000254A137803F009030B4313701F4B1A78D2B21F4B1B78DBB29A4207D11E4B1B7813F0040F02D01D4B1C702CE0184A13780133DBB213701378DBB2072B02D9002211
:400C0000134B1A70124B1A78D2B2104B1B78DBB29A420ED10D4A13780133DBB213701378DBB2072B02D90022084B1A7001220C4B1A70074B1B78DBB20A4AD4540A4A137808
:400C400043F004031370FFF749FF10BDFA81FF1FF881FF1F63640040E881FF1F44640040F481FF1FEC81FF1F8364004010B5FFF765FF134B1A78D2B2124B1B78DBB29A42D5
:400C800014D0114B1B7813F0FF0F0CD10C4A13780133DBB213701378DBB2072B06D90022074B1A7002E00022074B1A70044B1B78DBB2064AD45CE4B2FFF716FF204610BD84
:400CC000F781FF1FF581FF1FF681FF1FFC81FF1F08B501E0094B1B78094B1B7813F0200FF8D1FFF72BFF0023064A1370064A1370064A1370FFF7F8FE08BD00BF546400400F
:400D000065640040F681FF1FF781FF1FF581FF1F08B500F0F9FD0E4B1A7842F001021A701A7802F0FE021A7000F0F2FDFFF700FF0023084A1370084A1370084A1370084AC8
:400D4000137803F0FB031370FFF7C8FE08BD00BF94640040F481FF1FFA81FF1FF881FF1F8364004070B506460C46002506E0705DFFF712FF0135EDB2013CE4B2002CF6D1D5
:400D800070BD00BF08B501E00A4B1B780A4B1B7813F0200FF8D100F0B7FD084B1A7842F001021A701A7802F0FE021A7000F0B0FD08BD00BF5464004065640040946400402E
:400DC00010B50F22174B1A70174C022323600721012000F06FF91549012000F057F9012323600721002000F065F91149002000F04DF9FFF7C7FF00240E4B1C700E4B1C700F
:400E00000E4B1C700E4B1C700E4B1C700E4B1C70FFF79AFEFFF7ACFE0C4B1C70202202331A7010BD8464004080E100E06D0E00000D0F0000F681FF1FF781FF1FF581FF1F80
:400E4000F481FF1FFA81FF1FF881FF1F8364004008B5054B1B7823B9FFF7B2FF0122024B1A70FFF747FE08BD6581FF1F28E01F4B19781F4A137803F009030B431370137815
:400E800013F0040F24D01B4B1B7813F0FF0F0CD1194A13780133DBB213701378DBB2072B06D90022144B1A7002E00022114B1A70114B1B78DBB2114AD35CDBB2104A137081
:400EC0000D4B1A78D2B20F4B1B78DBB29A42CED1094B1A78D2B20B4B1B78DBB29A4204D1094A137803F0FB031370704763640040E881FF1FF481FF1FFA81FF1FEC81FF1FB0
:400F000044640040F881FF1F83640040204B1A7820490B7803F0400313430B7032E01E4B1A78D2B21D490B780133DBB20B700B78DBB2072B02D90021184B1970174B197848
:400F4000C9B2174B1B78DBB299420ED114490B780133DBB20B700B78DBB2072B02D900210F4B197001210F4B19700C4B1B78DBB20D49CA54064B1A7806490B7803F04003A2
:400F800013430B70034B1B7813F0200FC7D1704765640040F981FF1F54640040F581FF1FF781FF1FF681FF1FFC81FF1F044A137803F07F03C001C0B218431070704700BF39
:400FC00010510040024B1878C0F30010704700BF8C450040014B1B68D866704708ED00E04001C0B2014B1870704700BF0BE400E04FF40062014B1A60704700BF00E100E022
:401000004FF40062014B1A60704700BF80E100E010B50446FFF7F4FF2046FFF7DBFF0720FFF7DEFFFFF7E4FF10BD00BF054A137843F0010313701032137843F001031370E6
:40104000704700BFA243004001BE704710B5044605E0084B186800F04FFCA4F50044B4F5004FF6D8034B586800FB04F000F044FC10BD00BFD080FF1F08B5034B1B7A00FBF8
:4010800003F000F039FC08BDD080FF1F70B504460E46074B1D681F2802D90020FFF7D4FF04F01F04103455F8240045F8246070BD08ED00E038B504460D46072902D90020FC
:4010C000FFF7C2FF1F2C02D90020FFF7BDFF04F01F0000F1604000F564406D01EDB2057038BD00BF7222084B1A702022A3F580731A700622613B1A70472210331A70002260
:4011000050331A70704700BF8765004010B500F0FBFB04460A4A137843F020031370A2F58072137843F010031370013A137843F01003137000F032F8204600F0E9FB10BDC6
:401140009765004008B5054B1B7823B9FFF7CAFF0122024B1A70FFF7D9FF08BD6681FF1F034B1B7813F0040FFAD1024B18707047666400404764004038B5074B1B782BB96D
:4011800038BDFFF7EDFF0134A4B201E005460024285D0028F5D138BD6681FF1F054A137843F0040313701032137843F004031370704700BFA2430040024A137843F08003C7
:4011C0001370704775650040014B1870704700BF05650040014B1870704700BF45650040014B1870704700BF25650040014B1870704700BF35650040014B1870704700BFF1
:4012000085650040014B1878704700BF65650040014B1878704700BF5565004008B501E0FFF7F6FFFFF7EEFF10F0100FF8D108BD10B5134A137803F0C00343F0090313709E
:40124000104C237843F001032370FF20FFF7BCFFFF20FFF7BFFFFF20FFF7C2FFFF20FFF7C5FF0020FFF7C8FF00F04EFB237843F01003237000F04CFBFFF7D0FF10BD00BF49
:40128000756500409565004008B5054B1B7823B9FFF7CEFF0122024B1A70FFF78DFF08BD6881FF1F024A137843F080031370704776650040014B1870704700BF066500407C
:4012C000014B1870704700BF46650040014B1870704700BF26650040014B1870704700BF86650040014B1878704700BF66650040014B1878704700BF5665004008B501E0E7
:40130000FFF7F6FFFFF7EEFF10F0100FF8D108BD10B5114A137803F0C00343F0090313700E4C237843F001032370FF20FFF7C2FFFF20FFF7C5FF0020FFF7C8FF0020FFF7AE
:40134000CBFF00F0E1FA237843F01003237000F0DFFAFFF7D3FF10BD766500409665004008B5054B1B7823B9FFF7D2FF0122024B1A70FFF797FF08BD6981FF1F044A137841
:4013800003F0EF03000100F01000184310707047205100400822014B1A60704700E100E00422014B1A60704700E100E008B500F0ABFA0C4A137843F020031370013213786E
:4013C00043F0100313700132137843F01003137000F09EFA00F046FAFFF7DCFFFFF7E0FF08BD00BF906400400822014B1A60704780E100E00422014B1A60704780E100E0BB
:4014000010B5FFF7F1FF064B1C78064A137803F009031C4300231370FFF7BCFF204610BD616400401382FF1F10B5FFF7E3FF064B1B78064A147804F040041C430023137007
:40144000FFF7AEFF204610BD626400400C82FF1F10B504462B4B1A7802F0FF0312B1013BDBB200E00723284A1278D2B29342F1D0FFF7BAFF254B1978254A137803F0090384
:401480000B4313701F4B1A78D2B21F4B1B78DBB29A4207D11E4B1B7813F0040F02D01D4B1C702CE0184A13780133DBB213701378DBB2072B02D90022134B1A70124B1A786A
:4014C000D2B2104B1B78DBB29A420ED10D4A13780133DBB213701378DBB2072B02D90022084B1A7001220C4B1A70074B1B78DBB20A4AD4540A4A137843F004031370FFF764
:4015000049FF10BD1082FF1F1182FF1F616400401382FF1F416400400F82FF1F1482FF1F8164004010B5FFF765FF134B1A78D2B2124B1B78DBB29A4214D0114B1B7813F04E
:40154000FF0F0CD10C4A13780133DBB213701378DBB2072B06D90022074B1A7002E00022074B1A70044B1B78DBB2064AD45CE4B2FFF716FF204610BD1282FF1F0D82FF1F32
:401580000E82FF1F0482FF1F08B501E0094B1B78094B1B7813F0200FF8D1FFF72BFF0023064A1370064A1370064A1370FFF7F8FE08BD00BF51640040626400400E82FF1F9D
:4015C0001282FF1F0D82FF1F08B500F09DF90E4B1A7842F001021A701A7802F0FE021A7000F096F9FFF700FF0023084A1370084A1370084A1370084A137803F0FB0313702A
:40160000FFF7C8FE08BD00BF916400400F82FF1F1082FF1F1182FF1F8164004070B506460C46002506E0705DFFF712FF0135EDB2013CE4B2002CF6D170BD00BF08B501E039
:401640000A4B1B780A4B1B7813F0200FF8D100F05BF9084B1A7842F001021A701A7802F0FE021A7000F054F908BD00BF51640040626400409164004010B50F22174B1A70D6
:40168000174C0823236007210320FFF713FD15490320FFF7FBFC0423236007210220FFF709FD11490220FFF7F1FCFFF7C7FF00240E4B1C700E4B1C700E4B1C700E4B1C7097
:4016C0000E4B1C700E4B1C70FFF79AFEFFF7ACFE0C4B1C70202201331A7010BD8064004080E100E025170000C51700000E82FF1F1282FF1F0D82FF1F0F82FF1F1082FF1F59
:401700001182FF1F8164004008B5054B1B7823B9FFF7B2FF0122024B1A70FFF747FE08BD6A81FF1F28E01F4B19781F4A137803F009030B431370137813F0040F24D01B4BEB
:401740001B7813F0FF0F0CD1194A13780133DBB213701378DBB2072B06D90022144B1A7002E00022114B1A70114B1B78DBB2114AD35CDBB2104A13700D4B1A78D2B20F4B60
:401780001B78DBB29A42CED1094B1A78D2B20B4B1B78DBB29A4204D1094A137803F0FB0313707047616400401382FF1F0F82FF1F1082FF1F1482FF1F416400401182FF1F93
:4017C00081640040204B1A7820490B7803F0400313430B7032E01E4B1A78D2B21D490B780133DBB20B700B78DBB2072B02D90021184B1970174B1978C9B2174B1B78DBB204
:4018000099420ED114490B780133DBB20B700B78DBB2072B02D900210F4B197001210F4B19700C4B1B78DBB20D49CA54064B1A7806490B7803F0400313430B70034B1B7824
:4018400013F0200FC7D17047626400400C82FF1F516400400D82FF1F1282FF1F0E82FF1F0482FF1F054A137843F0020313701032137843F002031370704700BFA2430040D7
:40188000024B1878C0F38000704700BF21510040014B1B681865704708ED00E04001C0B2014B1870704700BF04E400E01022014B1A60704700E100E01022014B1A60704734
:4018C00080E100E010B50446FFF7F6FF2046FFF7DFFF0720FFF7E2FFFFF7E8FF10BD00BF044A137803F0FD03400000F00200184310707047205100400230800803D000BF7F
:4019000001380046FCD17047EFF3108072B6704780F31088704700BF014B1868704700BF4081FF1F0E4B70B51E460E4C0025E41AA410A54204D056F8253098470135F8E74C
:4019400000F0AEFD084B094C1E46E41AA4100025A54204D056F8253098470135F8E770BDAC240000AC240000AC240000B424000010B5431E0A44914204D011F8014B03F8B7
:40198000014FF8E710BD03460244934202D003F8011BFAE7704700000EB400B54FF402719CB0ADF814106FF00041049107914FF6FF711DAB02900690084853F8042BADF823
:4019C0001610006802A9019300F064F8029B00221A701CB05DF804EB03B070474081FF1F2DE9F0478E6882469E420C46914698463ED88A8912F4906F3AD0256809690223DE
:401A00006F1A656905EB450595FBF3F57B1C43449D4238BF1D4653050FD5294600F040FB064698B13A462169FFF7A2FFA38923F4906343F08003A38113E02A4600F08EFB4E
:401A4000064670B92169504600F0DEFA0C23CAF80030A3894FF0FF3043F04003A381BDE8F08726613E44266046466561ED1BA560464528BF464649463246206800F0A8FA8B
:401A8000A36800209B1BA36023681E442660BDE8F08700002DE9F04F9DB003938B8980461C060D4616460DD50B695BB9402100F0F7FA2860286118B90C23C8F80030CDE076
:401AC00040236B610023099320238DF82930DFF89CB130238DF82A3037463C4614F8013B1BB9B7EB060910D003E0252BF9D02746F3E74B46324629464046FFF771FF0130FD
:401B000000F0A780099B4B4409933B78002B00F0A08000234FF0FF3204930793059206938DF853301A930126052221784E4800F041FA671C049B38B14B4A3C46801A06FAC4
:401B400000F018430490EFE7D90644BF20228DF853201A0744BF2B228DF8532022782A2A03D0079A00210A200BE0039A111D12680391002A10DA524243F0020007920490B0
:401B80000BE027463B780134303B092B03D800FB02320121F5E701B107923B782E2B1ED17B782A2B0AD1039B02371A1D1B680392002BB8BF4FF0FF33059310E00023194692
:401BC0000593781C0A2407463A780130303A092A03D804FB01210123F5E703B1059103223978224800F0E6F940B14023CBEB000003FA00F0049B01371843049039780622D3
:401C00001B487E1C8DF8281000F0D4F988B1194B33B9039B073323F007030833039314E003AB00932A46144B04A94046AFF3008007E003AB00932A460F4B04A9404600F070
:401C400093F8B0F1FF3F824603D0099B5344099342E7AB895B0601D4099801E04FF0FF301DB0BDE8F08F00BF6A240000702400007424000000000000E11900002DE9F04754
:401C800091461F460A698B6806469342B8BF1346C9F8003091F843200C46DDF8208012B10133C9F800302368990642BFD9F800300233C9F80030256815F0060510D104F140
:401CC000190A07E00123524639463046C04701301AD00135E368D9F800209B1A9D42F1DB94F843302268003318BF012392060FD5E118302081F843005A1C94F84510224440
:401D0000023382F8431003E04FF0FF30BDE8F08704F1430239463046C0470130F4D02268D9F80050E36802F00602042A08BF5D1B2269A3680CBF25EAE57500259342C4BF65
:401D40009B1AED184FF000091A344D4509D00123224639463046C0470130D5D009F10109F3E70020BDE8F0872DE9F04317460A7E85B06E2A984606460C460C9B01F1430ECF
:401D800000F0AE8011D8632A22D009D8002A00F0BB80582A40F0CA8081F84520834955E0642A1ED0692A1CD0C0E0732A00F0B08009D86F2A2ED0702A40F0B8800A6842F016
:401DC00020020A603EE0752A24D0782A3AD0ADE01A6801F14205111D1960136884F84230A8E021681A6811F0800F02D0111D196008E011F0400F02F10401196002D0B2F9E0
:401E0000003000E01368002B3CDA2D225B4284F8432037E021681A6811F0800F02D0111D196007E011F0400F02F10401196001D0138800E01368227E5C496F2A14BF0A2294
:401E400008221BE078225A4984F845202268186812F0800F00F104051D6003D1550601D5038800E00368D00744BF42F0200222601BB9226822F0200222601022002084F8A0
:401E8000430001E049490A226568002DA56008DB206820F0040020602BB9002D7DD175460CE0002B79D07546B3FBF2F002FB1033CB5C05F8013D03460028F5D1082A0BD196
:401EC0002368DA0708D5236962689A42DEBF302305F8013C05F1FF35C5EB0E0323612EE008681A6810F0800F496903D0101D1860136808E010F0400F02F104001860136879
:401F000001D0198000E0196000232361754616E01A68111D1960156800216268284600F049F808B1401B6060636804E004F1420584F8422001232361002384F84330CDF83A
:401F400000803B4603AA21463046FFF797FE013002D14FF0FF3026E023692A4639463046C0470130F5D023689B0710D5002504F1190907E001234A4639463046C0470130CF
:401F8000E7D00135E368039A9B1A9D42F2DBE068039B9842B8BF184605E00B7804F1420584F842308AE705B0BDE8F0837B2400008C24000010B5C9B202449042034605D0C1
:401FC0001C7801308C42F8D1184610BD002010BD884210B501EB020301D8421E0BE09842FBD28118D21AD34204D013F8014D01F8014DF8E710BD994204D011F8014B02F86A
:40200000014FF8E710BD000038B50546002944D051F8043C0C1F002BB8BFE41800F0D4F81E4A1368114613B96360146030E0A3420DD92268A018834201BF18685B681218D5
:40204000226063600C6023E0A24203D813465A68002AF9D118681918A1420BD12168014458188242196013D110685268014419605A600DE002D90C232B6009E021686018F9
:40208000824201BF106852680918216062605C602846BDE8384000F098B838BD7081FF1F70B5CD1C25F0030508350C2D38BF0C25002D064601DBA94202D90C23336046E0AF
:4020C00000F082F8234B1C681A462146A1B10B685B1B0ED40B2B03D90B60CC18CD501EE08C420BBF63684B681360636018BF0C4615E00C464968E9E7174C23681BB93046AF
:4021000000F052F820602946304600F04DF8431C18D0C41C24F00304A0420DD12560304600F053F804F10B00231D20F00700C31A0ED05A42E25070BD211A304600F034F8B9
:402140000130EBD10C233360304600F03EF8002070BD00BF7081FF1F6C81FF1FF8B5074615460E4621B91146BDE8F840FFF798BF1AB9FFF749FF2846F8BD00F027F88542E0
:402180000ED929463846FFF78BFF044650B131462A46FFF7EDFB31463846FFF735FF01E03046F8BD2046F8BD38B5064C0023054608462360FEF720FC431C02D1236803B175
:4021C0002B6038BD1C82FF1F7047704751F8040C0028BEBF091851F8043CC01804387047000000000F00E0FF020100002A2A2A2A2A2A2A2A2A20202020454550524F4D20EF
:4022000054455354202020202A2A2A2A2A2A2A2A2A0D0A002A2A20454550524F4D2052656164203D202564202564202564200D0A000000002A2A2A2A2A2A2A2A2A2A2A2AEE
:402240002A2A2A2A2A2A2A2A2A2A2A2A2A2A2A2A2A2A2A2A2A2A2A2A2A0D0A002A2A204C49533344482057484F204920414D205245474953544552203D2030782530325864
:402280000D0A00002A2A204C4953334448204354524C20524547495354455220313D203078253032580D0A002A2A204C4953334448204354524C20524547495354455220B1
:4022C000343D203078253032580D0A002A2A204C4953334448204354524C20524547495354455220353D203078253032580D0A002A2A204C4953334448204649464F2043A8
:4023000054524C205245474953544552203D203078253032580D0A002A2A204C4953334448204354524C20524547495354455220333D203078253032580D0A002A2A204C08
:40234000495333444820494E542031204346472052454749535445523D203078253032580D0A00002A2A204C495333444820494E5431205448532052454749535445523D0E
:40238000203078253032580D0A0000002A2A204C4953334448204455524154494F4E2052454749535445523D203078253032580D0A00000054485245534820307825303221
:4023C000580D0A0077617465726D61726B200D0A000000005245442076616C75653A2025642C20475245454E2076616C75653A2025642C20424C55452076616C75653A2086
:402400002564200D0A000000405100403000F0510040100000000140800000010140000380040140800B80140140800700400140000A004C014000020050014020000000CD
:4024400060520040F806004806008000014000070048800000040140800700488000001401400008004880004300232D302B2000686C4C00656667454647003031323334A9
:402480003536373839414243444546003031323334353637383961626364656600000000F8B500BFF8BC08BC9E4670474D000000750A0000F8B500BFF8BC08BC9E46704748
:4024C00029000000D8240000C880FF1F80000000D800000000000000000000002082FF1F0000E02EC05D00001800000000366E010000000000000000000000000000000051
:40250000000000000000000000000000000000006824000000000000000000000000000000000000000000000000000000000000000000000000000000000000000000000F
:4025400000000000000000000000000000000000E080FF1F0000000000000000000000000000000000000000000000000000000000000000000000000000000000000000DD
:40258000000000000000000000000000000000000000000000000000000000000000000000000000000000000000000000000000000000000000000000000000000000001B
:4025C00000000000000000000000000000000000000000000000000000000000000000000000000000000000000000000000000000000000000000000000000000000000DB
:40260000000000000000000000000000000000000000000000000000000000000000000000000000000000000000000000000000000000000000000000000000000000009A
:40264000000000000000000000000000000000000000000000000000000000000000000000000000000000000000000000000000000000000000000000000000000000005A
:020000040003F7
:0200000480007A
:40000000014500400452004004640040036500400500014035010140550201403F0301401504014047050140670601403C07014001090140010B01402D1401404A150140A9
:40004000531601404617014002190140011B0140084001400A4101400C420140014301400345014003460140044701400248014009490140094C0140074D014005500140D8
:400080000251014064010040014018C01940800F840F860F8738850F860D8772560257205B045D105F010402071509400B010E3A0F901502160217081C201D201E021F019F
:4000C00024022514260427042D402E1237193DA83E014480452047044C014D444F11562857405D855F206280674269026A016B19720282018521874088108980C0F0C2F0B7
:40010000C4B0CAB0CCE0CEF0D0E0D230D6F0D89800410202041D08020A640E201002120D1505170A180219091A681B061C1D1D021F0D200D2210241D2A102C1D2D032F0C16
:40014000300F34103660370F3A023B803E1054405604580459045B045C115D105F0181D9852E8781884289D18B088CD28DD990C3922C94D2952097D0982199D99AD49C4201
:400180009DD89E909F01A0D2A443A508A6B8A704A890A924AA42AB49AD11AF22B0C0B220B3F0B41FB50FB601B820BB38BE44D409D604D804D904DB04DF01008002040402BE
:4001C00005400680071409800A640C100E81111012601408160A1709184119101A441B091D401E801F10200422282680282029102A042B012E803020318032583410369028
:400200003704388439123A40582059065B40600163806621672283409002920193019A2A9B1D9C80A690AB21C0F3C2DFC4FECA1ECC7ECE0FD60FD8F98013822488658A1A81
:4002400094449609980E9C409F01B101B270B40FB820BA08D440D604D804D904DB04DC31DF010086040207040A450E280F0110211110124019401A081B0A1E28211825012C
:40028000280129402A013118374038443920406449144A0252556140644066506710686169126A80704072017C207E0481088308844087129046924493019480951296888D
:4002C00099109B049D049E04A460A610A808AB49AD02AE04B080B140B601C05DC2EBC40FCA01CC16CE0ED007D20CD8F8EA80EE400020014A0203031404400E8C0F351411CB
:400300001503160E171419731B0C1E08208C2213281129732A862B042F0830303110328A330F34403560360F380239203A883B083E103F114003454049FF4A074BFF4C4057
:400340004D204EF04F0550085401580459045A045B045C225D225F01604061A862406320801C81028202830184108507860C882089078A038C098E109014940C96119901DA
:400380009B029D04A010B103B304B41FB620BA02BE40C025C103C50EC7BCC831C9FFCAFFCBFFCEF0CF44D00CD418D804D904DA04DB04DC22DD22DF01E6C0EA40EB02008005
:4003C00001210311050406400701090A0C800D08108015011710188019601C801D081E051F0621052202244027142F06301032403608371039163D013E013FC04108431019
:40040000470449044B404C8051025208564057405A025C405E065F10600463029F40A101B202C0BFC2ACC458CA30CC6CCE97D046D208D6F1D80CEE20EA208404870C8B072A
:400440009A079D01AA01AB08B004B102B202B304B508B601B701BF10C020C103C5D1C650C702C81BC9FFCAFFCBFFCDA0CF04D018D280D407D804D904DA04DB04DC33DD33D1
:40048000DF01E040E2C0E440E540E6C0E8C0EAC0ECC0EEC000440304050409400A200B840F08109012061608184519111D041E401F80208821082608278A282029912F082E
:4004C000309031083780382839803A043E0C3F2040614104430445044608481449804B804F095304550457185D205E405F097640812083828401881089488E0890289188ED
:400500009224938497089C109D119E40A081A202A454A508C027C24FC44FCA2FCC1ECE6ED06BD20CD6F0E6400201030404040F0413011A0E1E0229012B0230043101320806
:4005400033043401360237023F044040410545D14602480749FF4AFF4BFF4DA04F04501852805405580459045A045B045C435D335F01604062C06440654066C068C06AC0B2
:400580006CC06EC0851C8602891C8A028D238E01930395209604970399079A019B189D129F04A123A509A744A920AB03B002B103B204B320B401B51CB740BE11BF04D602DF
:4005C000D712D804D904DB04DC24DD20DF0100A8050406400B280E010F0818041B091C421D041E0421402215250226042701281029112F0830423108321037013880391488
:400600003B803D023E013F8045014F8957405A085C405E085F0169146A8070947304774078407A02880289068B10908091089404951496829C109F40A101A202A701A904A0
:40064000AA01AE08AF10B140C037C2C6CA27CC8FCE9ED080D210D6D2E620E220E880E220338237123A1082088702CCF0CE10E6C06302660883109A089E109F10A782D640A7
:40068000D880E220500456808004828087809E10A780B301B702D460E280E6909E1000080120C00A9920B004EA0497049920B304EE048A109E106302660167028301870159
:4006C0008E01D6C0D880E6300B04892097049920A001B001C202E204E801101074018810A001C408DE04E204000F08030A0F101C1A1C00FF01030000888C00004000000028
:40070000079A3800843800C00A2110D80402800060980002560209980498000201000000849A00008000040000FC000384130064020008E0800F7F138000002800001500D5
:400740003605200004CEFB0D1FFFFFFF2200F008040000000900040004040404111100010000C00040011011C0010011400140010000000000000000000000000000000054
:400780000000B00041061A0900300000B01D002243000C0000000003032A5414B000000000002004B0000000B000000002001D002000400780381F000820800000001100CF
:4007C00062043000050EFDBC3DFFFFFF2200F00C040000000000022004040404000000010000C00040011011C0010011400140010000000000000000000000000000000092
:40080000000000000F1810000008130013000C041F000000033C2042040400000C10130008670018010040230C1C0061027F40000F40001F1C386000000222080000400089
:4008400043050600010C000E11FFFFFF62A0F0410C0000000000000004040400220200010000000000004002001030100010101200000000000000000000000000000000CD
:4008800000606000600000008400508C8C008C00000000008000408B8B0000000000000014000116120000000000000000E0E000E0000000000000000000000000000000ED
:4008C00000000000000000000000000000000000000000000000000000000000000000000000000000000000000000000000000000000000000000000000000000000000F8
:4009000000000000000000000000000000000000000000000000000000000000000000000000000000000000000000000000000000000000000000000000000000000000B7
:400940000000000000000000000000000000000000000000000000000000000000000000000000000000000000000000000000000000000000000000000000000000000077
:400980000000000000000000000000000000000000000000000000000000000000000000000000000000000000000000000000000000000000000000000000000000000037
:0200000490006A
:0400000000004005B7
:0200000490105A
:04000000BC90ACAF55
:0200000490303A
:02000000254693
:0200000490402A
:4000000000000000000000000000000000000000000000000000000000000000000000000000000000000000000000000000000000000000000000000000000000000000C0
:400040000000000000000000000000000000000000000000000000000000000000000000000000000000000000000000000000000000000000000000000000000000000080
:400080000000000000000000000000000000000000000000000000000000000000000000000000000000000000000000000000000000000000000000000000000000000040
:4000C0000000000000000000000000000000000000000000000000000000000000000000000000000000000000000000000000000000000000000000000000000000000000
:0200000490501A
:0C00000000012E16106900012E2635AFFD
:00000001FF