:400000000080002011000000BD0B0000BD0B000008B5044B1A6803F53F5302331A6000F0EDFD00BFFA46004010B5054C237833B9044B13B10448AFF300800123237010BDFD
:400040004881FF1F0000000088270000084B10B51BB108490848AFF300800848036803B910BD074B002BFBD0BDE81040184700BF000000004C81FF1F88270000C880FF1FA4
:40008000000000002DE9F04786B062B601F06CF900F0E4FF01F08EFC00F016FB0A2001F0E9F8C54801F098F9C44B186804909B88ADF81430062204A9012000F069FB00F00C
:4000C00095FB062202A9012000F050FBBDF90820BDF90A30BDF90C10B94C0091B949204601F02EFF204601F077F9B74801F074F90F2000F0F3F90246B449204601F020FF9B
:40010000204601F069F92721202000F0FDF9202000F0E4F90246AE49204601F011FF204601F05AF90021232000F0EEF9232000F0D5F90246A749204601F002FF204601F018
:400140004BF94021242000F0DFF9242000F0C6F90246A149204601F0F3FE204601F03CF900212E2000F0D0F92E2000F0B7F99B4D02462946204601F0E3FE204601F02CF96C
:4001800047212E2000F0C0F92E2000F0A7F902462946204601F0D4FE204601F01DF94421222000F0B1F9222000F098F902468C49204601F0C5FE204601F00EF92A21302081
:4001C00000F0A2F9302000F089F902468549204601F0B6FE204601F0FFF85C21322000F093F9322000F07AF902467F49204601F0A7FE204601F0F0F80321332000F084F914
:40020000332000F06BF902467849204601F098FE204601F0E1F80A2001F02CF800F07EFD01F02CFA01F0AEF80025714B1D70714800F0F4FF704801F0A1FC704801F060FD43
:400240006F4801F0F7FD6F4801F01CFE01F0C4FD2F462E46584801F0BFF8002000F052FA574C02466849204601F06AFE204601F0B3F85F4B1B78DBB2012BEBD1312000F091
:400280002DF910F0400F08D002466049204601F057FE204601F0A0F883E0494C5C4B07CB20606160A2601B782373204601F094F84FF000081CE0574C06222146282000F0F8
:4002C00037F92378627843EA022305EBA3152DB2A378E27843EA022306EBA31636B22379627943EA022307EBA3131FB208F10108B8F1060FDFDD484B83FB05122A44ED17CF
:40030000C5EBA2052DB283FB06123244F617C6EBA20636B283FB0723DA19FB17C3EBA2031FB2E90009B2F20012B2FB001BB2C1EB01213A4880FB01E4C917C1EB2424002C8A
:40034000B8BF6442E4B2C2EB022280FB0218D217C2EB2828B8F1000FB8BFC8F100085FFA88F8C3EB032380FB0329DB17C3EB2929B9F1000FB8BFC9F100095FFA89F9DFF8A3
:4003800040A0CDF80090434622462549504601F0D7FD504601F020F84A464146204600F099F90021124B19702E2000F0ADF847212E2000F0A9F84DE7942700008C270000DD
:4003C0008481FF1FBC270000DC270000042800002C280000502800007428000098280000C0280000E42800000C29000034290000E881FF1F51050000650500007506000058
:4004000089060000790500005C29000078290000882900007C81FF1F93244992D34D6210982900002DE9F04383B006460C4617469846002000F0C0FE64B2002511E0214622
:40044000082CA8BF0821C9B206EBC50000F08EFD00F07EFC10F0010FFAD0083C64B201356DB2002CEBDC00F091FD00F035FD0026009601964FFA88F820E0C146B8F1080FA3
:40048000A8BF4FF008095FFA89F1684600F06EFD00F05EFC10F0010FFAD0002406E004EBC60500F0E7FC78550134E4B24C45F6DBA8F108084FFA88F8013676B2B8F1000F6B
:4004C000DBDC012000F078FE00F060FD00F004FD00F022FD03B0BDE8F08300BF00B583B000F03F0060F07F008DF8040002AA002302F8053D0123194601A8FFF793FF9DF824
:40050000030003B05DF804FB00B583B000F03F008DF804008DF80510002302AA02F8053D022101A8FFF77EFF03B05DF804FB00BF00B583B040F0C00302A800F8043D134650
:400540000A460121FFF76EFF03B05DF804FB00BF08B50122024B1A7000F03AFE08BD00BFE881FF1F08B501F03FFB0022014B1A7008BD00BF6481FF1F38B53D4B1B78052B57
:400580002DD93B4B5B7873B90122394B5A7000221146104600F09EF800F0C0FB01F06EF800F0F0FE17E0012B15D1314B00225A709B781BB9104601F0EFFA0CE0012B0AD18F
:4005C000012001F0E9FA00F0CFFE00F047FD01F0F1F900F079F80022254BDA7038BD052B44D8234B5B78002B40D1214BDB78012B07D013B1022B34D036E001221C4BDA709E
:4006000032E01B4B9B788BB9194C0120A07001F0C3FA00F0A9FE00F021FD01F0CBF900F053F8A178002000F085F816E0012B14D10F4D0024AC70204601F0AEFAA978204643
:4006400000F078F822462146204600F043F800F065FB01F013F800F095FE0022044BDA7002E00122024BDA7001F01CFB38BD00BF6481FF1F08B50222024BDA7001F0CEFAA4
:4006800008BD00BF6481FF1F08B501F061FB074B1A7801321A705B78012B06D101F088FAB0FA80F0400901F077FA08BD6481FF1F08B500F0D3FE08BD08B500F0D5FE08BDAA
:4006C00008B500F041FF08BD08B500F01BFF00F085FF08BD38B50D461446FFF7E9FF2846FFF7EAFF2046FFF7EBFF38BD08B5052000F09AF808BD00BF08B5062000F07EF817
:4007000008BD00BF00B583B003218DF80410030A8DF805308DF8060002AA002302F8053D012301A800F09AF89DF8030003B05DF804FB00BF30B583B004460D46FFF7DCFF00
:4007400002238DF80430230A8DF805308DF806408DF80750002302AA02F8053D04210DEB010000F07BF803B030BD00BF10B582B003248DF80440030A8DF805308DF80600E9
:4007800013460A46214601A800F068F802B010BD2DE9F04182B000AF054688461446FFF7ABFF012000F07CFDE61C04F10A0323F00703ADEB030D02238DF800302B0A8DF88F
:4007C00001308DF80250224641460DF1030001F0A3FB002307F1080202F8013DF1B2684600F03CF80837BD46BDE8F08108B5FFF77DFF10F0010FFAD108BD00BF10B50446AB
:40080000002000F0F9FE204600F078FF00F04EFF10F0080FFAD000F0DBFF0446012000F0EBFE204610BD00BF10B50446002000F0E3FE204600F062FF002000F05FFF00F0B1
:4008400035FF10F0010FFAD000F0C2FF00F0C0FF0446012000F0D0FE204610BD2DE9F04383B006460C4617469846002000F0C4FE64B2002511E02146082CA8BF0821C9B2B5
:4008800006EBC50001F020F800F010FF10F0010FFAD0083C64B201356DB2002CEBDC01F023F800F0C7FF0026009601964FFA88F820E0C146B8F1080FA8BF4FF008095FFA49
:4008C00089F1684601F000F800F0F0FE10F0010FFAD0002406E004EBC60500F079FF78550134E4B24C45F6DBA8F108084FFA88F8013676B2B8F1000FDBDC012000F07CFE3E
:4009000000F0F2FF00F096FF00F0B4FF03B0BDE8F08300BFFEE700BFF0B40022174611E050F82760F3B226F0FF0608E001EB420511F812406D78A5550132013BDBB2002B61
:40094000F4D10137212FEBD9F0BC7047064B1B78DBB203F00701054A11701B09013213704422034B1A707047CF0100496E5800407658004008B50A46002101F0D8FA08BD15
:4009800038B50B22334B1A80182333490B7002310A80324A13701925023215800232137040F2AF41023211800232137043F69723023213800232157002321380284B1D7081
:4009C00047F22F5202331A8002331D70022203F266231A7008224FF040231A70032103F5007319701F4B1B78DBB21F490B701F4B1A8041F25122023B1A8000240CE01C4BAD
:400A00001B7803F0010343EA440404F003044FF4F07001F045FA013D0DB1032CEFD115B90320FFF777FF134B4FF480721A8007221A70002210490A704820023108701A702F
:400A40000222033B1A700D4A137843F07F03137038BD00BF8040004082400040864000409640004008010049A146004022420040254200400440004006400040A2430040AB
:400A800008B501F049FA08BD38B572B6384A137843F00403137000240CE0364D630019194A0011462A44084691882858FFF762FF0134E4B2092CF0D900240CE02D48A2003C
:400AC00011194B000344B3F84420196CD86BFFF7D7FF0134E4B2022CF0D927494FF09040FFF71AFF254A137843F0020313701032137843F002031370214C237843F040038C
:400B00002370A2F58632513A137843F01003137008221C491C48FFF7B3FF0A221B491C48FFF7AEFF0A221B491B48FFF7A9FF0A221A491B48FFF7A4FF08221A491A48FFF7C1
:400B40009FFF1A4A137843F008031370184D61232B70FFF715FF81232B700122154B1A70FFF7F4FE0E2221461348FFF789FF38BDE8460040CC290000880000480350014039
:400B8000A0430040780900480251004080090048C05100408C090048105100409809004820510040A409004832510040224300400048004004000840B043004008B501F06A
:400BC0007FF903680C2B00D1FEE7FEE708B5094B1A681044084BC31A802B02DC054B186005E001F06DF90C2303604FF0FF32104608BD00BFCC80FF1F2882FF1F08B5104E73
:400C0000104D16E029686B68AC68002204E051F8040B43F8040B0432A242F8D1E868002203E0002143F8041B04328242F9D11035013E002EE6D101F049F9FFF723FAFEE736
:400C400001000000802A000008B5104A104B1A60104A136843F40073136000230AE0032B03D80D4A52F8231000E00C490C4A42F8231001332F2BF2D90A4B1A780A4B1A70EA
:400C8000074A0A4B1A60FFF7FFFE08BD0004FA050CED00E014ED00E000000000BD0B00000080FF1FBC760040C080FF1F08ED00E00222014B1A60704700E100E00122014BC3
:400CC0001A60704700E100E008B501F0F1F80C4A137843F020031370013A137843F010031370A2F58072137843F01003137001F0E3F800F0A1FAFFF7DBFFFFF7DFFF08BD85
:400D0000976500400222014B1A60704780E100E00122014B1A60704780E100E008B501F0C7F80A4A137803F0EF031370A2F58072137803F0EF03137001F0BEF800F08AFA69
:400D4000FFF7E0FFFFF7E4FF08BD00BF9665004010B5FFF7D7FF064B1C78064A137803F009031C4300231370FFF7A2FF204610BD66650040EC81FF1F10B5FFF7C9FF064B7D
:400D80001B78064A147804F040041C4300231370FFF794FF204610BD66640040FD81FF1F10B504462B4B1A7802F0FF0312B1013BDBB200E00723284A1278D2B29342F1D06E
:400DC000FFF7A0FF254B1978254A137803F009030B4313701F4B1A78D2B21F4B1B78DBB29A4207D11E4B1B7813F0040F02D01D4B1C702CE0184A13780133DBB21370137835
:400E0000DBB2072B02D90022134B1A70124B1A78D2B2104B1B78DBB29A420ED10D4A13780133DBB213701378DBB2072B02D90022084B1A7001220C4B1A70074B1B78DBB2A5
:400E40000A4AD4540A4A137843F004031370FFF72FFF10BDFE81FF1FFC81FF1F66650040EC81FF1F46650040F881FF1FF081FF1F8665004010B5FFF74BFF134B1A78D2B2E6
:400E8000124B1B78DBB29A4214D0114B1B7813F0FF0F0CD10C4A13780133DBB213701378DBB2072B06D90022074B1A7002E00022074B1A70044B1B78DBB2064AD45CE4B267
:400EC000FFF7FCFE204610BDFB81FF1FF981FF1FFA81FF1F0082FF1F08B501E0094B1B78094B1B7813F0200FF8D1FFF711FF0023064A1370064A1370064A1370FFF7DEFE89
:400F000008BD00BF5665004066640040FA81FF1FFB81FF1FF981FF1F08B500F0C9FF0E4B1A7842F001021A701A7802F0FE021A7000F0C2FFFFF7E6FE0023084A1370084A5B
:400F40001370084A1370084A137803F0FB031370FFF7AEFE08BD00BF96650040F881FF1FFE81FF1FFC81FF1F8665004070B506460C46002506E0705DFFF712FF0135EDB2F6
:400F8000013CE4B2002CF6D170BD00BF08B501E00A4B1B780A4B1B7813F0200FF8D100F087FF084B1A7842F001021A701A7802F0FE021A7000F080FF08BD00BF5665004000
:400FC000666400409665004010B50F22184B1A70184C022323600721012000F07FF91649012000F067F9012323600721002000F075F91249002000F05DF9FFF7C7FF00244E
:401000000F4B1C700F4B1C700F4B1C700F4B1C700F4B1C700F4B1C70FFF79AFEFFF7ACFE0D4B1C702022A3F580731A7010BD00BF8765004080E100E0791000001911000037
:40104000FA81FF1FFB81FF1FF981FF1FF881FF1FFE81FF1FFC81FF1F8665004008B5054B1B7823B9FFF7B0FF0122024B1A70FFF72BFE08BD6881FF1F28E01F4B19781F4A39
:40108000137803F009030B431370137813F0040F24D01B4B1B7813F0FF0F0CD1194A13780133DBB213701378DBB2072B06D90022144B1A7002E00022114B1A70114B1B781A
:4010C000DBB2114AD35CDBB2104A13700D4B1A78D2B20F4B1B78DBB29A42CED1094B1A78D2B20B4B1B78DBB29A4204D1094A137803F0FB031370704766650040EC81FF1FDC
:40110000F881FF1FFE81FF1FF081FF1F46650040FC81FF1F86650040204B1A7820490B7803F0400313430B7032E01E4B1A78D2B21D490B780133DBB20B700B78DBB2072B53
:4011400002D90021184B1970174B1978C9B2174B1B78DBB299420ED114490B780133DBB20B700B78DBB2072B02D900210F4B197001210F4B19700C4B1B78DBB20D49CA54B0
:40118000064B1A7806490B7803F0400313430B70034B1B7813F0200FC7D1704766640040FD81FF1F56650040F981FF1FFB81FF1FFA81FF1F0082FF1F044A137803F07F03B7
:4011C000C001C0B218431070704700BF10510040024B1878C0F30010704700BF8C450040014B1B68D866704708ED00E04001C0B2014B1870704700BF0BE400E04FF4006299
:40120000014B1A60704700BF00E100E04FF40062014B1A60704700BF80E100E010B50446FFF7F4FF2046FFF7DBFF0720FFF7DEFFFFF7E4FF10BD00BF054A137843F00103F1
:4012400013701032137843F001031370704700BFA2430040054A137803F0FE0313701032137803F0FE031370704700BFA243004001BE704710B5044605E0084B186800F06C
:401280000FFEA4F50044B4F5004FF6D8034B586800FB04F000F004FE10BD00BFD080FF1F08B5034B1B7A00FB03F000F0F9FD08BDD080FF1F70B504460E46074B1D681F280D
:4012C00002D90020FFF7D4FF04F01F04103455F8240045F8246070BD08ED00E038B504460D46072902D90020FFF7C2FF1F2C02D90020FFF7BDFF04F01F0000F1604000F59E
:4013000064406D01EDB2057038BD00BF7222074B1A702022073B1A7006225A3B1A70472210331A7000224F331A7070478B65004010B500F0BDFD04460A4A137843F02003D5
:401340001370073A137843F0100313700532137843F01003137000F051F8204600F0ACFD10BD00BF9B65004008B5054B1B7823B9FFF7CCFF0122024B1A70FFF7D9FF08BDFC
:401380006981FF1F10B500F093FD04460A4A137803F0DF03137000F03FF8084A137803F0EF0313700532137803F0EF031370204600F082FD10BD00BF9B65004094650040EF
:4013C000034B1B7813F0040FFAD1024B18707047696500404965004038B5074B1B782BB938BDFFF7EDFF0134A4B201E005460024285D0028F5D138BD6981FF1F054A1378F1
:4014000043F0040313701032137843F004031370704700BFA2430040054A137803F0FB0313701032137803F0FB031370704700BFA2430040024A137843F0800313707047D9
:4014400075650040014B1870704700BF05650040014B1870704700BF45650040014B1870704700BF25650040014B1870704700BF35650040014B1870704700BF856500407E
:40148000014B1878704700BF65650040014B1878704700BF5565004008B501E0FFF7F6FFFFF7EEFF10F0100FF8D108BD10B5134A137803F0C00343F01B031370104C23783D
:4014C00043F001032370FF20FFF7BCFFFF20FFF7BFFF0020FFF7C2FF0020FFF7C5FF0020FFF7C8FF00F0E4FC237843F01003237000F0E2FCFFF7D0FF10BD00BF7565004074
:401500009565004008B5054B1B7823B9FFF7CEFF0122024B1A70FFF78DFF08BD6B81FF1F024A137843F080031370704779640040014B1870704700BF09640040014B187038
:40154000704700BF49640040014B1870704700BF29640040014B1870704700BF89640040014B1878704700BF69640040014B1878704700BF5964004008B501E0FFF7F6FF43
:40158000FFF7EEFF10F0100FF8D108BD10B5114A137803F0C00343F00B0313700E4C237843F001032370FF20FFF7C2FFFF20FFF7C5FF0020FFF7C8FF0020FFF7CBFF00F05B
:4015C00077FC237843F01003237000F075FCFFF7D3FF10BD796400409964004008B5054B1B7823B9FFF7D2FF0122024B1A70FFF797FF08BD6C81FF1F044A137803F0EF035D
:40160000000100F01000184310707047205100400822014B1A60704700E100E00422014B1A60704700E100E008B500F041FC0C4A137843F020031370033A137843F01003E8
:4016400013700232137843F01003137000F034FC00F05EFAFFF7DCFFFFF7E0FF08BD00BF9B6400400822014B1A60704780E100E00422014B1A60704780E100E008B500F015
:4016800017FC094A137803F0EF0313700232137803F0EF03137000F00FFC00F047FAFFF7E1FFFFF7E5FF08BD9864004010B5FFF7D9FF064B1C78064A137803F009031C431C
:4016C00000231370FFF7A4FF204610BD686400401782FF1F10B5FFF7CBFF064B1B78064A147804F040041C4300231370FFF796FF204610BD6A6400401082FF1F10B50446A8
:401700002B4B1A7802F0FF0312B1013BDBB200E00723284A1278D2B29342F1D0FFF7A2FF254B1978254A137803F009030B4313701F4B1A78D2B21F4B1B78DBB29A4207D1E1
:401740001E4B1B7813F0040F02D01D4B1C702CE0184A13780133DBB213701378DBB2072B02D90022134B1A70124B1A78D2B2104B1B78DBB29A420ED10D4A13780133DBB2D9
:4017800013701378DBB2072B02D90022084B1A7001220C4B1A70074B1B78DBB20A4AD4540A4A137843F004031370FFF731FF10BD1482FF1F1582FF1F686400401782FF1FD5
:4017C0004B6400401382FF1F1882FF1F8864004010B5FFF74DFF134B1A78D2B2124B1B78DBB29A4214D0114B1B7813F0FF0F0CD10C4A13780133DBB213701378DBB2072B5F
:4018000006D90022074B1A7002E00022074B1A70044B1B78DBB2064AD45CE4B2FFF7FEFE204610BD1682FF1F1182FF1F1282FF1F0882FF1F08B501E0094B1B78094B1B7814
:4018400013F0200FF8D1FFF713FF0023064A1370064A1370064A1370FFF7E0FE08BD00BF5B6400406A6400401282FF1F1682FF1F1182FF1F08B500F01BFB0E4B1A7842F06B
:4018800001021A701A7802F0FE021A7000F014FBFFF7E8FE0023084A1370084A1370084A1370084A137803F0FB031370FFF7B0FE08BD00BF9B6400401382FF1F1482FF1FF1
:4018C0001582FF1F8864004070B506460C46002506E0705DFFF712FF0135EDB2013CE4B2002CF6D170BD00BF08B501E00A4B1B780A4B1B7813F0200FF8D100F0D9FA084B5F
:401900001A7842F001021A701A7802F0FE021A7000F0D2FA08BD00BF5B6400406A6400409B64004010B50F22174B1A70174C0823236007210320FFF7D1FC15490320FFF744
:40194000B9FC0423236007210220FFF7C7FC11490220FFF7AFFCFFF7C7FF00240E4B1C700E4B1C700E4B1C700E4B1C700E4B1C700E4B1C70FFF79AFEFFF7ACFE0C4B1C7099
:40198000202202331A7010BD8B64004080E100E0D1190000711A00001282FF1F1682FF1F1182FF1F1382FF1F1482FF1F1582FF1F8864004008B5054B1B7823B9FFF7B2FFF0
:4019C0000122024B1A70FFF72FFE08BD6D81FF1F28E01F4B19781F4A137803F009030B431370137813F0040F24D01B4B1B7813F0FF0F0CD1194A13780133DBB213701378F9
:401A0000DBB2072B06D90022144B1A7002E00022114B1A70114B1B78DBB2114AD35CDBB2104A13700D4B1A78D2B20F4B1B78DBB29A42CED1094B1A78D2B20B4B1B78DBB260
:401A40009A4204D1094A137803F0FB0313707047686400401782FF1F1382FF1F1482FF1F1882FF1F4B6400401582FF1F88640040204B1A7820490B7803F0400313430B700A
:401A800032E01E4B1A78D2B21D490B780133DBB20B700B78DBB2072B02D90021184B1970174B1978C9B2174B1B78DBB299420ED114490B780133DBB20B700B78DBB2072B3E
:401AC00002D900210F4B197001210F4B19700C4B1B78DBB20D49CA54064B1A7806490B7803F0400313430B70034B1B7813F0200FC7D170476A6400401082FF1F5B6400403C
:401B00001182FF1F1682FF1F1282FF1F0882FF1F054A137843F0020313701032137843F002031370704700BFA2430040054A137803F0FD0313701032137803F0FD03137099
:401B4000704700BFA2430040014B1B681865704708ED00E04001C0B2014B1870704700BF04E400E01022014B1A60704700E100E01022014B1A60704780E100E010B50446BE
:401B8000FFF7F6FF2046FFF7DFFF0720FFF7E2FFFFF7E8FF10BD00BF044A137803F0FD03400000F0020018431070704720510040024B1878C0F34000704700BF2151004060
:401BC000084A137843F0010313701032137843F00103137002F64D32137843F001031370704700BFA3430040084A137803F0FE031370A2F65D32137803F0FE0313701032B0
:401C0000137803F0FE031370704700BF004F0040014B1870704700BF034F0040014B1878704700BF034F0040014B1880704700BF044F0040014B1880704700BF064F004001
:401C400008B5154A137803F0010313700232137803F0FC031370114B1A7802F0CF021A701A7842F030021A701A7802F0F0021A701A7842F00F021A70094A137843F00103E0
:401C800013706320FFF7D0FF6320FFF7D3FF0820FFF7BEFF08BD00BF004F00400B4F0040014F004008B5054B1B7823B9FFF7C8FF0122024B1A70FFF783FF08BD6E81FF1F79
:401CC000024B1B68C3F88400704700BF08ED00E04001C0B2014B1870704700BF11E400E04FF40032014B1A60704700BF00E100E04FF40032014B1A60704700BF80E100E054
:401D000010B50446FFF7F4FF2046FFF7D9FF0720FFF7DEFFFFF7E4FF10BD00BF084A137843F0020313701032137843F00203137002F65932137843F001031370704700BFBA
:401D4000A3430040014B1870704700BF0F4F0040014B1878704700BF0F4F0040014B1880704700BF104F0040014B1880704700BF124F004008B5154A137803F00103137050
:401D80000232137803F0FC031370114B1A7802F0CF021A701A7842F030021A701A7802F0F0021A701A7842F00F021A70094A137843F0010313703120FFF7D0FF3120FFF7E0
:401DC000D3FF0820FFF7BEFF08BD00BF0C4F0040174F00400D4F004008B5054B1B7823B9FFF7C8FF0122024B1A70FFF797FF08BD6F81FF1F024B1B68C3F88800704700BFBA
:401E000008ED00E04001C0B2014B1870704700BF12E400E04FF48022014B1A60704700BF00E100E04FF48022014B1A60704700BF80E100E010B50446FFF7F4FF2046FFF762
:401E4000D9FF0720FFF7DEFFFFF7E4FF10BD00BF014B1B685865704708ED00E04001C0B2014B1870704700BF05E400E02022014B1A60704700E100E02022014B1A6070470E
:401E800080E100E010B50446FFF7F6FF2046FFF7DFFF0720FFF7E2FFFFF7E8FF10BD00BF0230800803D000BF01380046FCD17047EFF3108072B6704780F31088704700BF25
:401EC000014B1868704700BF4081FF1F0E4B70B51E460E4C0025E41AA410A54204D056F8253098470135F8E700F0B8FD084B094C1E46E41AA4100025A54204D056F8253076
:401F000098470135F8E770BD682A0000682A0000682A0000702A000010B5431E0A44914204D011F8014B03F8014FF8E710BD03460244934202D003F8011BFAE770470000E4
:401F40000EB400B54FF402719CB0ADF814106FF00041049107914FF6FF711DAB02900690084853F8042BADF81610006802A9019300F064F8029B00221A701CB05DF804EBCC
:401F800003B070474081FF1F2DE9F0478E6882469E420C46914698463ED88A8912F4906F3AD02568096902236F1A656905EB450595FBF3F57B1C43449D4238BF1D465305D2
:401FC0000FD5294600F040FB064698B13A462169FFF7A2FFA38923F4906343F08003A38113E02A4600F08EFB064670B92169504600F0DEFA0C23CAF80030A3894FF0FF3029
:4020000043F04003A381BDE8F08726613E44266046466561ED1BA560464528BF464649463246206800F0A8FAA36800209B1BA36023681E442660BDE8F08700002DE9F04F15
:402040009DB003938B8980461C060D4616460DD50B695BB9402100F0F7FA2860286118B90C23C8F80030CDE040236B610023099320238DF82930DFF89CB130238DF82A3013
:4020800037463C4614F8013B1BB9B7EB060910D003E0252BF9D02746F3E74B46324629464046FFF771FF013000F0A780099B4B4409933B78002B00F0A08000234FF0FF3235
:4020C00004930793059206938DF853301A930126052221784E4800F041FA671C049B38B14B4A3C46801A06FA00F018430490EFE7D90644BF20228DF853201A0744BF2B2224
:402100008DF8532022782A2A03D0079A00210A200BE0039A111D12680391002A10DA524243F00200079204900BE027463B780134303B092B03D800FB02320121F5E701B193
:4021400007923B782E2B1ED17B782A2B0AD1039B02371A1D1B680392002BB8BF4FF0FF33059310E0002319460593781C0A2407463A780130303A092A03D804FB012101231E
:40218000F5E703B1059103223978224800F0E6F940B14023CBEB000003FA00F0049B013718430490397806221B487E1C8DF8281000F0D4F988B1194B33B9039B073323F069
:4021C00007030833039314E003AB00932A46144B04A94046AFF3008007E003AB00932A460F4B04A9404600F093F8B0F1FF3F824603D0099B5344099342E7AB895B0601D427
:40220000099801E04FF0FF301DB0BDE8F08F00BF282A00002E2A0000322A000000000000891F00002DE9F04791461F460A698B6806469342B8BF1346C9F8003091F8432093
:402240000C46DDF8208012B10133C9F800302368990642BFD9F800300233C9F80030256815F0060510D104F1190A07E00123524639463046C04701301AD00135E368D9F8BB
:4022800000209B1A9D42F1DB94F843302268003318BF012392060FD5E118302081F843005A1C94F845102244023382F8431003E04FF0FF30BDE8F08704F14302394630460B
:4022C000C0470130F4D02268D9F80050E36802F00602042A08BF5D1B2269A3680CBF25EAE57500259342C4BF9B1AED184FF000091A344D4509D00123224639463046C047FB
:402300000130D5D009F10109F3E70020BDE8F0872DE9F04317460A7E85B06E2A984606460C460C9B01F1430E00F0AE8011D8632A22D009D8002A00F0BB80582A40F0CA8094
:4023400081F84520834955E0642A1ED0692A1CD0C0E0732A00F0B08009D86F2A2ED0702A40F0B8800A6842F020020A603EE0752A24D0782A3AD0ADE01A6801F14205111DA9
:402380001960136884F84230A8E021681A6811F0800F02D0111D196008E011F0400F02F10401196002D0B2F9003000E01368002B3CDA2D225B4284F8432037E021681A68C0
:4023C00011F0800F02D0111D196007E011F0400F02F10401196001D0138800E01368227E5C496F2A14BF0A2208221BE078225A4984F845202268186812F0800F00F10405B0
:402400001D6003D1550601D5038800E00368D00744BF42F0200222601BB9226822F0200222601022002084F8430001E049490A226568002DA56008DB206820F004002060D2
:402440002BB9002D7DD175460CE0002B79D07546B3FBF2F002FB1033CB5C05F8013D03460028F5D1082A0BD12368DA0708D5236962689A42DEBF302305F8013C05F1FF35E1
:40248000C5EB0E0323612EE008681A6810F0800F496903D0101D1860136808E010F0400F02F104001860136801D0198000E0196000232361754616E01A68111D19601568C1
:4024C00000216268284600F049F808B1401B6060636804E004F1420584F8422001232361002384F84330CDF800803B4603AA21463046FFF797FE013002D14FF0FF3026E0A8
:4025000023692A4639463046C0470130F5D023689B0710D5002504F1190907E001234A4639463046C0470130E7D00135E368039A9B1A9D42F2DBE068039B9842B8BF1846CC
:4025400005E00B7804F1420584F842308AE705B0BDE8F083392A00004A2A000010B5C9B202449042034605D01C7801308C42F8D1184610BD002010BD884210B501EB02034A
:4025800001D8421E0BE09842FBD28118D21AD34204D013F8014D01F8014DF8E710BD994204D011F8014B02F8014FF8E710BD000038B50546002944D051F8043C0C1F002B48
:4025C000B8BFE41800F0D4F81E4A1368114613B96360146030E0A3420DD92268A018834201BF18685B681218226063600C6023E0A24203D813465A68002AF9D1186819182D
:40260000A1420BD12168014458188242196013D110685268014419605A600DE002D90C232B6009E021686018824201BF106852680918216062605C602846BDE8384000F015
:4026400098B838BD7481FF1F70B5CD1C25F0030508350C2D38BF0C25002D064601DBA94202D90C23336046E000F082F8234B1C681A462146A1B10B685B1B0ED40B2B03D9E4
:402680000B60CC18CD501EE08C420BBF63684B681360636018BF0C4615E00C464968E9E7174C23681BB9304600F052F820602946304600F04DF8431C18D0C41C24F0030425
:4026C000A0420DD12560304600F053F804F10B00231D20F00700C31A0ED05A42E25070BD211A304600F034F80130EBD10C233360304600F03EF8002070BD00BF7481FF1FA0
:402700007081FF1FF8B5074615460E4621B91146BDE8F840FFF798BF1AB9FFF749FF2846F8BD00F027F885420ED929463846FFF78BFF044650B131462A46FFF7EDFB3146A1
:402740003846FFF735FF01E03046F8BD2046F8BD38B5064C0023054608462360FEF736FA431C02D1236803B12B6038BD2082FF1F7047704751F8040C0028BEBF091851F860
:40278000043CC01804387047000000000F00E0FF020100002A2A2A2A2A2A2A2A2A20202020454550524F4D2054455354202020202A2A2A2A2A2A2A2A2A0D0A002A2A204531
:4027C0004550524F4D2052656164203D202564202564202564200D0A000000002A2A2A2A2A2A2A2A2A2A2A2A2A2A2A2A2A2A2A2A2A2A2A2A2A2A2A2A2A2A2A2A2A2A2A2A43
:402800002A0D0A002A2A204C49533344482057484F204920414D205245474953544552203D203078253032580D0A00002A2A204C4953334448204354524C2052454749536D
:4028400054455220313D203078253032580D0A002A2A204C4953334448204354524C20524547495354455220343D203078253032580D0A002A2A204C49533344482043540B
:40288000524C20524547495354455220353D203078253032580D0A002A2A204C4953334448204649464F204354524C205245474953544552203D203078253032580D0A0051
:4028C0002A2A204C4953334448204354524C20524547495354455220333D203078253032580D0A002A2A204C495333444820494E54203120434647205245474953544552A9
:402900003D203078253032580D0A00002A2A204C495333444820494E5431205448532052454749535445523D203078253032580D0A0000002A2A204C4953334448204455E2
:40294000524154494F4E2052454749535445523D203078253032580D0A0000002A2A20454550524F4D2052656164203D20307825303258200D0A00005448524553482030D9
:4029800078253032580D0A0077617465726D61726B200D0A000000005245442076616C75653A2025642C20475245454E2076616C75653A2025642C20424C55452076616CF5
:4029C00075653A202564200D0A000000004F00401800405100403000F0510040100000000140800A000B01400005001401408006001B0140000100400140000A004C01403E
:402A0000000200500140200060520040700800480600800A0140780800488000801A0140F808004880004300232D302B2000686C4C006566674546470030313233343536DE
:402A400037383941424344454600303132333435363738396162636465660000F8B500BFF8BC08BC9E4670474D000000490C0000F8B500BFF8BC08BC9E46704729000000EE
:402A8000902A0000C880FF1F80000000E0000000000000002882FF1F0000E02EC05D00001800000000366E01000000000000000000000000000000000000000000000000E6
:402AC0000000000000000000262A00000000000000000000000000000000000000000000000000000000000000000000000000000000000000000000000000000000000086
:402B00000000000000000000E080FF1F0000000000000000000000000000000000000000000000000000000000000000000000000000000000000000000000000000000017
:402B40000000000000000000000000000000000000000000000000000000000000000000000000000000000000000000000000000000000000000000000000000000000055
:402B80000000000000000000000000000000000000000000000000000000000000000000000000000000000000000000000000000000000000000000000000000000000015
:402BC00000000000000000000000000000000000000000000000000000000000000000000000000000000000000000000000000000000000000000000000000000000000D5
:402C00000000000000000000000000000000000000000000000000000000000000000000000000000000000000000000000000000000000000000000000000000000000094
:020000040003F7
:0200000480007A
:4000000001450040044F00400452004002640040056500400400014003010140050501404C0601403F070140530801404B090140090A0140350B014049140140391501409F
:400040005316014047170140541801403F1901401D1A0140461B0140084001400C4101400F420140114301400245014003460140074801400B490140034C0140094D01403B
:400080000650014002510140640101400A4B0D50164B0020014018601940890D8B0F8438850F870F890F8B72B880BE40D804DF011F808B80E28080019320B310E201E64081
:4000C00001100240042A052306C4071409020A010B1D0D100E30100C1123130C14011510180119101CD61E2822012310240128E029212A122B1A2C01300E3201331F3480C4
:400100003670372038223B083E043F4054405604580459045B045F01800E810D8502870D890D8C238D118E048F029804990D9A399D0D9E10A10DA405A512A63AA708A912FC
:40014000AB04B00FB310B50FB630B802BB20BF04D804D904DC11DF010142055006880710081009100A010C080E46121015111602170519021A011C081D441E40202425885F
:4001800028902A102D31306036023724380539603C803D083E22410842206002618065046601670A8080811082018550860188409001914093209A10A404A940AC04B2106C
:4001C000C0F9C2F3C4F4CAA7CCECCEFFD8F0E203E613EA04EE040040050109010C130E2C0F0111011465161A18021A0D1C491E062101340F350136703AA03F1054095604FE
:40020000580459045B045C015D105F0180078604872088018B208D138F0C92089715990A9B149D039F14A807AB08AD13AF04B004B10FB202B320B408B601B710BB02BF44A0
:40024000C060C102C5D0C620C701C81EC9FFCAFFCBFFCDA0CF04D018D280D405D804D904DA04DB04DC23DD33DF01E040E2C0E440E540E6C0E8C0EAC0ECC0EEC00004038873
:400280000680070109020D880E081208188C19A01B081C011D801E081F1020402246270829102B012E0230883210360138683D803E14432049215010520853A059815A082F
:4002C0005C805E015F2466406740710280018201854087408A038B088C409214930494019720988099049A829B019F08A148A201A620A910AAC0B320C09EC2E8C402CA8CFB
:40030000CC8ECE7ED004D204D6FBD890E280E610EE20040132013E045440560458045B045D105F01022004830512062008800A010C200D280E421540171619041C101E418A
:400340002528268827212C202D42351036093E96440847094C414E084F0456A0570560106101630A67206DE06E166F147602770281108D019808B408C0F4C2F0C4F0CAD0C9
:40038000CCE0CEF0D0E0D230D84FE640EA20000102060404060107010F011608300432023401360837013F405418580459045B045C065D205F0181068202850888018C0872
:4003C000930A940C980C9C01A202A401A508A906AF01B008B102B201B308B402B504B604B701BE10C040C101C5D1C602C745C83FC9FFCAFFCBFFCDA0CF04D018D280D407BF
:40040000D804D904DA04DB04DC33DD33DF01E040E2C0E440E540E6C0E8C0EAC0ECC0EEC001080380054006480B200F26170A19281A801B801D401E68200125082602270A4A
:400440002E802F28370238403A043F06454047024D014F0455405648573959015D015E686001622076808204852089088A208C408D018E0293209680AC49AF04C0DCC2E4B7
:40048000C430CA70CC80CECAD090D6F1D80CE201E63005F209B00A010B420DF2114213B0180119011BD41E0121F2254229432B982DC32F0C300131C0331F352039083E01AB
:4004C0003F104036410542204404450E46CB47FD483D49FF4AFF4BFF4C224EF04F0C500454095604580459045A045B045F0162C0644065016610671168C069016B116C4083
:400500006D016E406F0180D9842486498CD99011922294D19608982E9A819C209ED0A4D9A808AA04ACD8AE01B40FB6F0BAB0D602D728D804DB04DF01008001020310052089
:4005400009010A1A0E0A1020117019201A0A1E802525260727102DA22E022F2037113C803E14444045244D844E0654015510568857205D155E8061086402674068606940DF
:400580006A146B2572028440852187408E4093209604970898029D209E8A9F35A108A448A504A603A910AB01AC20B010C04DC2CFC407CAF0CCA0CE70D0E0D230D6F0D892F4
:4005C000E210E608EA020110053C074209670B180C010F431001113C134114021504178019181A011F0425082804297F30043180331F34033520375838203A083B883E01CC
:400600003F10580459045C225F0185148B038C318D0C8E468F119031920E946C9603991C9A4C9B02A110A208A30CA909AA13AB10AD10B04AB20FB430B51FB820BA0ABE10E3
:40064000C056C104C50EC60CC70BC815C9FFCAFFCBFFCEF0CF44D00CD401D804D904DA04DB04DC22DD22DF01E6C0EA40EB020203030107010A640C080E400F0810081240FC
:400680001520188019201A601B051D1A1E041F082110240425042680274229102A412C202F083210375A388839203C803D2C3E02424048084A225084514059045A92928013
:4006C000962099049D10A202A488A620A701AA80AB20AE04B240C081C27EC44ACA6DCCF4CEFED001D20CD60FE608EC8007020B011301150219021F023102350139023F1074
:400700004006460449FF4A074BFF4C404D204EF04F05500859045A045C205D025F01604061A86240632005100E1815581C801D901E10200821022401253427012D042E90A0
:40074000312A3280351036823708382039043C803E2A3F804598470149204C104F805008524057045C046D506E087420762A7710800185088602880489048B088D148E807B
:400780008F049004910499209E429F18A108A280A468A510A940AA10AE21B502C040C260C4E0CA70CCFFCEF6D0F0D214D640E260E64031013310340236403B408A04CCF0DF
:4007C000CE10334062086640920897409C029D019F10A640CC10D680D8405180572058085A085C088D01920897409C029D019E409F50A648D460D6C0831084028640872058
:400800008F0197409C029E409F50A640A720AA08AD80E230E650EA20EE400128C00AB120B508EA0686408F40930197409F40A640E6405B015F01660487408B018E049301DF
:400840009740D6C0D880E64008408440C2021080721088809210B610C408DC01E601EC08000F0A030C0E104D1A4D1C0400FF010F088C000040000000569A090000988002A7
:400880000702389860020000019A00000A2110D8041300648400000084FC0003803804C084000000049880027F00800F00E0081302000028000044006504300002BEDCDF24
:4008C0003FFFFFFF2200F008040000000000022804040404111100010000C00040011011C001001140014001000000000000000000000000000000000008000000040000BF
:40090000040C580000000073007F0000122185003F630000000F007000000000091C86633F4200002073000C200003601C0FC01C000000200000400025030400010E000C25
:4009400011FFFFFF62A0F0410C00000000000212040404042222000100000000000040020010301000101012000000000000000000000000000000000060600060000000DD
:400980008400508C8C008C00000000008000408B8B0000000000000014000116120000000000000000E0E000E000000000000000000000000000000000000000000000000C
:4009C00000000000000000000000000000000000000000000000000000000000000000000000000000000000000000000000000000000000000000000000000000000000F7
:400A000000000000000000000000000000000000000000000000000000000000000000000000000000000000000000000000000000000000000000000000000000000000B6
:400A40000000000000000000000000000000000000000000000000000000000000000000000000000000000000000000000000000000000000000000000000000000000076
:400A80000000000000000000000000000000000000000000000000000000000000000000000000000000000000000000000000000000000000000000000000000000000036
:0200000490006A
:0400000000004005B7
:0200000490105A
:04000000BC90ACAF55
:0200000490303A
:02000000DC2DF5
:0200000490402A
:4000000000000000000000000000000000000000000000000000000000000000000000000000000000000000000000000000000000000000000000000000000000000000C0
:400040000000000000000000000000000000000000000000000000000000000000000000000000000000000000000000000000000000000000000000000000000000000080
:400080000000000000000000000000000000000000000000000000000000000000000000000000000000000000000000000000000000000000000000000000000000000040
:4000C0000000000000000000000000000000000000000000000000000000000000000000000000000000000000000000000000000000000000000000000000000000000000
:0200000490501A
:0C00000000012E16106900012E28EC965D
:00000001FF