:400000000080002011000000A50A0000A50A000008B5044B1A6803F53F5302331A6000F061FD00BFFA46004010B5054C237833B9044B13B10448AFF300800123237010BDBB
:400040004881FF1F0000000000240000084B10B51BB108490848AFF300800848036803B910BD074B002BFBD0BDE81040184700BF000000004C81FF1F00240000C880FF1FBA
:40008000000000002DE9F04786B062B601F0B8F800F03CFF01F098FB00F0C2FA0A2001F033F8B64801F0C6F8B54B186804909B88ADF81430062204A9012000F0E1FA00F0E5
:4000C0000DFB062202A9012000F0C8FABDF90820BDF90A30BDF90C10AA4C0091AA49204601F06AFD204601F0A5F8A84801F0A2F80F2000F0CFF90246A549204601F05CFD3E
:40010000204601F097F82721202000F0D9F9202000F0C0F902469F49204601F04DFD204601F088F80021232000F0CAF9232000F0B1F902469849204601F03EFD204601F0F8
:4001400079F84021242000F0BBF9242000F0A2F902469249204601F02FFD204601F06AF800212E2000F0ACF92E2000F093F98C4D02462946204601F01FFD204601F05AF81D
:4001800047212E2000F09CF92E2000F083F902462946204601F010FD204601F04BF84421222000F08DF9222000F074F902467D49204601F001FD204601F03CF82A21302050
:4001C00000F07EF9302000F065F902467649204601F0F2FC204601F02DF85C21322000F06FF9322000F056F902467049204601F0E3FC204601F01EF80321332000F060F916
:40020000332000F047F902466949204601F0D4FC204601F00FF80025664B1D70664800F055FF664801F0AEFB654801F067FC2F462E46604B1B78DBB2012BFAD1312000F032
:4002400029F910F0400F09D04E4C02465D49204601F0B2FC204600F0EDFF83E0494C5A4B07CB20606160A2601B782373204600F0E1FF4FF000081CE0544C0622214628209A
:4002800000F032F92378627843EA022305EBA3152DB2A378E27843EA022306EBA31636B22379627943EA022307EBA3131FB208F10108B8F1060FDFDD454B83FB05122A442B
:4002C000ED17C5EBA2052DB283FB06123244F617C6EBA20636B283FB0723DA19FB17C3EBA2031FB2E90009B2F20012B2FB001BB2C1EB0121374880FB01E4C917C1EB2424F6
:40030000002CB8BF6442E4B2C2EB022280FB0218D217C2EB2828B8F1000FB8BFC8F100085FFA88F8C3EB032380FB0329DB17C3EB2929B9F1000FB8BFC9F100095FFA89F98E
:40034000DFF840A0CDF80090434622462249504601F032FC504600F06DFF4A464146204600F064F90021134B19702E2000F0A8F847212E2000F0A4F85BE700BF0C2400004B
:40038000042400008481FF1F34240000542400007C240000A4240000C8240000EC24000010250000382500005C25000084250000AC250000E881FF1F090500001D0500007A
:4003C000D5050000D4250000E42500007C81FF1F93244992D34D6210F42500002DE9F04383B006460C4617469846002000F03CFE64B2002511E02146082CA8BF0821C9B258
:4004000006EBC50000F00CFD00F0FCFB10F0010FFAD0083C64B201356DB2002CEBDC00F00FFD00F0B3FC0026009601964FFA88F820E0C146B8F1080FA8BF4FF008095FFA1C
:4004400089F1684600F0ECFC00F0DCFB10F0010FFAD0002406E004EBC60500F065FC78550134E4B24C45F6DBA8F108084FFA88F8013676B2B8F1000FDBDC012000F0F4FD8A
:4004800000F0DEFC00F082FC00F0A0FC03B0BDE8F08300BF00B583B000F03F0060F07F008DF8040002AA002302F8053D0123194601A8FFF793FF9DF8030003B05DF804FB21
:4004C00000B583B000F03F008DF804008DF80510002302AA02F8053D022101A8FFF77EFF03B05DF804FB00BF00B583B040F0C00302A800F8043D13460A460121FFF76EFFC6
:4005000003B05DF804FB00BF08B50122024B1A7000F0B6FD08BD00BFE881FF1F08B501F067FA06E00A2000F0EFFD294A13780133137001F005FA0028F4D0254B1B78962B40
:4005400018D9234B5B7823B9214B01229A705A7010E0012B0ED11E4B00229A705A70DB781BB9104601F01CFA04E0012B02D1012001F016FA164B00221A701B79012B07D083
:4005800013B1022B1ED020E00122114B1A711CE00F4BDB7843B90E4A52782AB901200C4BD87001F0FDF909E0012B07D1084B5B7823B90020064BD87001F0F2F90022044B0C
:4005C0001A7102E00122024B1A7101F06FFA08BD6481FF1F10B5084C0223237101F022FAA378012B06D101F0E7F9B0FA80F0400901F0D6F910BD00BF6481FF1F08B5C04331
:40060000C0B200F04BFE08BD08B5C043C0B200F04BFE08BD08B5C043C0B200F0B7FE08BD08B500F091FE00F0FBFE08BD38B50D461446FFF7E3FF2846FFF7E6FF2046FFF77D
:40064000E9FF38BD08B5052000F066F808BD00BF08B5062000F04AF808BD00BF10B582B003248DF80440030A8DF805308DF8060013460A46214601A800F068F802B010BD8F
:400680002DE9F04182B000AF054688461446FFF7DFFF012000F04EFDE61C04F10A0323F00703ADEB030D02238DF800302B0A8DF801308DF80250224641460DF1030001F029
:4006C00067FA002307F1080202F8013DF1B2684600F03CF80837BD46BDE8F08108B5FFF7B1FF10F0010FFAD108BD00BF10B50446002000F0A3FE204600F00AFF00F0E0FEC0
:4007000010F0080FFAD000F06DFF0446012000F095FE204610BD00BF10B50446002000F08DFE204600F0F4FE002000F0F1FE00F0C7FE10F0010FFAD000F054FF00F052FF98
:400740000446012000F07AFE204610BD2DE9F04383B006460C4617469846002000F06EFE64B2002511E02146082CA8BF0821C9B206EBC50000F0B2FF00F0A2FE10F0010FD9
:40078000FAD0083C64B201356DB2002CEBDC00F0B5FF00F059FF0026009601964FFA88F820E0C146B8F1080FA8BF4FF008095FFA89F1684600F092FF00F082FE10F0010FC5
:4007C000FAD0002406E004EBC60500F00BFF78550134E4B24C45F6DBA8F108084FFA88F8013676B2B8F1000FDBDC012000F026FE00F084FF00F028FF00F046FF03B0BDE8EB
:40080000F08300BFFEE700BFF0B40022174611E050F82760F3B226F0FF0608E001EB420511F812406D78A5550132013BDBB2002BF4D10137232FEBD9F0BC7047064B1B7869
:40084000DBB203F00701054A11701B09013213704422034B1A707047CF0100496E5800407658004008B50A46002101F09CF908BD38B50B22314B1A80182331490B70023118
:400880000A80304A13703321023211800232137040F2AF41023211800232137043F69722294B1A80192502331D7047F22F5202331A8002331D70022203F26A231A7008229E
:4008C0004FF040231A70032103F5007319701F4B1B78DBB21E490B701E4B1A8041F25122023B1A8000240CE01B4B1B7803F0010343EA440404F003044FF4F07001F00CF9BF
:40090000013D0DB1032CEFD115B90320FFF77AFF124B4FF480721A8007221A70002210490A704820023108701A700222033B1A700C4A137843F03F03137038BD8040004041
:4009400082400040864000409040004008010049A146004022420040254200400440004006400040A243004008B501F011F908BD38B572B6384A137843F0040313700024EC
:400980000CE0364D630019194A0011462A44084691882858FFF766FF0134E4B2082CF0D900240CE02D48A20011194B000344B3F84020D96B986BFFF7D7FF0134E4B2022C20
:4009C000F0D927494FF09040FFF71EFF254A137843F0020313701032137843F002031370214C237843F040032370A2F58632513A137843F01003137008221C491C48FFF737
:400A0000B3FF0A221B491C48FFF7AEFF0A221B491B48FFF7A9FF0A221A491B48FFF7A4FF08221A491A48FFF79FFF1A4A137843F008031370184D61232B70FFF719FF8123E8
:400A40002B700122154B1A70FFF7F8FE0E2221461348FFF789FF38BDE8460040282600009000004803500140A0430040EC08004802510040F4080048C0510040000900487D
:400A8000105100400C090048205100401809004832510040224300400048004004000840B043004008B501F047F803680C2B00D1FEE7FEE708B5094B1A681044084BC31A6E
:400AC000802B02DC054B186005E001F035F80C2303604FF0FF32104608BD00BFCC80FF1F2882FF1F08B5104E104D16E029686B68AC68002204E051F8040B43F8040B0432D0
:400B0000A242F8D1E868002203E0002143F8041B04328242F9D11035013E002EE6D101F011F8FFF7AFFAFEE701000000D826000008B5104A104B1A60104A136843F4007323
:400B4000136000230AE0032B03D80D4A52F8231000E00C490C4A42F8231001332F2BF2D90A4B1A780A4B1A70074A0A4B1A60FFF7FFFE08BD0004FA050CED00E014ED00E06C
:400B800000000000A50A00000080FF1FBC760040C080FF1F08ED00E00222014B1A60704700E100E00122014B1A60704700E100E008B500F0B9FF0C4A137843F02003137061
:400BC0000232137843F0100313700332137843F01003137000F0ACFF00F086FAFFF7DCFFFFF7E0FF08BD00BF926400400222014B1A60704780E100E00122014B1A607047F7
:400C000080E100E010B5FFF7F1FF064B1C78064A137803F009031C4300231370FFF7BCFF204610BD64640040EC81FF1F10B5FFF7E3FF064B1B78064A147804F040041C4399
:400C400000231370FFF7AEFF204610BD67640040FD81FF1F10B504462B4B1A7802F0FF0312B1013BDBB200E00723284A1278D2B29342F1D0FFF7BAFF254B1978254A1378F0
:400C800003F009030B4313701F4B1A78D2B21F4B1B78DBB29A4207D11E4B1B7813F0040F02D01D4B1C702CE0184A13780133DBB213701378DBB2072B02D90022134B1A7062
:400CC000124B1A78D2B2104B1B78DBB29A420ED10D4A13780133DBB213701378DBB2072B02D90022084B1A7001220C4B1A70074B1B78DBB20A4AD4540A4A137843F00403F6
:400D00001370FFF749FF10BDFE81FF1FFC81FF1F64640040EC81FF1F47640040F881FF1FF081FF1F8464004010B5FFF765FF134B1A78D2B2124B1B78DBB29A4214D0114BF5
:400D40001B7813F0FF0F0CD10C4A13780133DBB213701378DBB2072B06D90022074B1A7002E00022074B1A70044B1B78DBB2064AD45CE4B2FFF716FF204610BDFB81FF1F69
:400D8000F981FF1FFA81FF1F0082FF1F08B501E0094B1B78094B1B7813F0200FF8D1FFF72BFF0023064A1370064A1370064A1370FFF7F8FE08BD00BF5764004067640040C9
:400DC000FA81FF1FFB81FF1FF981FF1F08B500F0ABFE0E4B1A7842F001021A701A7802F0FE021A7000F0A4FEFFF700FF0023084A1370084A1370084A1370084A137803F021
:400E0000FB031370FFF7C8FE08BD00BF97640040F881FF1FFE81FF1FFC81FF1F8464004070B506460C46002506E0705DFFF712FF0135EDB2013CE4B2002CF6D170BD00BF96
:400E400008B501E00A4B1B780A4B1B7813F0200FF8D100F069FE084B1A7842F001021A701A7802F0FE021A7000F062FE08BD00BF57640040676400409764004010B50F22F5
:400E8000174B1A70174C022323600721012000F06FF91549012000F057F9012323600721002000F065F91149002000F04DF9FFF7C7FF00240E4B1C700E4B1C700E4B1C705F
:400EC0000E4B1C700E4B1C700E4B1C70FFF79AFEFFF7ACFE0C4B1C70202203331A7010BD8264004080E100E0290F0000C90F0000FA81FF1FFB81FF1FF981FF1FF881FF1F8A
:400F0000FE81FF1FFC81FF1F8464004008B5054B1B7823B9FFF7B2FF0122024B1A70FFF747FE08BD6981FF1F28E01F4B19781F4A137803F009030B431370137813F0040FC4
:400F400024D01B4B1B7813F0FF0F0CD1194A13780133DBB213701378DBB2072B06D90022144B1A7002E00022114B1A70114B1B78DBB2114AD35CDBB2104A13700D4B1A78EC
:400F8000D2B20F4B1B78DBB29A42CED1094B1A78D2B20B4B1B78DBB29A4204D1094A137803F0FB031370704764640040EC81FF1FF881FF1FFE81FF1FF081FF1F47640040DD
:400FC000FC81FF1F84640040204B1A7820490B7803F0400313430B7032E01E4B1A78D2B21D490B780133DBB20B700B78DBB2072B02D90021184B1970174B1978C9B2174B8E
:401000001B78DBB299420ED114490B780133DBB20B700B78DBB2072B02D900210F4B197001210F4B19700C4B1B78DBB20D49CA54064B1A7806490B7803F0400313430B70ED
:40104000034B1B7813F0200FC7D1704767640040FD81FF1F57640040F981FF1FFB81FF1FFA81FF1F0082FF1F044A137803F07F03C001C0B218431070704700BF105100408E
:40108000024B1878C0F30010704700BF8C450040014B1B68D866704708ED00E04001C0B2014B1870704700BF0BE400E04FF40062014B1A60704700BF00E100E04FF400625D
:4010C000014B1A60704700BF80E100E010B50446FFF7F4FF2046FFF7DBFF0720FFF7DEFFFFF7E4FF10BD00BF054A137843F0010313701032137843F001031370704700BF55
:40110000A243004001BE704710B5044605E0084B186800F001FDA4F50044B4F5004FF6D8034B586800FB04F000F0F6FC10BD00BFD080FF1F08B5034B1B7A00FB03F000F065
:40114000EBFC08BDD080FF1F70B504460E46074B1D681F2802D90020FFF7D4FF04F01F04103455F8240045F8246070BD08ED00E038B504460D46072902D90020FFF7C2FFB5
:401180001F2C02D90020FFF7BDFF04F01F0000F1604000F564406D01EDB2057038BD00BF7222084B1A702022013B1A700622A3F5B0731A70472210331A70002203F253132B
:4011C0001A7070478565004010B500F0ADFC04460A4A137843F020031370013A137843F0100313700332137843F01003137000F033F8204600F09CFC10BD00BF956500403D
:4012000008B5054B1B7823B9FFF7CAFF0122024B1A70FFF7D9FF08BD6A81FF1F034B1B7813F0040FFAD1024B18707047676500404765004038B5074B1B782BB938BDFFF7F6
:40124000EDFF0134A4B201E005460024285D0028F5D138BD6A81FF1F054A137843F0040313701032137843F004031370704700BFA2430040024A137843F0800313707047B3
:4012800075640040014B1870704700BF05650040014B1870704700BF45650040014B1870704700BF25650040014B1870704700BF35650040014B1870704700BF8664004041
:4012C000014B1878704700BF66640040014B1878704700BF5565004008B501E0FFF7F6FFFFF7EEFF10F0100FF8D108BD08B5144A137803F0C00343F00903137002F5907216
:40130000137843F001031370FF20FFF7BBFFFF20FFF7BEFFFF20FFF7C1FFFF20FFF7C4FF0020FFF7C7FF00F0FFFB064A137843F01003137000F0FCFBFFF7CEFF08BD00BF82
:40134000756400409664004008B5054B1B7823B9FFF7CCFF0122024B1A70FFF78BFF08BD6C81FF1F024A137843F080031370704776640040014B1870704700BF05640040BF
:40138000014B1870704700BF45640040014B1870704700BF25640040014B1870704700BF85640040014B1878704700BF65640040014B1878704700BF5564004008B501E030
:4013C000FFF7F6FFFFF7EEFF10F0100FF8D108BD10B5114A137803F0C00343F0090313700E4C237843F001032370FF20FFF7C2FFFF20FFF7C5FF0020FFF7C8FF0020FFF7EE
:40140000CBFF00F091FB237843F01003237000F08FFBFFF7D3FF10BD766400409564004008B5054B1B7823B9FFF7D2FF0122024B1A70FFF797FF08BD6D81FF1F044A13781D
:4014400003F0EF03000100F01000184310707047205100400822014B1A60704700E100E00422014B1A60704700E100E008B500F05BFB0C4A137843F02003137001321378FC
:4014800043F0100313700232137843F01003137000F04EFB00F046FAFFF7DCFFFFF7E0FF08BD00BF906400400822014B1A60704780E100E00422014B1A60704780E100E048
:4014C00010B5FFF7F1FF064B1C78064A137803F009031C4300231370FFF7BCFF204610BD616400401782FF1F10B5FFF7E3FF064B1B78064A147804F040041C430023137043
:40150000FFF7AEFF204610BD636400401082FF1F10B504462B4B1A7802F0FF0312B1013BDBB200E00723284A1278D2B29342F1D0FFF7BAFF254B1978254A137803F00903BE
:401540000B4313701F4B1A78D2B21F4B1B78DBB29A4207D11E4B1B7813F0040F02D01D4B1C702CE0184A13780133DBB213701378DBB2072B02D90022134B1A70124B1A78A9
:40158000D2B2104B1B78DBB29A420ED10D4A13780133DBB213701378DBB2072B02D90022084B1A7001220C4B1A70074B1B78DBB20A4AD4540A4A137843F004031370FFF7A3
:4015C00049FF10BD1482FF1F1582FF1F616400401782FF1F406400401382FF1F1882FF1F8164004010B5FFF765FF134B1A78D2B2124B1B78DBB29A4214D0114B1B7813F07B
:40160000FF0F0CD10C4A13780133DBB213701378DBB2072B06D90022074B1A7002E00022074B1A70044B1B78DBB2064AD45CE4B2FFF716FF204610BD1682FF1F1182FF1F69
:401640001282FF1F0882FF1F08B501E0094B1B78094B1B7813F0200FF8D1FFF72BFF0023064A1370064A1370064A1370FFF7F8FE08BD00BF50640040636400401282FF1FD0
:401680001682FF1F1182FF1F08B500F04DFA0E4B1A7842F001021A701A7802F0FE021A7000F046FAFFF700FF0023084A1370084A1370084A1370084A137803F0FB031370FF
:4016C000FFF7C8FE08BD00BF906400401382FF1F1482FF1F1582FF1F8164004070B506460C46002506E0705DFFF712FF0135EDB2013CE4B2002CF6D170BD00BF08B501E06E
:401700000A4B1B780A4B1B7813F0200FF8D100F00BFA084B1A7842F001021A701A7802F0FE021A7000F004FA08BD00BF50640040636400409064004010B50F22174B1A70B4
:40174000174C0823236007210320FFF711FD15490320FFF7F9FC0423236007210220FFF707FD11490220FFF7EFFCFFF7C7FF00240E4B1C700E4B1C700E4B1C700E4B1C70DE
:401780000E4B1C700E4B1C70FFF79AFEFFF7ACFE0C4B1C70202202331A7010BD8064004080E100E0E5170000851800001282FF1F1682FF1F1182FF1F1382FF1F1482FF1F02
:4017C0001582FF1F8164004008B5054B1B7823B9FFF7B2FF0122024B1A70FFF747FE08BD6E81FF1F28E01F4B19781F4A137803F009030B431370137813F0040F24D01B4B23
:401800001B7813F0FF0F0CD1194A13780133DBB213701378DBB2072B06D90022144B1A7002E00022114B1A70114B1B78DBB2114AD35CDBB2104A13700D4B1A78D2B20F4B9F
:401840001B78DBB29A42CED1094B1A78D2B20B4B1B78DBB29A4204D1094A137803F0FB0313707047616400401782FF1F1382FF1F1482FF1F1882FF1F406400401582FF1FBF
:4018800081640040204B1A7820490B7803F0400313430B7032E01E4B1A78D2B21D490B780133DBB20B700B78DBB2072B02D90021184B1970174B1978C9B2174B1B78DBB243
:4018C00099420ED114490B780133DBB20B700B78DBB2072B02D900210F4B197001210F4B19700C4B1B78DBB20D49CA54064B1A7806490B7803F0400313430B70034B1B7864
:4019000013F0200FC7D17047636400401082FF1F506400401182FF1F1682FF1F1282FF1F0882FF1F054A137843F0020313701032137843F002031370704700BFA243004002
:40194000024B1878C0F38000704700BF21510040014B1B681865704708ED00E04001C0B2014B1870704700BF04E400E01022014B1A60704700E100E01022014B1A60704773
:4019800080E100E010B50446FFF7F6FF2046FFF7DFFF0720FFF7E2FFFFF7E8FF10BD00BF044A137803F0FD03400000F0020018431070704720510040024B1878C0F340003A
:4019C000704700BF21510040084A137843F0010313701032137843F00103137002F64D32137843F001031370704700BFA3430040084A137803F0FE031370A2F65D32137843
:401A000003F0FE0313701032137803F0FE031370704700BF004F0040014B1870704700BF034F0040014B1878704700BF034F0040014B1880704700BF044F0040014B188055
:401A4000704700BF064F004008B5154A137803F0010313700232137803F0FC031370114B1A7802F0CF021A701A7842F030021A701A7802F0F0021A701A7842F00F021A70EC
:401A8000094A137843F0010313706320FFF7D0FF6320FFF7D3FF0820FFF7BEFF08BD00BF004F00400B4F0040014F004008B5054B1B7823B9FFF7C8FF0122024B1A70FFF7BA
:401AC00083FF08BD6F81FF1F014B1B685865704708ED00E04001C0B2014B1870704700BF05E400E02022014B1A60704700E100E02022014B1A60704780E100E010B5044624
:401B0000FFF7F6FF2046FFF7DFFF0720FFF7E2FFFFF7E8FF10BD00BF0230800803D000BF01380046FCD17047EFF3108072B6704780F31088704700BF014B1868704700BFB6
:401B40004081FF1F0E4B70B51E460E4C0025E41AA410A54204D056F8253098470135F8E700F0A8FD084B094C1E46E41AA4100025A54204D056F8253098470135F8E770BD2A
:401B8000C0260000C0260000C0260000C826000010B5431E0A44914204D011F8014B03F8014FF8E710BD03460244934202D003F8011BFAE7704700000EB400B54FF402710C
:401BC0009CB0ADF814106FF00041049107914FF6FF711DAB02900690084853F8042BADF81610006802A9019300F064F8029B00221A701CB05DF804EB03B070474081FF1F34
:401C00002DE9F0478E6882469E420C46914698463ED88A8912F4906F3AD02568096902236F1A656905EB450595FBF3F57B1C43449D4238BF1D4653050FD5294600F040FB20
:401C4000064698B13A462169FFF7A2FFA38923F4906343F08003A38113E02A4600F08EFB064670B92169504600F0DEFA0C23CAF80030A3894FF0FF3043F04003A381BDE8EB
:401C8000F08726613E44266046466561ED1BA560464528BF464649463246206800F0A8FAA36800209B1BA36023681E442660BDE8F08700002DE9F04F9DB003938B8980461B
:401CC0001C060D4616460DD50B695BB9402100F0F7FA2860286118B90C23C8F80030CDE040236B610023099320238DF82930DFF89CB130238DF82A3037463C4614F8013B0D
:401D00001BB9B7EB060910D003E0252BF9D02746F3E74B46324629464046FFF771FF013000F0A780099B4B4409933B78002B00F0A08000234FF0FF3204930793059206939E
:401D40008DF853301A930126052221784E4800F041FA671C049B38B14B4A3C46801A06FA00F018430490EFE7D90644BF20228DF853201A0744BF2B228DF8532022782A2A22
:401D800003D0079A00210A200BE0039A111D12680391002A10DA524243F00200079204900BE027463B780134303B092B03D800FB02320121F5E701B107923B782E2B1ED169
:401DC0007B782A2B0AD1039B02371A1D1B680392002BB8BF4FF0FF33059310E0002319460593781C0A2407463A780130303A092A03D804FB01210123F5E703B105910322EB
:401E00003978224800F0E6F940B14023CBEB000003FA00F0049B013718430490397806221B487E1C8DF8281000F0D4F988B1194B33B9039B073323F007030833039314E068
:401E400003AB00932A46144B04A94046AFF3008007E003AB00932A460F4B04A9404600F093F8B0F1FF3F824603D0099B5344099342E7AB895B0601D4099801E04FF0FF3089
:401E80001DB0BDE8F08F00BF80260000862600008A26000000000000011C00002DE9F04791461F460A698B6806469342B8BF1346C9F8003091F843200C46DDF8208012B10C
:401EC0000133C9F800302368990642BFD9F800300233C9F80030256815F0060510D104F1190A07E00123524639463046C04701301AD00135E368D9F800209B1A9D42F1DB49
:401F000094F843302268003318BF012392060FD5E118302081F843005A1C94F845102244023382F8431003E04FF0FF30BDE8F08704F1430239463046C0470130F4D0226888
:401F4000D9F80050E36802F00602042A08BF5D1B2269A3680CBF25EAE57500259342C4BF9B1AED184FF000091A344D4509D00123224639463046C0470130D5D009F101092A
:401F8000F3E70020BDE8F0872DE9F04317460A7E85B06E2A984606460C460C9B01F1430E00F0AE8011D8632A22D009D8002A00F0BB80582A40F0CA8081F84520834955E013
:401FC000642A1ED0692A1CD0C0E0732A00F0B08009D86F2A2ED0702A40F0B8800A6842F020020A603EE0752A24D0782A3AD0ADE01A6801F14205111D1960136884F842302A
:40200000A8E021681A6811F0800F02D0111D196008E011F0400F02F10401196002D0B2F9003000E01368002B3CDA2D225B4284F8432037E021681A6811F0800F02D0111D95
:40204000196007E011F0400F02F10401196001D0138800E01368227E5C496F2A14BF0A2208221BE078225A4984F845202268186812F0800F00F104051D6003D1550601D541
:40208000038800E00368D00744BF42F0200222601BB9226822F0200222601022002084F8430001E049490A226568002DA56008DB206820F0040020602BB9002D7DD17546BE
:4020C0000CE0002B79D07546B3FBF2F002FB1033CB5C05F8013D03460028F5D1082A0BD12368DA0708D5236962689A42DEBF302305F8013C05F1FF35C5EB0E0323612EE02C
:4021000008681A6810F0800F496903D0101D1860136808E010F0400F02F104001860136801D0198000E0196000232361754616E01A68111D1960156800216268284600F04E
:4021400049F808B1401B6060636804E004F1420584F8422001232361002384F84330CDF800803B4603AA21463046FFF797FE013002D14FF0FF3026E023692A463946304683
:40218000C0470130F5D023689B0710D5002504F1190907E001234A4639463046C0470130E7D00135E368039A9B1A9D42F2DBE068039B9842B8BF184605E00B7804F142059D
:4021C00084F842308AE705B0BDE8F08391260000A226000010B5C9B202449042034605D01C7801308C42F8D1184610BD002010BD884210B501EB020301D8421E0BE09842CC
:40220000FBD28118D21AD34204D013F8014D01F8014DF8E710BD994204D011F8014B02F8014FF8E710BD000038B50546002944D051F8043C0C1F002BB8BFE41800F0D4F89A
:402240001E4A1368114613B96360146030E0A3420DD92268A018834201BF18685B681218226063600C6023E0A24203D813465A68002AF9D118681918A1420BD12168014452
:4022800058188242196013D110685268014419605A600DE002D90C232B6009E021686018824201BF106852680918216062605C602846BDE8384000F098B838BD7481FF1FCE
:4022C00070B5CD1C25F0030508350C2D38BF0C25002D064601DBA94202D90C23336046E000F082F8234B1C681A462146A1B10B685B1B0ED40B2B03D90B60CC18CD501EE056
:402300008C420BBF63684B681360636018BF0C4615E00C464968E9E7174C23681BB9304600F052F820602946304600F04DF8431C18D0C41C24F00304A0420DD12560304657
:4023400000F053F804F10B00231D20F00700C31A0ED05A42E25070BD211A304600F034F80130EBD10C233360304600F03EF8002070BD00BF7481FF1F7081FF1FF8B50746D5
:4023800015460E4621B91146BDE8F840FFF798BF1AB9FFF749FF2846F8BD00F027F885420ED929463846FFF78BFF044650B131462A46FFF7EDFB31463846FFF735FF01E0A5
:4023C0003046F8BD2046F8BD38B5064C0023054608462360FEF76EFB431C02D1236803B12B6038BD2082FF1F7047704751F8040C0028BEBF091851F8043CC0180438704729
:40240000000000000F00E0FF020100002A2A2A2A2A2A2A2A2A20202020454550524F4D2054455354202020202A2A2A2A2A2A2A2A2A0D0A002A2A20454550524F4D20526565
:402440006164203D202564202564202564200D0A000000002A2A2A2A2A2A2A2A2A2A2A2A2A2A2A2A2A2A2A2A2A2A2A2A2A2A2A2A2A2A2A2A2A2A2A2A2A0D0A002A2A204C1F
:4024800049533344482057484F204920414D205245474953544552203D203078253032580D0A00002A2A204C4953334448204354524C20524547495354455220313D203029
:4024C00078253032580D0A002A2A204C4953334448204354524C20524547495354455220343D203078253032580D0A002A2A204C4953334448204354524C20524547495320
:4025000054455220353D203078253032580D0A002A2A204C4953334448204649464F204354524C205245474953544552203D203078253032580D0A002A2A204C4953334439
:4025400048204354524C20524547495354455220333D203078253032580D0A002A2A204C495333444820494E542031204346472052454749535445523D203078253032581B
:402580000D0A00002A2A204C495333444820494E5431205448532052454749535445523D203078253032580D0A0000002A2A204C4953334448204455524154494F4E20520B
:4025C000454749535445523D203078253032580D0A000000544852455348203078253032580D0A0077617465726D61726B200D0A000000005245442076616C75653A2025A5
:40260000642C20475245454E2076616C75653A2025642C20424C55452076616C75653A202564200D0A000000004F00400C00405100403000F0510040100080000140800F11
:4026400000140140800000150140000700400140000A004C01400002005001402000000060520040E4070048060000000140EC0700488000801401406C08004880004300E2
:40268000232D302B2000686C4C00656667454647003031323334353637383941424344454600303132333435363738396162636465660000F8B500BFF8BC08BC9E467047A8
:4026C0004D000000310B0000F8B500BFF8BC08BC9E46704729000000E8260000C880FF1F80000000E0000000000000002882FF1F0000E02EC05D00001800000000366E0125
:4027000000000000000000000000000000000000000000000000000000000000000000007E26000000000000000000000000000000000000000000000000000000000000F5
:402740000000000000000000000000000000000000000000000000000000000000000000E080FF1F00000000000000000000000000000000000000000000000000000000DB
:402780000000000000000000000000000000000000000000000000000000000000000000000000000000000000000000000000000000000000000000000000000000000019
:4027C00000000000000000000000000000000000000000000000000000000000000000000000000000000000000000000000000000000000000000000000000000000000D9
:402800000000000000000000000000000000000000000000000000000000000000000000000000000000000000000000000000000000000000000000000000000000000098
:402840000000000000000000000000000000000000000000000000000000000000000000000000000000000000000000000000000000000000000000000000000000000058
:020000040003F7
:0200000480007A
:4000000001450040024F00400452004004640040036500401100014038010140530201403D0301406704014047050140530601404B07014001090140020B0140040C014090
:40004000010D01401714014047150140691601404D17014001190140021B0140094001400D4101401342014007430140034501400246014001470140074801400849014013
:40008000044C0140074D01400550014002510140640101400A4B0040014018C01940800F820F850D860F84388572870F8008940D960298099C039E04B40EB601BA20BE40BF
:4000C000D409D604D804DB04DC01DD10DF01009A0180024005020A010B900E0A0F11102812021301181419201C081D501E0821082202231129902A0230203108328239202A
:400100003A403B0140044306490A4A855004521053405D185E805F02622065406740686969206B40720380108752C01FC2EDC40FCA0DCC0FCE0DD007D20CD6F0D8940003D4
:40014000011A020C036407010803092C0A140B530C10141015481737180119101A1A1B681C021E1D201028102E1033033578361F37043A803B203F405602572C58045904AD
:400180005B045C105F018101830287108824891D8A498CD9901191029222930D9420950296D09708982E991D9A819C089D1D9E04A0D9A11DA4D9A8D1A902AA08AB04ACD8C0
:4001C000AD0DAE01AF10B10FB2F0B310B40FBA38BB02BF04D440D604D804D904DB04DC10DD10DF01012003010520068007010A540B020C080E061088114413021540171253
:400200001A141E021F40210A250426602A622EC030243102334034043624380839203B093D083E203F1361486210638067806C986D446F10770183409008912093119A5232
:400240009B409F04A020A204A660AD20AF02B112C0D3C2EFC4DFCA0DCC6FCEE7D88F088109050A740B0A0C721063110E128C1504170918231AD81C222072247228502A22D6
:400280002C222D032E502F043060310F3280341F3601382039023E444004464049FF4A074BFF4C404D204EF04F05500854095604580459045A045B045C105D025F01604066
:4002C00061A862406320840C870B882A8A459057910292289630970C98619A12A240A704B102B270B308B40EB504B601B701B8A0BF10C030C102C5D1C702C813C9FFCAFF3F
:40030000CBFFCDA0CF04D018D280D405D804D904DA04DB04DC30DD33DF01E040E2C0E440E540E6C0E8C0EAC0ECC0EEC0012003010404052008200A440B020E5410881148A9
:40034000150219601A401B081C041D801E1021022608278A2B012E0830043102360437063B103F0840404608470448404F095310560859155B405F8961406340768082103A
:4003800083488608874090209140920493109640970298049B019D20A088A301AB04B140B304B504C063C27BC41FCA48CCC3CE44D061D6DFD809EA03EE4002080301070E28
:4003C0000E04100115081E0723023002310232013301340435043608370852805407580459045B045C335D305F01806C82038431864689038E138F039103950396089831B4
:400400009A0E9D039E4CAB01B030B301B44AB502B60FB802BAA0BE01BF14C063C104C220C405C5CEC6F0C7BDC83BC9FFCAFFCBFFCC22CEF0CF0CD004D440D604D804D9046A
:40044000DA04DB04DC02DF01E2C0E440E501E610E711E8C0E901EB11EC40ED01EE40EF01008801800380054006820A050B200D020F0218401A041B801D421E101F202004ED
:4004800022082501264427042B082E02308833013704382039403C023D044024424049244B42512153085D015E905F086002612062086380740183408F20902091409240B3
:4004C0009320944095029702982099209A849B019D05A0C8A604A810A904AA04B590B701C09DC297CA84CC4BCECCD007D20CD6F0D80FE240EA11EA01AF20EA0139083F04F9
:4005000059045F0127200112030C0D080E010F30153F193F1D241E011F0A2D0131383201330137063E045418580459045B045C205D205F01020104410620070409400E5C77
:400540000F11152217181B041D101E612040224023112541260427042B022E54302832403602371438413D023E283F404240430146064D05560457095A015E20628063089C
:400580006C286F027440762877088440851087028C018E02910293409441950597119A039B029D109F01A280A709A804A920C0F1C2F1C470CA78CCEECEF9D030D621D80CE5
:4005C000E402020203020A040E010F0118041A081B011E022A102B023004320834103502360337013E403F504046410542024401460C47E0482449FF4AFF4BFF4C624DA0E7
:400600004EF04F41500C580459045A045C055D025F016640670269106A306B106D106E106F12808084308503860C871489138B048C40912092039410982C99139A119B0C34
:400640009C099E109F08A01CA10AA222A314A414AF15B01FB310B480B50FB660B720B880BB22BE10BF44C065C102C50BC60EC70CC815C9FFCAFFCBFFCEF0CF44D00CD401AC
:40068000D804D904DA04DB04DC22DD22DF01E6C0EA40EB0200080182024004510A850B200E080F011060160419401A891B021C101D801E081F0120082101221823422680E7
:4006C0002708284029802B802F0831403210330235103720380839203E023F804110420445804721482449804F50500452405601574059225A488248830192049320950502
:40070000960199809A069F08A380A404A701A806A901AB08AF40B501C0DDC2CFC44CCA29CC2DCE96D0B4D23CD60FEA10EE02EE02E402E61033123640370239408208870264
:40074000CCF0CE10E6C0328059016608830295409A089F10A640A702CC10D640D880E2201280500456805B0182808640870895409B019F10A6C0AF01B501C410D460D640C0
:40078000E290E640EA4083108E0295409B089F10B404E22000010204C00A9A04A801AA048140954098029A029B08B402E6205B085C02660298029A029B08D6C0D88008107A
:4007C0009C10AC10C2021020740484048C20C408DE04E608000F08030A0F102C1A2C00FF010B0000888C00004000000004138064560009000102009884980002603800C0D6
:400800000A2110D80098000284020000079A38008400000080FC0403049A000000E07F0F800000130800000A000010004605200003CEFB0D1FFFFFFF2200F0080400000066
:400840000000022404040404111100010000C00040011011C00100114001400100000000000000000000000000000000210000040C0800009C18630063DF0000F3040C20F4
:40088000001CE3C21F10E00042000000FF000000041C00C10800004300C700180F2010588C1F608000800228000004001002000000D1005233FFFFFF00A00004180000002B
:4008C0000000021104040404222300014000C0004040C000C000C000C000C0000000000000000000000000000000000000606000600000008400508C8C008C0000000000B7
:400900008000408B8B0000000000000014000116120000000000000000E0E000E0000000000000000000000000000000000000000000000000000000000000000000000004
:400940000000000000000000000000000000000000000000000000000000000000000000000000000000000000000000000000000000000000000000000000000000000077
:400980000000000000000000000000000000000000000000000000000000000000000000000000000000000000000000000000000000000000000000000000000000000037
:4009C00000000000000000000000000000000000000000000000000000000000000000000000000000000000000000000000000000000000000000000000000000000000F7
:400A000000000000000000000000000000000000000000000000000000000000000000000000000000000000000000000000000000000000000000000000000000000000B6
:0200000490006A
:0400000000004005B7
:0200000490105A
:04000000BC90ACAF55
:0200000490303A
:020000001AFDE7
:0200000490402A
:4000000000000000000000000000000000000000000000000000000000000000000000000000000000000000000000000000000000000000000000000000000000000000C0
:400040000000000000000000000000000000000000000000000000000000000000000000000000000000000000000000000000000000000000000000000000000000000080
:400080000000000000000000000000000000000000000000000000000000000000000000000000000000000000000000000000000000000000000000000000000000000040
:4000C0000000000000000000000000000000000000000000000000000000000000000000000000000000000000000000000000000000000000000000000000000000000000
:0200000490501A
:0C00000000012E16106900012E272B664F
:00000001FF