:400000000080002011000000090B0000090B000008B5044B1A6803F53F5302331A6000F093FD00BFFA46004010B5054C237833B9044B13B10448AFF300800123237010BDBF
:400040004881FF1F00000000F0260000084B10B51BB108490848AFF300800848036803B910BD074B002BFBD0BDE81040184700BF000000004C81FF1FF0260000C880FF1FD6
:40008000000000002DE9F04786B062B601F00EF900F086FF01F040FC00F0EAFA0A2001F08BF8BD4801F03AF9BC4B186804909B88ADF81430062204A9012000F00FFB00F069
:4000C0003BFB062202A9012000F0F6FABDF90820BDF90A30BDF90C10B14C0091B149204601F0E2FE204601F019F9AF4801F016F90F2000F0E1F90246AC49204601F0D4FED8
:40010000204601F00BF92721202000F0EBF9202000F0D2F90246A649204601F0C5FE204601F0FCF80021232000F0DCF9232000F0C3F902469F49204601F0B6FE204601F0C7
:40014000EDF84021242000F0CDF9242000F0B4F902469949204601F0A7FE204601F0DEF800212E2000F0BEF92E2000F0A5F9934D02462946204601F097FE204601F0CEF879
:4001800047212E2000F0AEF92E2000F095F902462946204601F088FE204601F0BFF84421222000F09FF9222000F086F902468449204601F079FE204601F0B0F82A21302027
:4001C00000F090F9302000F077F902467D49204601F06AFE204601F0A1F85C21322000F081F9322000F068F902467749204601F05BFE204601F092F80321332000F072F9D2
:40020000332000F059F902467049204601F04CFE204601F083F800F027FD01F0E1F901F053F800256A4B1D706A4800F099FF6A4801F056FC694801F015FD694801F0ACFD05
:40024000684801F0D1FD01F079FD2F462E46604B1B78DBB2012BFAD1312000F02DF910F0400F09D04E4C02465F49204601F01CFE204601F053F883E0494C5C4B07CB2060E0
:400280006160A2601B782373204601F047F84FF000081CE0564C06222146282000F036F92378627843EA022305EBA3152DB2A378E27843EA022306EBA31636B223796279C3
:4002C00043EA022307EBA3131FB208F10108B8F1060FDFDD474B83FB05122A44ED17C5EBA2052DB283FB06123244F617C6EBA20636B283FB0723DA19FB17C3EBA2031FB2BD
:40030000E90009B2F20012B2FB001BB2C1EB0121394880FB01E4C917C1EB2424002CB8BF6442E4B2C2EB022280FB0218D217C2EB2828B8F1000FB8BFC8F100085FFA88F824
:40034000C3EB032380FB0329DB17C3EB2929B9F1000FB8BFC9F100095FFA89F9DFF840A0CDF80090434622462449504601F09CFD504600F0D3FF4A464146204600F084F976
:400380000021134B19702E2000F0ACF847212E2000F0A8F85BE700BFFC260000F42600008481FF1F24270000442700006C27000094270000B8270000DC270000002800009F
:4003C000282800004C280000742800009C280000E881FF1F2D05000041050000110600002506000055050000C4280000D42800007C81FF1F93244992D34D6210E42800000B
:400400002DE9F04383B006460C4617469846002000F074FE64B2002511E02146082CA8BF0821C9B206EBC50000F044FD00F034FC10F0010FFAD0083C64B201356DB2002C57
:40044000EBDC00F047FD00F0EBFC0026009601964FFA88F820E0C146B8F1080FA8BF4FF008095FFA89F1684600F024FD00F014FC10F0010FFAD0002406E004EBC60500F0F0
:400480009DFC78550134E4B24C45F6DBA8F108084FFA88F8013676B2B8F1000FDBDC012000F02CFE00F016FD00F0BAFC00F0D8FC03B0BDE8F08300BF00B583B000F03F0020
:4004C00060F07F008DF8040002AA002302F8053D0123194601A8FFF793FF9DF8030003B05DF804FB00B583B000F03F008DF804008DF80510002302AA02F8053D022101A835
:40050000FFF77EFF03B05DF804FB00BF00B583B040F0C00302A800F8043D13460A460121FFF76EFF03B05DF804FB00BF08B50122024B1A7000F0EEFD08BD00BFE881FF1F33
:4005400008B501F003FB0022014B1A7008BD00BF6481FF1F08B52D4B1B78052B1AD92B4B5B781BB90122294B5A700FE0012B0DD1264B00225A709B781BB9104601F0BEFAAB
:4005800004E0012B02D1012001F0B8FA00221F4BDA7008BD052B37D81C4B5B78A3BB1B4BDB78012B07D013B1022B28D02AE00122164BDA7026E0154B9B786BB90120134B89
:4005C000987001F09BFA00F071FE00F0E9FC01F0A3F900F04DF80EE0012B0CD100200B4B987001F08BFA00F03FFB00F0F9FF00F06BFE00F043F80022044BDA7002E0012236
:40060000024BDA7001F000FB08BD00BF6481FF1F08B50222024BDA7001F0B2FA08BD00BF6481FF1F08B501F045FB074B1A7801321A705B78012B06D101F06CFAB0FA80F03E
:40064000400901F05BFA08BD6481FF1F08B5C043C0B200F0ADFE08BD08B5C043C0B200F0ADFE08BD08B5C043C0B200F01FFF08BD08B500F0F1FE00F063FF08BD08B500F09A
:4006800083FE00F0FFFE08BD38B50D461446FFF7DDFF2846FFF7E0FF2046FFF7E3FF38BD08B5052000F066F808BD00BF08B5062000F04AF808BD00BF10B582B003248DF835
:4006C0000440030A8DF805308DF8060013460A46214601A800F068F802B010BD2DE9F04182B000AF054688461446FFF7DFFF012000F078FDE61C04F10A0323F00703ADEB2E
:40070000030D02238DF800302B0A8DF801308DF80250224641460DF1030001F0B1FB002307F1080202F8013DF1B2684600F03CF80837BD46BDE8F08108B5FFF7B1FF10F0F3
:40074000010FFAD108BD00BF10B50446002000F005FF204600F084FF00F05AFF10F0080FFAD000F0E7FF0446012000F0F7FE204610BD00BF10B50446002000F0EFFE20466A
:4007800000F06EFF002000F06BFF00F041FF10F0010FFAD000F0CEFF00F0CCFF0446012000F0DCFE204610BD2DE9F04383B006460C4617469846002000F0D0FE64B200250A
:4007C00011E02146082CA8BF0821C9B206EBC50001F02CF800F01CFF10F0010FFAD0083C64B201356DB2002CEBDC01F02FF800F0D3FF0026009601964FFA88F820E0C14613
:40080000B8F1080FA8BF4FF008095FFA89F1684601F00CF800F0FCFE10F0010FFAD0002406E004EBC60500F085FF78550134E4B24C45F6DBA8F108084FFA88F8013676B204
:40084000B8F1000FDBDC012000F088FE00F0FEFF00F0A2FF00F0C0FF03B0BDE8F08300BFFEE700BFF0B40022174611E050F82760F3B226F0FF0608E001EB420511F81240FE
:400880006D78A5550132013BDBB2002BF4D10137242FEBD9F0BC7047064B1B78DBB203F00701054A11701B09013213704422034B1A707047CF0100496E5800407658004083
:4008C00008B50A46002101F0E6FA08BD38B50B22334B1A80182333490B7002310A80324A13703321023211800232137040F2AF41023211800232137043F6972302321380EC
:4009000019250232157002321380284B1D7047F22F5202331A8002331D70022203F266231A7008224FF040231A70032103F5007319701F4B1B78DBB21E490B701E4B1A80A5
:4009400041F25122023B1A8000240CE01B4B1B7803F0010343EA440404F003044FF4F07001F052FA013D0DB1032CEFD115B90320FFF776FF124B4FF480721A8007221A7084
:40098000002210490A704820023108701A700222033B1A700C4A137843F07F03137038BD8040004082400040864000409640004008010049A14600402242004025420040C9
:4009C0000440004006400040A243004008B501F057FA08BD38B572B6384A137843F00403137000240CE0364D630019194A0011462A44084691882858FFF762FF0134E4B2E5
:400A0000082CF0D900240CE02D48A20011194B000344B3F84020D96B986BFFF7D7FF0134E4B2012CF0D927494FF09040FFF71AFF254A137843F0020313701032137843F0B4
:400A400002031370214C237843F040032370A2F58632513A137843F01003137008221C491C48FFF7B3FF0A221B491C48FFF7AEFF0A221B491B48FFF7A9FF0A221A491B48FA
:400A8000FFF7A4FF08221A491A48FFF79FFF1A4A137843F008031370184D61232B70FFF715FF81232B700122154B1A70FFF7F4FE0E2221461348FFF789FF38BDE8460040D5
:400AC000182900009400004803500140A0430040400A004802510040480A0048C0510040540A004810510040600A0048205100406C0A0048325100402243004000480040BA
:400B000004000840B043004008B501F08DF903680C2B00D1FEE7FEE708B5094B1A681044084BC31A802B02DC054B186005E001F07BF90C2303604FF0FF32104608BD00BF37
:400B4000CC80FF1F2882FF1F08B5104E104D16E029686B68AC68002204E051F8040B43F8040B0432A242F8D1E868002203E0002143F8041B04328242F9D11035013E002E8C
:400B8000E6D101F057F9FFF77DFAFEE701000000C029000008B5104A104B1A60104A136843F40073136000230AE0032B03D80D4A52F8231000E00C490C4A42F8231001330D
:400BC0002F2BF2D90A4B1A780A4B1A70074A0A4B1A60FFF7FFFE08BD0004FA050CED00E014ED00E000000000090B00000080FF1FBC760040C080FF1F08ED00E00222014BAE
:400C00001A60704700E100E00122014B1A60704700E100E008B501F0FFF80C4A137843F0200313700232137843F0100313700132137843F01003137001F0F2F800F09EFA90
:400C4000FFF7DCFFFFF7E0FF08BD00BF906400400222014B1A60704780E100E00122014B1A60704780E100E008B501F0D5F8094A137803F0EF0313700132137803F0EF03EF
:400C8000137001F0CDF800F087FAFFF7E1FFFFF7E5FF08BD9264004010B5FFF7D9FF064B1C78064A137803F009031C4300231370FFF7A4FF204610BD62640040EC81FF1F2B
:400CC00010B5FFF7CBFF064B1B78064A147804F040041C4300231370FFF796FF204610BD63640040FD81FF1F10B504462B4B1A7802F0FF0312B1013BDBB200E00723284AFE
:400D00001278D2B29342F1D0FFF7A2FF254B1978254A137803F009030B4313701F4B1A78D2B21F4B1B78DBB29A4207D11E4B1B7813F0040F02D01D4B1C702CE0184A13781E
:400D40000133DBB213701378DBB2072B02D90022134B1A70124B1A78D2B2104B1B78DBB29A420ED10D4A13780133DBB213701378DBB2072B02D90022084B1A7001220C4B93
:400D80001A70074B1B78DBB20A4AD4540A4A137843F004031370FFF731FF10BDFE81FF1FFC81FF1F62640040EC81FF1F44640040F881FF1FF081FF1F8264004010B5FFF774
:400DC0004DFF134B1A78D2B2124B1B78DBB29A4214D0114B1B7813F0FF0F0CD10C4A13780133DBB213701378DBB2072B06D90022074B1A7002E00022074B1A70044B1B780B
:400E0000DBB2064AD45CE4B2FFF7FEFE204610BDFB81FF1FF981FF1FFA81FF1F0082FF1F08B501E0094B1B78094B1B7813F0200FF8D1FFF713FF0023064A1370064A137047
:400E4000064A1370FFF7E0FE08BD00BF5464004063640040FA81FF1FFB81FF1FF981FF1F08B500F0D9FF0E4B1A7842F001021A701A7802F0FE021A7000F0D2FFFFF7E8FEA3
:400E80000023084A1370084A1370084A1370084A137803F0FB031370FFF7B0FE08BD00BF94640040F881FF1FFE81FF1FFC81FF1F8264004070B506460C46002506E0705D4F
:400EC000FFF712FF0135EDB2013CE4B2002CF6D170BD00BF08B501E00A4B1B780A4B1B7813F0200FF8D100F097FF084B1A7842F001021A701A7802F0FE021A7000F090FF44
:400F000008BD00BF54640040636400409464004010B50F22174B1A70174C022323600721012000F07DF91549012000F065F9012323600721002000F073F91149002000F0D8
:400F40005BF9FFF7C7FF00240E4B1C700E4B1C700E4B1C700E4B1C700E4B1C700E4B1C70FFF79AFEFFF7ACFE0C4B1C70202201331A7010BD8064004080E100E0BD0F0000D0
:400F80005D100000FA81FF1FFB81FF1FF981FF1FF881FF1FFE81FF1FFC81FF1F8264004008B5054B1B7823B9FFF7B2FF0122024B1A70FFF72FFE08BD6881FF1F28E01F4B86
:400FC00019781F4A137803F009030B431370137813F0040F24D01B4B1B7813F0FF0F0CD1194A13780133DBB213701378DBB2072B06D90022144B1A7002E00022114B1A70D0
:40100000114B1B78DBB2114AD35CDBB2104A13700D4B1A78D2B20F4B1B78DBB29A42CED1094B1A78D2B20B4B1B78DBB29A4204D1094A137803F0FB0313707047626400403D
:40104000EC81FF1FF881FF1FFE81FF1FF081FF1F44640040FC81FF1F82640040204B1A7820490B7803F0400313430B7032E01E4B1A78D2B21D490B780133DBB20B700B7850
:40108000DBB2072B02D90021184B1970174B1978C9B2174B1B78DBB299420ED114490B780133DBB20B700B78DBB2072B02D900210F4B197001210F4B19700C4B1B78DBB226
:4010C0000D49CA54064B1A7806490B7803F0400313430B70034B1B7813F0200FC7D1704763640040FD81FF1F54640040F981FF1FFB81FF1FFA81FF1F0082FF1F044A13787F
:4011000003F07F03C001C0B218431070704700BF10510040024B1878C0F30010704700BF8C450040014B1B68D866704708ED00E04001C0B2014B1870704700BF0BE400E089
:401140004FF40062014B1A60704700BF00E100E04FF40062014B1A60704700BF80E100E010B50446FFF7F4FF2046FFF7DBFF0720FFF7DEFFFFF7E4FF10BD00BF054A137844
:4011800043F0010313701032137843F001031370704700BFA2430040054A137803F0FE0313701032137803F0FE031370704700BFA243004001BE704710B5044605E0084B66
:4011C000186800F021FEA4F50044B4F5004FF6D8034B586800FB04F000F016FE10BD00BFD080FF1F08B5034B1B7A00FB03F000F00BFE08BDD080FF1F70B504460E46074BF3
:401200001D681F2802D90020FFF7D4FF04F01F04103455F8240045F8246070BD08ED00E038B504460D46072902D90020FFF7C2FF1F2C02D90020FFF7BDFF04F01F0000F127
:40124000604000F564406D01EDB2057038BD00BF7222074B1A70202202331A700622603B1A70472210331A700022B53B1A7070478765004010B500F0CFFD04460A4A1378E2
:4012800043F0200313700232137843F010031370A2F20512137843F01003137000F050F8204600F0BDFD10BD9765004008B5054B1B7823B9FFF7CCFF0122024B1A70FFF750
:4012C000D9FF08BD6981FF1F10B500F0A5FD04460A4A137803F0DF03137000F03FF8084A137803F0EF031370A2F20512137803F0EF031370204600F093FD10BD9765004078
:4013000099650040034B1B7813F0040FFAD1024B18707047646400404465004038B5074B1B782BB938BDFFF7EDFF0134A4B201E005460024285D0028F5D138BD6981FF1F58
:40134000054A137843F0040313701032137843F004031370704700BFA2430040054A137803F0FB0313701032137803F0FB031370704700BFA2430040024A137843F08003FA
:401380001370704775650040024A137803F07F031370704775650040014B1870704700BF06650040014B1870704700BF46650040014B1870704700BF26650040014B187026
:4013C000704700BF36650040014B1870704700BF85650040014B1878704700BF65650040014B1878704700BF5665004008B501E0FFF7F6FFFFF7EEFF10F0100FF8D108BD66
:4014000008B5134A137803F0C00343F0090313702132137843F001031370FF20FFF7BCFFFF20FFF7BFFFFF20FFF7C2FFFF20FFF7C5FF0020FFF7C8FF00F0EEFC054A137814
:4014400043F01003137000F0EBFCFFF7CFFF08BD756500409565004008B5054B1B7823B9FFF7CEFF0122024B1A70FFF785FF08BD6B81FF1F024A137843F0800313707047A6
:4014800077640040024A137803F07F031370704777640040014B1870704700BF07640040014B1870704700BF47640040014B1870704700BF27640040014B1870704700BFE7
:4014C00087640040014B1878704700BF67640040014B1878704700BF5764004008B501E0FFF7F6FFFFF7EEFF10F0100FF8D108BD10B5114A137803F0C00343F009031370DB
:401500000E4C237843F001032370FF20FFF7C2FFFF20FFF7C5FF0020FFF7C8FF0020FFF7CBFF00F079FC237843F01003237000F077FCFFF7D3FF10BD776400409764004059
:4015400008B5054B1B7823B9FFF7D2FF0122024B1A70FFF78FFF08BD6C81FF1F044A137803F0EF03000100F01000184310707047205100400822014B1A60704700E100E070
:401580000422014B1A60704700E100E008B500F043FC0C4A137843F02003137002F20112137843F0100313700232137843F01003137000F035FC00F05DFAFFF7DBFFFFF710
:4015C000DFFF08BD956400400822014B1A60704780E100E00422014B1A60704780E100E008B500F019FC094A137803F0EF0313700232137803F0EF03137000F011FC00F027
:4016000047FAFFF7E1FFFFF7E5FF08BD9665004010B5FFF7D9FF064B1C78064A137803F009031C4300231370FFF7A4FF204610BD666500401782FF1F10B5FFF7CBFF064BFE
:401640001B78064A147804F040041C4300231370FFF796FF204610BD686500401082FF1F10B504462B4B1A7802F0FF0312B1013BDBB200E00723284A1278D2B29342F1D08C
:40168000FFF7A2FF254B1978254A137803F009030B4313701F4B1A78D2B21F4B1B78DBB29A4207D11E4B1B7813F0040F02D01D4B1C702CE0184A13780133DBB2137013786A
:4016C000DBB2072B02D90022134B1A70124B1A78D2B2104B1B78DBB29A420ED10D4A13780133DBB213701378DBB2072B02D90022084B1A7001220C4B1A70074B1B78DBB2DD
:401700000A4AD4540A4A137843F004031370FFF731FF10BD1482FF1F1582FF1F666500401782FF1F466400401382FF1F1882FF1F8665004010B5FFF74DFF134B1A78D2B278
:40174000124B1B78DBB29A4214D0114B1B7813F0FF0F0CD10C4A13780133DBB213701378DBB2072B06D90022074B1A7002E00022074B1A70044B1B78DBB2064AD45CE4B29E
:40178000FFF7FEFE204610BD1682FF1F1182FF1F1282FF1F0882FF1F08B501E0094B1B78094B1B7813F0200FF8D1FFF713FF0023064A1370064A1370064A1370FFF7E0FE64
:4017C00008BD00BF56640040686500401282FF1F1682FF1F1182FF1F08B500F01DFB0E4B1A7842F001021A701A7802F0FE021A7000F016FBFFF7E8FE0023084A1370084AA1
:401800001370084A1370084A137803F0FB031370FFF7B0FE08BD00BF966400401382FF1F1482FF1F1582FF1F8665004070B506460C46002506E0705DFFF712FF0135EDB2DF
:40184000013CE4B2002CF6D170BD00BF08B501E00A4B1B780A4B1B7813F0200FF8D100F0DBFA084B1A7842F001021A701A7802F0FE021A7000F0D4FA08BD00BF566400409A
:40188000686500409664004010B50F22174B1A70174C0823236007210320FFF7C1FC15490320FFF7A9FC0423236007210220FFF7B7FC11490220FFF79FFCFFF7C7FF00244A
:4018C0000E4B1C700E4B1C700E4B1C700E4B1C700E4B1C700E4B1C70FFF79AFEFFF7ACFE0C4B1C70202202331A7010BD8564004080E100E035190000D51900001282FF1F53
:401900001682FF1F1182FF1F1382FF1F1482FF1F1582FF1F8665004008B5054B1B7823B9FFF7B2FF0122024B1A70FFF72FFE08BD6D81FF1F28E01F4B19781F4A137803F0FE
:4019400009030B431370137813F0040F24D01B4B1B7813F0FF0F0CD1194A13780133DBB213701378DBB2072B06D90022144B1A7002E00022114B1A70114B1B78DBB2114AE7
:40198000D35CDBB2104A13700D4B1A78D2B20F4B1B78DBB29A42CED1094B1A78D2B20B4B1B78DBB29A4204D1094A137803F0FB0313707047666500401782FF1F1382FF1F1C
:4019C0001482FF1F1882FF1F466400401582FF1F86650040204B1A7820490B7803F0400313430B7032E01E4B1A78D2B21D490B780133DBB20B700B78DBB2072B02D90021CD
:401A0000184B1970174B1978C9B2174B1B78DBB299420ED114490B780133DBB20B700B78DBB2072B02D900210F4B197001210F4B19700C4B1B78DBB20D49CA54064B1A7800
:401A400006490B7803F0400313430B70034B1B7813F0200FC7D17047686500401082FF1F566400401182FF1F1682FF1F1282FF1F0882FF1F054A137843F0020313701032DC
:401A8000137843F002031370704700BFA2430040054A137803F0FD0313701032137803F0FD031370704700BFA2430040014B1B681865704708ED00E04001C0B2014B1870B8
:401AC000704700BF04E400E01022014B1A60704700E100E01022014B1A60704780E100E010B50446FFF7F6FF2046FFF7DFFF0720FFF7E2FFFFF7E8FF10BD00BF044A1378D4
:401B000003F0FD03400000F0020018431070704720510040024B1878C0F34000704700BF21510040084A137843F0010313701032137843F00103137002F64D32137843F0F2
:401B400001031370704700BFA3430040084A137803F0FE031370A2F65D32137803F0FE0313701032137803F0FE031370704700BF004F0040014B1870704700BF034F0040A0
:401B8000014B1878704700BF034F0040014B1880704700BF044F0040014B1880704700BF064F004008B5154A137803F0010313700232137803F0FC031370114B1A7802F030
:401BC000CF021A701A7842F030021A701A7802F0F0021A701A7842F00F021A70094A137843F0010313706320FFF7D0FF6320FFF7D3FF0820FFF7BEFF08BD00BF004F004092
:401C00000B4F0040014F004008B5054B1B7823B9FFF7C8FF0122024B1A70FFF783FF08BD6E81FF1F024B1B68C3F88400704700BF08ED00E04001C0B2014B1870704700BFA6
:401C400011E400E04FF40032014B1A60704700BF00E100E04FF40032014B1A60704700BF80E100E010B50446FFF7F4FF2046FFF7D9FF0720FFF7DEFFFFF7E4FF10BD00BFA0
:401C8000084A137843F0020313701032137843F00203137002F65932137843F001031370704700BFA3430040014B1870704700BF0F4F0040014B1878704700BF0F4F0040C8
:401CC000014B1880704700BF104F0040014B1880704700BF124F004008B5154A137803F0010313700232137803F0FC031370114B1A7802F0CF021A701A7842F030021A70E0
:401D00001A7802F0F0021A701A7842F00F021A70094A137843F0010313703120FFF7D0FF3120FFF7D3FF0820FFF7BEFF08BD00BF0C4F0040174F00400D4F004008B5054B34
:401D40001B7823B9FFF7C8FF0122024B1A70FFF797FF08BD6F81FF1F024B1B68C3F88800704700BF08ED00E04001C0B2014B1870704700BF12E400E04FF48022014B1A6002
:401D8000704700BF00E100E04FF48022014B1A60704700BF80E100E010B50446FFF7F4FF2046FFF7D9FF0720FFF7DEFFFFF7E4FF10BD00BF014B1B685865704708ED00E0E7
:401DC0004001C0B2014B1870704700BF05E400E02022014B1A60704700E100E02022014B1A60704780E100E010B50446FFF7F6FF2046FFF7DFFF0720FFF7E2FFFFF7E8FF8E
:401E000010BD00BF000000000230800803D000BF01380046FCD17047EFF3108072B6704780F31088704700BF014B1868704700BF4081FF1F0E4B70B51E460E4C0025E41A75
:401E4000A410A54204D056F8253098470135F8E700F0A4FD084B094C1E46E41AA4100025A54204D056F8253098470135F8E770BDA8290000A8290000A8290000B02900001D
:401E800010B5431E0A44914204D011F8014B03F8014FF8E710BD03460244934202D003F8011BFAE7704700000EB400B54FF402719CB0ADF814106FF00041049107914FF682
:401EC000FF711DAB02900690084853F8042BADF81610006802A9019300F064F8029B00221A701CB05DF804EB03B070474081FF1F2DE9F0478E6882469E420C469146984666
:401F00003ED88A8912F4906F3AD02568096902236F1A656905EB450595FBF3F57B1C43449D4238BF1D4653050FD5294600F040FB064698B13A462169FFF7A2FFA38923F496
:401F4000906343F08003A38113E02A4600F08EFB064670B92169504600F0DEFA0C23CAF80030A3894FF0FF3043F04003A381BDE8F08726613E44266046466561ED1BA560FC
:401F8000464528BF464649463246206800F0A8FAA36800209B1BA36023681E442660BDE8F08700002DE9F04F9DB003938B8980461C060D4616460DD50B695BB9402100F0F1
:401FC000F7FA2860286118B90C23C8F80030CDE040236B610023099320238DF82930DFF89CB130238DF82A3037463C4614F8013B1BB9B7EB060910D003E0252BF9D02746C8
:40200000F3E74B46324629464046FFF771FF013000F0A780099B4B4409933B78002B00F0A08000234FF0FF3204930793059206938DF853301A930126052221784E4800F047
:4020400041FA671C049B38B14B4A3C46801A06FA00F018430490EFE7D90644BF20228DF853201A0744BF2B228DF8532022782A2A03D0079A00210A200BE0039A111D126852
:402080000391002A10DA524243F00200079204900BE027463B780134303B092B03D800FB02320121F5E701B107923B782E2B1ED17B782A2B0AD1039B02371A1D1B6803920C
:4020C000002BB8BF4FF0FF33059310E0002319460593781C0A2407463A780130303A092A03D804FB01210123F5E703B1059103223978224800F0E6F940B14023CBEB00003D
:4021000003FA00F0049B013718430490397806221B487E1C8DF8281000F0D4F988B1194B33B9039B073323F007030833039314E003AB00932A46144B04A94046AFF30080F4
:4021400007E003AB00932A460F4B04A9404600F093F8B0F1FF3F824603D0099B5344099342E7AB895B0601D4099801E04FF0FF301DB0BDE8F08F00BF662900006C29000017
:402180007029000000000000F11E00002DE9F04791461F460A698B6806469342B8BF1346C9F8003091F843200C46DDF8208012B10133C9F800302368990642BFD9F80030DF
:4021C0000233C9F80030256815F0060510D104F1190A07E00123524639463046C04701301AD00135E368D9F800209B1A9D42F1DB94F843302268003318BF012392060FD564
:40220000E118302081F843005A1C94F845102244023382F8431003E04FF0FF30BDE8F08704F1430239463046C0470130F4D02268D9F80050E36802F00602042A08BF5D1BE5
:402240002269A3680CBF25EAE57500259342C4BF9B1AED184FF000091A344D4509D00123224639463046C0470130D5D009F10109F3E70020BDE8F0872DE9F04317460A7EB6
:4022800085B06E2A984606460C460C9B01F1430E00F0AE8011D8632A22D009D8002A00F0BB80582A40F0CA8081F84520834955E0642A1ED0692A1CD0C0E0732A00F0B080FC
:4022C00009D86F2A2ED0702A40F0B8800A6842F020020A603EE0752A24D0782A3AD0ADE01A6801F14205111D1960136884F84230A8E021681A6811F0800F02D0111D1960E3
:4023000008E011F0400F02F10401196002D0B2F9003000E01368002B3CDA2D225B4284F8432037E021681A6811F0800F02D0111D196007E011F0400F02F10401196001D03C
:40234000138800E01368227E5C496F2A14BF0A2208221BE078225A4984F845202268186812F0800F00F104051D6003D1550601D5038800E00368D00744BF42F020022260AA
:402380001BB9226822F0200222601022002084F8430001E049490A226568002DA56008DB206820F0040020602BB9002D7DD175460CE0002B79D07546B3FBF2F002FB103356
:4023C000CB5C05F8013D03460028F5D1082A0BD12368DA0708D5236962689A42DEBF302305F8013C05F1FF35C5EB0E0323612EE008681A6810F0800F496903D0101D186069
:40240000136808E010F0400F02F104001860136801D0198000E0196000232361754616E01A68111D1960156800216268284600F049F808B1401B6060636804E004F14205F6
:4024400084F8422001232361002384F84330CDF800803B4603AA21463046FFF797FE013002D14FF0FF3026E023692A4639463046C0470130F5D023689B0710D5002504F157
:40248000190907E001234A4639463046C0470130E7D00135E368039A9B1A9D42F2DBE068039B9842B8BF184605E00B7804F1420584F842308AE705B0BDE8F08377290000F7
:4024C0008829000010B5C9B202449042034605D01C7801308C42F8D1184610BD002010BD884210B501EB020301D8421E0BE09842FBD28118D21AD34204D013F8014D01F836
:40250000014DF8E710BD994204D011F8014B02F8014FF8E710BD000038B50546002944D051F8043C0C1F002BB8BFE41800F0D4F81E4A1368114613B96360146030E0A342F2
:402540000DD92268A018834201BF18685B681218226063600C6023E0A24203D813465A68002AF9D118681918A1420BD12168014458188242196013D1106852680144196000
:402580005A600DE002D90C232B6009E021686018824201BF106852680918216062605C602846BDE8384000F098B838BD7481FF1F70B5CD1C25F0030508350C2D38BF0C2583
:4025C000002D064601DBA94202D90C23336046E000F082F8234B1C681A462146A1B10B685B1B0ED40B2B03D90B60CC18CD501EE08C420BBF63684B681360636018BF0C46A7
:4026000015E00C464968E9E7174C23681BB9304600F052F820602946304600F04DF8431C18D0C41C24F00304A0420DD12560304600F053F804F10B00231D20F00700C31A5A
:402640000ED05A42E25070BD211A304600F034F80130EBD10C233360304600F03EF8002070BD00BF7481FF1F7081FF1FF8B5074615460E4621B91146BDE8F840FFF798BF37
:402680001AB9FFF749FF2846F8BD00F027F885420ED929463846FFF78BFF044650B131462A46FFF7EDFB31463846FFF735FF01E03046F8BD2046F8BD38B5064C00230546B9
:4026C00008462360FEF728FA431C02D1236803B12B6038BD2082FF1F7047704751F8040C0028BEBF091851F8043CC01804387047000000000F00E0FF020100002A2A2A2AC7
:402700002A2A2A2A2A20202020454550524F4D2054455354202020202A2A2A2A2A2A2A2A2A0D0A002A2A20454550524F4D2052656164203D202564202564202564200D0AA7
:40274000000000002A2A2A2A2A2A2A2A2A2A2A2A2A2A2A2A2A2A2A2A2A2A2A2A2A2A2A2A2A2A2A2A2A2A2A2A2A0D0A002A2A204C49533344482057484F204920414D20527E
:4027800045474953544552203D203078253032580D0A00002A2A204C4953334448204354524C20524547495354455220313D203078253032580D0A002A2A204C49533344D7
:4027C00048204354524C20524547495354455220343D203078253032580D0A002A2A204C4953334448204354524C20524547495354455220353D203078253032580D0A0023
:402800002A2A204C4953334448204649464F204354524C205245474953544552203D203078253032580D0A002A2A204C4953334448204354524C205245474953544552202F
:40284000333D203078253032580D0A002A2A204C495333444820494E542031204346472052454749535445523D203078253032580D0A00002A2A204C495333444820494E71
:402880005431205448532052454749535445523D203078253032580D0A0000002A2A204C4953334448204455524154494F4E2052454749535445523D203078253032580DED
:4028C0000A000000544852455348203078253032580D0A0077617465726D61726B200D0A000000005245442076616C75653A2025642C20475245454E2076616C75653A20EE
:4029000025642C20424C55452076616C75653A202564200D0A000000004F00401800405100403000F051004010000000014000100014014000048018014080030040014083
:40294000000A004C01400002005001402000000060520040B8090048060000180140C009004880004300232D302B2000686C4C00656667454647003031323334353637381C
:4029800039414243444546003031323334353637383961626364656600000000F8B500BFF8BC08BC9E4670474D000000950B0000F8B500BFF8BC08BC9E46704729000000D3
:4029C000D0290000C880FF1F80000000E0000000000000002882FF1F0000E02EC05D00001800000000366E0100000000000000000000000000000000000000000000000068
:402A00000000000000000000642900000000000000000000000000000000000000000000000000000000000000000000000000000000000000000000000000000000000009
:402A40000000000000000000E080FF1F00000000000000000000000000000000000000000000000000000000000000000000000000000000000000000000000000000000D8
:402A80000000000000000000000000000000000000000000000000000000000000000000000000000000000000000000000000000000000000000000000000000000000016
:402AC00000000000000000000000000000000000000000000000000000000000000000000000000000000000000000000000000000000000000000000000000000000000D6
:402B00000000000000000000000000000000000000000000000000000000000000000000000000000000000000000000000000000000000000000000000000000000000095
:402B40000000000000000000000000000000000000000000000000000000000000000000000000000000000000000000000000000000000000000000000000000000000055
:020000040003F7
:0200000480007A
:4000000001450040044F00400352004004640040036500404C0001402D0101404B020140490301404F040140460501406706014054070140040801400A090140020B014052
:40004000010D01404D140140501501405016014051170140251801403D190140161B0140064001400C410140114201400D43014004450140034601400347014009480140A7
:4000800008490140044C0140074D01400650014002510140640101400A270D501627012018601940800F840F850F870D850F87728938000201D9021D040305D906740820E0
:4000C00009D10B080C630D2E0E0C0F81102111D8125A1301152017D01CF01DD920F024F02524274928D029082A202B042C202D112ED02F22306033F03480361F370F3A80F3
:400100003BC83E105602572C580459045B045F0181D08402850E89D08DD08E0291D09525974A99249A019B899D209FD0A113A324A5D0AE02B201B30FB602B7F0B908BB8057
:40014000BE40D804D904DC16DF01004403880444050409800A800F0810221111158018401BD11E222002214822402504268029042B092E042F403002314836843711399506
:400180003C803D283E014A014B406380682269356A4071C08248C0AFC249C48FCACECCFBCEFFD801009802020301040208020A980C9A143816C018211AD81C9A20982202B0
:4001C0002413266428FC2A0332E0340F350136133A2854095604580459045B045C315F01810184A185018654880289018C638D168E8C8F0890C0930C9701980399089A3808
:400200009B129C129D01A012A301A412A51AA704A810AA02AC02AE10AF10B0E0B11CB301B41FB502B601B822B920BE40BF04D440D604D804D904DB04DF0100440120030824
:4002400006A2070408400A400B080E1910221101131015081711180419801A401B201D041E181F50210A2308262029082A413040314232083320384039253B103F024402F3
:4002800046015D205F46608261086210658183048481850C868487448D0190409125934094049605978099409B029F11A023A218A440A510A604A70CAB12C0F7C2EBC47F12
:4002C000CA0BCC0FCE8FD6F0D89FE644050133013F044025410442604401450E46FB47DC483D49FF4AFF4BFF4C224EF04F0C5004540159045A045B045D205F0162C06440F8
:4003000065016610671168C069016B116C406D016E406F01800181028404886089028C848F049302940A95029610988499089C849D02A004A280A309A480A604A856AA09A4
:40034000AB05AC07AE38AF02B108B280B301B504B67FB702B880BE04BF50D602D728D804D904DB04DC31DD10DF0104010504060A0B300E090F10158017151C111D08220423
:40038000268A27082C402F0636243741380839803B803DA03E02404648054B04525153085A085BA265086D206E0D6F457440760278407B0180118201860887808D419044C7
:4003C00093A09605970499049E739F15A005A230A440A510A709B004B102B302B708C0F0C2E0C4F0CAB0CCF0CEB2D00DD20CD60FD840E212EE60020209350B0A0E01150264
:40040000170D19291B162123231C3202330F3401351037203B083F504062410442304405450E46CF47DB483D49FF4AFF4BFF4C224EF04F085004580459045A045C135D01C2
:400440005F0162C0644065016610671168C069016B116C406D016E406F018404861889048A208E088F069011920293019406961997029A209C40A404B018B104B220B30148
:40048000B407B640B702BA20BE44C020C103C5D2C601C807C9FFCAFFCBFFCDA0CF04D018D280D405D804D904DA04DB04DC31DD33DF01E040E2C0E440E540E6C0E8C0EAC001
:4004C000ECC0EEC0006003140480068009200A0A0B90102014201620184019241B801F1422042382240426842C402F403102320435203604371038803B203F10412043048B
:40050000444045084710481049814A024D404F14504054A25628570259055B805D085E0866106708710283828402860288028C808E808F0191409390940897089B089C02C5
:400540009D089E289F30A108A213A541A703A804AB02B280C097C20FC404CA80CC63CE2CD0E6D230D60BE008E201E404B908BF04D904DF012108810886408E209604982060
:40058000B020E220E444E8808604E240E6040060047C05200601087F09200C670D200E181263130314241510170C19091A041B101C1C1D0C1E621F11201021102408251C6C
:4005C0002702281829142C403078311F3320361F3A824023410446BC470E481C49FF4AFF4BFF4EF04F44500C580459045A045C225D025F0166C06A406B02850687018C01F1
:40060000930397059A079B069F02A602AB01B004B201B402B707BB80D280D407D804D904DB04DC23DD30DF01012102200382044008050A090F0810A2131016201A011B0203
:400640001C441E20210822092580270328802A182F0831843211331034883504371239583E0840084309504452105D825E205F087680804083A2880589088A048C049158FA
:4006800092209310940895019603988899A29A289B089C049E809F20A0A2A220A30CA608A702A802AA08ACC0B204B702C08FC24FC42FCA27CCFFCE4ED007D6F0E001E4010E
:4006C000E644E802EA04EE030C011301160119011B023101340137024030410145D546024710482749FF4AFF4BFF4DA04F04501854095604580459045A045B045C665D133C
:400700005F01604062C06440654066C068C06AC06CC06EC083108710880789028C078D0494019709980499069A039B299C049D0E9E039F21A003A506A92FAA03AC02AD2940
:40074000AF06B004B110B30EB507B603B720B980BA20BB20BE01BF01D602D710D804D904DB04DC22DD20DF010120020403020701084409200A010E2010021101120819600A
:400780001A801F1020802120222423012501270129242B023040312032083610370138A43B01454046304D024F08554057015A805C205E425F0466026702681069586B046C
:4007C00070F0710473108004830C8408881089408B108E149240930694089602982099809A109B089E829F20A211A541A701A844AA40C083C227C40BCA0ECCAECE0FD05067
:40080000D6F8D890E001E22CE60985808713892C8B438F0C9B089D719F0EA171A306B1C0B30FB530B922BB08BF10C002C504C9FFCA07CBFFCC40CD20CEF0CF05D008D4180C
:40084000D904DA04DB04DC20DD22DF01E040E1A8E240E320045806800DA40F8017151D011E041F8120542401261027502BC02D803180322034403541371138583F154004CC
:40088000444047484A204C084E024F0450045504590260016210642066606780800481048280830187C089228B108C408E02960498209A60C0F0C2F0C470CA11CCBCCEEE3F
:4008C000D0D4D230D601D8FCE080E240E49081808305880889848A10930295089D809F04A210A408A580A810AB10AE30B140B708E280E420E680E880EC40301234083580E8
:400900003810CCF0CE103180630984108D8094109C189D80A402CC10D640D840E64050805610830187088C10941097019A109C08A080A402A580A704B210B480D460E2902B
:400940006B8077048002838484089B089C08A402A580A704DC60E280E690014003808140C00A8F80A380E20280018810E2048402898098029B08A402A580AB04E210EE2081
:400980005B085C0266018E0198029B08D6C0D880081090029C10C2021101700189019002C408DC01E601004F084B0A0F104E1A4E1C0600FF010F0000088C00004000000086
:4009C000E0060000000015080A0614000000080013000C1040002000E0040022130004082000C000030014008000200000020025E030000610010F08000080000000104147
:400A000036050400010C000E11FFFFFF62A0F0410C0000004000040004040404221200010000000000004002001030100010101200000000000000000000000000000000C2
:400A400000606000600000008400508C8C008C00000000008000408B8B0000000000000014000116120000000000000000E0E000E00000000000000000000000000000002B
:400A80000000000000000000000000000000000000000000000000000000000000000000000000000000000000000000000000000000000000000000000000000000000036
:400AC00000000000000000000000000000000000000000000000000000000000000000000000000000000000000000000000000000000000000000000000000000000000F6
:400B000000000000000000000000000000000000000000000000000000000000000000000000000000000000000000000000000000000000000000000000000000000000B5
:400B40000000000000000000000000000000000000000000000000000000000000000000000000000000000000000000000000000000000000000000000000000000000075
:0200000490006A
:0400000000004005B7
:0200000490105A
:04000000BC90ACAF55
:0200000490303A
:02000000EE67A9
:0200000490402A
:4000000000000000000000000000000000000000000000000000000000000000000000000000000000000000000000000000000000000000000000000000000000000000C0
:400040000000000000000000000000000000000000000000000000000000000000000000000000000000000000000000000000000000000000000000000000000000000080
:400080000000000000000000000000000000000000000000000000000000000000000000000000000000000000000000000000000000000000000000000000000000000040
:4000C0000000000000000000000000000000000000000000000000000000000000000000000000000000000000000000000000000000000000000000000000000000000000
:0200000490501A
:0C00000000012E16106900012E28FED011
:00000001FF