:400000000080002011000000990900009909000008B5044B1A6803F53F5302331A6000F0DBFC00BFFA46004010B5054C237833B9044B13B10448AFF300800123237010BD5C
:400040004881FF1F0000000018210000084B10B51BB108490848AFF300800848036803B910BD074B002BFBD0BDE81040184700BF000000004C81FF1F18210000C880FF1F90
:40008000000000002DE9F04786B062B601F032F800F0B6FE01F010FB00F048FA0A2000F0ADFFB34801F040F8B24B186804909B88ADF81430062204A9012000F067FA00F07A
:4000C00093FA062202A9012000F04EFABDF90820BDF90A30BDF90C10A74C0091A749204601F0F6FB204601F01FF8A54801F01CF80F2000F0C5F90246A249204601F0E8FB41
:40010000204601F011F82721202000F0CFF9202000F0B6F902469C49204601F0D9FB204601F002F80021232000F0C0F9232000F0A7F902469549204601F0CAFB204600F01F
:40014000F3FF4021242000F0B1F9242000F098F902468F49204601F0BBFB204600F0E4FF00212E2000F0A2F92E2000F089F9894D02462946204601F0ABFB204600F0D4FFB6
:4001800047212E2000F092F92E2000F079F902462946204601F09CFB204600F0C5FF4421222000F083F9222000F06AF902467A49204601F08DFB204600F0B6FF2A21302067
:4001C00000F074F9302000F05BF902467349204601F07EFB204600F0A7FF5C21322000F065F9322000F04CF902466D49204601F06FFB204600F098FF0321332000F056F938
:40020000332000F03DF902466649204601F060FB204600F089FF0025634B1D70634800F0CFFE2F462E46604B1B78DBB2012BFAD1312000F025F910F0400F09D04E4C0246E2
:400240005B49204601F044FB204600F06DFF83E0494C584B07CB20606160A2601B782373204600F061FF4FF000081CE0524C06222146282000F02EF92378627843EA02235D
:4002800005EBA3152DB2A378E27843EA022306EBA31636B22379627943EA022307EBA3131FB208F10108B8F1060FDFDD434B83FB05122A44ED17C5EBA2052DB283FB06123F
:4002C0003244F617C6EBA20636B283FB0723DA19FB17C3EBA2031FB2E90009B2F20012B2FB001BB2C1EB0121354880FB01E4C917C1EB2424002CB8BF6442E4B2C2EB022218
:4003000080FB0218D217C2EB2828B8F1000FB8BFC8F100085FFA88F8C3EB032380FB0329DB17C3EB2929B9F1000FB8BFC9F100095FFA89F9DFF840A0CDF800904346224641
:400340002049504601F0C4FA504600F0EDFE4A464146204600F0F0F80021134B19702E2000F0A4F847212E2000F0A0F85BE700BF242100001C2100008081FF1F4C210000DA
:400380006C21000094210000BC210000E0210000042200002822000050220000742200009C220000C4220000E481FF1FF5040000EC220000FC2200007881FF1F93244992B0
:4003C000D34D62100C2300002DE9F04383B006460C4617469846002000F0C0FD64B2002511E02146082CA8BF0821C9B206EBC50000F090FC00F080FB10F0010FFAD0083C8D
:4004000064B201356DB2002CEBDC00F093FC00F037FC0026009601964FFA88F820E0C146B8F1080FA8BF4FF008095FFA89F1684600F070FC00F060FB10F0010FFAD00024FC
:4004400006E004EBC60500F0E9FB78550134E4B24C45F6DBA8F108084FFA88F8013676B2B8F1000FDBDC012000F078FD00F062FC00F006FC00F024FC03B0BDE8F08300BF6E
:4004800000B583B000F03F0060F07F008DF8040002AA002302F8053D0123194601A8FFF793FF9DF8030003B05DF804FB00B583B000F03F008DF804008DF80510002302AA66
:4004C00002F8053D022101A8FFF77EFF03B05DF804FB00BF00B583B040F0C00302A800F8043D13460A460121FFF76EFF03B05DF804FB00BF08B50122024B1A7000F03AFD2B
:4005000008BD00BFE481FF1F08B5C043C0B200F03FFE08BD08B5C043C0B200F03FFE08BD08B5C043C0B200F0A9FE08BD08B500F083FE00F0EDFE08BD38B50D461446FFF780
:40054000E3FF2846FFF7E6FF2046FFF7E9FF38BD08B5052000F066F808BD00BF08B5062000F04AF808BD00BF10B582B003248DF80440030A8DF805308DF8060013460A46E8
:40058000214601A800F068F802B010BD2DE9F04182B000AF054688461446FFF7DFFF012000F042FDE61C04F10A0323F00703ADEB030D02238DF800302B0A8DF801308DF88A
:4005C0000250224641460DF1030001F06DF9002307F1080202F8013DF1B2684600F03CF80837BD46BDE8F08108B5FFF7B1FF10F0010FFAD108BD00BF10B50446002000F057
:4006000095FE204600F0FCFE00F0D2FE10F0080FFAD000F05FFF0446012000F087FE204610BD00BF10B50446002000F07FFE204600F0E6FE002000F0E3FE00F0B9FE10F0A8
:40064000010FFAD000F046FF00F044FF0446012000F06CFE204610BD2DE9F04383B006460C4617469846002000F060FE64B2002511E02146082CA8BF0821C9B206EBC500F5
:4006800000F0A4FF00F094FE10F0010FFAD0083C64B201356DB2002CEBDC00F0A7FF00F04BFF0026009601964FFA88F820E0C146B8F1080FA8BF4FF008095FFA89F16846BE
:4006C00000F084FF00F074FE10F0010FFAD0002406E004EBC60500F0FDFE78550134E4B24C45F6DBA8F108084FFA88F8013676B2B8F1000FDBDC012000F018FE00F076FFD6
:4007000000F01AFF00F038FF03B0BDE8F08300BFFEE700BFF0B40022174611E050F82760F3B226F0FF0608E001EB420511F812406D78A5550132013BDBB2002BF4D101373F
:400740001F2FEBD9F0BC7047064B1B78DBB203F00701054A11701B09013213704422034B1A707047CF0100496E5800407658004008B50A46002101F0A2F808BD38B50B2234
:400780002B4B1A8018232B490B7002310A802A4A13703321023211800232137040F2AF4102321180023213700222244B1A7008224FF040231A70032103F500731970204BE7
:4007C0001B78DBB21F490B701F4B1A8041F25122023B1A80002419250CE01C4B1B7803F0010343EA440404F003044FF4F07001F01FF8013D0DB1032CEFD115B90320FFF749
:4008000087FF134B4FF480721A8007221A70002210490A704820023108701A700222033B1A700D4A137843F00F03137038BD00BF80400040824000408640004000430040EB
:4008400008010049A146004022420040254200400440004006400040A243004008B501F023F808BD38B572B6384A137843F00403137000240CE0364D630019194A0011464F
:400880002A44084691882858FFF772FF0134E4B2072CF0D900240BE02D48A20011194B0003441A8F596B186BFFF7D8FF0134E4B2022CF1D927494FF09040FFF72BFF264A44
:4008C000137843F0020313701032137843F002031370224C237843F040032370A2F58632513A137843F01003137008221C491D48FFF7B4FF0A221C491C48FFF7AFFF0A2288
:400900001B491C48FFF7AAFF0A221B491B48FFF7A5FF08221A491B48FFF7A0FF1A4A137843F008031370194D61232B70FFF726FF81232B700122164B1A70FFF705FF0E2277
:4009400021461448FFF78AFF38BD00BFE8460040402300008000004803500140A04300404C0800480251004054080048C051004060080048105100406C080048205100404F
:400980007808004832510040224300400048004004000840B043004008B500F059FF03680C2B00D1FEE7FEE708B5094B1A681044084BC31A802B02DC054B186005E000F081
:4009C00047FF0C2303604FF0FF32104608BD00BFCC80FF1F2082FF1F08B5104E104D16E029686B68AC68002204E051F8040B43F8040B0432A242F8D1E868002203E00021C4
:400A000043F8041B04328242F9D11035013E002EE6D100F023FFFFF735FBFEE701000000E823000008B5104A104B1A60104A136843F40073136000230AE0032B03D80D4ABB
:400A400052F8231000E00C490C4A42F8231001332F2BF2D90A4B1A780A4B1A70074A0A4B1A60FFF7FFFE08BD0004FA050CED00E014ED00E000000000990900000080FF1F0D
:400A8000BC760040C080FF1F08ED00E00222014B1A60704700E100E00122014B1A60704700E100E008B500F0CBFE0C4A137843F0200313700432137843F010031370013AD9
:400AC000137843F01003137000F0BEFE00F086FAFFF7DCFFFFF7E0FF08BD00BF906400400222014B1A60704780E100E00122014B1A60704780E100E010B5FFF7F1FF064B69
:400B00001C78064A137803F009031C4300231370FFF7BCFF204610BD64640040E881FF1F10B5FFF7E3FF064B1B78064A147804F040041C4300231370FFF7AEFF204610BD5F
:400B400063640040F981FF1F10B504462B4B1A7802F0FF0312B1013BDBB200E00723284A1278D2B29342F1D0FFF7BAFF254B1978254A137803F009030B4313701F4B1A78A9
:400B8000D2B21F4B1B78DBB29A4207D11E4B1B7813F0040F02D01D4B1C702CE0184A13780133DBB213701378DBB2072B02D90022134B1A70124B1A78D2B2104B1B78DBB241
:400BC0009A420ED10D4A13780133DBB213701378DBB2072B02D90022084B1A7001220C4B1A70074B1B78DBB20A4AD4540A4A137843F004031370FFF749FF10BDFA81FF1FBE
:400C0000F881FF1F64640040E881FF1F40640040F481FF1FEC81FF1F8464004010B5FFF765FF134B1A78D2B2124B1B78DBB29A4214D0114B1B7813F0FF0F0CD10C4A1378D6
:400C40000133DBB213701378DBB2072B06D90022074B1A7002E00022074B1A70044B1B78DBB2064AD45CE4B2FFF716FF204610BDF781FF1FF581FF1FF681FF1FFC81FF1F0C
:400C800008B501E0094B1B78094B1B7813F0200FF8D1FFF72BFF0023064A1370064A1370064A1370FFF7F8FE08BD00BF5064004063640040F681FF1FF781FF1FF581FF1FE7
:400CC00008B500F0BDFD0E4B1A7842F001021A701A7802F0FE021A7000F0B6FDFFF700FF0023084A1370084A1370084A1370084A137803F0FB031370FFF7C8FE08BD00BF0A
:400D000090640040F481FF1FFA81FF1FF881FF1F8464004070B506460C46002506E0705DFFF712FF0135EDB2013CE4B2002CF6D170BD00BF08B501E00A4B1B780A4B1B78FD
:400D400013F0200FF8D100F07BFD084B1A7842F001021A701A7802F0FE021A7000F074FD08BD00BF50640040636400409064004010B50F22174B1A70174C02232360072135
:400D8000012000F06FF91549012000F057F9012323600721002000F065F91149002000F04DF9FFF7C7FF00240E4B1C700E4B1C700E4B1C700E4B1C700E4B1C700E4B1C70D0
:400DC000FFF79AFEFFF7ACFE0C4B1C702022013B1A7010BD8064004080E100E01D0E0000BD0E0000F681FF1FF781FF1FF581FF1FF481FF1FFA81FF1FF881FF1F8464004008
:400E000008B5054B1B7823B9FFF7B2FF0122024B1A70FFF747FE08BD6481FF1F28E01F4B19781F4A137803F009030B431370137813F0040F24D01B4B1B7813F0FF0F0CD14F
:400E4000194A13780133DBB213701378DBB2072B06D90022144B1A7002E00022114B1A70114B1B78DBB2114AD35CDBB2104A13700D4B1A78D2B20F4B1B78DBB29A42CED14F
:400E8000094B1A78D2B20B4B1B78DBB29A4204D1094A137803F0FB031370704764640040E881FF1FF481FF1FFA81FF1FEC81FF1F40640040F881FF1F84640040204B1A78B2
:400EC00020490B7803F0400313430B7032E01E4B1A78D2B21D490B780133DBB20B700B78DBB2072B02D90021184B1970174B1978C9B2174B1B78DBB299420ED114490B7895
:400F00000133DBB20B700B78DBB2072B02D900210F4B197001210F4B19700C4B1B78DBB20D49CA54064B1A7806490B7803F0400313430B70034B1B7813F0200FC7D1704746
:400F400063640040F981FF1F50640040F581FF1FF781FF1FF681FF1FFC81FF1F044A137803F07F03C001C0B218431070704700BF10510040024B1878C0F30010704700BFFB
:400F80008C450040014B1B68D866704708ED00E04001C0B2014B1870704700BF0BE400E04FF40062014B1A60704700BF00E100E04FF40062014B1A60704700BF80E100E0F7
:400FC00010B50446FFF7F4FF2046FFF7DBFF0720FFF7DEFFFFF7E4FF10BD00BF054A137843F0010313701032137843F001031370704700BFA243004001BE704710B5044629
:4010000005E0084B186800F013FCA4F50044B4F5004FF6D8034B586800FB04F000F008FC10BD00BFD080FF1F08B5034B1B7A00FB03F000F0FDFB08BDD080FF1F70B5044653
:401040000E46074B1D681F2802D90020FFF7D4FF04F01F04103455F8240045F8246070BD08ED00E038B504460D46072902D90020FFF7C2FF1F2C02D90020FFF7BDFF04F053
:401080001F0000F1604000F564406D01EDB2057038BD00BF7222084B1A702022A3F580731A700622643B1A70472210331A70002253331A70704700BF8765004010B500F0D9
:4010C000BFFB04460A4A137843F020031370A2F58072137843F010031370013A137843F01003137000F032F8204600F0ADFB10BD9765004008B5054B1B7823B9FFF7CAFF6C
:401100000122024B1A70FFF7D9FF08BD6581FF1F034B1B7813F0040FFAD1024B18707047666400404664004038B5074B1B782BB938BDFFF7EDFF0134A4B201E00546002474
:40114000285D0028F5D138BD6581FF1F054A137843F0040313701032137843F004031370704700BFA2430040024A137843F080031370704774650040014B1870704700BF1D
:4011800005650040014B1870704700BF45650040014B1870704700BF25650040014B1870704700BF35650040014B1870704700BF85650040014B1878704700BF6565004049
:4011C000014B1878704700BF5565004008B501E0FFF7F6FFFFF7EEFF10F0100FF8D108BD10B5134A137803F0C00343F009031370104C237843F001032370FF20FFF7BCFFD4
:40120000FF20FFF7BFFFFF20FFF7C2FFFF20FFF7C5FF0020FFF7C8FF00F012FB237843F01003237000F010FBFFF7D0FF10BD00BF746500409565004008B5054B1B7823B9C3
:40124000FFF7CEFF0122024B1A70FFF78DFF08BD6781FF1F024A137843F080031370704775650040014B1870704700BF06650040014B1870704700BF46650040014B187085
:40128000704700BF26650040014B1870704700BF86650040014B1878704700BF66650040014B1878704700BF5665004008B501E0FFF7F6FFFFF7EEFF10F0100FF8D108BDB5
:4012C00010B5114A137803F0C00343F0090313700E4C237843F001032370FF20FFF7C2FFFF20FFF7C5FF0020FFF7C8FF0020FFF7CBFF00F0A5FA237843F01003237000F0AD
:40130000A3FAFFF7D3FF10BD756500409665004008B5054B1B7823B9FFF7D2FF0122024B1A70FFF797FF08BD6881FF1F044A137803F0EF03000100F0100018431070704740
:40134000205100400822014B1A60704700E100E00422014B1A60704700E100E008B500F06FFA0C4A137843F020031370013A137843F0100313700432137843F01003137007
:4013800000F062FA00F046FAFFF7DCFFFFF7E0FF08BD00BF926400400822014B1A60704780E100E00422014B1A60704780E100E010B5FFF7F1FF064B1C78064A137803F027
:4013C00009031C4300231370FFF7BCFF204610BD616400401382FF1F10B5FFF7E3FF064B1B78064A147804F040041C4300231370FFF7AEFF204610BD656400400C82FF1F1B
:4014000010B504462B4B1A7802F0FF0312B1013BDBB200E00723284A1278D2B29342F1D0FFF7BAFF254B1978254A137803F009030B4313701F4B1A78D2B21F4B1B78DBB271
:401440009A4207D11E4B1B7813F0040F02D01D4B1C702CE0184A13780133DBB213701378DBB2072B02D90022134B1A70124B1A78D2B2104B1B78DBB29A420ED10D4A1378E9
:401480000133DBB213701378DBB2072B02D90022084B1A7001220C4B1A70074B1B78DBB20A4AD4540A4A137843F004031370FFF749FF10BD1082FF1F1182FF1F61640040C5
:4014C0001382FF1F426400400F82FF1F1482FF1F8164004010B5FFF765FF134B1A78D2B2124B1B78DBB29A4214D0114B1B7813F0FF0F0CD10C4A13780133DBB2137013786E
:40150000DBB2072B06D90022074B1A7002E00022074B1A70044B1B78DBB2064AD45CE4B2FFF716FF204610BD1282FF1F0D82FF1F0E82FF1F0482FF1F08B501E0094B1B7836
:40154000094B1B7813F0200FF8D1FFF72BFF0023064A1370064A1370064A1370FFF7F8FE08BD00BF52640040656400400E82FF1F1282FF1F0D82FF1F08B500F061F90E4BF1
:401580001A7842F001021A701A7802F0FE021A7000F05AF9FFF700FF0023084A1370084A1370084A1370084A137803F0FB031370FFF7C8FE08BD00BF926400400F82FF1F7C
:4015C0001082FF1F1182FF1F8164004070B506460C46002506E0705DFFF712FF0135EDB2013CE4B2002CF6D170BD00BF08B501E00A4B1B780A4B1B7813F0200FF8D100F0E3
:401600001FF9084B1A7842F001021A701A7802F0FE021A7000F018F908BD00BF52640040656400409264004010B50F22174B1A70174C0823236007210320FFF713FD154984
:401640000320FFF7FBFC0423236007210220FFF709FD11490220FFF7F1FCFFF7C7FF00240E4B1C700E4B1C700E4B1C700E4B1C700E4B1C700E4B1C70FFF79AFEFFF7ACFE9F
:401680000C4B1C70202204331A7010BD8264004080E100E0D5160000751700000E82FF1F1282FF1F0D82FF1F0F82FF1F1082FF1F1182FF1F8164004008B5054B1B7823B9DB
:4016C000FFF7B2FF0122024B1A70FFF747FE08BD6981FF1F28E01F4B19781F4A137803F009030B431370137813F0040F24D01B4B1B7813F0FF0F0CD1194A13780133DBB24F
:4017000013701378DBB2072B06D90022144B1A7002E00022114B1A70114B1B78DBB2114AD35CDBB2104A13700D4B1A78D2B20F4B1B78DBB29A42CED1094B1A78D2B20B4B75
:401740001B78DBB29A4204D1094A137803F0FB0313707047616400401382FF1F0F82FF1F1082FF1F1482FF1F426400401182FF1F81640040204B1A7820490B7803F04003E9
:4017800013430B7032E01E4B1A78D2B21D490B780133DBB20B700B78DBB2072B02D90021184B1970174B1978C9B2174B1B78DBB299420ED114490B780133DBB20B700B782F
:4017C000DBB2072B02D900210F4B197001210F4B19700C4B1B78DBB20D49CA54064B1A7806490B7803F0400313430B70034B1B7813F0200FC7D17047656400400C82FF1F88
:40180000526400400D82FF1F1282FF1F0E82FF1F0482FF1F054A137843F0020313701032137843F002031370704700BFA24300400230800803D000BF01380046FCD17047FA
:40184000EFF3108072B6704780F31088704700BF014B1868704700BF4081FF1F0E4B70B51E460E4C0025E41AA410A54204D056F8253098470135F8E700F0A4FD084B094CD7
:401880001E46E41AA4100025A54204D056F8253098470135F8E770BDD0230000D0230000D0230000D823000010B5431E0A44914204D011F8014B03F8014FF8E710BD0346EA
:4018C0000244934202D003F8011BFAE7704700000EB400B54FF402719CB0ADF814106FF00041049107914FF6FF711DAB02900690084853F8042BADF81610006802A901935C
:4019000000F064F8029B00221A701CB05DF804EB03B070474081FF1F2DE9F0478E6882469E420C46914698463ED88A8912F4906F3AD02568096902236F1A656905EB4505DA
:4019400095FBF3F57B1C43449D4238BF1D4653050FD5294600F040FB064698B13A462169FFF7A2FFA38923F4906343F08003A38113E02A4600F08EFB064670B9216950460B
:4019800000F0DEFA0C23CAF80030A3894FF0FF3043F04003A381BDE8F08726613E44266046466561ED1BA560464528BF464649463246206800F0A8FAA36800209B1BA360FD
:4019C00023681E442660BDE8F08700002DE9F04F9DB003938B8980461C060D4616460DD50B695BB9402100F0F7FA2860286118B90C23C8F80030CDE040236B61002309932D
:401A000020238DF82930DFF89CB130238DF82A3037463C4614F8013B1BB9B7EB060910D003E0252BF9D02746F3E74B46324629464046FFF771FF013000F0A780099B4B4461
:401A400009933B78002B00F0A08000234FF0FF3204930793059206938DF853301A930126052221784E4800F041FA671C049B38B14B4A3C46801A06FA00F018430490EFE71A
:401A8000D90644BF20228DF853201A0744BF2B228DF8532022782A2A03D0079A00210A200BE0039A111D12680391002A10DA524243F00200079204900BE027463B780134E6
:401AC000303B092B03D800FB02320121F5E701B107923B782E2B1ED17B782A2B0AD1039B02371A1D1B680392002BB8BF4FF0FF33059310E0002319460593781C0A240746EC
:401B00003A780130303A092A03D804FB01210123F5E703B1059103223978224800F0E6F940B14023CBEB000003FA00F0049B013718430490397806221B487E1C8DF8281080
:401B400000F0D4F988B1194B33B9039B073323F007030833039314E003AB00932A46144B04A94046AFF3008007E003AB00932A460F4B04A9404600F093F8B0F1FF3F8246B9
:401B800003D0099B5344099342E7AB895B0601D4099801E04FF0FF301DB0BDE8F08F00BF90230000962300009A23000000000000191900002DE9F04791461F460A698B68FE
:401BC00006469342B8BF1346C9F8003091F843200C46DDF8208012B10133C9F800302368990642BFD9F800300233C9F80030256815F0060510D104F1190A07E001235246DD
:401C000039463046C04701301AD00135E368D9F800209B1A9D42F1DB94F843302268003318BF012392060FD5E118302081F843005A1C94F845102244023382F8431003E0E1
:401C40004FF0FF30BDE8F08704F1430239463046C0470130F4D02268D9F80050E36802F00602042A08BF5D1B2269A3680CBF25EAE57500259342C4BF9B1AED184FF0000909
:401C80001A344D4509D00123224639463046C0470130D5D009F10109F3E70020BDE8F0872DE9F04317460A7E85B06E2A984606460C460C9B01F1430E00F0AE8011D8632AFE
:401CC00022D009D8002A00F0BB80582A40F0CA8081F84520834955E0642A1ED0692A1CD0C0E0732A00F0B08009D86F2A2ED0702A40F0B8800A6842F020020A603EE0752A22
:401D000024D0782A3AD0ADE01A6801F14205111D1960136884F84230A8E021681A6811F0800F02D0111D196008E011F0400F02F10401196002D0B2F9003000E01368002B33
:401D40003CDA2D225B4284F8432037E021681A6811F0800F02D0111D196007E011F0400F02F10401196001D0138800E01368227E5C496F2A14BF0A2208221BE078225A49A9
:401D800084F845202268186812F0800F00F104051D6003D1550601D5038800E00368D00744BF42F0200222601BB9226822F0200222601022002084F8430001E049490A22E1
:401DC0006568002DA56008DB206820F0040020602BB9002D7DD175460CE0002B79D07546B3FBF2F002FB1033CB5C05F8013D03460028F5D1082A0BD12368DA0708D5236964
:401E000062689A42DEBF302305F8013C05F1FF35C5EB0E0323612EE008681A6810F0800F496903D0101D1860136808E010F0400F02F104001860136801D0198000E019604B
:401E400000232361754616E01A68111D1960156800216268284600F049F808B1401B6060636804E004F1420584F8422001232361002384F84330CDF800803B4603AA2146A9
:401E80003046FFF797FE013002D14FF0FF3026E023692A4639463046C0470130F5D023689B0710D5002504F1190907E001234A4639463046C0470130E7D00135E368039AD0
:401EC0009B1A9D42F2DBE068039B9842B8BF184605E00B7804F1420584F842308AE705B0BDE8F083A1230000B223000010B5C9B202449042034605D01C7801308C42F8D1B1
:401F0000184610BD002010BD884210B501EB020301D8421E0BE09842FBD28118D21AD34204D013F8014D01F8014DF8E710BD994204D011F8014B02F8014FF8E710BD00008A
:401F400038B50546002944D051F8043C0C1F002BB8BFE41800F0D4F81E4A1368114613B96360146030E0A3420DD92268A018834201BF18685B681218226063600C6023E0DE
:401F8000A24203D813465A68002AF9D118681918A1420BD12168014458188242196013D110685268014419605A600DE002D90C232B6009E021686018824201BF10685268B8
:401FC0000918216062605C602846BDE8384000F098B838BD7081FF1F70B5CD1C25F0030508350C2D38BF0C25002D064601DBA94202D90C23336046E000F082F8234B1C68CA
:402000001A462146A1B10B685B1B0ED40B2B03D90B60CC18CD501EE08C420BBF63684B681360636018BF0C4615E00C464968E9E7174C23681BB9304600F052F820602946A2
:40204000304600F04DF8431C18D0C41C24F00304A0420DD12560304600F053F804F10B00231D20F00700C31A0ED05A42E25070BD211A304600F034F80130EBD10C233360F4
:40208000304600F03EF8002070BD00BF7081FF1F6C81FF1FF8B5074615460E4621B91146BDE8F840FFF798BF1AB9FFF749FF2846F8BD00F027F885420ED929463846FFF786
:4020C0008BFF044650B131462A46FFF7EDFB31463846FFF735FF01E03046F8BD2046F8BD38B5064C0023054608462360FEF75CFC431C02D1236803B12B6038BD1C82FF1F88
:402100007047704751F8040C0028BEBF091851F8043CC01804387047000000000F00E0FF020100002A2A2A2A2A2A2A2A2A20202020454550524F4D2054455354202020202B
:402140002A2A2A2A2A2A2A2A2A0D0A002A2A20454550524F4D2052656164203D202564202564202564200D0A000000002A2A2A2A2A2A2A2A2A2A2A2A2A2A2A2A2A2A2A2A1F
:402180002A2A2A2A2A2A2A2A2A2A2A2A2A2A2A2A2A0D0A002A2A204C49533344482057484F204920414D205245474953544552203D203078253032580D0A00002A2A204C9E
:4021C0004953334448204354524C20524547495354455220313D203078253032580D0A002A2A204C4953334448204354524C20524547495354455220343D20307825303289
:40220000580D0A002A2A204C4953334448204354524C20524547495354455220353D203078253032580D0A002A2A204C4953334448204649464F204354524C2052454749EF
:4022400053544552203D203078253032580D0A002A2A204C4953334448204354524C20524547495354455220333D203078253032580D0A002A2A204C495333444820494EF0
:40228000542031204346472052454749535445523D203078253032580D0A00002A2A204C495333444820494E5431205448532052454749535445523D203078253032580D2D
:4022C0000A0000002A2A204C4953334448204455524154494F4E2052454749535445523D203078253032580D0A000000544852455348203078253032580D0A007761746576
:40230000726D61726B200D0A000000005245442076616C75653A2025642C20475245454E2076616C75653A2025642C20424C55452076616C75653A202564200D0A000000A6
:40234000405100403000F0510040100080000140800180020140800D00140140000800400140000A004C0140000200500140200060520040440700480600000001404C07F2
:402380000048800000020140CC07004880004300232D302B2000686C4C0065666745464700303132333435363738394142434445460030313233343536373839616263640C
:4023C00065660000F8B500BFF8BC08BC9E4670474D000000250A0000F8B500BFF8BC08BC9E46704729000000F8230000C880FF1F80000000D8000000000000002082FF1FD6
:402400000000E02EC05D00001800000000366E0100000000000000000000000000000000000000000000000000000000000000008E23000000000000000000000000000003
:40244000000000000000000000000000000000000000000000000000000000000000000000000000000000000000000000000000E080FF1F000000000000000000000000DE
:40248000000000000000000000000000000000000000000000000000000000000000000000000000000000000000000000000000000000000000000000000000000000001C
:4024C00000000000000000000000000000000000000000000000000000000000000000000000000000000000000000000000000000000000000000000000000000000000DC
:40250000000000000000000000000000000000000000000000000000000000000000000000000000000000000000000000000000000000000000000000000000000000009B
:40254000000000000000000000000000000000000000000000000000000000000000000000000000000000000000000000000000000000000000000000000000000000005B
:020000040003F7
:0200000480007A
:40000000014500400452004004640040036500400A00014038010140140201404803014051040140490501405A06014044070140010B0140010D0140631401404915014067
:40004000561601403A17014001190140011B01400740014008410140094201400543014003450140034601400147014009490140064C0140074D01400550014001510140E2
:4000800064010020012018A01920800F820F860F8738850F860D87729B019F01B101BF01D409D604D904DB04DD10DF0100480244080109080A421068138019421A021B1086
:4000C0002008210122102602280129022A042C402D02310832103340350236A13840391640444104488449044A01510852585C805E015F1461406742682969146A406BC071
:4001000073017A027B018740C00FC20DC40FCA0BCC3ECE0FD007D20CD6F0D898C004C640C9FFCA07CBFFCC40CD20CEF0CF05D008D440D604DA04DB04DD02DF01E040E1A8D1
:40014000E240E32004220540060807500C010E291541160217041C201D481F11240A2614280129802E012F223401361437403D603E0841024508460847024C054D014F0440
:4001800051115620570A6251632067086D606E116F34758082018480850487109301944495089716984099049A509B809C80A0ADA208A311A410A6A0AA04AB01AC10AE0120
:4001C000C0F0C2F0C4B0CAD0CCF0CE70D0E1D230D82FE2080002010802500301048305070638080209070C210E94110213041C831E2C2052245228502A022C52301F310336
:400200003280330C34403620380A390A3E503F0154095604580459045B045C205F018043810D820C8380854287088809898D8A668C108D028F0D94059540966A980299626C
:400240009A0D9B149D119E209F22A18DA58DAB80AD8DB20FB370B410B580B660B70FBA08BB88BE10BF10D440D604D804D904DB04DC11DD10DF01004A0124020804A2074035
:4002800008400B0C0E220F0410281381184419501B041E061F0421022310242025642D802E012F283301340436103740381839023D883E124520460859666180634064022A
:4002C0006628678080028112830887408B40900291229211930194649708984499849A229B80A0ADA218A329A502A6A0AC04AF12B140B302C0DFC2E1C40FCAF0CC71CEF7CC
:40030000D60FD8F9E680EA800430060C084009600A030B800C1C0E22115C122013831409156116101796181019611B8E1C2C1E112620270828142B1C2FA33240331A341F17
:4003400035F03620370F3BA83E444035410245E046C0470B481A49FF4AFF4BFF4EF04F44500C5401580459045A045B045C225D225F0166C06A406B028570870988028A01B9
:400380008B808C038D558F2290039106971898029A019F20A16BA314A780B002B107B201B338B580B740B808B902BE01BF50D418D804D904DB04DC02DD20DF010120030277
:4003C0000408051007010A880C1A0D110E020F10162419091D101F4420042188220224182729284029082C1A3080310832023729384039043B203E3047284BC04C424D0136
:4004000056245A025D015E145F40600463028D089062912692049310949898409F01A080A210A301A580A6A0AB04B601C0E3C2FAC460CA73CCEBCE2ED060D210D6F1D80C1C
:40044000E610EA10EA20E20803040B0B0C440E3114E7150118011A0E1B02208024E728222A51306031023280330834073504361837013E40404341054202440146EC480C0D
:4004800049FF4AFF4BFF4C624DA04EF04F41500C5280580459045A045B045C325D325F016640670269106A306B106D106E106F128208870C8B08900491019A07A707AA01EE
:4004C000B002B101B204B304B408B508B601B702BF10C030C106C5D5C620C701C81BC9FFCAFFCBFFCDA0CF04D018D280D407D804D904DA04DB04DC33DD33DF01E040E2C0AA
:40050000E440E540E6C0E8C0EAC0ECC0EEC0004007400A240E800F081004110413021520184119201A141B081D101EA01F8021592304242027892E083118370138023980A7
:400540003A103B403D083F24400542104302450448014F295280531056085710581059105E205F8970017740809081208501878088048920900491049220944097609A100C
:400580009B029C90A001A302A520A680A708C011C256C44ECA40CC86CE65D04FD228D6F00003020408040A09100E1405160A1A102610300F341038023E104030410545D272
:4005C0004612480F49FF4AFF4BFF4DA04F045018540558045A045B045C015D335F01604062C06440654066C068C06AC06CC06EC08110840F8508862089188A238C238D80CC
:400600008E0C902F91FF940C953C962397C2980199449A109C039DC0A008A1E7A318A404A51CA7E1A80CABE3AC02AF04B00FB1C0B31FB42CB538B610BA22BB88D602D7133D
:40064000D804D904DB04DC22DD20DF01032A042208C109280A800EA00F08108011401328141019A21B221E8820062108226529822B28304131203204384039403A2A441018
:400680004F895610574059015E085F4169046A206B027080722A73289022968A972099019D20A210A6A0A702A810AA01B304C057C27FC42FCA0FCC0FCE0FD040D210D6D16A
:4006C000E880E68032083310364037028702CCF0E6406302652083109F10A648D640D880E2205280568086408A089D20A648B301D460E6408E809E80AA80B520EE20000811
:400700008601C0089601B004EA04960158085C04641080048418D6C0D880E220E6500A019601A001B001C202E801108074018880A001C408DE04E601000708070A07100EF7
:400740001A0E00FF888C000040000000002080D021D95A00F0D10008032474492000D00020080004002E008102D91D0063110C22F0D90000D0002000F0D8000160F0000056
:40078000800F1F0000008032000010004605200003BEFD0C1FFFFFFF2200F00C040000000000022004040404000000010000C00040011011C00100114001400100000000AD
:4007C0000000000000000000000000000700380084FC00035602099801980002849A00000A3810C0042100D884130064609A0000809804020000000004028000020080E07B
:40080000080F7F1380000028000015006205300004BEF0CD3BFFFFFF2200F008040000000000022404040404111100010000C00040011011C0010011400140010000000017
:4008400000000000000000000000000000606000600000008400508C8C008C00000000008000408B8B0000000000000010000110100000000000000000E0E000E000000039
:400880000000000000000000000000000000000000000000000000000000000000000000000000000000000000000000000000000000000000000000000000000000000038
:4008C00000000000000000000000000000000000000000000000000000000000000000000000000000000000000000000000000000000000000000000000000000000000F8
:4009000000000000000000000000000000000000000000000000000000000000000000000000000000000000000000000000000000000000000000000000000000000000B7
:400940000000000000000000000000000000000000000000000000000000000000000000000000000000000000000000000000000000000000000000000000000000000077
:0200000490006A
:0400000000004005B7
:0200000490105A
:04000000BC90ACAF55
:0200000490303A
:02000000EF34DB
:0200000490402A
:4000000000000000000000000000000000000000000000000000000000000000000000000000000000000000000000000000000000000000000000000000000000000000C0
:400040000000000000000000000000000000000000000000000000000000000000000000000000000000000000000000000000000000000000000000000000000000000080
:400080000000000000000000000000000000000000000000000000000000000000000000000000000000000000000000000000000000000000000000000000000000000040
:4000C0000000000000000000000000000000000000000000000000000000000000000000000000000000000000000000000000000000000000000000000000000000000000
:0200000490501A
:0C00000000012E16106900012E25FF9D46
:00000001FF