:400000000080002011000000691100006911000008B5044B1A6803F53F5302331A6001F0C3F800BFFA46004010B5054C237833B9044B13B10448AFF300800123237010BDC7
:400040004881FF1F00000000A43D0000084B10B51BB108490848AFF300800848036803B910BD074B002BFBD0BDE81040184700BF000000004C81FF1FA43D0000C880FF1F40
:4000800000000000000000002DE9F047A4B062B601F03CFC01F0B4FA01F030FF00F08EFD02F07AFB02F0E4FD0A2001F0B5FBA84C4322A849204603F03DFA204601F040FCB2
:4000C0004D22A549204603F035FA204601F038FCA24B186822909B88ADF88C30062222A9202000F0B7FD00F0E3FD062220A9202000F09EFDBDF98020BDF98230BDF9841082
:4001000000919749204603F029FA204601F018FC0F2000F0CDFB02469249204603F01EFA204601F00DFC3721202000F0D7FB202000F0BEFB02468C49204603F00FFA204664
:4001400001F0FEFB0021232000F0C8FB232000F0AFFB02468549204603F000FA204601F0EFFB4021242000F0B9FB242000F0A0FB02467F49204603F0F1F9204601F0E0FB5A
:4001800000212E2000F0AAFB2E2000F091FB02467849204603F0E2F9204601F0D1FB47212E2000F09BFB2E2000F082FB02467249204603F0D3F9204601F0C2FB4421222037
:4001C00000F08CFB222000F073FB02466B49204603F0C4F9204601F0B3FB2A21302000F07DFB302000F064FB02466549204603F0B5F9204601F0A4FB5221322000F06EFB1E
:40020000322000F055FB02465E49204603F0A6F9204601F095FB0421332000F05FFB332000F046FB02465849204603F097F9204601F086FB02F068FC544C2070217801202E
:4002400000F0DAFC00F034FD237813F0FF0F0BD022784F4B1B783E4C4E49204603F07EF9204601F06DFB0BE0484B1A78484B1B78374C4949204603F071F9204601F060FBD9
:40028000464801F05DFB0A2001F0C6FAA0238DF81030C0238DF81730414801F091FA414801F002FF404801F0C1FF404802F06CF83F4802F091F83F4802F050FC3E4802F07F
:4002C00005FD02F07DFA0A2001F0A6FA0023304A13703A4A13703A4A13703A4A13703A4A13703A4A13703A4A13703A4A137000F0EBFF324B1B7813F0FF0F09D0364B1978A1
:40030000002000F079FC00F0D3FC00222B4B1A702B4B1B7813F0FF0F6ED01C4C2178012000F06AFC00F0C4FC0022254B1A70237813F0FF0F54D02278154B1B78044C27499E
:40034000204603F00BF9204601F0FAFA54E000BF9081FF1FB03D0000F43D0000A83D0000443E0000803E0000AC3E0000D43E0000FC3E0000243F00005C3F0000943F000069
:40038000BC3F0000E83F000010400000FA81FF1FF581FF1F3840000090400000E44000002509000039090000AD0A0000C10A0000510900006D0B00008D0B0000F981FF1F3E
:4003C0008E81FF1F8F81FF1FF481FF1FF681FF1FF881FF1F8D81FF1FF781FF1FF44000009B4B1A789B4B1B789B4C9C49204603F0B5F8204601F0A4FA994B1B7813F0FF0FAD
:4004000011D0984B1B7813F0FF0F0CD0914B1A78914C9549204603F0A1F8204601F090FA0022904B1A70914B1B78DBB2012B7FF460AF8F4B1B78DBB2012B7FF45AAF884BD6
:400440001B7813F0FF0F7FF454AF312000F030FA10F0400F00F0EE807F4D864C0FCC28606960AA60EB6020682861A388AB82284601F066FA062212A9282000F043FA002586
:400480002C460EE02F2000F013FA202807D0062206AB1919282000F035FA0135EDB20134E4B2072CEED9013D072D00F29480DFE805F0042A49607179828A06221AA98020D9
:4004C00000F0C8FB00F0F4FB06220DF16E01862000F0C0FB00F0ECFB06221DA98C2000F0B9FB00F0E5FB06220DF17A01922000F0B1FB00F0DDFB062206A9982000F0AAFBC4
:4005000000F0D6FB67E006220DF16E01802000F0A1FB00F0CDFB06221DA9862000F09AFB00F0C6FB06220DF17A018C2000F092FB00F0BEFB0C2206A9922000F08BFB00F008
:40054000B7FB48E006221DA9802000F083FB00F0AFFB06220DF17A01862000F07BFB00F0A7FB122206A98C2000F074FB00F0A0FB31E006220DF17A01802000F06BFB00F0BB
:4005800097FB18220DEB0201862000F063FB00F08FFB20E01E2206A9802000F05BFB00F087FB18E01E220DEB0201802000F052FB00F07EFB0FE01E2209A9802000F04AFB90
:4005C00000F076FB07E01E220DF12A01802000F041FB00F06DFB00212E2000F07FF947212E2000F07BF902F001FBC0F56A40603002F0DCFC14A3D3E9002302F03DFD02F0DA
:400600004DFF1D4B1A784FF4966302FB0300030E8DF80C30030C8DF80D30030A8DF80E308DF80F00042203A9022000F013FB00F03FFBD0E0062212A9282000F063F90024CA
:400640002546274626464DE07B14AE47E17A943FFA81FF1FF581FF1F9081FF1F48410000F881FF1F8D81FF1F98410000F481FF1FF681FF1FB44100008F81FF1F062214ABA4
:400680001919282000F03EF924AB234413F8403C621C24A9114411F8401C43EA012343F389131E4436B2A31C24A90B4413F8403CE11C24A8014411F8401C43EA012343F30E
:4006C00089133B441FB2231D034413F8403C0534044414F8401C43EA012343F389132B441DB21446072CC9DD00212E2000F0F6F847212E2000F0F2F8394801F021F93346A1
:40070000002E00DAF31D43F3CF093B46002F00DAFB1D43F3CF082B46002D00DAEB1D43F3CF074FEA89091FFA89F90FFA89F44FEA88081FFA88F80FFA88F6BF00BFB23DB264
:40074000DFF8B0A00095334622462649504602F005FF504601F0F4F8234B1B7813F0FF0F15D08DF81190C4F307238DF812308DF81380C6F307238DF814308DF81570C5F323
:4007800007238DF81630082104A801F0EBF8C4EB0424164A82FB0430E417C4EBE0100028B8BF4042C6EB062382FB0341DB17C3EBE1110029B8BF4942C5EB052382FB034206
:4007C000DB17C3EBE212002AB8BF5242D2B2C9B2C0B200F0F9F90022054B1A7089E500BFCC410000D8410000F581FF1FD34D6210F481FF1F9081FF1F2DE9F04383B00646DE
:400800000C4617469846002000F0A8FF64B2002511E02146082CA8BF0821C9B206EBC50000F078FE00F068FD10F0010FFAD0083C64B201356DB2002CEBDC00F07BFE00F05C
:400840001FFE0026009601964FFA88F820E0C146B8F1080FA8BF4FF008095FFA89F1684600F058FE00F048FD10F0010FFAD0002406E004EBC60500F0D1FD78550134E4B2D1
:400880004C45F6DBA8F108084FFA88F8013676B2B8F1000FDBDC012000F060FF00F04AFE00F0EEFD00F00CFE03B0BDE8F08300BF00B583B000F03F0060F07F008DF8040020
:4008C00002AA002302F8053D0123194601A8FFF793FF9DF8030003B05DF804FB00B583B000F03F008DF804008DF80510002302AA02F8053D022101A8FFF77EFF03B05DF80E
:4009000004FB00BF00B583B040F0C00302A800F8043D13460A460121FFF76EFF03B05DF804FB00BF08B50122024B1A7000F022FF08BD00BFF481FF1F08B501F0EBFB01F0E3
:40094000F5FC0022014B1A6008BD00BF6481FF1F38B5504B1B68052B45DD4F4B1B7813F0FF0F12D101234C4A13704C4A11784C4A11704C4A137000221146104600F024F931
:4009800000F0A2FC01F0D2FC29E0434B1B78DBB2012B24D10022404B1A70434B1B7813F0FF0F03D1104601F08DFB0DE03E4B1B78DBB2012B08D1012001F084FB00F05AFC94
:4009C00000F0FCF801F054FC374B1A78334B1B7843EAC213324A13700122324B1A7000222C4B1A7138BD052B52DC2B4B1B7813F0FF0F4DD1274B1B79012B09D013B1022BD7
:400A000041D038BD0122234B1A7101F0E1FB38BD254B1B7813F0FF0F15D100F02BFC00F0CDF801F025FC204D01242C70204601F049FB2A78194B1B7843EAC213184A1370B1
:400A4000184B1C701BE0184B1B78DBB2012B16D1154D00242C70204601F034FB2A780F4B1B7843EAC2130E4A137001220D4B1A7022462146204600F0A7F800F025FC0022E6
:400A8000044B1A7138BD0122024B1A7101F0A0FB38BD00BF6481FF1FF881FF1FF581FF1FF781FF1FF981FF1FF681FF1F08B50222024B1A7101F048FB08BD00BF6481FF1FC7
:400AC00008B501F0EFFB234A136801331360224B1B78DBB2012B3BD101F000FBB0FA80F0400901F0EFFA01F0C9FE1C4B1860002801DA00221A60194B1B68B3F5803F03DB7F
:400B00004FF6FF72154B1A60154B1B7813F0FF0F1ED0124B1A6847F6FE739A4205DC0020104B187001F0E4FF04E001200D4B187001F0DEFF074B5A790A4B1B78DBB29A42E9
:400B400002D00122084B1A70064B1A78014B5A7108BD00BF6481FF1FF881FF1FFC81FF1FFA81FF1FF581FF1F8D81FF1F08B501F0D3FF01F0C9FF034B18700122024B1A708E
:400B800008BD00BFFA81FF1F8E81FF1F08B502F00DF8034A13780133DBB2137008BD00BF8F81FF1F08B500F013FF08BD08B500F015FF08BD08B500F081FF08BD08B500F0C0
:400BC0005BFF00F0C7FF08BD38B50D461446FFF7E9FF2846FFF7EAFF2046FFF7EBFF38BD08B5052000F082F808BD00BF08B5062000F066F808BD00BF30B583B004460D46E6
:400C0000FFF7F4FF02238DF80430230A8DF805308DF806408DF80750002302AA02F8053D04210DEB010000F07BF803B030BD00BF10B582B003248DF80440030A8DF80530C6
:400C40008DF8060013460A46214601A800F068F802B010BD2DE9F04182B000AF054688461446FFF7C3FF012000F0ECFDE61C04F10A0323F00703ADEB030D02238DF8003071
:400C80002B0A8DF801308DF80250224641460DF1030002F04FFC002307F1080202F8013DF1B2684600F03CF80837BD46BDE8F08108B5FFF795FF10F0010FFAD108BD00BF75
:400CC00010B50446002000F053FF204600F0BAFF00F090FF10F0080FFAD001F01DF80446012000F045FF204610BD00BF10B50446002000F03DFF204600F0A4FF002000F019
:400D0000A1FF00F077FF10F0010FFAD001F004F801F002F80446012000F02AFF204610BD2DE9F04383B006460C4617469846002000F01EFF64B2002511E02146082CA8BF94
:400D40000821C9B206EBC50001F062F800F052FF10F0010FFAD0083C64B201356DB2002CEBDC01F065F801F009F80026009601964FFA88F820E0C146B8F1080FA8BF4FF048
:400D800008095FFA89F1684601F042F800F032FF10F0010FFAD0002406E004EBC60500F0BBFF78550134E4B24C45F6DBA8F108084FFA88F8013676B2B8F1000FDBDC0120B2
:400DC00000F0D6FE01F034F800F0D8FF00F0F6FF03B0BDE8F08300BFFEE700BFF0B40022174611E050F82760F3B226F0FF0608E001EB420511F812406D78A5550132013BD1
:400E0000DBB2002BF4D10137242FEBD9F0BC70470A4B1B78DBB203F00701094A11701B09013213700822074B1A708023064A1370583213704422054B1A707047CF010049CC
:400E40006E5800403D510040005B00407658004008B50A46002102F078FB08BD08B502F069FB08BD38B5504C2578EDB200224F4B1A80502202331A700B234D4A13801822E7
:400E80004C490A7002310B804B4B1A70192304310B8002310A7040F2AF400231088002310A7043F69721454A11800232137047F22F5102321180023213704EF65F2102321E
:400EC00011800232137004223D493E48FFF7C6FF02223D4B1A7008224FF040231A70F32203F20A331A70032323708422374B1A700522013B1A70364C04E04FF4F07001F00E
:400F0000F3FE013C24B1334B1B7813F0200FF4D0254B1D700322A3F593631A702E4B1B78DBB22E4A137008222D4B1A8041F25122023B1A80002419250CE02A4B1B7803F0D7
:400F4000010343EA440404F003044FF4F07001F0CBFE013D0DB1032CEFD115B90320FFF73BFF214B4FF480721A8007221A7000221E490A704820023108701A700222033BA4
:400F80001A7004220A331A7003F297331A78FF221A70174A137843F001031370013A137843F08003137038BD984600408040004084400040864000408A40004094400040DE
:400FC000A0090048004100400043004009430040A08601000843004008010049A146004022420040254200400440004006400040A1430040012807D8044B53F8202018448E
:40100000017A13780B431370704700BFF4410000012808D8044B53F820201844017A137823EA010313707047F441000038B572B6394A137843F00403137000240BE03748FB
:4010400063001A19510001440A46098AD068FFF7FFFE0134E4B2092CF1D900240CE02F48A20011194B000344B3F85020D96C986CFFF7F4FE0134E4B2022CF0D928494FF0C9
:401080009040FFF7ABFE0A24264B1C70264A137843F0020313701032137843F002031370224D2B7843F040032B70A2F58632513A137843F01003137008221D491D48FFF71C
:4010C000CDFE22461C491D48FFF7C8FE22461C491C48FFF7C3FE22461B491C48FFF7BEFE08221B491B48FFF7B9FE1B4A137843F008031370194C61232370FFF7B3FE812357
:4011000023700122164B1A70FFF782FE0E2229461448FFF7A3FE38BDE8460040F4410000940000488358004003500140A04300406C0900480251004074090048C05100405A
:4011400080090048105100408C090048205100409809004832510040224300400048004004000840B043004008B502F0B7F903680C2B00D1FEE7FEE708B5094B1A68104494
:40118000084BC31A802B02DC054B186005E002F0A5F90C2303604FF0FF32104608BD00BFCC80FF1F4082FF1F08B5104E104D16E029686B68AC68002204E051F8040B43F894
:4011C000040B0432A242F8D1E868002203E0002143F8041B04328242F9D11035013E002EE6D102F081F9FEF74FFFFEE701000000B442000008B5104A104B1A60104A1368B4
:4012000043F40073136000230AE0032B03D80D4A52F8231000E00C490C4A42F8231001332F2BF2D90A4B1A780A4B1A70074A0A4B1A60FFF7FBFE08BD0004FA050CED00E0E0
:4012400014ED00E000000000691100000080FF1FBC760040C080FF1F08ED00E00222014B1A60704700E100E00122014B1A60704700E100E008B501F03FFD0C4A137843F00F
:401280002003137002F58372137843F010031370013A137843F01003137001F031FD00F09DFAFFF7DBFFFFF7DFFF08BD916400400222014B1A60704780E100E00122014B24
:4012C0001A60704780E100E008B501F015FD094A137803F0EF031370013A137803F0EF03137001F00DFD00F087FAFFF7E1FFFFF7E5FF08BD9765004010B5FFF7D9FF064B47
:401300001C78064A137803F009031C4300231370FFF7A4FF204610BD676500400082FF1F10B5FFF7CBFF064B1B78064A147804F040041C4300231370FFF796FF204610BD82
:40134000666500401182FF1F10B504462B4B1A7802F0FF0312B1013BDBB200E00723284A1278D2B29342F1D0FFF7A2FF254B1978254A137803F009030B4313701F4B1A789C
:40138000D2B21F4B1B78DBB29A4207D11E4B1B7813F0040F02D01D4B1C702CE0184A13780133DBB213701378DBB2072B02D90022134B1A70124B1A78D2B2104B1B78DBB239
:4013C0009A420ED10D4A13780133DBB213701378DBB2072B02D90022084B1A7001220C4B1A70074B1B78DBB20A4AD4540A4A137843F004031370FFF731FF10BD1282FF1FB5
:401400001082FF1F676500400082FF1F476400400C82FF1F0482FF1F8765004010B5FFF74DFF134B1A78D2B2124B1B78DBB29A4214D0114B1B7813F0FF0F0CD10C4A137873
:401440000133DBB213701378DBB2072B06D90022074B1A7002E00022074B1A70044B1B78DBB2064AD45CE4B2FFF7FEFE204610BD0F82FF1F0D82FF1F0E82FF1F1482FF1FB9
:4014800008B501E0094B1B78094B1B7813F0200FF8D1FFF713FF0023064A1370064A1370064A1370FFF7E0FE08BD00BF57640040666500400E82FF1F0F82FF1F0D82FF1FB9
:4014C00008B501F019FC0E4B1A7842F001021A701A7802F0FE021A7001F012FCFFF7E8FE0023084A1370084A1370084A1370084A137803F0FB031370FFF7B0FE08BD00BF7B
:40150000976400400C82FF1F1282FF1F1082FF1F8765004070B506460C46002506E0705DFFF712FF0135EDB2013CE4B2002CF6D170BD00BF08B501E00A4B1B780A4B1B789F
:4015400013F0200FF8D101F0D7FB084B1A7842F001021A701A7802F0FE021A7001F0D0FB08BD00BF57640040666500409764004010B50F22174B1A70174C02232360072165
:40158000012000F07DF91549012000F065F9012323600721002000F073F91149002000F05BF9FFF7C7FF00240E4B1C700E4B1C700E4B1C700E4B1C700E4B1C700E4B1C7090
:4015C000FFF79AFEFFF7ACFE0C4B1C702022013B1A7010BD8164004080E100E01D160000BD1600000E82FF1F0F82FF1F0D82FF1F0C82FF1F1282FF1F1082FF1F8765004055
:4016000008B5054B1B7823B9FFF7B2FF0122024B1A70FFF72FFE08BD6A81FF1F28E01F4B19781F4A137803F009030B431370137813F0040F24D01B4B1B7813F0FF0F0CD159
:40164000194A13780133DBB213701378DBB2072B06D90022144B1A7002E00022114B1A70114B1B78DBB2114AD35CDBB2104A13700D4B1A78D2B20F4B1B78DBB29A42CED147
:40168000094B1A78D2B20B4B1B78DBB29A4204D1094A137803F0FB0313707047676500400082FF1F0C82FF1F1282FF1F0482FF1F476400401082FF1F87650040204B1A781E
:4016C00020490B7803F0400313430B7032E01E4B1A78D2B21D490B780133DBB20B700B78DBB2072B02D90021184B1970174B1978C9B2174B1B78DBB299420ED114490B788D
:401700000133DBB20B700B78DBB2072B02D900210F4B197001210F4B19700C4B1B78DBB20D49CA54064B1A7806490B7803F0400313430B70034B1B7813F0200FC7D170473E
:40174000666500401182FF1F576400400D82FF1F0F82FF1F0E82FF1F1482FF1F044A137803F07F03C001C0B218431070704700BF10510040024B1878C0F30010704700BF6B
:401780008C450040014B1B68D866704708ED00E04001C0B2014B1870704700BF0BE400E04FF40062014B1A60704700BF00E100E04FF40062014B1A60704700BF80E100E0EF
:4017C00010B50446FFF7F4FF2046FFF7DBFF0720FFF7DEFFFFF7E4FF10BD00BF054A137843F0020313701032137843F002031370704700BFA2430040054A137803F0FD03D7
:4018000013701032137803F0FD031370704700BFA243004001BE704710B5044605E0084B186801F061FAA4F50044B4F5004FF6D8034B586800FB04F001F056FA10BD00BF51
:40184000D080FF1F08B5034B1B7A00FB03F001F04BFA08BDD080FF1F70B504460E46074B1D681F2802D90020FFF7D4FF04F01F04103455F8240045F8246070BD08ED00E0CF
:4018800038B504460D46072902D90020FFF7C2FF1F2C02D90020FFF7BDFF04F01F0000F1604000F564406D01EDB2057038BD00BF7222074B1A702022FD331A7006225F3B23
:4018C0001A70472210331A70002250331A7070478764004010B501F00FFA04460A4A137843F020031370FD32137843F0100313700132137843F01003137000F047F82046B7
:4019000001F0FEF910BD00BF9764004008B5054B1B7823B9FFF7CCFF0122024B1A70FFF7D9FF08BD6B81FF1F034B1B7813F0040FFAD1024B187070476565004046650040E1
:4019400038B5074B1B782BB938BDFFF7EDFF0134A4B201E005460024285D0028F5D138BD6B81FF1F084B1B7833B97047305DFFF7DBFF0134E4B203E070B50D460646002411
:40198000AC42F3D370BD00BF6B81FF1F054A137843F0080313701032137843F008031370704700BFA2430040024A137843F080031370704776640040014B1870704700BF8E
:4019C00005640040014B1870704700BF45640040014B1870704700BF25640040014B1870704700BF35640040014B1870704700BF85640040014B1878704700BF6564004007
:401A0000014B1878704700BF5564004008B501E0FFF7F6FFFFF7EEFF10F0100FF8D108BD10B5134A137803F0C00343F01B031370104C237843F001032370FF20FFF7BCFF7A
:401A4000FF20FFF7BFFF0020FFF7C2FF0020FFF7C5FF0020FFF7C8FF01F04EF9237843F01003237001F04CF9FFF7D0FF10BD00BF766400409564004008B5054B1B7823B903
:401A8000FFF7CEFF0122024B1A70FFF78DFF08BD6D81FF1F024A137843F080031370704775640040014B1870704700BF02640040014B1870704700BF42640040014B187042
:401AC000704700BF22640040014B1870704700BF86640040014B1878704700BF66640040014B1878704700BF5264004008B501E0FFF7F6FFFFF7EEFF10F0100FF8D108BD79
:401B000008B5124A137803F0C00343F00B0313701D32137843F001031370FF20FFF7C2FFFF20FFF7C5FF0020FFF7C8FF0020FFF7CBFF01F0E1F8064A137843F01003137019
:401B400001F0DEF8FFF7D2FF08BD00BF756400409664004008B5054B1B7823B9FFF7D0FF0122024B1A70FFF795FF08BD6E81FF1F044A137803F0EF03000100F0100018434F
:401B800010707047205100400822014B1A60704700E100E00422014B1A60704700E100E008B501F0A9F80C4A137843F0200313700332137843F0100313700132137843F0EE
:401BC0001003137001F09CF800F046FAFFF7DCFFFFF7E0FF08BD00BF906400400822014B1A60704780E100E00422014B1A60704780E100E010B5FFF7F1FF064B1C78064A90
:401C0000137803F009031C4300231370FFF7BCFF204610BD636400402B82FF1F10B5FFF7E3FF064B1B78064A147804F040041C4300231370FFF7AEFF204610BD64640040E7
:401C40002482FF1F10B504462B4B1A7802F0FF0312B1013BDBB200E00723284A1278D2B29342F1D0FFF7BAFF254B1978254A137803F009030B4313701F4B1A78D2B21F4B85
:401C80001B78DBB29A4207D11E4B1B7813F0040F02D01D4B1C702CE0184A13780133DBB213701378DBB2072B02D90022134B1A70124B1A78D2B2104B1B78DBB29A420ED163
:401CC0000D4A13780133DBB213701378DBB2072B02D90022084B1A7001220C4B1A70074B1B78DBB20A4AD4540A4A137843F004031370FFF749FF10BD2882FF1F2982FF1F70
:401D0000636400402B82FF1F436400402782FF1F2C82FF1F8364004010B5FFF765FF134B1A78D2B2124B1B78DBB29A4214D0114B1B7813F0FF0F0CD10C4A13780133DBB2E1
:401D400013701378DBB2072B06D90022074B1A7002E00022074B1A70044B1B78DBB2064AD45CE4B2FFF716FF204610BD2A82FF1F2582FF1F2682FF1F1C82FF1F08B501E067
:401D8000094B1B78094B1B7813F0200FF8D1FFF72BFF0023064A1370064A1370064A1370FFF7F8FE08BD00BF53640040646400402682FF1F2A82FF1F2582FF1F08B500F02D
:401DC0009BFF0E4B1A7842F001021A701A7802F0FE021A7000F094FFFFF700FF0023084A1370084A1370084A1370084A137803F0FB031370FFF7C8FE08BD00BF93640040AF
:401E00002782FF1F2882FF1F2982FF1F8364004070B506460C46002506E0705DFFF712FF0135EDB2013CE4B2002CF6D170BD00BF08B501E00A4B1B780A4B1B7813F0200F5A
:401E4000F8D100F059FF084B1A7842F001021A701A7802F0FE021A7000F052FF08BD00BF53640040646400409364004010B50F22174B1A70174C0823236007210320FFF770
:401E8000FFFC15490320FFF7E7FC0423236007210220FFF7F5FC11490220FFF7DDFCFFF7C7FF00240E4B1C700E4B1C700E4B1C700E4B1C700E4B1C700E4B1C70FFF79AFEDB
:401EC000FFF7ACFE0C4B1C70202201331A7010BD8064004080E100E0191F0000B91F00002682FF1F2A82FF1F2582FF1F2782FF1F2882FF1F2982FF1F8364004008B5054B3C
:401F00001B7823B9FFF7B2FF0122024B1A70FFF747FE08BD6F81FF1F28E01F4B19781F4A137803F009030B431370137813F0040F24D01B4B1B7813F0FF0F0CD1194A137852
:401F40000133DBB213701378DBB2072B06D90022144B1A7002E00022114B1A70114B1B78DBB2114AD35CDBB2104A13700D4B1A78D2B20F4B1B78DBB29A42CED1094B1A7846
:401F8000D2B20B4B1B78DBB29A4204D1094A137803F0FB0313707047636400402B82FF1F2782FF1F2882FF1F2C82FF1F436400402982FF1F83640040204B1A7820490B7880
:401FC00003F0400313430B7032E01E4B1A78D2B21D490B780133DBB20B700B78DBB2072B02D90021184B1970174B1978C9B2174B1B78DBB299420ED114490B780133DBB2AF
:402000000B700B78DBB2072B02D900210F4B197001210F4B19700C4B1B78DBB20D49CA54064B1A7806490B7803F0400313430B70034B1B7813F0200FC7D1704764640040EE
:402040002482FF1F536400402582FF1F2A82FF1F2682FF1F1C82FF1F054A137843F0040313701032137843F004031370704700BFA2430040014B1B681865704708ED00E000
:402080004001C0B2014B1870704700BF04E400E01022014B1A60704700E100E01022014B1A60704780E100E010B50446FFF7F6FF2046FFF7DFFF0720FFF7E2FFFFF7E8FFEC
:4020C00010BD00BF044A137803F0FD03400000F0020018431070704720510040024B1878C0F34000704700BF21510040084A137843F0020313701032137843F002031370FB
:4021000002F65932137843F001031370704700BFA3430040084A137803F0FE031370A2F66932137803F0FD0313701032137803F0FD031370704700BF0C4F0040014B18708B
:40214000704700BF0F4F0040014B1878704700BF0F4F0040014B1880704700BF104F0040014B1880704700BF124F004008B5154A137803F0010313700232137803F0FC0395
:402180001370114B1A7802F0CF021A701A7842F030021A701A7802F0F0021A701A7842F00F021A70094A137843F0010313706320FFF7D0FF6320FFF7D3FF0820FFF7BEFF7C
:4021C00008BD00BF0C4F0040174F00400D4F004008B5054B1B7823B9FFF7C8FF0122024B1A70FFF783FF08BD7081FF1F024B1B68C3F88800704700BF08ED00E04001C0B2EE
:40220000014B1870704700BF12E400E04FF48022014B1A60704700BF00E100E04FF48022014B1A60704700BF80E100E010B50446FFF7F4FF2046FFF7D9FF0720FFF7DEFF14
:40224000FFF7E4FF10BD00BF084A137843F0040313701032137843F00403137002F66532137843F001031370704700BFA3430040084A137803F0FE031370A2F67532137847
:4022800003F0FB0313701032137803F0FB031370704700BF184F0040014B1870704700BF1B4F0040014B1878704700BF1B4F0040014B1880704700BF1C4F0040014B188073
:4022C000704700BF1E4F004008B5154A137803F0010313700232137803F0FC031370114B1A7802F0CF021A701A7842F030021A701A7802F0F0021A701A7842F00F021A704C
:40230000094A137843F0010313703120FFF7D0FF3120FFF7D3FF0820FFF7BEFF08BD00BF184F0040234F0040194F004008B5054B1B7823B9FFF7C8FF0122024B1A70FFF74D
:4023400083FF08BD7181FF1F024B1B68C3F88C00704700BF08ED00E04001C0B2014B1870704700BF13E400E04FF40022014B1A60704700BF00E100E04FF40022014B1A6043
:40238000704700BF80E100E010B50446FFF7F4FF2046FFF7D9FF0720FFF7DEFFFFF7E4FF10BD00BF014B1B685865704708ED00E04001C0B2014B1870704700BF05E400E0FD
:4023C0002022014B1A60704700E100E02022014B1A60704780E100E010B50446FFF7F6FF2046FFF7DFFF0720FFF7E2FFFFF7E8FF10BD00BF10B59DF80840012C51D1013898
:4024000009282ED8DFE800F0052D2D052D2D0F192D230F2B03D92548007840B222E02448007840B21EE00F2B03D92248007840B218E02148007840B214E00F2B03D91F488F
:40244000007840B20EE01E48007840B20AE00F2B03D91C48007840B204E01B48007840B200E0002001EB401101FB02F1C90B8AB20D2B0BD8C3F10E0289B211418AB2611E52
:40248000124800EB810101338B7005E0631E0F4901EB83030F219970013C0C4B23F8242010BD0020FFF7B6F910BD00BF180100491C010049190100491D0100491A010049B6
:4024C0001E0100491B0100491F0100497481FF1FF8B5074600F010FC06460D4D2B7843F003032B700B4C237843F0030323700A4B1F700320FFF7A6F92B7803F0FC032B70F6
:40250000237803F0FC032370304600F0F9FBF8BDF8460040F9460040925800400022324B1A7101285FD170B53822304B1A70042202331A70062201331A70002401331C708F
:4025400001331C703F2201331A7002331C7001331C7001331C7001250A331D70502203F527631A700A2201331A702C2201331A7001331C70442203331A70482201331A70C9
:4025800001331D7002331D70112201331A70192201331A70972201331A705220FFF798FF5822134B1A7001331C70052605331E70022201331A7001331C7001331C7020465D
:4025C00000F082F943F233320A4B1A602946304600F09EF92946252000F01EFA06491D20FFF73AF970BD70477481FF1F004E0040945800403482FF1FA5280000F0B583B000
:40260000284D01272F70284E00247471102000F06DF9102000F0EEF907211D20FFF730F90422224B1A7001331C7007331C70204A137843F0180313701E4B1C7003F2F52363
:402640001C7001331C700A22A3F209331A7001331C7002331C705B2205331A705E2201331A7004331C701422A3F68C231A70009710234FF4004248F6F0510220FFF7BAFE20
:402680002B78013B06EB83039A780B4B1A702B78013B36F82320094B1A802878FFF73EFF03B0F0BDE080FF1F7481FF1F96580040075B0040935800400E4E00400C4E00409F
:4026C00070B500F019FB06462A4B1B782A4B1A7842F001021A701A7842F010021A7010331A7842F001021A701A7842F010021A70224D2B7843F002032B70214C237843F023
:40270000020323701F4A137843F0030313700320FFF798F82B7803F0FD032B70237803F0FD032370184A137843F0060313707A22164B1A70164A137843F00103137010323C
:40274000137843F0010313700F3A137843F0010313701032137843F0010313704FF000530C4A1360A2F5C0721360304600F0C8FA70BD00BFE080FF1FAA430040F84600402B
:40278000F9460040915800407758004082580040A143004080E200E008B5084B9B794BB9064BDB7913F0FF0F01D1FFF727FF0122024B9A71FFF784FF08BD00BF7481FF1F8B
:4027C000024A137843F0010313707047004E0040024A137803F0FE0313707047004E0040094B1B7913F0FF0F03D0074B5B79DBB203E0064B1B7803F00103012B01D000280E
:40280000EED01846704700BF7481FF1F014E0040154B1B7803F00303012B07D8134B1888023B1B889BB243EA004013E0022B0AD10E4B1888023B1B7843EA00430C4A1078C3
:4028400043EA002006E00B4B188883B2074A108843EA0040084B1B7913F0FF0F02D00022054B5A71704700BF144E0040124E0040114E0040104E00407481FF1F10B5084A7E
:40288000137843F004031370FFF79AFF0020FFF7A7FFFFF7BDFF0446FFF79AFF204610BD014E0040704700BF10B5002404E02046FEF7AEFB0134E4B2012CF8D9FF22014BBB
:4028C0001A7010BDE180FF1F10B50446FFF7ECFF2046FEF78FFB014B1C7010BDE180FF1F014B188880B2704780400040034B1A7800F0F80010431870704700BF8240004019
:40290000024B187800F00700704700BF8240004070B505460E46FFF7F3FF0446FFF7E0FFA84256D02B4B1B7803F0010294B900B185B938B9284B1D80284A137803F0BF0382
:40294000137070BD254A137843F040031370224B1D8070BD22B3002321490B7001240F310C7004310B700C390B7803F07F030B701A4B1B7813F0080F00D08DB9194B188033
:402980000721013B1970164B1B7813F0010FFAD110490B7803F0FE030B700021104B19700C4B1B7813F0010F0DD00E4B1D800EB1032200E001220A4B1A70094B1B7813F088
:4029C000010FFAD170BD044B1D8002490B7813430B7070BDA243004080400040824000400140004002400040014B188880B2704700410040034B1A7800F0F80010431870F4
:402A0000704700BF02410040024B187800F00700704700BF0241004070B505460E46FFF7F3FF0446FFF7E0FFA84256D02B4B1B7803F0010294B900B185B938B9284B1D80B9
:402A4000284A137803F0BF03137070BD254A137843F040031370224B1D8070BD22B3002321490B70012413310C7004390B7008390B7803F07F030B701A4B1B7813F0080F8A
:402A800000D08DB9194B18800721013B1970164B1B7813F0010FFAD110490B7803F0FE030B700021104B19700C4B1B7813F0010F0DD00E4B1D800EB1032200E001220A4BE9
:402AC0001A70094B1B7813F0010FFAD170BD044B1D8002490B7813430B7070BDA143004000410040024100400140004002400040044A137803F07F03C001C0B2184310701B
:402B0000704700BF00510040024B1878C0F38000704700BF31510040024B1878C0F38000704700BF83450040014B1B68D865704708ED00E04001C0B2014B1870704700BF23
:402B400007E400E08022014B1A60704700E100E08022014B1A60704780E100E010B50446FFF7F6FF2046FFF7DFFF0720FFF7E2FFFFF7E8FF10BD00BF084A137843F001039B
:402B800013701032137843F00103137002F64D32137843F001031370704700BFA3430040014B1870704700BF034F0040014B1878704700BF034F004010B50446094B1B78FD
:402BC00013F0010F02D00020FEF724FE054B1A7842F001021A70044A14801A7802F0FE021A7010BDA3430040064F0040024B1B88024B188880B27047064F0040084F0040AE
:402C0000014B1880704700BF044F004008B5164A137803F0010313700232137803F0FC031370013A137843F0010313700F4B1A7802F0CF021A701A7842F030021A701A7886
:402C400002F0F0021A701A7842F00F021A704EF66020FFF7D5FF4EF66020FFF7ADFF0820FFF79EFF08BD00BF004F00400B4F004008B5054B1B7823B9FFF7C8FF0122024B82
:402C80001A70FFF779FF08BD8081FF1F024B1B68C3F88400704700BF08ED00E04001C0B2014B1870704700BF11E400E04FF40032014B1A60704700BF00E100E04FF4003225
:402CC000014B1A60704700BF80E100E010B50446FFF7F4FF2046FFF7D9FF0720FFF7DEFFFFF7E4FF10BD00BF0230800803D000BF01380046FCD17047EFF3108072B670472C
:402D000080F31088704700BF81F0004102E000BF83F0004330B54FEA41044FEA430594EA050F08BF90EA020F1FBF54EA000C55EA020C7FEA645C7FEA655C00F0E2804FEAEE
:402D40005454D4EB5555B8BF6D420CDD2C4480EA020281EA030382EA000083EA010180EA020281EA0303362D88BF30BD11F0004F4FEA01314FF4801C4CEA113102D040422D
:402D800061EB410113F0004F4FEA03334CEA133302D0524263EB430394EA050F00F0A780A4F10104D5F1200E0DDB02FA0EFC22FA05F2801841F1000103FA0EF2801843FA79
:402DC00005F359410EE0A5F120050EF1200E012A03FA0EFC28BF4CF0020C43FA05F3C01851EBE37101F0004507D54FF0000EDCF1000C7EEB00006EEB0101B1F5801F1BD33C
:402E0000B1F5001F0CD349085FEA30004FEA3C0C04F101044FEA445212F5800F80F09A80BCF1004F08BF5FEA500C50F1000041EB045141EA050130BD5FEA4C0C404141EB24
:402E4000010111F4801FA4F10104E9D191F0000F04BF01460020B1FA81F308BF2033A3F10B03B3F120020CDA0C3208DD02F1140CC2F10C0201FA0CF021FA02F10CE002F13C
:402E80001402D8BFC2F1200C01FA02F120FA0CFCDCBF41EA0C019040E41AA2BF01EB0451294330BD6FEA04041F3C1CDA0C340EDC04F11404C4F1200220FA04F001FA02F31C
:402EC00040EA030021FA04F345EA030130BDC4F10C04C4F1200220FA02F001FA04F340EA0300294630BD21FA04F0294630BD94F0000F83F4801306BF81F480110134013D0A
:402F00004EE77FEA645C18BF7FEA655C29D094EA050F08BF90EA020F05D054EA000C04BF1946104630BD91EA030F1EBF0021002030BD5FEA545C05D14000494128BF41F088
:402F4000004130BD14F580043CBF01F5801130BD01F0004545F0FE4141F470014FF0000030BD7FEA645C1ABF194610467FEA655C1CBF0B46024650EA013406BF52EA0335AE
:402F800091EA030F41F4002130BD00BF90F0000F04BF0021704730B54FF4806404F132044FF000054FF0000150E700BF90F0000F04BF0021704730B54FF4806404F1320446
:402FC00010F0004548BF40424FF000013EE700BF42004FEAE2014FEA31014FEA02701FBF12F07F4393F07F4F81F06051704792F0000F14BF93F07F4F704730B54FF4607437
:4030000001F0004521F0004120E700BF50EA010208BF704730B54FF000050AE050EA010208BF704730B511F0004502D5404261EB41014FF4806404F132045FEA915C3FF4EC
:40304000DCAE4FF003025FEADC0C18BF03325FEADC0C18BF033202EBDC02C2F1200300FA03FC20FA02F001FA03FE40EA0E0021FA02F11444C1E600BF70B54FF0FF0C4CF4B3
:40308000E06C1CEA11541DBF1CEA135594EA0C0F95EA0C0F00F0DEF82C4481EA030621EA4C5123EA4C5350EA013518BF52EA033541F4801143F4801338D0A0FB02CE4FF0E1
:4030C0000005E1FB02E506F00042E0FB03E54FF00006E1FB03569CF0000F18BF4EF0010EA4F1FF04B6F5007F64F5407404D25FEA4E0E6D4146EB060642EAC62141EA5551BB
:403100004FEAC52040EA5E504FEACE2EB4F1FD0C88BFBCF5E06F1ED8BEF1004F08BF5FEA500E50F1000041EB045170BD06F0004646EA010140EA020081EA0301B4EB5C0416
:40314000C2BFD4EB0C0541EA045170BD41F480114FF0000E013C00F3AB8014F1360FDEBF002001F0004170BDC4F10004203C35DA0C341BDC04F11404C4F1200500FA05F349
:4031800020FA04F001FA05F240EA020001F0004221F0004110EBD37021FA04F642EB06015EEA430E08BF20EAD37070BDC4F10C04C4F1200500FA04F320FA05F001FA04F26D
:4031C00040EA020001F0004110EBD37041F100015EEA430E08BF20EAD37070BDC4F1200500FA05F24EEA020E20FA04F301FA05F243EA020321FA04F001F0004121FA04F28C
:4032000020EA020000EBD3705EEA430E08BF20EAD37070BD94F0000F0FD101F00046400041EB010111F4801F08BF013CF7D041EA060195F0000F18BF704703F00046520014
:4032400043EB030313F4801F08BF013DF7D043EA0603704794EA0C0F0CEA135518BF95EA0C0F0CD050EA410618BF52EA4306D1D181EA030101F000414FF0000070BD50EAB1
:40328000410606BF1046194652EA430619D094EA0C0F02D150EA013613D195EA0C0F05D152EA03361CBF104619460AD181EA030101F0004141F0FE4141F470014FF00000D8
:4032C00070BD41F0FE4141F4780170BD70B54FF0FF0C4CF4E06C1CEA11541DBF1CEA135594EA0C0F95EA0C0F00F0A7F8A4EB050481EA030E52EA03354FEA013100F08880F9
:403300004FEA03334FF0805545EA131343EA12634FEA022245EA111545EA10654FEA00260EF000419D4208BF964244F1FD0404F5407402D25B084FEA3202B61A65EB0305F2
:403340005B084FEA32024FF480104FF4002CB6EB020E75EB030E22BFB61A754640EA0C005B084FEA3202B6EB020E75EB030E22BFB61A754640EA5C005B084FEA3202B6EB22
:40338000020E75EB030E22BFB61A754640EA9C005B084FEA3202B6EB020E75EB030E22BFB61A754640EADC0055EA060E18D04FEA051545EA16754FEA06164FEAC30343EA2D
:4033C00052734FEAC2025FEA1C1CC0D111F4801F0BD141EA00014FF000004FF0004CB6E711F4801F04BF01430020B4F1FD0C88BFBCF5E06F3FF6AFAEB5EB030C04BFB6EB81
:40340000020C5FEA500C50F1000041EB045170BD0EF0004E4EEA113114EB5C04C2BFD4EB0C0541EA045170BD41F480114FF0000E013C90E645EA060E8DE60CEA135594EA6F
:403440000C0F08BF95EA0C0F3FF43BAF94EA0C0F0AD150EA01347FF434AF95EA0C0F7FF425AF104619462CE795EA0C0F06D152EA03353FF4FDAE1046194622E750EA4106CF
:4034800018BF52EA43067FF4C5AE50EA41047FF40DAF52EA43057FF4EBAE12E74A0011D212F5001211D20DD56FF47873B3EB62520ED44FEAC12343F0004343EA505323FA86
:4034C00002F070474FF00000704750EA013002D14FF0FF3070474FF000007047014B1868704700BF4481FF1F0E4B70B51E460E4C0025E41AA410A54204D056F8253098475F
:403500000135F8E700F0C4FE084B094C1E46E41AA4100025A54204D056F8253098470135F8E770BD9C4200009C4200009C420000A442000010B5431E0A44914204D011F8BE
:40354000014B03F8014FF8E710BD03460244934202D003F8011BFAE7704700000EB400B54FF402719CB0ADF814106FF00041049107914FF6FF711DAB02900690084853F8D4
:40358000042BADF81610006802A9019300F064F8029B00221A701CB05DF804EB03B070474481FF1F2DE9F0478E6882469E420C46914698463ED88A8912F4906F3AD02568C1
:4035C000096902236F1A656905EB450595FBF3F57B1C43449D4238BF1D4653050FD5294600F040FB064698B13A462169FFF7A2FFA38923F4906343F08003A38113E02A4655
:4036000000F08EFB064670B92169504600F0DEFA0C23CAF80030A3894FF0FF3043F04003A381BDE8F08726613E44266046466561ED1BA560464528BF4646494632462068C8
:4036400000F0A8FAA36800209B1BA36023681E442660BDE8F08700002DE9F04F9DB003938B8980461C060D4616460DD50B695BB9402100F0F7FA2860286118B90C23C8F8E5
:403680000030CDE040236B610023099320238DF82930DFF89CB130238DF82A3037463C4614F8013B1BB9B7EB060910D003E0252BF9D02746F3E74B46324629464046FFF7E5
:4036C00071FF013000F0A780099B4B4409933B78002B00F0A08000234FF0FF3204930793059206938DF853301A930126052221784E4800F041FA671C049B38B14B4A3C46E2
:40370000801A06FA00F018430490EFE7D90644BF20228DF853201A0744BF2B228DF8532022782A2A03D0079A00210A200BE0039A111D12680391002A10DA524243F0020067
:40374000079204900BE027463B780134303B092B03D800FB02320121F5E701B107923B782E2B1ED17B782A2B0AD1039B02371A1D1B680392002BB8BF4FF0FF33059310E00B
:40378000002319460593781C0A2407463A780130303A092A03D804FB01210123F5E703B1059103223978224800F0E6F940B14023CBEB000003FA00F0049B0137184304904E
:4037C000397806221B487E1C8DF8281000F0D4F988B1194B33B9039B073323F007030833039314E003AB00932A46144B04A94046AFF3008007E003AB00932A460F4B04A932
:40380000404600F093F8B0F1FF3F824603D0099B5344099342E7AB895B0601D4099801E04FF0FF301DB0BDE8F08F00BF5C420000624200006642000000000000A53500003F
:403840002DE9F04791461F460A698B6806469342B8BF1346C9F8003091F843200C46DDF8208012B10133C9F800302368990642BFD9F800300233C9F80030256815F00605ED
:4038800010D104F1190A07E00123524639463046C04701301AD00135E368D9F800209B1A9D42F1DB94F843302268003318BF012392060FD5E118302081F843005A1C94F849
:4038C00045102244023382F8431003E04FF0FF30BDE8F08704F1430239463046C0470130F4D02268D9F80050E36802F00602042A08BF5D1B2269A3680CBF25EAE575002527
:403900009342C4BF9B1AED184FF000091A344D4509D00123224639463046C0470130D5D009F10109F3E70020BDE8F0872DE9F04317460A7E85B06E2A984606460C460C9BDE
:4039400001F1430E00F0AE8011D8632A22D009D8002A00F0BB80582A40F0CA8081F84520834955E0642A1ED0692A1CD0C0E0732A00F0B08009D86F2A2ED0702A40F0B8809B
:403980000A6842F020020A603EE0752A24D0782A3AD0ADE01A6801F14205111D1960136884F84230A8E021681A6811F0800F02D0111D196008E011F0400F02F104011960DD
:4039C00002D0B2F9003000E01368002B3CDA2D225B4284F8432037E021681A6811F0800F02D0111D196007E011F0400F02F10401196001D0138800E01368227E5C496F2A3B
:403A000014BF0A2208221BE078225A4984F845202268186812F0800F00F104051D6003D1550601D5038800E00368D00744BF42F0200222601BB9226822F020022260102261
:403A4000002084F8430001E049490A226568002DA56008DB206820F0040020602BB9002D7DD175460CE0002B79D07546B3FBF2F002FB1033CB5C05F8013D03460028F5D12C
:403A8000082A0BD12368DA0708D5236962689A42DEBF302305F8013C05F1FF35C5EB0E0323612EE008681A6810F0800F496903D0101D1860136808E010F0400F02F1040082
:403AC0001860136801D0198000E0196000232361754616E01A68111D1960156800216268284600F049F808B1401B6060636804E004F1420584F8422001232361002384F8A4
:403B00004330CDF800803B4603AA21463046FFF797FE013002D14FF0FF3026E023692A4639463046C0470130F5D023689B0710D5002504F1190907E001234A4639463046F3
:403B4000C0470130E7D00135E368039A9B1A9D42F2DBE068039B9842B8BF184605E00B7804F1420584F842308AE705B0BDE8F0836D4200007E42000010B5C9B202449042AB
:403B8000034605D01C7801308C42F8D1184610BD002010BD884210B501EB020301D8421E0BE09842FBD28118D21AD34204D013F8014D01F8014DF8E710BD994204D011F8B6
:403BC000014B02F8014FF8E710BD000038B50546002944D051F8043C0C1F002BB8BFE41800F0D4F81E4A1368114613B96360146030E0A3420DD92268A018834201BF1868A1
:403C00005B681218226063600C6023E0A24203D813465A68002AF9D118681918A1420BD12168014458188242196013D110685268014419605A600DE002D90C232B6009E031
:403C400021686018824201BF106852680918216062605C602846BDE8384000F098B838BD8881FF1F70B5CD1C25F0030508350C2D38BF0C25002D064601DBA94202D90C2373
:403C8000336046E000F082F8234B1C681A462146A1B10B685B1B0ED40B2B03D90B60CC18CD501EE08C420BBF63684B681360636018BF0C4615E00C464968E9E7174C236864
:403CC0001BB9304600F052F820602946304600F04DF8431C18D0C41C24F00304A0420DD12560304600F053F804F10B00231D20F00700C31A0ED05A42E25070BD211A3046B0
:403D000000F034F80130EBD10C233360304600F03EF8002070BD00BF8881FF1F8481FF1FF8B5074615460E4621B91146BDE8F840FFF798BF1AB9FFF749FF2846F8BD00F09E
:403D400027F885420ED929463846FFF78BFF044650B131462A46FFF7EDFB31463846FFF735FF01E03046F8BD2046F8BD38B5064C0023054608462360FDF7FEF9431C02D118
:403D8000236803B12B6038BD3882FF1F7047704751F8040C0028BEBF091851F8043CC01804387047000000000F00E0FF020100005E5E5E5E5E5E5E5E2046696E616C205030
:403DC000726F6A6563743A204E6F656D6920476F7A7A692C204C6F72656E7A6F204672616E63696F6C69205E5E5E5E5E5E5E5E0D0A0A00002A2A2A2A2A2A2A2A2A2A2A2AA2
:403E00002A2A2A2A205445535420454550524F4D20616E64204C495333444820434F4E46494755524154494F4E2A2A2A2A2A2A2A2A2A2A2A2A2A2A2A2A2A2A2A200D0A0A21
:403E400000000000202D2D3E20454550524F4D20546573742052656164203D2025642025642025642C206578706563746564203135202D3332203235380D0A0A0000000038
:403E8000202D2D3E204C49533344482057484F204920414D205245474953544552203D203078253032580D0A00000000202D2D3E204C4953334448204354524C20524547EC
:403EC000495354455220313D203078253032580D0A000000202D2D3E204C4953334448204354524C20524547495354455220343D203078253032580D0A000000202D2D3E8F
:403F0000204C4953334448204354524C20524547495354455220353D203078253032580D0A000000202D2D3E204C4953334448204649464F204354524C205245474953548A
:403F400045522028425950415353206D6F646529203D203078253032580D0A00202D2D3E204C4953334448204649464F204354524C20524547495354455220284649464F7E
:403F8000206D6F646529203D203078253032580D0A000000202D2D3E204C4953334448204354524C20524547495354455220333D203078253032580D0A000000202D2D3E99
:403FC000204C495333444820494E542031204346472052454749535445523D203078253032580D0A00000000202D2D3E204C495333444820494E5431205448532052454766
:4040000049535445523D203078253032580D0A00202D2D3E204C4953334448204455524154494F4E2052454749535445523D203078253032580D0A000D0A524541442F57C0
:404040005249544520434F4E46494755524154494F4E204D4F44414C4954592E20636F6E66696775726174696F6E206D6F64653A2025640D0A5541525420564552424F53DF
:404080004520464C41473A2025640D0A000000000D0A415454454E54494F4E212052454144204F4E4C59204D4F44414C4954592E20636F6E66696775726174696F6E206D25
:4040C0006F64653A2025640D0A5541525420564552424F534520464C41473A2025640D0A000000000D0A5245414459200D0A0D0A00000000524541442F57524954452043D5
:404100004F4E46494755524154494F4E204D4F44414C4954592E20636F6E66696775726174696F6E206D6F64653A2025640D0A5541525420564552424F534520464C414736
:404140003A2025640D0A0000415454454E54494F4E212052454144204F4E4C59204D4F44414C4954592E20636F6E66696775726174696F6E206D6F64653A2025640D0A5573
:4041800041525420564552424F534520464C41473A2025640D0A00004E4557205541525420564552424F534520464C41473A2025640D0A004556454E54204F564552544884
:4041C000524553484F4C440D0A0000002A2A2A2A2A2A2A2A2A0D0A00583A2025642C20593A2025642C205A3A202564205B6D675D0D0A0000035B0040244300404000000072
:40420000004F00402400405100403000F0510040100000000140800200030140800300070140000900140140000800400140000A004C014000020050014020006052004044
:40424000640800480600800201406C080048800080060140EC08004880004300232D302B2000686C4C006566674546470030313233343536373839414243444546003031CD
:4042800032333435363738396162636465660000F8B500BFF8BC08BC9E4670474D000000F5110000F8B500BFF8BC08BC9E46704729000000C8420000C880FF1F8000000093
:4042C000F800000000000000000000004082FF1F0000E02EC05D00001800000000366E0101FF000000000000000000000000000000000000000000000000000000000000FE
:40430000000000005A4200000000000000000000000000000000000000000000000000000000000000000000000000000000000000000000000000000000000000000000E1
:4043400000000000E480FF1F0000000000000000000000000000000000000000000000000000000000000000000000000000000000000000000000000000000000000000BB
:4043800000000000000000000000000000000000000000000000000000000000000000000000000000000000000000000000000000000000000000000000000000000000FD
:4043C00000000000000000000000000000000000000000000000000000000000000000000000000000000000000000000000000000000000000000000000000000000000BD
:40440000000000000000000000000000000000000000000000000000000000000000000000000000000000000000000000000000000000000000000000000000000000007C
:40444000000000000000000000000000000000000000000000000000000000000000000000000000000000000000000000000000000000000000000000000000000000003C
:020000040003F7
:0200000480007A
:4000000002450040064F004004520040056400400265004055000140340101402A0201404E0301405504014048050140110601404F0701400408014004090140010B0140B4
:40004000010D0140701401404E150140541601404B17014001190140031B0140074001400C4101400C4201400D430140034401400745014006460140054701400B480140C7
:400080000B490140064C0140084D014005500140025101401A03640101700A360D501627195022270040016018A01980800F810F850F860D87728438850F0002018D020DB9
:4000C0000442058D0694098D0C9D0D020F0D101112221480164018E219421A181B081C9D1D0D1F8021112322249D2540281D29622A802B142C8D2D8D2E10300F338034F09C
:400100003570370F3A323BA03F0456025724580459045B045C215D205F01851089108C238D108E04931095029610971D980E99A39B549DC0A110A404A501A639A73AA805CB
:40014000AA3AAD63AF8CB230B40FB51FB7E0B820B980BB20D602D724D804D904DB04DC12DD10DF0101020221060209080A450E1811681408170819021A041E1821602208AC
:40018000230826402704280A29402A062E45312032403380351036603705399A3B013C803D284620470460046620691A6A806B106C106D686E016F49714074407601C08D64
:4001C000C26FC467CADFCCFCCE7FD8240402060D1C031E1C2409261628152A0A2F013101340F361037013A203E404010410345D046204701483A49FF4AFF4BFF4DA04F04AE
:400200005018580459045A045C425D045F01604062C06440654066C068C06AC06CC06EC0009003900404080A09900D8011101242130814201520170818101B111C041D40B7
:40024000219022022782282A2E8032023390388039103A0640A84190420246204780484049044A884D0152645404562057025810594560406302641066048040811083010E
:4002800089408C5090209150920493019404964098029A019B589C089D109E06A208A388A508B610C02FC28FC46FCA1ECC0DCE0FD05FD204D60FD809E250EE1004010504F1
:4002C00006F409030C720F0310E31104120C1422150418A31A581D03207221032472285029032A222C222E502F01308031023301341F3504366038223F055440560458044D
:4003000059045B045C315D205F01840B880B8B02900193029A0C9E04A101B002B201B302B404B608B701BE10BF44C020C101C5D5C602C714C83FC9FFCAFFCBFFCDA0CF043E
:40034000D018D280D407D804D904DA04DB04DC04DD44DF01E040E2C0E440E540E6C0E8C0EAC0ECC0EEC0020103200508060409080A440DA00E801084114012101880199095
:400380001B201C041EA2211123182540260428042A412B082F80308033453702382039443A103E2045A04D084F015591560459805A405C445E205F0162A263207680820114
:4003C0008602884090209141920496409A219B429D109E80A004A2A0A31AA548A901AA08B080C065C2DEC40FCA8DCC8BCE2ED030D6F0D80FE6200201050713041D012D07D3
:40040000310133043401370252805405580459045B045C445D405F01018203200680082009080A240B02180419421D201F10224423482640279029202A0A2F023004311071
:40044000324034043640370A380939603BC03C0840204181432049844B02510852505A085D015E085F8069146B05708C720A730476808D808F10912392059310944095048A
:4004800099809B029D029E409F05A004A111A204A322A440A528A780A840AE01AF08B502C01DC203CA17CC9ECE4FD00FD208D6D2E201E640EA4039023F0159045F0124408D
:4004C00027808380E210EA20E420000801010206030A04040503061809030A01101011021204130917102201241C2704281C2F1030013103321C33103402350C3E013F1452
:40050000406141054203440245C0470E481249FF4AFF4BFF4C624DA04EF04F41500C5418580459045A045B045C335D335F016640670269106A306B106D106E106F128103F7
:40054000823883048403862C89808A108B158E019438960799739B0C9F08A573A607A704A803A92AAA1CAB44B001B1C0B21EB30FB434B530B922BA28BB08BE01BF50C00337
:40058000C704C9FFCA07CBFFCC40CD20CEF0CF05D008D401D804D904DA04DB04DC33DD33DF01E040E1A8E240E3200001010803080606075009020E10108011141628191CC9
:4005C0001B011E701F142004210222062688275429842E082F14300831023750380139143E023F204004420143084704488049204B80500856245710580859015A085C205F
:400600005D015E48600863028420860287088C018E80911592019380940199A19A029B089D189E2C9F50A204A308A61AB001C0FEC228C46ECA6ACC33CEA7D04ED20CD6F1C4
:40064000D80CE240EC1001070410060C081009071203141C16021C141D0120202704280C2A112C092E10301F310134203504361F37023E104063410245E0460B47C048266F
:4006800049FF4AFF4BFF4EF04F44500C54405604580459045A045B045C435D135F0166C06A406B02802184638501870688F38A0C8CFF901C92E3940F950496F097019E735F
:4006C000A008A404A80CAC42AF08B060B104B21CB302B40FB508B680B701B880BA20D409D604D804D904DB04DC63DD10DF01000101680604071008040A810D800EA0108839
:400700001202130415011608174019A11B081E881F8020842140220424402680270828012F103204368038043D224101430146284D014E085580560259045A605B016140B5
:4007400062016440665067108140915692E193B49441980499449A509C409D309E01A088A111A440A780A804AA40AC40B601C06FC2BDC4DFCA48CC12CEA2D060D220D60F8D
:40078000D8F9EE40B440E610EC10EE2031403301350837103880CCF0CE103020620466088D088E0894809A049D489F11B604CC10D8C05140570483028701882094809D4075
:4007C0009F11A420D460E240E6807380770483848F0894809B029D409F10A940B704DCC0E280EA807C207D80DE050008020289409C20A540C00AE40445089C20A202B0046F
:40080000D001EA048D809C20A202A508E20825106602804094809B0AAD40B710C820D880E280EE105B025F08671087108E029B0A9E02B510D6C0D880E2100980A202A588E5
:40084000B420C202E80210208C20B202B508C408E608EC08EE04001E08160A1E105A1A5A00FF010F880C000040000000041380648402000001020098009A8000843800C032
:400880000A00100084980002079838026000000056FC0903802104D8049A000002E07F00800F001308000022000011002301600004DEFB0C1FFFFFFF2200F0080400000069
:4008C0000900040004040404222200010000C00040011011C0010011400140010000000000000000000000000000000000040C000B18100000000023167F0900000000001C
:40090000005C00211A000504005C1022001000000008000000670018000000001C0000400138021F000000A2000050042305400001BEFD0C1FFFFFFF2200F00C04000000D8
:400940000000021204040404313100010000C00040011011C0010011400140010000000000000000000000000000000000E0E000600000008400508C8C008C0000000000E2
:400980008000408B8B0000000000000014000116120000000000000004E0E000E000080025001801000000000000000000000000000000000000000000000000000000003A
:4009C00000000000000000000000000000000000000000000000000000000000000000000000000000000000000000000000000000000000000000000000000000000000F7
:400A000000000000000000000000000000000000000000000000000000000000000000000000000000000000000000000000000000000000000000000000000000000000B6
:400A40000000000000000000000000000000000000000000000000000000000000000000000000000000000000000000000000000000000000000000000000000000000076
:400A80000000000000000000000000000000000000000000000000000000000000000000000000000000000000000000000000000000000000000000000000000000000036
:0200000490006A
:0400000000004005B7
:0200000490105A
:04000000BC90ACAF55
:0200000490303A
:020000008DEA87
:0200000490402A
:4000000000000000000000000000000000000000000000000000000000000000000000000000000000000000000000000000000000000000000000000000000000000000C0
:400040000000000000000000000000000000000000000000000000000000000000000000000000000000000000000000000000000000000000000000000000000000000080
:400080000000000000000000000000000000000000000000000000000000000000000000000000000000000000000000000000000000000000000000000000000000000040
:4000C0000000000000000000000000000000000000000000000000000000000000000000000000000000000000000000000000000000000000000000000000000000000000
:0200000490501A
:0C00000000012E16106900012E319E53E5
:00000001FF