:400000000080002011000000F90C0000F90C000008B5044B1A6803F53F5302331A6000F08BFE00BFFA46004010B5054C237833B9044B13B10448AFF300800123237010BDE4
:400040004881FF1F00000000E82F0000084B10B51BB108490848AFF300800848036803B910BD074B002BFBD0BDE81040184700BF000000004C81FF1FE82F0000C880FF1FD4
:40008000000000002DE9F0478AB062B601F00AFA01F082F801F02CFD00F084FB02F076F90A2001F085F9DB4C4322DB49204602F063FB204601F02EFA4D22D849204602F0F1
:4000C0005BFB204601F026FAD54B186808909B88ADF82430062208A9202000F0AFFB00F0DBFB062206A9202000F096FBBDF91820BDF91A30BDF91C100091CA49204602F002
:400100004FFB204601F006FA0F2000F015FA0246C549204602F044FB204601F0FBF92721202000F01FFA202000F006FA0246BF49204602F035FB204601F0ECF9002123207F
:4001400000F010FA232000F0F7F90246B849204602F026FB204601F0DDF94021242000F001FA242000F0E8F90246B249204602F017FB204601F0CEF900212E2000F0F2F9B9
:400180002E2000F0D9F90246AB49204602F008FB204601F0BFF947212E2000F0E3F92E2000F0CAF90246A549204602F0F9FA204601F0B0F94421222000F0D4F9222000F0EF
:4001C000BBF902469E49204602F0EAFA204601F0A1F92A21302000F0C5F9302000F0ACF902469849204602F0DBFA204601F092F95C21322000F0B6F9322000F09DF90246FB
:400200009149204602F0CCFA204601F083F90321332000F0A7F9332000F08EF902468B49204602F0BDFA204601F074F90A2001F0BFF800F011FE01F043F9A0238DF80830B5
:40024000C0238DF80F300022814B1A70814801F083F8814801F022FD804801F0E1FD804801F08CFE7F4801F0B1FE02F0A3F8784B1B78DBB2012BFAD1312000F05DF910F012
:40028000400F09D0634C02467749204602F088FA204601F03FF9B1E05E4C744B07CB20606160A2601B782373204601F033F9002634463746354623E0062204A9282000F093
:4002C00065F99DF810309DF8112043EA022343F389131D442DB29DF812309DF8132043EA022343F389133B441FB29DF814309DF8152043EA022343F3891323441CB201365B
:40030000062ED9DD5A4A82FB05362E44ED17C5EBA60636B282FB07353D44FB17C3EBA5052DB282FB04322244E317C3EBA20424B2B600B6B237B2AD00ADB20FFA85F8A400C0
:40034000A4B20FFA84F9DFF8CCA0CDF8009043463A464849504602F023FA504601F0DAF8454B1B78B3B18DF80960C7F307238DF80A308DF80B50C8F307238DF80C308DF84E
:400380000D40C9F307238DF80E3008210DEB010001F0D2F8C7EB0727384E86FB0734FF17C7EBE414002CB8BF6442E4B2C8EB082886FB08354FEAE878C8EBE515002DB8BF1E
:4003C0006D42EDB2C9EB092986FB09364FEAE979C9EBE616002EB8BF7642F6B20D4F00962B4622462349384602F0DAF9384601F091F832462946204600F0DAF90021144BB7
:4004000019702E2000F0AEF847212E2000F0AAF82DE700BF8C81FF1FF42F000038300000EC2F000088300000C4300000F0300000183100004031000068310000A031000073
:40044000D8310000003200002C32000054320000F081FF1FAD050000C1050000090700001D070000D90500007C3200008C320000932449929C3200006781FF1FD34D6210E0
:400480002DE9F04383B006460C4617469846002000F030FF64B2002511E02146082CA8BF0821C9B206EBC50000F0FEFD00F0EEFC10F0010FFAD0083C64B201356DB2002CA6
:4004C000EBDC00F001FE00F0A5FD0026009601964FFA88F820E0C146B8F1080FA8BF4FF008095FFA89F1684600F0DEFD00F0CEFC10F0010FFAD0002406E004EBC60500F086
:4005000057FD78550134E4B24C45F6DBA8F108084FFA88F8013676B2B8F1000FDBDC012000F0E8FE00F0D0FD00F074FD00F092FD03B0BDE8F08300BF00B583B000F03F00F8
:4005400060F07F008DF8040002AA002302F8053D0123194601A8FFF793FF9DF8030003B05DF804FB00B583B000F03F008DF804008DF80510002302AA02F8053D022101A8B4
:40058000FFF77EFF03B05DF804FB00BF00B583B040F0C00302A800F8043D13460A460121FFF76EFF03B05DF804FB00BF08B50122024B1A7000F0AAFE08BD00BFF081FF1FEE
:4005C00008B501F0A1FB01F0ABFC0022014B1A7008BD00BF6481FF1F38B5494B1B78052B36D9474B5B7873B90122454B5A7000221146104600F0DCF800F02EFC00F060FF3D
:4006000001F08EFC20E0012B1ED13D4C00206070A178E37843EAC111C9B23A4B197000F0DFF8A3781BB9002001F046FB0CE0012B0AD1012001F040FB00F034FF00F0ACFDAB
:4006400000F0B0F801F00EFC00222D4B1A7138BD052B54D82A4B5B78002B50D1284B1B79012B09D013B1022B44D038BD0122244B1A7101F0A7FB38BD214B9B78CBB9204CC3
:400680000120A07001F018FB00F00CFF00F084FD00F088F801F0E6FBA178E37843EAC111C9B2184B1970002000F09AF800F0F4F81CE0012B1AD1124D0024AC70204601F0F6
:4006C000FBFAA978EB7843EAC111C9B20D4B1970204600F085F800F0DFF822462146204600F066F800F0B8FB00F0EAFE0022044B1A7138BD0122024B1A7101F063FB38BD5E
:400700006481FF1FF881FF1F08B50222024B1A7101F014FB08BD00BF6481FF1F08B501F0BBFB184B1A7801321A705B78012B28D101F0CEFAB0FA80F0400901F0BDFA01F01C
:4007400097FE114B1860002801DA00221A600E4B1B68B3F5803F03DB4FF6FF720A4B1A60094B1A6847F6FE739A4205DC0020054BD87001F0B7FF08BD0120024BD87001F0BF
:40078000B1FF08BD6481FF1FF481FF1F08B500F017FF08BD08B500F019FF08BD08B500F085FF08BD08B500F05FFF00F0CBFF08BD38B50D461446FFF7E9FF2846FFF7EAFFD7
:4007C0002046FFF7EBFF38BD08B5052000F082F808BD00BF08B5062000F066F808BD00BF30B583B004460D46FFF7F4FF02238DF80430230A8DF805308DF806408DF807502F
:40080000002302AA02F8053D04210DEB010000F07BF803B030BD00BF10B582B003248DF80440030A8DF805308DF8060013460A46214601A800F068F802B010BD2DE9F041C5
:4008400082B000AF054688461446FFF7C3FF012000F0C4FDE61C04F10A0323F00703ADEB030D02238DF800302B0A8DF801308DF80250224641460DF1030001F07DFF0023B5
:4008800007F1080202F8013DF1B2684600F03CF80837BD46BDE8F08108B5FFF795FF10F0010FFAD108BD00BF10B50446002000F057FF204600F0BEFF00F094FF10F0080F69
:4008C000FAD001F021F80446012000F049FF204610BD00BF10B50446002000F041FF204600F0A8FF002000F0A5FF00F07BFF10F0010FFAD001F008F801F006F804460120F0
:4009000000F02EFF204610BD2DE9F04383B006460C4617469846002000F022FF64B2002511E02146082CA8BF0821C9B206EBC50001F066F800F056FF10F0010FFAD0083CA7
:4009400064B201356DB2002CEBDC01F069F801F00DF80026009601964FFA88F820E0C146B8F1080FA8BF4FF008095FFA89F1684601F046F800F036FF10F0010FFAD0002464
:4009800006E004EBC60500F0BFFF78550134E4B24C45F6DBA8F108084FFA88F8013676B2B8F1000FDBDC012000F0DAFE01F038F800F0DCFF00F0FAFF03B0BDE8F08300BF67
:4009C000FEE700BFF0B40022174611E050F82760F3B226F0FF0608E001EB420511F812406D78A5550132013BDBB2002BF4D10137232FEBD9F0BC70470A4B1B78DBB203F056
:400A00000701094A11701B09013213700822074B1A708023064A1370583213704422054B1A707047CF0100496E5800403D510040005B00407658004008B50A46002101F0CB
:400A4000A6FE08BD08B501F097FE08BD38B500243E4B1C80502202331A700B2202331A8018233B490B7002310A803A4A13701925023215800232137040F2AF4102321180FF
:400A80000232137043F69723023213800232157002321380304B1D7047F22F5202331A8002331D7004222D492D48FFF7CBFF02222C4B1A7008224FF040231A70032103F58A
:400AC00000731970284B1B78DBB228490B70284B1A8041F25122023B1A800CE0254B1B7803F0010343EA440404F003044FF4F07001F006FE013D0DB1032CEFD115B9032027
:400B0000FFF75EFF1C4B4FF480721A8007221A7000221A490A704820023108701A700222033B1A7004220A331A7003F297331A78FF221A70124A137843F001031370013A2C
:400B4000137843F08003137038BD00BF80400040864000408A4000409A40004090090048004100400043004008010049A14600402242004025420040044000400640004020
:400B8000A1430040012807D8044B53F820201844017A13780B431370704700BFD0320000012808D8044B53F820201844017A137823EA010313707047D032000038B572B6DD
:400BC000394A137843F00403137000240BE0374863001A19510001440A46098AD068FFF72BFF0134E4B20A2CF1D900240CE02F48A20011194B000344B3F85820596D186D17
:400C0000FFF720FF0134E4B2032CF0D928494FF09040FFF7D7FE0A24264B1C70264A137843F0020313701032137843F002031370224D2B7843F040032B70A2F58632513A2B
:400C4000137843F01003137008221D491D48FFF7F9FE22461C491D48FFF7F4FE22461C491C48FFF7EFFE22461B491C48FFF7EAFE08221B491B48FFF7E5FE1B4A137843F015
:400C800008031370194C61232370FFF7DFFE812323700122164B1A70FFF7AEFE0E2229461448FFF7CFFE38BDE8460040D0320000900000488358004003500140A0430040A3
:400CC0005C0900480251004064090048C051004070090048105100407C090048205100408809004832510040224300400048004004000840B043004008B501F011FD03685F
:400D00000C2B00D1FEE7FEE708B5094B1A681044084BC31A802B02DC054B186005E001F0FFFC0C2303604FF0FF32104608BD00BFCC80FF1F3882FF1F08B5104E104D16E01C
:400D400029686B68AC68002204E051F8040B43F8040B0432A242F8D1E868002203E0002143F8041B04328242F9D11035013E002EE6D101F0DBFCFFF785F9FEE70100000051
:400D8000A433000008B5104A104B1A60104A136843F40073136000230AE0032B03D80D4A52F8231000E00C490C4A42F8231001332F2BF2D90A4B1A780A4B1A70074A0A4BD7
:400DC0001A60FFF7FBFE08BD0004FA050CED00E014ED00E000000000F90C00000080FF1FBC760040C080FF1F08ED00E00222014B1A60704700E100E00122014B1A607047BE
:400E000000E100E008B501F083FC0C4A137843F0200313700332137843F01003137002F58072137843F01003137001F075FC00F0A1FAFFF7DBFFFFF7DFFF08BD94640040B6
:400E40000222014B1A60704780E100E00122014B1A60704780E100E008B501F059FC0A4A137803F0EF03137002F58072137803F0EF03137001F050FC00F08AFAFFF7E0FF03
:400E8000FFF7E4FF08BD00BF9764004010B5FFF7D7FF064B1C78064A137803F009031C4300231370FFF7A2FF204610BD67640040FC81FF1F10B5FFF7C9FF064B1B78064A1E
:400EC000147804F040041C4300231370FFF794FF204610BD676500400D82FF1F10B504462B4B1A7802F0FF0312B1013BDBB200E00723284A1278D2B29342F1D0FFF7A0FF68
:400F0000254B1978254A137803F009030B4313701F4B1A78D2B21F4B1B78DBB29A4207D11E4B1B7813F0040F02D01D4B1C702CE0184A13780133DBB213701378DBB2072BC9
:400F400002D90022134B1A70124B1A78D2B2104B1B78DBB29A420ED10D4A13780133DBB213701378DBB2072B02D90022084B1A7001220C4B1A70074B1B78DBB20A4AD454A7
:400F80000A4A137843F004031370FFF72FFF10BD0E82FF1F0C82FF1F67640040FC81FF1F476400400882FF1F0082FF1F8764004010B5FFF74BFF134B1A78D2B2124B1B78DD
:400FC000DBB29A4214D0114B1B7813F0FF0F0CD10C4A13780133DBB213701378DBB2072B06D90022074B1A7002E00022074B1A70044B1B78DBB2064AD45CE4B2FFF7FCFE26
:40100000204610BD0B82FF1F0982FF1F0A82FF1F1082FF1F08B501E0094B1B78094B1B7813F0200FF8D1FFF711FF0023064A1370064A1370064A1370FFF7DEFE08BD00BF70
:4010400057640040676500400A82FF1F0B82FF1F0982FF1F08B501F05BFB0E4B1A7842F001021A701A7802F0FE021A7001F054FBFFF7E6FE0023084A1370084A1370084A76
:401080001370084A137803F0FB031370FFF7AEFE08BD00BF976400400882FF1F0E82FF1F0C82FF1F8764004070B506460C46002506E0705DFFF712FF0135EDB2013CE4B284
:4010C000002CF6D170BD00BF08B501E00A4B1B780A4B1B7813F0200FF8D101F019FB084B1A7842F001021A701A7802F0FE021A7001F012FB08BD00BF576400406765004068
:401100009764004010B50F22184B1A70184C022323600721012000F07FF91649012000F067F9012323600721002000F075F91249002000F05DF9FFF7C7FF00240F4B1C7030
:401140000F4B1C700F4B1C700F4B1C700F4B1C700F4B1C70FFF79AFEFFF7ACFE0D4B1C70202203F580731A7010BD00BF8464004080E100E0B5110000551200000A82FF1F5C
:401180000B82FF1F0982FF1F0882FF1F0E82FF1F0C82FF1F8764004008B5054B1B7823B9FFF7B0FF0122024B1A70FFF72BFE08BD6981FF1F28E01F4B19781F4A137803F0BD
:4011C00009030B431370137813F0040F24D01B4B1B7813F0FF0F0CD1194A13780133DBB213701378DBB2072B06D90022144B1A7002E00022114B1A70114B1B78DBB2114A6F
:40120000D35CDBB2104A13700D4B1A78D2B20F4B1B78DBB29A42CED1094B1A78D2B20B4B1B78DBB29A4204D1094A137803F0FB031370704767640040FC81FF1F0882FF1FCA
:401240000E82FF1F0082FF1F476400400C82FF1F87640040204B1A7820490B7803F0400313430B7032E01E4B1A78D2B21D490B780133DBB20B700B78DBB2072B02D900217A
:40128000184B1970174B1978C9B2174B1B78DBB299420ED114490B780133DBB20B700B78DBB2072B02D900210F4B197001210F4B19700C4B1B78DBB20D49CA54064B1A7888
:4012C00006490B7803F0400313430B70034B1B7813F0200FC7D17047676500400D82FF1F576400400982FF1F0B82FF1F0A82FF1F1082FF1F044A137803F07F03C001C0B2D0
:4013000018431070704700BF10510040024B1878C0F30010704700BF8C450040014B1B68D866704708ED00E04001C0B2014B1870704700BF0BE400E04FF40062014B1A60C4
:40134000704700BF00E100E04FF40062014B1A60704700BF80E100E010B50446FFF7F4FF2046FFF7DBFF0720FFF7DEFFFFF7E4FF10BD00BF054A137843F0020313701032B0
:40138000137843F002031370704700BFA2430040054A137803F0FD0313701032137803F0FD031370704700BFA243004001BE704710B5044605E0084B186801F0A1F9A4F5BD
:4013C0000044B4F5004FF6D8034B586800FB04F001F096F910BD00BFD080FF1F08B5034B1B7A00FB03F001F08BF908BDD080FF1F70B504460E46074B1D681F2802D900205A
:40140000FFF7D4FF04F01F04103455F8240045F8246070BD08ED00E038B504460D46072902D90020FFF7C2FF1F2C02D90020FFF7BDFF04F01F0000F1604000F564406D0145
:40144000EDB2057038BD00BF7222074B1A70202201331A700622603B1A70472210331A700022B03B1A7070478565004010B501F04FF904460A4A137843F020031370013206
:40148000137843F010031370A2F58072137843F01003137000F064F8204601F03DF910BD9565004008B5054B1B7823B9FFF7CCFF0122024B1A70FFF7D9FF08BD6A81FF1F48
:4014C00010B501F025F904460A4A137803F0DF03137000F053F8084A137803F0EF031370A2F58072137803F0EF031370204601F013F910BD9565004096650040034B1B7815
:4015000013F0040FFAD1024B18707047666400404664004038B5074B1B782BB938BDFFF7EDFF0134A4B201E005460024285D0028F5D138BD6A81FF1F084B1B7833B97047E8
:40154000305DFFF7DBFF0134E4B203E070B50D4606460024AC42F3D370BD00BF6A81FF1F054A137843F0080313701032137843F008031370704700BFA2430040054A137831
:4015800003F0F70313701032137803F0F7031370704700BFA2430040024A137843F080031370704771640040014B1870704700BF01640040014B1870704700BF41640040E9
:4015C000014B1870704700BF21640040014B1870704700BF31640040014B1870704700BF81640040014B1878704700BF61640040014B1878704700BF5164004008B501E012
:40160000FFF7F6FFFFF7EEFF10F0100FF8D108BD10B5134A137803F0C00343F01B031370104C237843F001032370FF20FFF7BCFFFF20FFF7BFFF0020FFF7C2FF0020FFF7A7
:40164000C5FF0020FFF7C8FF01F062F8237843F01003237001F060F8FFF7D0FF10BD00BF716400409164004008B5054B1B7823B9FFF7CEFF0122024B1A70FFF78DFF08BDA6
:401680006C81FF1F024A137843F080031370704775640040014B1870704700BF02640040014B1870704700BF42640040014B1870704700BF22640040014B1870704700BFC5
:4016C00085640040014B1878704700BF65640040014B1878704700BF5264004008B501E0FFF7F6FFFFF7EEFF10F0100FF8D108BD08B5124A137803F0C00343F00B031370E7
:401700001D32137843F001031370FF20FFF7C2FFFF20FFF7C5FF0020FFF7C8FF0020FFF7CBFF00F0F5FF064A137843F01003137000F0F2FFFFF7D2FF08BD00BF75640040DC
:401740009564004008B5054B1B7823B9FFF7D0FF0122024B1A70FFF795FF08BD6D81FF1F044A137803F0EF03000100F01000184310707047205100400822014B1A607047F1
:4017800000E100E00422014B1A60704700E100E008B500F0BDFF0C4A137843F0200313700332137843F01003137002F20112137843F01003137000F0AFFF00F047FAFFF738
:4017C000DBFFFFF7DFFF08BD906400400822014B1A60704780E100E00422014B1A60704780E100E010B5FFF7F1FF064B1C78064A137803F009031C4300231370FFF7BCFF56
:40180000204610BD636400402782FF1F10B5FFF7E3FF064B1B78064A147804F040041C4300231370FFF7AEFF204610BD646500402082FF1F10B504462B4B1A7802F0FF0363
:4018400012B1013BDBB200E00723284A1278D2B29342F1D0FFF7BAFF254B1978254A137803F009030B4313701F4B1A78D2B21F4B1B78DBB29A4207D11E4B1B7813F0040F72
:4018800002D01D4B1C702CE0184A13780133DBB213701378DBB2072B02D90022134B1A70124B1A78D2B2104B1B78DBB29A420ED10D4A13780133DBB213701378DBB2072BDD
:4018C00002D90022084B1A7001220C4B1A70074B1B78DBB20A4AD4540A4A137843F004031370FFF749FF10BD2482FF1F2582FF1F636400402782FF1F436400402382FF1F74
:401900002882FF1F8364004010B5FFF765FF134B1A78D2B2124B1B78DBB29A4214D0114B1B7813F0FF0F0CD10C4A13780133DBB213701378DBB2072B06D90022074B1A70BF
:4019400002E00022074B1A70044B1B78DBB2064AD45CE4B2FFF716FF204610BD2682FF1F2182FF1F2282FF1F1882FF1F08B501E0094B1B78094B1B7813F0200FF8D1FFF766
:401980002BFF0023064A1370064A1370064A1370FFF7F8FE08BD00BF53640040646500402282FF1F2682FF1F2182FF1F08B500F0AFFE0E4B1A7842F001021A701A7802F020
:4019C000FE021A7000F0A8FEFFF700FF0023084A1370084A1370084A1370084A137803F0FB031370FFF7C8FE08BD00BF936400402382FF1F2482FF1F2582FF1F83640040F5
:401A000070B506460C46002506E0705DFFF712FF0135EDB2013CE4B2002CF6D170BD00BF08B501E00A4B1B780A4B1B7813F0200FF8D100F06DFE084B1A7842F001021A7015
:401A40001A7802F0FE021A7000F066FE08BD00BF53640040646500409364004010B50F22184B1A70184C0823236007210320FFF7D3FC16490320FFF7BBFC04232360072143
:401A80000220FFF7C9FC12490220FFF7B1FCFFF7C7FF00240F4B1C700F4B1C700F4B1C700F4B1C700F4B1C700F4B1C70FFF79AFEFFF7ACFE0D4B1C70202203F201131A70FE
:401AC00010BD00BF8064004080E100E00D1B0000AD1B00002282FF1F2682FF1F2182FF1F2382FF1F2482FF1F2582FF1F8364004008B5054B1B7823B9FFF7B0FF0122024BB8
:401B00001A70FFF745FE08BD6E81FF1F28E01F4B19781F4A137803F009030B431370137813F0040F24D01B4B1B7813F0FF0F0CD1194A13780133DBB213701378DBB2072B51
:401B400006D90022144B1A7002E00022114B1A70114B1B78DBB2114AD35CDBB2104A13700D4B1A78D2B20F4B1B78DBB29A42CED1094B1A78D2B20B4B1B78DBB29A4204D12D
:401B8000094A137803F0FB0313707047636400402782FF1F2382FF1F2482FF1F2882FF1F436400402582FF1F83640040204B1A7820490B7803F0400313430B7032E01E4BC1
:401BC0001A78D2B21D490B780133DBB20B700B78DBB2072B02D90021184B1970174B1978C9B2174B1B78DBB299420ED114490B780133DBB20B700B78DBB2072B02D900217C
:401C00000F4B197001210F4B19700C4B1B78DBB20D49CA54064B1A7806490B7803F0400313430B70034B1B7813F0200FC7D17047646500402082FF1F536400402182FF1F32
:401C40002682FF1F2282FF1F1882FF1F054A137843F0040313701032137843F004031370704700BFA2430040014B1B681865704708ED00E04001C0B2014B1870704700BF93
:401C800004E400E01022014B1A60704700E100E01022014B1A60704780E100E010B50446FFF7F6FF2046FFF7DFFF0720FFF7E2FFFFF7E8FF10BD00BF044A137803F0FD0395
:401CC000400000F0020018431070704720510040024B1878C0F34000704700BF21510040084A137843F0010313701032137843F00103137002F64D32137843F0010313709D
:401D0000704700BFA3430040084A137803F0FE031370A2F65D32137803F0FE0313701032137803F0FE031370704700BF004F0040014B1870704700BF034F0040014B187889
:401D4000704700BF034F0040014B1880704700BF044F0040014B1880704700BF064F004008B5154A137803F0010313700232137803F0FC031370114B1A7802F0CF021A70EF
:401D80001A7842F030021A701A7802F0F0021A701A7842F00F021A70094A137843F0010313706320FFF7D0FF6320FFF7D3FF0820FFF7BEFF08BD00BF004F00400B4F004091
:401DC000014F004008B5054B1B7823B9FFF7C8FF0122024B1A70FFF783FF08BD6F81FF1F024B1B68C3F88400704700BF08ED00E04001C0B2014B1870704700BF11E400E0A9
:401E00004FF40032014B1A60704700BF00E100E04FF40032014B1A60704700BF80E100E010B50446FFF7F4FF2046FFF7D9FF0720FFF7DEFFFFF7E4FF10BD00BF084A1378D6
:401E400043F0020313701032137843F00203137002F65932137843F001031370704700BFA3430040084A137803F0FE031370A2F66932137803F0FD0313701032137803F073
:401E8000FD031370704700BF0C4F0040014B1870704700BF0F4F0040014B1878704700BF0F4F0040014B1880704700BF104F0040014B1880704700BF124F004008B5154AA6
:401EC000137803F0010313700232137803F0FC031370114B1A7802F0CF021A701A7842F030021A701A7802F0F0021A701A7842F00F021A70094A137843F0010313703120A6
:401F0000FFF7D0FF3120FFF7D3FF0820FFF7BEFF08BD00BF0C4F0040174F00400D4F004008B5054B1B7823B9FFF7C8FF0122024B1A70FFF783FF08BD7081FF1F024B1B6838
:401F4000C3F88800704700BF08ED00E04001C0B2014B1870704700BF12E400E04FF48022014B1A60704700BF00E100E04FF48022014B1A60704700BF80E100E010B50446AD
:401F8000FFF7F4FF2046FFF7D9FF0720FFF7DEFFFFF7E4FF10BD00BF014B1B685865704708ED00E04001C0B2014B1870704700BF05E400E02022014B1A60704700E100E047
:401FC0002022014B1A60704780E100E010B50446FFF7F6FF2046FFF7DFFF0720FFF7E2FFFFF7E8FF10BD00BF10B59DF80840012C51D1013809282ED8DFE800F0052D2D05CA
:402000002D2D0F192D230F2B03D92548007840B222E02448007840B21EE00F2B03D92248007840B218E02148007840B214E00F2B03D91F48007840B20EE01E48007840B2BD
:402040000AE00F2B03D91C48007840B204E01B48007840B200E0002001EB401101FB02F1C90B8AB20D2B0BD8C3F10E0289B211418AB2611E124800EB810101338B7005E0A3
:40208000631E0F4901EB83030F219970013C0C4B23F8242010BD0020FFF788F910BD00BF180100491C010049190100491D0100491A0100491E0100491B0100491F0100498D
:4020C0007481FF1FF8B5074600F022FB06460D4D2B7843F003032B700B4C237843F0030323700A4B1F700320FFF778F92B7803F0FC032B70237803F0FC032370304600F0C7
:402100000BFBF8BDF8460040F9460040925800400022324B1A7101285FD170B53822304B1A70042202331A70062201331A70002401331C7001331C703F2201331A700233F3
:402140001C7001331C7001331C7001250A331D70502203F527631A700A2201331A702C2201331A7001331C70442203331A70482201331A7001331D7002331D7011220133F7
:402180001A70192201331A70972201331A705220FFF798FF5822134B1A7001331C70052605331E70022201331A7001331C7001331C70204600F082F943F233320A4B1A6077
:4021C0002946304600F09EF92946252000F01EFA06491D20FFF70CF970BD70477481FF1F004E0040945800403082FF1F99240000F0B583B0284D01272F70284E002474715F
:40220000102000F06DF9102000F0EEF907211D20FFF702F90422224B1A7001331C7007331C70204A137843F0180313701E4B1C7003F2F5231C7001331C700A22A3F2093307
:402240001A7001331C7002331C705B2205331A705E2201331A7004331C701422A3F68C231A70009710234FF4004248F6F0510220FFF7BAFE2B78013B06EB83039A780B4BAF
:402280001A702B78013B36F82320094B1A802878FFF73EFF03B0F0BDE080FF1F7481FF1F96580040075B0040935800400E4E00400C4E004070B500F02BFA06462A4B1B78D3
:4022C0002A4B1A7842F001021A701A7842F010021A7010331A7842F001021A701A7842F010021A70224D2B7843F002032B70214C237843F0020323701F4A137843F00303DF
:4023000013700320FFF76AF82B7803F0FD032B70237803F0FD032370184A137843F0060313707A22164B1A70164A137843F0010313701032137843F0010313700F3A13781A
:4023400043F0010313701032137843F0010313704FF000530C4A1360A2F5C0721360304600F0DAF970BD00BFE080FF1FAA430040F8460040F9460040915800407758004080
:4023800082580040A143004080E200E008B5084B9B794BB9064BDB7913F0FF0F01D1FFF727FF0122024B9A71FFF784FF08BD00BF7481FF1F024A137843F0010313707047FE
:4023C000004E0040024A137803F0FE0313707047004E0040094B1B7913F0FF0F03D0074B5B79DBB203E0064B1B7803F00103012B01D00028EED01846704700BF7481FF1FB5
:40240000014E0040154B1B7803F00303012B07D8134B1888023B1B889BB243EA004013E0022B0AD10E4B1888023B1B7843EA00430C4A107843EA002006E00B4B188883B20E
:40244000074A108843EA0040084B1B7913F0FF0F02D00022054B5A71704700BF144E0040124E0040114E0040104E00407481FF1F10B5084A137843F004031370FFF79AFF09
:402480000020FFF7A7FFFFF7BDFF0446FFF79AFF204610BD014E0040704700BF10B5002404E02046FEF77CFB0134E4B2012CF8D9FF22014B1A7010BDE180FF1F10B50446E3
:4024C000FFF7ECFF2046FEF75DFB014B1C7010BDE180FF1F014B188880B2704780400040034B1A7800F0F80010431870704700BF82400040024B187800F00700704700BFEA
:402500008240004070B505460E46FFF7F3FF0446FFF7E0FFA84256D02B4B1B7803F0010294B900B185B938B9284B1D80284A137803F0BF03137070BD254A137843F04003B0
:402540001370224B1D8070BD22B3002321490B7001240F310C7004310B700C390B7803F07F030B701A4B1B7813F0080F00D08DB9194B18800721013B1970164B1B7813F073
:40258000010FFAD110490B7803F0FE030B700021104B19700C4B1B7813F0010F0DD00E4B1D800EB1032200E001220A4B1A70094B1B7813F0010FFAD170BD044B1D80024931
:4025C0000B7813430B7070BDA243004080400040824000400140004002400040014B188880B2704700410040034B1A7800F0F80010431870704700BF02410040024B187861
:4026000000F00700704700BF0241004070B505460E46FFF7F3FF0446FFF7E0FFA84256D02B4B1B7803F0010294B900B185B938B9284B1D80284A137803F0BF03137070BD31
:40264000254A137843F040031370224B1D8070BD22B3002321490B70012413310C7004390B7008390B7803F07F030B701A4B1B7813F0080F00D08DB9194B18800721013B7A
:402680001970164B1B7813F0010FFAD110490B7803F0FE030B700021104B19700C4B1B7813F0010F0DD00E4B1D800EB1032200E001220A4B1A70094B1B7813F0010FFAD114
:4026C00070BD044B1D8002490B7813430B7070BDA143004000410040024100400140004002400040044A137803F07F03C001C0B218431070704700BF005100400000000067
:402700000230800803D000BF01380046FCD17047EFF3108072B6704780F31088704700BF014B1868704700BF4481FF1F0E4B70B51E460E4C0025E41AA410A54204D056F837
:40274000253098470135F8E700F01AFE084B094C1E46E41AA4100025A54204D056F8253098470135F8E770BD8C3300008C3300008C3300009433000010B5431E0A4491425B
:4027800004D011F8014B03F8014FF8E710BD03460244934202D003F8011BFAE7704700000EB400B54FF402719CB0ADF814106FF00041049107914FF6FF711DAB0290069060
:4027C000084853F8042BADF81610006802A9019300F064F8029B00221A701CB05DF804EB03B070474481FF1F2DE9F0478E6882469E420C46914698463ED88A8912F4906F8B
:402800003AD02568096902236F1A656905EB450595FBF3F57B1C43449D4238BF1D4653050FD5294600F040FB064698B13A462169FFF7A2FFA38923F4906343F08003A381EE
:4028400013E02A4600F08EFB064670B92169504600F0DEFA0C23CAF80030A3894FF0FF3043F04003A381BDE8F08726613E44266046466561ED1BA560464528BF4646494633
:402880003246206800F0A8FAA36800209B1BA36023681E442660BDE8F08700002DE9F04F9DB003938B8980461C060D4616460DD50B695BB9402100F0F7FA2860286118B9A2
:4028C0000C23C8F80030CDE040236B610023099320238DF82930DFF89CB130238DF82A3037463C4614F8013B1BB9B7EB060910D003E0252BF9D02746F3E74B463246294640
:402900004046FFF771FF013000F0A780099B4B4409933B78002B00F0A08000234FF0FF3204930793059206938DF853301A930126052221784E4800F041FA671C049B38B14A
:402940004B4A3C46801A06FA00F018430490EFE7D90644BF20228DF853201A0744BF2B228DF8532022782A2A03D0079A00210A200BE0039A111D12680391002A10DA524253
:4029800043F00200079204900BE027463B780134303B092B03D800FB02320121F5E701B107923B782E2B1ED17B782A2B0AD1039B02371A1D1B680392002BB8BF4FF0FF332C
:4029C000059310E0002319460593781C0A2407463A780130303A092A03D804FB01210123F5E703B1059103223978224800F0E6F940B14023CBEB000003FA00F0049B013783
:402A000018430490397806221B487E1C8DF8281000F0D4F988B1194B33B9039B073323F007030833039314E003AB00932A46144B04A94046AFF3008007E003AB00932A4617
:402A40000F4B04A9404600F093F8B0F1FF3F824603D0099B5344099342E7AB895B0601D4099801E04FF0FF301DB0BDE8F08F00BF4A33000050330000543300000000000043
:402A8000E92700002DE9F04791461F460A698B6806469342B8BF1346C9F8003091F843200C46DDF8208012B10133C9F800302368990642BFD9F800300233C9F800302568BB
:402AC00015F0060510D104F1190A07E00123524639463046C04701301AD00135E368D9F800209B1A9D42F1DB94F843302268003318BF012392060FD5E118302081F8430009
:402B00005A1C94F845102244023382F8431003E04FF0FF30BDE8F08704F1430239463046C0470130F4D02268D9F80050E36802F00602042A08BF5D1B2269A3680CBF25EA71
:402B4000E57500259342C4BF9B1AED184FF000091A344D4509D00123224639463046C0470130D5D009F10109F3E70020BDE8F0872DE9F04317460A7E85B06E2A9846064626
:402B80000C460C9B01F1430E00F0AE8011D8632A22D009D8002A00F0BB80582A40F0CA8081F84520834955E0642A1ED0692A1CD0C0E0732A00F0B08009D86F2A2ED0702AD8
:402BC00040F0B8800A6842F020020A603EE0752A24D0782A3AD0ADE01A6801F14205111D1960136884F84230A8E021681A6811F0800F02D0111D196008E011F0400F02F1C1
:402C00000401196002D0B2F9003000E01368002B3CDA2D225B4284F8432037E021681A6811F0800F02D0111D196007E011F0400F02F10401196001D0138800E01368227EC8
:402C40005C496F2A14BF0A2208221BE078225A4984F845202268186812F0800F00F104051D6003D1550601D5038800E00368D00744BF42F0200222601BB9226822F02002A5
:402C800022601022002084F8430001E049490A226568002DA56008DB206820F0040020602BB9002D7DD175460CE0002B79D07546B3FBF2F002FB1033CB5C05F8013D034634
:402CC0000028F5D1082A0BD12368DA0708D5236962689A42DEBF302305F8013C05F1FF35C5EB0E0323612EE008681A6810F0800F496903D0101D1860136808E010F0400F59
:402D000002F104001860136801D0198000E0196000232361754616E01A68111D1960156800216268284600F049F808B1401B6060636804E004F1420584F842200123236119
:402D4000002384F84330CDF800803B4603AA21463046FFF797FE013002D14FF0FF3026E023692A4639463046C0470130F5D023689B0710D5002504F1190907E001234A4617
:402D800039463046C0470130E7D00135E368039A9B1A9D42F2DBE068039B9842B8BF184605E00B7804F1420584F842308AE705B0BDE8F0835B3300006C33000010B5C9B2DE
:402DC00002449042034605D01C7801308C42F8D1184610BD002010BD884210B501EB020301D8421E0BE09842FBD28118D21AD34204D013F8014D01F8014DF8E710BD994249
:402E000004D011F8014B02F8014FF8E710BD000038B50546002944D051F8043C0C1F002BB8BFE41800F0D4F81E4A1368114613B96360146030E0A3420DD92268A0188342D1
:402E400001BF18685B681218226063600C6023E0A24203D813465A68002AF9D118681918A1420BD12168014458188242196013D110685268014419605A600DE002D90C2333
:402E80002B6009E021686018824201BF106852680918216062605C602846BDE8384000F098B838BD8481FF1F70B5CD1C25F0030508350C2D38BF0C25002D064601DBA942DB
:402EC00002D90C23336046E000F082F8234B1C681A462146A1B10B685B1B0ED40B2B03D90B60CC18CD501EE08C420BBF63684B681360636018BF0C4615E00C464968E9E716
:402F0000174C23681BB9304600F052F820602946304600F04DF8431C18D0C41C24F00304A0420DD12560304600F053F804F10B00231D20F00700C31A0ED05A42E25070BD40
:402F4000211A304600F034F80130EBD10C233360304600F03EF8002070BD00BF8481FF1F8081FF1FF8B5074615460E4621B91146BDE8F840FFF798BF1AB9FFF749FF284668
:402F8000F8BD00F027F885420ED929463846FFF78BFF044650B131462A46FFF7EDFB31463846FFF735FF01E03046F8BD2046F8BD38B5064C0023054608462360FDF7A4FEC8
:402FC000431C02D1236803B12B6038BD3482FF1F7047704751F8040C0028BEBF091851F8043CC01804387047000000000F00E0FF020100005E5E5E5E5E5E5E5E2046696E0D
:40300000616C2050726F6A6563743A204E6F656D6920476F7A7A692C204C6F72656E7A6F204672616E63696F6C69205E5E5E5E5E5E5E5E0D0A0A00002A2A2A2A2A2A2A2ADA
:403040002A2A2A2A2A2A2A2A205445535420454550524F4D20616E64204C495333444820434F4E46494755524154494F4E2A2A2A2A2A2A2A2A2A2A2A2A2A2A2A2A2A2A2A88
:40308000200D0A0A00000000202D2D3E20454550524F4D20546573742052656164203D2025642025642025642C206578706563746564203135202D3332203235380D0A0AC5
:4030C00000000000202D2D3E204C49533344482057484F204920414D205245474953544552203D203078253032580D0A00000000202D2D3E204C4953334448204354524CB8
:4031000020524547495354455220313D203078253032580D0A000000202D2D3E204C4953334448204354524C20524547495354455220343D203078253032580D0A00000016
:40314000202D2D3E204C4953334448204354524C20524547495354455220353D203078253032580D0A000000202D2D3E204C4953334448204649464F204354524C205245D7
:403180004749535445522028425950415353206D6F646529203D203078253032580D0A00202D2D3E204C4953334448204649464F204354524C205245474953544552202839
:4031C0004649464F206D6F646529203D203078253032580D0A000000202D2D3E204C4953334448204354524C20524547495354455220333D203078253032580D0A000000FB
:40320000202D2D3E204C495333444820494E542031204346472052454749535445523D203078253032580D0A00000000202D2D3E204C495333444820494E54312054485379
:403240002052454749535445523D203078253032580D0A00202D2D3E204C4953334448204455524154494F4E2052454749535445523D203078253032580D0A005448524516
:403280005348203078253032580D0A0077617465726D61726B200D0A000000005245442076616C75653A2025642C20475245454E2076616C75653A2025642C20424C554564
:4032C0002076616C75653A202564200D0A000000035B00402443004040000000004F00401800405100403000F05100401000000001408002000301408003000701400009DE
:4033000000140140800000150140000700400140000A004C01400002005001402000000060520040D4070048060080020140DC0700488000800601405C0800488000801480
:403340000140DC08004880004300232D302B2000686C4C0065666745464700303132333435363738394142434445460030313233343536373839616263646566000000002A
:40338000F8B500BFF8BC08BC9E4670474D000000850D0000F8B500BFF8BC08BC9E46704729000000B8330000C880FF1F80000000F000000000000000000000003882FF1F6E
:4033C0000000E02EC05D00001800000000366E0101FF000000000000000000000000000000000000000000000000000000000000000000004833000000000000000000006A
:4034000000000000000000000000000000000000000000000000000000000000000000000000000000000000000000000000000000000000E480FF1F00000000000000000A
:40344000000000000000000000000000000000000000000000000000000000000000000000000000000000000000000000000000000000000000000000000000000000004C
:40348000000000000000000000000000000000000000000000000000000000000000000000000000000000000000000000000000000000000000000000000000000000000C
:4034C00000000000000000000000000000000000000000000000000000000000000000000000000000000000000000000000000000000000000000000000000000000000CC
:40350000000000000000000000000000000000000000000000000000000000000000000000000000000000000000000000000000000000000000000000000000000000008B
:020000040003F7
:0200000480007A
:4000000001450040044F00400352004005640040026500405C000140390101402C0201404C0301404F04014044050140200601404907014001090140010B01401614014092
:400040004A1501405F1601404B1701400418014007190140031B0140074001400E4101400E4201400943014002440140044501400646014004470140124801400B490140DA
:40008000064C01400A4D01400550014002510140640101500A360D601636004018A01920800F810F840F850D860F85728638004001FC0303041105980622070209020B98A9
:4000C0000C420D9A0E081002120D1462161419131B641C8D1D9A208D2102248D253827C0288D29212BD82C0D2D982E802F02300F31E0330F3480351336703A823B0A3E10F2
:4001000056025724580459045B045C225D205F018001840787018A048F01A208A407B002B201B408B501B604BF10C030C105C5D5C642C701C83FC9FFCAFFCBFFCDA0CF0450
:40014000D018D280D407D804D904DA04DB04DC04DD44DF01E040E2C0E440E540E6C0E8C0EAC0ECC0EEC0000401820519080809080A41102211111690180219A01A401C085A
:400180001D111E281F802004210922142708280929022A082C032F0132103340388239143C083D083F8045044D084F81561457415C405E205F096308682269156B407040C8
:4001C00072017680C07DC20DC43FCA0FCC0CCE5FD040D210D6F0D804110E14071505173A1B101C012007212323042A042D042F393201333034043602370F39804020410326
:4002000045D04621481E49FF4AFF4BFF4DA04F045018580459045A045C245D045F01604062C06440654066C068C06AC06CC06EC0018808080C080E0110101680171019482A
:400240001B041E011F28200421022310272129802A192D802E02301031023214334034083721388039143B02408842024620471049A64F0152515304540856A059145A4011
:400280005B0261406202670C812082128302878088088A068D409080911492289302944099A09A0C9B409D02A204A381A704AD01AE08C005C2A4C454CA9FCCEFCE0FD06D30
:4002C000D20CD60FD809E630019D0404059D063A091D0B800D9D12201407151116181722180719021A281B0D1C201D8D1F10202021E223182420282029422B942C032D80BE
:400300002E342F40343E350F360137F03A203BE03E4056025724580459045B045C115D105F0181C183228401880789A78B4893809760994A9A049B859C079D0CA208A7106A
:40034000AB10B001B101B202B3E0B408B510B604B70EB982BF10D280D405D804D904DB04DC14DD40DF0100040504060408040A550E080F021028110112021680180419404C
:400380001C401D041F602002221025012688270829202A022B022E202F203004325035223688388039153C023E1243305F496004682869156AC07040720176808D01935506
:4003C000944095809A649F10A204A301A804A912AA40AF68B080B102B720C064C2CFC41FCA6DCCFECEAFD6D0D804E210EE3002020B010E021C0127013202340137013E14FB
:400400003F404021410445E0460C470B481649FF4AFF4BFF4EF04F44500C5401580459045A045B045D335F0166C06A406B0201010202068007020A550C010E820F02102896
:40044000120119201A941E081F0420402140221826402F2032983D20400441014210444046024720480149264A024F025225530255405608578059055A805B105C205E0AE5
:400480005F806140634085018B408C408F129101924193949580961499409A409D22A029A602A702B208C099C28FC407CA40CC0ECE20D0B7D20CD6FFD809E260E602EE80D0
:4004C000E602EA2000120101020514091501160619011C041E18241F281F30033101361C54405604580459045B045C335D205F0101020440050A0604071008080A010E29B4
:400500000F601028172519021A031C441D801E201F0A23402514260127102D082E022F0930283592370438023C403D043E203F02459047044D804F60568057205C046240CA
:4005400063946C29751076267721834089048A018C088E048F0193149A409B049C089E80A301A514A601A72AAA04AB01AD80C0F8C2F5C476CAF0CCF6CEF1D070D230D6402B
:40058000D80FE8080113020C030406080720082C0A430C800D030E130F141308152019131B0C1C711E0E2315250A2714287129202A062F2030C031103230330F340F3720D7
:4005C000380A39803A203B283E043F014003464049FF4A074BFF4C404D204EF04F0550085418580459045A045B045C335D335F01604061A8624063208005832085148A01B7
:400600008D0C8F71920593039510960297AC99DC9B229C05A109A3D0A405A805A910AB40AC08B002B11FB201B404B608B7E0BB80BE54D440D604D804D904DB04DC33DD10C5
:40064000DF01010102040511062208080A410C400D40102813401720180419841B011D191F102002214022012340260827A629012A202E022F1A31103209350137243980AD
:400680003A0A3C023D88450856225E02610462216301640167088E0191019241931C940498019A4C9C409E829FA2A028A140A220A510A720A804A901AE80B020B3C0C0FA4F
:4006C000C28DC447CAF5CCE7CEDBD040D680D83FE209E640EC10EE88B9A2BF51D904DF0120022102230881028708EC10EE08B001E240E80831203302364037013880CCF07E
:40070000CE1032106001640184088B018C4094809F01A520A640A702CC10D6C0E610534057088F08930896209808A520A640A702AF04B001B401D460EE108A408E10930863
:4007400096209808A520A640A702B3407C08DE01000801109C08C00A450291109C08B004D001EA04848091109C08A502270467806B20832087408D20930898089A409F0497
:40078000A520A702B240B704C820D880DA40E2905808664067088302930898089A40A702D6C0D880E22008809C88AD10B502C202EC08128074028E80A002AC02B008C408E8
:4007C000DE04E202E801009E08140A9A100E1A0E00FF010F848C0000400000000004008002840D00008000041984060000010000150A0A10000700380084000000600000AC
:4008000013040C000000008000560009007F0F800008100000020800000040142501600004CEDDBF3FFFFFFF2200F008040000000900040004040404222200010000C000C2
:4008400040011011C001001140014001000000000000000000000000000000007200000000000000000000002300D8002200500063018C0481047403720000080000000079
:40088000720000005000220022000000800160021F08000420000000000001006503200004BEF0CD3BFFFFFF2200F00C040000000900040004040404711100010000C00042
:4008C00040011011C00100114001400100000000000000000000000000000000020020048CC04300041800008F1C40E100804300C3FF0C0001082000030010E308100000DD
:40090000CF3C00C20CE70018004400004CC00F1F8038300000000A0800005000650302000100CE000CFFFFFF62A0F0410C000000000002120404040433330001000000000B
:400940000000400200103010001010120000000000000000000000000000000000E0E000600000008400508C8C008C00000000008000408B8B00000000000000140001161A
:40098000120000000000000000E0E000E00008002500180100000000000000000000000000000000000000000000000000000000000000000000000000000000000000003F
:4009C00000000000000000000000000000000000000000000000000000000000000000000000000000000000000000000000000000000000000000000000000000000000F7
:400A000000000000000000000000000000000000000000000000000000000000000000000000000000000000000000000000000000000000000000000000000000000000B6
:400A40000000000000000000000000000000000000000000000000000000000000000000000000000000000000000000000000000000000000000000000000000000000076
:400A80000000000000000000000000000000000000000000000000000000000000000000000000000000000000000000000000000000000000000000000000000000000036
:0200000490006A
:0400000000004005B7
:0200000490105A
:04000000BC90ACAF55
:0200000490303A
:0200000071B3DA
:0200000490402A
:4000000000000000000000000000000000000000000000000000000000000000000000000000000000000000000000000000000000000000000000000000000000000000C0
:400040000000000000000000000000000000000000000000000000000000000000000000000000000000000000000000000000000000000000000000000000000000000080
:400080000000000000000000000000000000000000000000000000000000000000000000000000000000000000000000000000000000000000000000000000000000000040
:4000C0000000000000000000000000000000000000000000000000000000000000000000000000000000000000000000000000000000000000000000000000000000000000
:0200000490501A
:0C00000000012E16106900012E2B821C3E
:00000001FF