:400000000080002011000000990900009909000008B5044B1A6803F53F5302331A6000F0DBFC00BFFA46004010B5054C237833B9044B13B10448AFF300800123237010BD5C
:400040004881FF1F0000000018210000084B10B51BB108490848AFF300800848036803B910BD074B002BFBD0BDE81040184700BF000000004C81FF1F18210000C880FF1F90
:40008000000000002DE9F04786B062B601F030F800F0B6FE01F00EFB00F048FA0A2000F0ADFFB34801F03EF8B24B186804909B88ADF81430062204A9012000F067FA00F080
:4000C00093FA062202A9012000F04EFABDF90820BDF90A30BDF90C10A74C0091A749204601F0F6FB204601F01DF8A54801F01AF80F2000F0C5F90246A249204601F0E8FB45
:40010000204601F00FF82721202000F0CFF9202000F0B6F902469C49204601F0D9FB204601F000F80021232000F0C0F9232000F0A7F902469549204601F0CAFB204600F023
:40014000F1FF4021242000F0B1F9242000F098F902468F49204601F0BBFB204600F0E2FF00212E2000F0A2F92E2000F089F9894D02462946204601F0ABFB204600F0D2FFBC
:4001800047212E2000F092F92E2000F079F902462946204601F09CFB204600F0C3FF4421222000F083F9222000F06AF902467A49204601F08DFB204600F0B4FF2A2130206B
:4001C00000F074F9302000F05BF902467349204601F07EFB204600F0A5FF5C21322000F065F9322000F04CF902466D49204601F06FFB204600F096FF0321332000F056F93C
:40020000332000F03DF902466649204601F060FB204600F087FF0025634B1D70634800F0CFFE2F462E46604B1B78DBB2012BFAD1312000F025F910F0400F09D04E4C0246E4
:400240005B49204601F044FB204600F06BFF83E0494C584B07CB20606160A2601B782373204600F05FFF4FF000081CE0524C06222146282000F02EF92378627843EA022361
:4002800005EBA3152DB2A378E27843EA022306EBA31636B22379627943EA022307EBA3131FB208F10108B8F1060FDFDD434B83FB05122A44ED17C5EBA2052DB283FB06123F
:4002C0003244F617C6EBA20636B283FB0723DA19FB17C3EBA2031FB2E90009B2F20012B2FB001BB2C1EB0121354880FB01E4C917C1EB2424002CB8BF6442E4B2C2EB022218
:4003000080FB0218D217C2EB2828B8F1000FB8BFC8F100085FFA88F8C3EB032380FB0329DB17C3EB2929B9F1000FB8BFC9F100095FFA89F9DFF840A0CDF800904346224641
:400340002049504601F0C4FA504600F0EBFE4A464146204600F0F0F80021134B19702E2000F0A4F847212E2000F0A0F85BE700BF242100001C2100008081FF1F4C210000DC
:400380006C21000094210000BC210000E0210000042200002822000050220000742200009C220000C4220000E481FF1FF5040000EC220000FC2200007881FF1F93244992B0
:4003C000D34D62100C2300002DE9F04383B006460C4617469846002000F0C0FD64B2002511E02146082CA8BF0821C9B206EBC50000F090FC00F080FB10F0010FFAD0083C8D
:4004000064B201356DB2002CEBDC00F093FC00F037FC0026009601964FFA88F820E0C146B8F1080FA8BF4FF008095FFA89F1684600F070FC00F060FB10F0010FFAD00024FC
:4004400006E004EBC60500F0E9FB78550134E4B24C45F6DBA8F108084FFA88F8013676B2B8F1000FDBDC012000F078FD00F062FC00F006FC00F024FC03B0BDE8F08300BF6E
:4004800000B583B000F03F0060F07F008DF8040002AA002302F8053D0123194601A8FFF793FF9DF8030003B05DF804FB00B583B000F03F008DF804008DF80510002302AA66
:4004C00002F8053D022101A8FFF77EFF03B05DF804FB00BF00B583B040F0C00302A800F8043D13460A460121FFF76EFF03B05DF804FB00BF08B50122024B1A7000F03AFD2B
:4005000008BD00BFE481FF1F08B5C043C0B200F03DFE08BD08B5C043C0B200F03DFE08BD08B5C043C0B200F0A7FE08BD08B500F081FE00F0EBFE08BD38B50D461446FFF78A
:40054000E3FF2846FFF7E6FF2046FFF7E9FF38BD08B5052000F066F808BD00BF08B5062000F04AF808BD00BF10B582B003248DF80440030A8DF805308DF8060013460A46E8
:40058000214601A800F068F802B010BD2DE9F04182B000AF054688461446FFF7DFFF012000F042FDE61C04F10A0323F00703ADEB030D02238DF800302B0A8DF801308DF88A
:4005C0000250224641460DF1030001F06DF9002307F1080202F8013DF1B2684600F03CF80837BD46BDE8F08108B5FFF7B1FF10F0010FFAD108BD00BF10B50446002000F057
:4006000093FE204600F0FAFE00F0D0FE10F0080FFAD000F05DFF0446012000F085FE204610BD00BF10B50446002000F07DFE204600F0E4FE002000F0E1FE00F0B7FE10F0BA
:40064000010FFAD000F044FF00F042FF0446012000F06AFE204610BD2DE9F04383B006460C4617469846002000F05EFE64B2002511E02146082CA8BF0821C9B206EBC500FD
:4006800000F0A2FF00F092FE10F0010FFAD0083C64B201356DB2002CEBDC00F0A5FF00F049FF0026009601964FFA88F820E0C146B8F1080FA8BF4FF008095FFA89F16846C6
:4006C00000F082FF00F072FE10F0010FFAD0002406E004EBC60500F0FBFE78550134E4B24C45F6DBA8F108084FFA88F8013676B2B8F1000FDBDC012000F016FE00F074FFE0
:4007000000F018FF00F036FF03B0BDE8F08300BFFEE700BFF0B40022174611E050F82760F3B226F0FF0608E001EB420511F812406D78A5550132013BDBB2002BF4D1013743
:400740001D2FEBD9F0BC7047064B1B78DBB203F00701054A11701B09013213704422034B1A707047CF0100496E5800407658004008B50A46002101F0A2F808BD38B50B2236
:400780002B4B1A8018232B490B7002310A802A4A13703321023211800232137040F2AF4102321180023213700222244B1A7008224FF040231A70032103F500731970204BE7
:4007C0001B78DBB21F490B701F4B1A8041F25122023B1A80002419250CE01C4B1B7803F0010343EA440404F003044FF4F07001F01FF8013D0DB1032CEFD115B90320FFF749
:4008000087FF134B4FF480721A8007221A70002210490A704820023108701A700222033B1A700D4A137843F00F03137038BD00BF80400040824000408640004000430040EB
:4008400008010049A146004022420040254200400440004006400040A243004008B501F023F808BD38B572B6384A137843F00403137000240CE0364D630019194A0011464F
:400880002A44084691882858FFF772FF0134E4B2082CF0D900240CE02D48A20011194B000344B3F84020D96B986BFFF7D7FF0134E4B2022CF0D927494FF09040FFF72AFF53
:4008C000254A137843F0020313701032137843F002031370214C237843F040032370A2F58632513A137843F01003137008221C491C48FFF7B3FF0A221B491C48FFF7AEFF4A
:4009000008221B491B48FFF7A9FF0A221A491B48FFF7A4FF08221A491A48FFF79FFF1A4A137843F008031370184D61232B70FFF725FF81232B700122154B1A70FFF704FF87
:400940000E2221461348FFF789FF38BDE8460040402300007800004803500140A043004084080048025100408C080048C05100409808004812510040A0080048205100400A
:40098000AC08004832510040224300400048004004000840B043004008B500F059FF03680C2B00D1FEE7FEE708B5094B1A681044084BC31A802B02DC054B186005E000F04D
:4009C00047FF0C2303604FF0FF32104608BD00BFCC80FF1F2082FF1F08B5104E104D16E029686B68AC68002204E051F8040B43F8040B0432A242F8D1E868002203E00021C4
:400A000043F8041B04328242F9D11035013E002EE6D100F023FFFFF735FBFEE701000000F023000008B5104A104B1A60104A136843F40073136000230AE0032B03D80D4AB3
:400A400052F8231000E00C490C4A42F8231001332F2BF2D90A4B1A780A4B1A70074A0A4B1A60FFF7FFFE08BD0004FA050CED00E014ED00E000000000990900000080FF1F0D
:400A8000BC760040C080FF1F08ED00E00222014B1A60704700E100E00122014B1A60704700E100E008B500F0CBFE0C4A137843F020031370013A137843F0100313700232DB
:400AC000137843F01003137000F0BEFE00F086FAFFF7DCFFFFF7E0FF08BD00BF966500400222014B1A60704780E100E00122014B1A60704780E100E010B5FFF7F1FF064B62
:400B00001C78064A137803F009031C4300231370FFF7BCFF204610BD65650040E881FF1F10B5FFF7E3FF064B1B78064A147804F040041C4300231370FFF7AEFF204610BD5D
:400B400067650040F981FF1F10B504462B4B1A7802F0FF0312B1013BDBB200E00723284A1278D2B29342F1D0FFF7BAFF254B1978254A137803F009030B4313701F4B1A78A4
:400B8000D2B21F4B1B78DBB29A4207D11E4B1B7813F0040F02D01D4B1C702CE0184A13780133DBB213701378DBB2072B02D90022134B1A70124B1A78D2B2104B1B78DBB241
:400BC0009A420ED10D4A13780133DBB213701378DBB2072B02D90022084B1A7001220C4B1A70074B1B78DBB20A4AD4540A4A137843F004031370FFF749FF10BDFA81FF1FBE
:400C0000F881FF1F65650040E881FF1F46650040F481FF1FEC81FF1F8565004010B5FFF765FF134B1A78D2B2124B1B78DBB29A4214D0114B1B7813F0FF0F0CD10C4A1378CB
:400C40000133DBB213701378DBB2072B06D90022074B1A7002E00022074B1A70044B1B78DBB2064AD45CE4B2FFF716FF204610BDF781FF1FF581FF1FF681FF1FFC81FF1F0C
:400C800008B501E0094B1B78094B1B7813F0200FF8D1FFF72BFF0023064A1370064A1370064A1370FFF7F8FE08BD00BF5665004067650040F681FF1FF781FF1FF581FF1FDB
:400CC00008B500F0BDFD0E4B1A7842F001021A701A7802F0FE021A7000F0B6FDFFF700FF0023084A1370084A1370084A1370084A137803F0FB031370FFF7C8FE08BD00BF0A
:400D000096650040F481FF1FFA81FF1FF881FF1F8565004070B506460C46002506E0705DFFF712FF0135EDB2013CE4B2002CF6D170BD00BF08B501E00A4B1B780A4B1B78F4
:400D400013F0200FF8D100F07BFD084B1A7842F001021A701A7802F0FE021A7000F074FD08BD00BF56650040676500409665004010B50F22174B1A70174C02232360072122
:400D8000012000F06FF91549012000F057F9012323600721002000F065F91149002000F04DF9FFF7C7FF00240E4B1C700E4B1C700E4B1C700E4B1C700E4B1C700E4B1C70D0
:400DC000FFF79AFEFFF7ACFE0C4B1C70202202331A7010BD8665004080E100E01D0E0000BD0E0000F681FF1FF781FF1FF581FF1FF481FF1FFA81FF1FF881FF1F8565004006
:400E000008B5054B1B7823B9FFF7B2FF0122024B1A70FFF747FE08BD6481FF1F28E01F4B19781F4A137803F009030B431370137813F0040F24D01B4B1B7813F0FF0F0CD14F
:400E4000194A13780133DBB213701378DBB2072B06D90022144B1A7002E00022114B1A70114B1B78DBB2114AD35CDBB2104A13700D4B1A78D2B20F4B1B78DBB29A42CED14F
:400E8000094B1A78D2B20B4B1B78DBB29A4204D1094A137803F0FB031370704765650040E881FF1FF481FF1FFA81FF1FEC81FF1F46650040F881FF1F85650040204B1A78A7
:400EC00020490B7803F0400313430B7032E01E4B1A78D2B21D490B780133DBB20B700B78DBB2072B02D90021184B1970174B1978C9B2174B1B78DBB299420ED114490B7895
:400F00000133DBB20B700B78DBB2072B02D900210F4B197001210F4B19700C4B1B78DBB20D49CA54064B1A7806490B7803F0400313430B70034B1B7813F0200FC7D1704746
:400F400067650040F981FF1F56650040F581FF1FF781FF1FF681FF1FFC81FF1F044A137803F0F703C00000F00800184310707047C0510040024B1878C0F30010704700BF01
:400F80008C450040014B1B68D866704708ED00E04001C0B2014B1870704700BF0BE400E04FF40062014B1A60704700BF00E100E04FF40062014B1A60704700BF80E100E0F7
:400FC00010B50446FFF7F4FF2046FFF7DBFF0720FFF7DEFFFFF7E4FF10BD00BF054A137843F0010313701032137843F001031370704700BFA243004001BE704710B5044629
:4010000005E0084B186800F013FCA4F50044B4F5004FF6D8034B586800FB04F000F008FC10BD00BFD080FF1F08B5034B1B7A00FB03F000F0FDFB08BDD080FF1F70B5044653
:401040000E46074B1D681F2802D90020FFF7D4FF04F01F04103455F8240045F8246070BD08ED00E038B504460D46072902D90020FFF7C2FF1F2C02D90020FFF7BDFF04F053
:401080001F0000F1604000F564406D01EDB2057038BD00BF7222074B1A70202205331A700622673B1A70472210331A70002250331A7070478264004010B500F0C1FB0446EC
:4010C0000A4A137843F0200313700532137843F010031370073A137843F01003137000F033F8204600F0B0FB10BD00BF9264004008B5054B1B7823B9FFF7CCFF0122024B8D
:401100001A70FFF7D9FF08BD6581FF1F034B1B7813F0040FFAD1024B18707047606400404364004038B5074B1B782BB938BDFFF7EDFF0134A4B201E005460024285D002840
:40114000F5D138BD6581FF1F054A137843F0040313701032137843F004031370704700BFA2430040024A137843F080031370704774640040014B1870704700BF0465004022
:40118000014B1870704700BF44650040014B1870704700BF24650040014B1870704700BF34650040014B1870704700BF84650040014B1878704700BF64650040014B18781C
:4011C000704700BF5465004008B501E0FFF7F6FFFFF7EEFF10F0100FF8D108BD10B5134A137803F0C00343F009031370104C237843F001032370FF20FFF7BCFFFF20FFF79C
:40120000BFFFFF20FFF7C2FFFF20FFF7C5FF0020FFF7C8FF00F014FB237843F01003237000F012FBFFF7D0FF10BD00BF746400409465004008B5054B1B7823B9FFF7CEFF13
:401240000122024B1A70FFF78DFF08BD6781FF1F024A137843F080031370704775640040014B1870704700BF04640040014B1870704700BF44640040014B1870704700BFD9
:4012800024640040014B1870704700BF84640040014B1878704700BF64640040014B1878704700BF5464004008B501E0FFF7F6FFFFF7EEFF10F0100FF8D108BD10B5114A17
:4012C000137803F0C00343F0090313700E4C237843F001032370FF20FFF7C2FFFF20FFF7C5FF0020FFF7C8FF0020FFF7CBFF00F0A7FA237843F01003237000F0A5FAFFF736
:40130000D3FF10BD756400409464004008B5054B1B7823B9FFF7D2FF0122024B1A70FFF797FF08BD6881FF1F044A137803F0EF03000100F010001843107070472051004026
:401340000822014B1A60704700E100E00422014B1A60704700E100E008B500F071FA0C4A137843F020031370053A137843F0100313700232137843F01003137000F064FA66
:4013800000F046FAFFF7DCFFFFF7E0FF08BD00BF966400400822014B1A60704780E100E00422014B1A60704780E100E010B5FFF7F1FF064B1C78064A137803F009031C4304
:4013C00000231370FFF7BCFF204610BD616400401382FF1F10B5FFF7E3FF064B1B78064A147804F040041C4300231370FFF7AEFF204610BD636400400C82FF1F10B5044679
:401400002B4B1A7802F0FF0312B1013BDBB200E00723284A1278D2B29342F1D0FFF7BAFF254B1978254A137803F009030B4313701F4B1A78D2B21F4B1B78DBB29A4207D1CC
:401440001E4B1B7813F0040F02D01D4B1C702CE0184A13780133DBB213701378DBB2072B02D90022134B1A70124B1A78D2B2104B1B78DBB29A420ED10D4A13780133DBB2DC
:4014800013701378DBB2072B02D90022084B1A7001220C4B1A70074B1B78DBB20A4AD4540A4A137843F004031370FFF749FF10BD1082FF1F1182FF1F616400401382FF1FD3
:4014C000466400400F82FF1F1482FF1F8164004010B5FFF765FF134B1A78D2B2124B1B78DBB29A4214D0114B1B7813F0FF0F0CD10C4A13780133DBB213701378DBB2072B5E
:4015000006D90022074B1A7002E00022074B1A70044B1B78DBB2064AD45CE4B2FFF716FF204610BD1282FF1F0D82FF1F0E82FF1F0482FF1F08B501E0094B1B78094B1B780E
:4015400013F0200FF8D1FFF72BFF0023064A1370064A1370064A1370FFF7F8FE08BD00BF56640040636400400E82FF1F1282FF1F0D82FF1F08B500F063F90E4B1A7842F010
:4015800001021A701A7802F0FE021A7000F05CF9FFF700FF0023084A1370084A1370084A1370084A137803F0FB031370FFF7C8FE08BD00BF966400400F82FF1F1082FF1F8A
:4015C0001182FF1F8164004070B506460C46002506E0705DFFF712FF0135EDB2013CE4B2002CF6D170BD00BF08B501E00A4B1B780A4B1B7813F0200FF8D100F021F9084B26
:401600001A7842F001021A701A7802F0FE021A7000F01AF908BD00BF56640040636400409664004010B50F22174B1A70174C0823236007210320FFF715FD15490320FFF7CC
:40164000FDFC0423236007210220FFF70BFD11490220FFF7F3FCFFF7C7FF00240E4B1C700E4B1C700E4B1C700E4B1C700E4B1C700E4B1C70FFF79AFEFFF7ACFE0C4B1C70CF
:40168000202202331A7010BD8664004080E100E0D1160000711700000E82FF1F1282FF1F0D82FF1F0F82FF1F1082FF1F1182FF1F8164004008B5054B1B7823B9FFF7B2FF1D
:4016C0000122024B1A70FFF747FE08BD6981FF1F28E01F4B19781F4A137803F009030B431370137813F0040F24D01B4B1B7813F0FF0F0CD1194A13780133DBB213701378E8
:40170000DBB2072B06D90022144B1A7002E00022114B1A70114B1B78DBB2114AD35CDBB2104A13700D4B1A78D2B20F4B1B78DBB29A42CED1094B1A78D2B20B4B1B78DBB263
:401740009A4204D1094A137803F0FB0313707047616400401382FF1F0F82FF1F1082FF1F1482FF1F466400401182FF1F81640040204B1A7820490B7803F0400313430B7034
:4017800032E01E4B1A78D2B21D490B780133DBB20B700B78DBB2072B02D90021184B1970174B1978C9B2174B1B78DBB299420ED114490B780133DBB20B700B78DBB2072B41
:4017C00002D900210F4B197001210F4B19700C4B1B78DBB20D49CA54064B1A7806490B7803F0400313430B70034B1B7813F0200FC7D17047636400400C82FF1F566400404F
:401800000D82FF1F1282FF1F0E82FF1F0482FF1F054A137843F0020313701032137843F002031370704700BFA2430040000000000230800803D000BF01380046FCD17047F0
:40184000EFF3108072B6704780F31088704700BF014B1868704700BF4081FF1F0E4B70B51E460E4C0025E41AA410A54204D056F8253098470135F8E700F0A8FD084B094CD3
:401880001E46E41AA4100025A54204D056F8253098470135F8E770BDD8230000D8230000D8230000E023000010B5431E0A44914204D011F8014B03F8014FF8E710BD0346CA
:4018C0000244934202D003F8011BFAE7704700000EB400B54FF402719CB0ADF814106FF00041049107914FF6FF711DAB02900690084853F8042BADF81610006802A901935C
:4019000000F064F8029B00221A701CB05DF804EB03B070474081FF1F2DE9F0478E6882469E420C46914698463ED88A8912F4906F3AD02568096902236F1A656905EB4505DA
:4019400095FBF3F57B1C43449D4238BF1D4653050FD5294600F040FB064698B13A462169FFF7A2FFA38923F4906343F08003A38113E02A4600F08EFB064670B9216950460B
:4019800000F0DEFA0C23CAF80030A3894FF0FF3043F04003A381BDE8F08726613E44266046466561ED1BA560464528BF464649463246206800F0A8FAA36800209B1BA360FD
:4019C00023681E442660BDE8F08700002DE9F04F9DB003938B8980461C060D4616460DD50B695BB9402100F0F7FA2860286118B90C23C8F80030CDE040236B61002309932D
:401A000020238DF82930DFF89CB130238DF82A3037463C4614F8013B1BB9B7EB060910D003E0252BF9D02746F3E74B46324629464046FFF771FF013000F0A780099B4B4461
:401A400009933B78002B00F0A08000234FF0FF3204930793059206938DF853301A930126052221784E4800F041FA671C049B38B14B4A3C46801A06FA00F018430490EFE71A
:401A8000D90644BF20228DF853201A0744BF2B228DF8532022782A2A03D0079A00210A200BE0039A111D12680391002A10DA524243F00200079204900BE027463B780134E6
:401AC000303B092B03D800FB02320121F5E701B107923B782E2B1ED17B782A2B0AD1039B02371A1D1B680392002BB8BF4FF0FF33059310E0002319460593781C0A240746EC
:401B00003A780130303A092A03D804FB01210123F5E703B1059103223978224800F0E6F940B14023CBEB000003FA00F0049B013718430490397806221B487E1C8DF8281080
:401B400000F0D4F988B1194B33B9039B073323F007030833039314E003AB00932A46144B04A94046AFF3008007E003AB00932A460F4B04A9404600F093F8B0F1FF3F8246B9
:401B800003D0099B5344099342E7AB895B0601D4099801E04FF0FF301DB0BDE8F08F00BF982300009E230000A223000000000000191900002DE9F04791461F460A698B68E6
:401BC00006469342B8BF1346C9F8003091F843200C46DDF8208012B10133C9F800302368990642BFD9F800300233C9F80030256815F0060510D104F1190A07E001235246DD
:401C000039463046C04701301AD00135E368D9F800209B1A9D42F1DB94F843302268003318BF012392060FD5E118302081F843005A1C94F845102244023382F8431003E0E1
:401C40004FF0FF30BDE8F08704F1430239463046C0470130F4D02268D9F80050E36802F00602042A08BF5D1B2269A3680CBF25EAE57500259342C4BF9B1AED184FF0000909
:401C80001A344D4509D00123224639463046C0470130D5D009F10109F3E70020BDE8F0872DE9F04317460A7E85B06E2A984606460C460C9B01F1430E00F0AE8011D8632AFE
:401CC00022D009D8002A00F0BB80582A40F0CA8081F84520834955E0642A1ED0692A1CD0C0E0732A00F0B08009D86F2A2ED0702A40F0B8800A6842F020020A603EE0752A22
:401D000024D0782A3AD0ADE01A6801F14205111D1960136884F84230A8E021681A6811F0800F02D0111D196008E011F0400F02F10401196002D0B2F9003000E01368002B33
:401D40003CDA2D225B4284F8432037E021681A6811F0800F02D0111D196007E011F0400F02F10401196001D0138800E01368227E5C496F2A14BF0A2208221BE078225A49A9
:401D800084F845202268186812F0800F00F104051D6003D1550601D5038800E00368D00744BF42F0200222601BB9226822F0200222601022002084F8430001E049490A22E1
:401DC0006568002DA56008DB206820F0040020602BB9002D7DD175460CE0002B79D07546B3FBF2F002FB1033CB5C05F8013D03460028F5D1082A0BD12368DA0708D5236964
:401E000062689A42DEBF302305F8013C05F1FF35C5EB0E0323612EE008681A6810F0800F496903D0101D1860136808E010F0400F02F104001860136801D0198000E019604B
:401E400000232361754616E01A68111D1960156800216268284600F049F808B1401B6060636804E004F1420584F8422001232361002384F84330CDF800803B4603AA2146A9
:401E80003046FFF797FE013002D14FF0FF3026E023692A4639463046C0470130F5D023689B0710D5002504F1190907E001234A4639463046C0470130E7D00135E368039AD0
:401EC0009B1A9D42F2DBE068039B9842B8BF184605E00B7804F1420584F842308AE705B0BDE8F083A9230000BA23000010B5C9B202449042034605D01C7801308C42F8D1A1
:401F0000184610BD002010BD884210B501EB020301D8421E0BE09842FBD28118D21AD34204D013F8014D01F8014DF8E710BD994204D011F8014B02F8014FF8E710BD00008A
:401F400038B50546002944D051F8043C0C1F002BB8BFE41800F0D4F81E4A1368114613B96360146030E0A3420DD92268A018834201BF18685B681218226063600C6023E0DE
:401F8000A24203D813465A68002AF9D118681918A1420BD12168014458188242196013D110685268014419605A600DE002D90C232B6009E021686018824201BF10685268B8
:401FC0000918216062605C602846BDE8384000F098B838BD7081FF1F70B5CD1C25F0030508350C2D38BF0C25002D064601DBA94202D90C23336046E000F082F8234B1C68CA
:402000001A462146A1B10B685B1B0ED40B2B03D90B60CC18CD501EE08C420BBF63684B681360636018BF0C4615E00C464968E9E7174C23681BB9304600F052F820602946A2
:40204000304600F04DF8431C18D0C41C24F00304A0420DD12560304600F053F804F10B00231D20F00700C31A0ED05A42E25070BD211A304600F034F80130EBD10C233360F4
:40208000304600F03EF8002070BD00BF7081FF1F6C81FF1FF8B5074615460E4621B91146BDE8F840FFF798BF1AB9FFF749FF2846F8BD00F027F885420ED929463846FFF786
:4020C0008BFF044650B131462A46FFF7EDFB31463846FFF735FF01E03046F8BD2046F8BD38B5064C0023054608462360FEF75CFC431C02D1236803B12B6038BD1C82FF1F88
:402100007047704751F8040C0028BEBF091851F8043CC01804387047000000000F00E0FF020100002A2A2A2A2A2A2A2A2A20202020454550524F4D2054455354202020202B
:402140002A2A2A2A2A2A2A2A2A0D0A002A2A20454550524F4D2052656164203D202564202564202564200D0A000000002A2A2A2A2A2A2A2A2A2A2A2A2A2A2A2A2A2A2A2A1F
:402180002A2A2A2A2A2A2A2A2A2A2A2A2A2A2A2A2A0D0A002A2A204C49533344482057484F204920414D205245474953544552203D203078253032580D0A00002A2A204C9E
:4021C0004953334448204354524C20524547495354455220313D203078253032580D0A002A2A204C4953334448204354524C20524547495354455220343D20307825303289
:40220000580D0A002A2A204C4953334448204354524C20524547495354455220353D203078253032580D0A002A2A204C4953334448204649464F204354524C2052454749EF
:4022400053544552203D203078253032580D0A002A2A204C4953334448204354524C20524547495354455220333D203078253032580D0A002A2A204C495333444820494EF0
:40228000542031204346472052454749535445523D203078253032580D0A00002A2A204C495333444820494E5431205448532052454749535445523D203078253032580D2D
:4022C0000A0000002A2A204C4953334448204455524154494F4E2052454749535445523D203078253032580D0A000000544852455348203078253032580D0A007761746576
:40230000726D61726B200D0A000000005245442076616C75653A2025642C20475245454E2076616C75653A2025642C20424C55452076616C75653A202564200D0A000000A6
:40234000405100403000F0510040100000000140000680060140800900140140000280160140800500400140000A004C014000020050014020000000605200407C070048F9
:40238000060000060140840700488000001601400408004880004300232D302B2000686C4C006566674546470030313233343536373839414243444546003031323334354F
:4023C000363738396162636465660000F8B500BFF8BC08BC9E4670474D000000250A0000F8B500BFF8BC08BC9E4670472900000000240000C880FF1F80000000D800000025
:40240000000000002082FF1F0000E02EC05D00001800000000366E01000000000000000000000000000000000000000000000000000000000000000096230000000000003B
:402440000000000000000000000000000000000000000000000000000000000000000000000000000000000000000000000000000000000000000000E080FF1F00000000DE
:40248000000000000000000000000000000000000000000000000000000000000000000000000000000000000000000000000000000000000000000000000000000000001C
:4024C00000000000000000000000000000000000000000000000000000000000000000000000000000000000000000000000000000000000000000000000000000000000DC
:40250000000000000000000000000000000000000000000000000000000000000000000000000000000000000000000000000000000000000000000000000000000000009B
:40254000000000000000000000000000000000000000000000000000000000000000000000000000000000000000000000000000000000000000000000000000000000005B
:020000040003F7
:0200000480007A
:40000000014500400452004005640040026500405E0001403A0101404D020140490301406B0401404B050140120601404807014001090140561401404815014010160140F7
:400040003E170140021B014005400140084101400A420140054301400245014001460140034701400548014013490140094D0140055001400151014064010060012018A042
:400080001920800F8272840D860F8738840F860F0014041C056C060207030A030B130C100D310F0E1009121014101531160C17461F4C23082C0C2E11314A321F3330350F7A
:4000C00039083B223F044003454049FF4A074BFF4C404D204EF04F0550085401580459045A045B045C225D225F01604061A862406320848D85288751888D8C028D4D8E0DED
:400100008F109411954D9622973098409C8D9F20A00DA280A462A502A614A754A842A90CAA08AB50AC8DB270B33CB480B540B60FB703B980BA88BB08BE10BF10D409D60459
:40014000D804D904DB04DC21DD10DF01009402440428054009080A800C200E020F20120215101601170518101D501F0820442104220225082684270829122A202D202F14DC
:40018000310832C03684384439203C4441044840490251105310580259A05A085E515F046401674079107B08824083108740C0EFC2ECC4F1CA61CC5ACE5ED002D6FFD89090
:4001C0000001038004330580060C0704083F09070B380D04101C1104122313801402150A1710180319841C1F1D011E202160222324042584280C29562B092C082D84317F30
:4002000032103308340F3580362C370239023AA03E043F5456025711580459045B045C125D205F019901B301BA20BF04C032C104C6EBC70CC81CC9FFCAFFCBFFCEF0CF446B
:40024000D00CD440D604D804D904DA04DB04DC02DD12DF01E6C0EA40EB020404051206100D010E191682172819301C141E012204261027522C802F293220341036083745D2
:4002800038083A093B023DA03E083F22404041184A014B405260530458015B025C1060A0630A6D547602772884A0861088108B408C028E209040912094289608970C9A2446
:4002C0009C039E419F15A108A308A420A601A710A980AB08AE21B420B610C070C2F0C4F0CAF0CCF4CEF0D007D620D80F02020601070E08010B021202160419081E012401C6
:400300002A042F01300431023301340235043601370838803E114060410345D14702481349FF4AFF4BFF4DA04F04501852805405580459045A045B045C325D335F016040F8
:4003400062C06440654066C068C06AC06CC06EC080228251890E8B3091089334944495149631972B98019A0E9B01A4E7A8E7A924AB1BAC80B080B260B303B407B618B73CE5
:40038000BB80BE40C034C106C205C401C50CC7E0C821C9FFCAFFCBFFCC62CDA0CEF0CF41D00CD280D804D904DA04DB04DC12DD32DF01E640E702E910EA30EB10ED10EE10FF
:4003C000EF12000801200380050209090A010E181210131014801554170218041B821D821E1821012260231027122A402F083220360837123B183D204108458246904901B3
:400400004B184DA851085501580459015A80734076408310840487028C019154920394289610970499209A369B289D029E819F01A308A4A4A550A60DA725AB40AE01AF08B2
:40044000B004B101C01EC26DC4E6CA28CCE4CE26D0D2D234D60BE040890E8D048F0992019505970A99039B04B001B30FB908D418D804D904DB04DC13DD20DF010480052228
:4004800006100B400D010E19168217281B021C281D012010255026A827102C202D802F80322836803715381039403D603E04451046604D404E014F1454A0570559016006B8
:4004C00064806C146E066FA575807601840485018B1090069213934094289704988099289AB69B289D029E019F01A204A4B4A550A609A725AC10AD81C0F0C2F8C4F0CAD0BC
:40050000CCF6CE7CD0E0D230D601D88CE68002010D041B0723082F09300131013308350437023F044040410145D546024701481749FF4AFF4BFF4DA04F045018540758046B
:4005400059045A045B045C325D335F01604062C06440654066C068C06AC06CC06EC08083822C840285D9861D88238A948D088E508F0491D8930195D19708988199249A3A53
:400580009B499C509D209FD0A050A1D9A450A52EA781A850A911AB22ADD9B020B240B30FB41FB680B7F0B880BA20BB8CBE05D409D604D804D904DB04DF0101020404051042
:4005C000064007010C200E091680171618801C061D0C1E401F1021422214268C2B822C242E81322035103680370539803D803E04438249014A20538459415A285E425F1480
:400600006481808081028401880489028A408B088D048E019205931494809728980199509A409B179D02A140A30AA508A608A904B080B310B540C0F8C2C0C470CAF9CCF40C
:40064000CE58D009D6FFD890E220840185018E049A07B204B402B601B701BF40D440D604D804D904DB04DC03DF01032204040640070A0B080C800F20175519401B281C0465
:400680001D361F012140250426A12D082F013510360937083A043C203D09452A46404C014D014E084F0454805540571560406104630A67206E056F55770278017A80804282
:4006C00082209002948099089A049C029D02A010A302AE48C0F5C2A2C4F0CA50CCE0CEE2D0E0D230D84FE280EC10338837428702CCF0E6405F02662087089F40A788D680F8
:40070000D880E640010282208D029E209F40A780AB02C010E220EE8098109F40A780AC10EE400240C0089A408A409A40E601838098109F40A780E6205B045F0264107101F2
:400740007502834485028B02981099019F40A901D6C0D880DC80DE20E280E690EA201040721088409210B610C408DC01E201EC08000E08060A0E100D1A0D00FF01800000B8
:400780004000000044000000E7981802FF13006400FC04033C98C20280020098C02100D81C38E1C0009AE3000802000018000000109A0000C000380F1F1300E00000208839
:4007C0000000000045023000060ECBDF3DFFFFFF2200F008040000000000022C04040404121100010000C00040011011C00100114001400100000000000000000000000094
:400800000000000063000C200100741823005880F2000000000600000070800900550022220000002200D000D0002280F2000000F26B0014600780381F8000402002000030
:40084000000004502604300005BEDCDF3FFFFFFF2200F00C040000000000022804040404000000010000C00040011011C0010011400140010000000000000000000000003D
:400880000000000000606000600000008900548B8B00830000000000000B0B000000000010000110100000000000000000E0E000E0000000000000000000000000000000BB
:4008C00000000000000000000000000000000000000000000000000000000000000000000000000000000000000000000000000000000000000000000000000000000000F8
:4009000000000000000000000000000000000000000000000000000000000000000000000000000000000000000000000000000000000000000000000000000000000000B7
:400940000000000000000000000000000000000000000000000000000000000000000000000000000000000000000000000000000000000000000000000000000000000077
:400980000000000000000000000000000000000000000000000000000000000000000000000000000000000000000000000000000000000000000000000000000000000037
:0200000490006A
:0400000000004005B7
:0200000490105A
:04000000BC90ACAF55
:0200000490303A
:020000000B0CE7
:0200000490402A
:4000000000000000000000000000000000000000000000000000000000000000000000000000000000000000000000000000000000000000000000000000000000000000C0
:400040000000000000000000000000000000000000000000000000000000000000000000000000000000000000000000000000000000000000000000000000000000000080
:400080000000000000000000000000000000000000000000000000000000000000000000000000000000000000000000000000000000000000000000000000000000000040
:4000C0000000000000000000000000000000000000000000000000000000000000000000000000000000000000000000000000000000000000000000000000000000000000
:0200000490501A
:0C00000000012E16106900012E261B7551
:00000001FF